:020000040000FA
:04000000FEEFFFF020
:10F6D400008502B932F8851BB93EF8851CB94AF891
:10F6E400851BB956F88587B962F8BE6EF88488A47C
:10F6F40087841C851B861C861BA4886689B0D288D7
:10F7040010CF60000101010000303032353830F98B
:10F71400818180F80063666666E6638CFC8C887081
:10F7240000C061636666C6C6C6F8C6F800C120306C
:10F73400181819181818187E00F961616161F90028
:10F744000000000000F88080E080F8FFFFFFFFFF6A
:10F75400FFA50C0AAD82022A291785818580858040
:10F76400858085808580EA60AD80024A4A4A858129
:10F77400858085808580858085808580EA60FFFF1F
:10F78400FFFFFFFFFFFFFFFFFFFFFFFFFFFFFFFF85
:10F79400FFFFFFFFFFFFFFFFFFFFFFFFFFFFFFFF75
:10F7A400FFFFFFFFFFFFFFFFFFFFFFFFFFFFFFFF65
:10F7B400FFFFFFFFFFFFFFFFFFFFFFFFFFFFFFFF55
:10F7C400FFFFFFFFFFFFFFFFFFFFFFFFFFFFFFFF45
:10F7D400FFFFFFFFFFFFFFFFFFFFFFFFFFFFFFFF35
:10F7E400FFFFFFFFFFFFFFFFFFFFFFFFFFFFFFFF25
:10F7F400FFFFFFFFFFFFFFFFFFFFFFFFFFFFFFFF15
:10F80400FFFFFFFFFFFFFFFFFFFFFFFFFFFFFFFF04
:10F81400FFFFFFFFFFFFFFFFFFFFFFFFFF851985CE
:10F824008086208621A9F3851BA9CF851CA9FB8589
:10F834001BA9EFA2BFA042851CA9368506861BA979
:10F84400EE85078406841CA9B68506A972850785FA
:10F854002AA200A200A900A280851986208621A9D7
:10F86400E7851BA99F851CA9FD851BA9F7A2DFA01D
:10F87400F2851CA9F88506861BA9AC850784068435
:10F884001CA9D88506A9628507A900A200A200A226
:10F8940000852A4C4CF9FFFFFFFFFFFFFFFFFFFF2E
:10F8A400FFFFFFFFFFFFFFFFFFFFFFFFFFFFFFFF64
:10F8B400FFFFFFFFFFFFFFFFFFFFFFFFFFFFFFFF54
:10F8C400FFFFFFFFFFFFFFFFFFFFFFFFFFFFFFFF44
:10F8D400FF78D8A2FF9AA9009500CAD0FBA9808519
:10F8E40082A9FB8583A90185258526A9038504852D
:10F8F400058502A2048580CAD0FB85808510851108
:10F90400A9D08520A9E085218502852AA5846A6A73
:10F9140085068507A95585892000FBB0EFA90085D8
:10F92400098D81028D8302A9068504A9028505A992
:10F9340000850285804C80FAFFFFFFFFFFFFFFFF79
:10F94400FFFFFFFFFFFFFFFFFFFFFFFFFFFFFFFFC3
:10F95400FF8519A900851B851C851B851C85808551
:10F96400808580A9008510EA8511A9D08520A9C0C9
:10F974008521A9008502852A85808519A000A21CFD
:10F9840020D4FAA9028500A20320D4FAA900850094
:10F99400A9028501A22520D4FAA20086012080F8BC
:10F9A400A9004C4CF9B1828502858085808519A512
:10F9B40081F005C681AD8014C8CAD0E960FFFFFF9D
:10F9C400FFFFFFFFFFFFFFFFFFFFFFFFFFFFFFFF43
:10F9D400FFA21E2052FBA9028500A2032052FBA90C
:10F9E400008500A9028501A2252052FBA9008501FA
:10F9F400C684A5848585A0FFA21E2058FBA23620BC
:10FA040052FBA00B2000F8A900851B851C851B85D3
:10FA14001CA2362052FBA5848585A001A21E205875
:10FA2400FB3860A9008585A000848618A5856586B5
:10FA3400858585028509CAD0F260FFFFFFFFFFFFBD
:10FA4400FFFFFFFFFFFFFFFFFFFFFFFFFFFFFFFFC2
:10FA5400FFFFFFFFFFFFFFFFFFFFFFFFFFFFFFFFB2
:10FA6400FFFFFFFFFFFFFFFFFFFFFFFFFFFFFFFFA2
:10FA7400FFFFFFFFFFFFFFFFFFFFFFFFFFFFFFFF92
:10FA8400FFFFFFFFFFFFFFFFFFFFFFFFFFFFFFFF82
:10FA9400FFFFFFFFFFFFFFFFFFFFFFFFFFFFFFFF72
:10FAA400FFFFFFFFFFFFFFFFFFFFFFFFFFFFFFFF62
:10FAB400FFFFFFFFFFFFFFFFFFFFFFFFFFFFFFFF52
:10FAC400FFFFFFFFFFFFFFFFFFFFFF00FA00FA0049
:10FAD400FA00000000000000010203040506070804
:10FAE400090A0B0C0D0E0F0F0F0F0FF7DF7EFBE053
:10FAF40003EFBFFDF71450420A200228A18514F732
:10FB0400DF7EFBE003EFBFFDF70000000000000014
:10FB1400000000F7DF7EFBE003EFBFFDF7F4504287
:10FB24000A200328A18514F7DF7EFBE003EFBFFD65
:10FB3400F700000000000000000000F7DF7EFBE09B
:10FB440003EFBFFDF7F750420A2003E8A18514F73D
:10FB5400DF7EFBE003EFBFFDF700000000000000C4
:10FB6400000000F7DF7EFBE003EFBFFDF7F7D042B4
:10FB74000A2003EFA18514F7DF7EFBE003EFBFFD4E
:10FB8400F700000000000000000000F7DF7EFBE04B
:10FB940003EFBFFDF7F7DF420A2003EFA18514F757
:10FBA400DF7EFBE003EFBFFDF70000000000000074
:10FBB400000000F7DF7EFBE003EFBFFDF7F7DF4255
:10FBC4000A2003EFBF8514F7DF7EFBE003EFBFFDE0
:10FBD400F700000000000000000000F7DF7EFBE0FB
:10FBE40003EFBFFDF7F7DF7E0A2003EFBF8514F7AD
:10FBF400DF7EFBE003EFBFFDF70000000000000024
:10FC0400000000F7DF7EFBE003EFBFFDF7F7DF7EC8
:10FC14000A2003EFBFFD14F7DF7EFBE003EFBFFD17
:10FC2400F700000000000000000000F7DF7EFBE0AA
:10FC340003EFBFFDF7F7DF7EFA2003EFBFFD14F7F4
:10FC4400DF7EFBE003EFBFFDF700000000000000D3
:10FC5400000000F7DF7EFBE003EFBFFDF7F7DF7E78
:10FC6400FB2003EFBFFDF4F7DF7EFBE003EFBFFDF6
:10FC7400F700000000000000000000F7DF7EFBE05A
:10FC840003EFBFFDF7F7DF7EFBE003EFBFFDF7F700
:10FC9400DF7EFBE003EFBFFDF70000000000000083
:10FCA400000000000000000003EFBFFDF7F7DF7E57
:10FCB400FBE00228A185141450420A2003EFBFFD83
:10FCC400F7F7DF7EFBE0000000000000000000000A
:10FCD40003EFBFFDF7F7DF7EFBE00328A18514F4F3
:10FCE40050420A2003EFBFFDF7F7DF7EFBE0000080
:10FCF400000000000000000003EFBFFDF7F7DF7E07
:10FD0400FBE003E8A18514F750420A2003EFBFFD8E
:10FD1400F7F7DF7EFBE000000000000000000000B9
:10FD240003EFBFFDF7F7DF7EFBE003EFA18514F7D8
:10FD3400D0420A2003EFBFFDF7F7DF7EFBE00000AF
:10FD4400000000000000000003EFBFFDF7F7DF7EB6
:10FD5400FBE003EFA18514F7DF420A2003EFBFFDA8
:10FD6400F7F7DF7EFBE00000000000000000000069
:10FD740003EFBFFDF7F7DF7EFBE003EFBF8514F76A
:10FD8400DF420A2003EFBFFDF7F7DF7EFBE0000050
:10FD9400000000000000000003EFBFFDF7F7DF7E66
:10FDA400FBE003EFBF8514F7DF7E0A2003EFBFFDFE
:10FDB400F7F7DF7EFBE00000000000000000000019
:10FDC40003EFBFFDF7F7DF7EFBE003EFBFFD14F7A2
:10FDD400DF7E0A2003EFBFFDF7F7DF7EFBE00000C4
:10FDE400000000000000000003EFBFFDF7F7DF7E16
:10FDF400FBE003EFBFFD14F7DF7EFA2003EFBFFD46
:10FE0400F7F7DF7EFBE000000000000000000000C8
:10FE140003EFBFFDF7F7DF7EFBE003EFBFFDF4F771
:10FE2400DF7EFB2003EFBFFDF7F7DF7EFBE0000082
:10FE3400000000000000000003EFBFFDF7F7DF7EC5
:10FE4400FBE003EFBFFDF7F7DF7EFBE003EFBFFD51
:10FE5400F7F7DF7EFBE00000000000000000000078
:10FE6400000000000061E0637000008EC00EC0332B
:10FE740070637000001CC00FC03B3063F000001CB6
:10FE8400C00FC01E7063B000000EC00DC00EE03E77
:10FE9400300000000000000000000000000000002E
:10FEA40000000000000000C7C00EFE717063700007
:10FEB400008CC00EC0333063F000001CC00FFE1F66
:10FEC4003063F000000CC00FC01E7077B000000754
:10FED400FC0CFE0000000000000000000007FC7E97
:10FEE40063000071300C60068CC060000061310C4E
:10FEF4006007F8DFE0000071310C60069CC360000D
:10FF04000071300C60078E7F60000000000000006C
:10FF1400000000000000000000000000000000E1FC
:10FF2400300CFC068CE760000071300C60068CC05D
:10FF3400600000E1310F600698C360000031300CAE
:10FF440060068CE7600000E1300C600000000000F7
:10FF5400010306090C0E0F0F0F0F0F000000000025
:10FF6400020406090B0D0F0F0F0F0F000000000114
:10FF7400030507080A0C0E0F0F0F0F000000010302
:10FF8400040507080A0B0C0E0F0F0F0001020304EF
:10FF940005060708090A0B0C0D0E0F0102030405E0
:10FFA40005060708090A0A0B0C0D0E0303040505D0
:10FFB4000607070809090A0B0B0C0D0404050506BE
:10FFC400060707080809090A0A0B0B0505060606B1
:10FFD4000707070808080909090A0A0606070707A0
:10FFE400070707080808080808090908080808088E
:0CFFF400080808080808080808080800A9
:020000040001F9
:10000000000E016E000E026E6F00D8FE37F0000E7B
:10001000B66E1F04D8A40FEF80F011EF80F025EF2B
:1000200080F037501E0BFF0A1E0B406E1C5040180C
:10003000D8A41DEF80F01FEF80F021EF80F040C0CA
:100040001EF040C01CF037EF80F03750170BFF0A4E
:10005000170B416E1B504118D8A431EF80F033EFDD
:1000600080F035EF80F041C01DF041C01BF01E5004
:10007000100B436E1E50080B446E1E50020B386E60
:100080001E50040B396E1D50100B356E1D50010BA8
:100090003A6E1D50040B3B6E1D50020B366E010E66
:1000A0003F6E35C018F0000E3C6E000E3D6E3650AF
:1000B000D8B45DEF80F05FEF80F06EEF80F0010E5E
:1000C0000001766F000E776F000E786F000E796F6B
:1000D000010E5D6E010E3C6EC7EF82F059C042F01A
:1000E0003850D8B476EF80F078EF80F08FEF80F062
:1000F0001150D8A47EEF80F080EF80F08FEF80F079
:100100005950D8A486EF80F088EF80F08CEF80F013
:10011000020E596EADEF80F05906ADEF80F0395008
:10012000D8B495EF80F097EF80F0ADEF80F01250EB
:10013000D8A49DEF80F09FEF80F0ADEF80F0020E2D
:100140005918D8A4A6EF80F0A8EF80F0ACEF80F0AB
:10015000000E596EADEF80F0592A4450D8A4B3EF89
:1001600080F0B5EF80F0BDEF80F04350D8B4BBEF26
:1001700080F0BDEF80F0C0EF80F01A2AC4EF80F06D
:10018000000E1A6E010E586E1AA8C9EF80F0CBEF60
:1001900080F045EF81F0000E1A6E4450D8A4D3EFE2
:1001A00080F0D5EF80F0DDEF80F04350D8B4DBEF86
:1001B00080F0DDEF80F045EF81F0020E5918D8A4F1
:1001C000E4EF80F0E6EF80F0F5EF80F0010E3C6E9A
:1001D000040E582658BEF1EF80F0EFEF80F045EFA7
:1001E00081F0FC0E582645EF81F05950D8A4FBEF62
:1001F00080F0FDEF80F01DEF81F0010E3D6E445068
:10020000D8B405EF81F007EF81F012EF81F05B5079
:10021000D8B40DEF81F00FEF81F045EF81F05B0670
:1002200045EF81F05B2A0A0E5B6419EF81F01BEF4A
:1002300081F045EF81F00FEF81F05904D8A423EF4E
:1002400081F025EF81F045EF81F0010E3D6E4450C5
:10025000D8B42DEF81F02FEF81F03AEF81F05A50B2
:10026000D8B435EF81F037EF81F045EF81F05A06D1
:1002700045EF81F05A2A0A0E5A6441EF81F043EFAC
:1002800081F045EF81F037EF81F03B50D8B44BEF70
:1002900081F04DEF81F062EF81F05750D8A453EF19
:1002A00081F055EF81F062EF81F0010E3C6EA70EF8
:1002B00000017627FD0E7723FF0E7823FF0E7923AA
:1002C000C7EF82F03A50D8B468EF81F06AEF81F05E
:1002D000C5EF81F01550D8A470EF81F072EF81F076
:1002E000C5EF81F05D50D8B478EF81F07BEF81F0FD
:1002F000010E7CEF81F0000E5D6EC5EF81F0000E07
:100300003E6E000E0001846F000E856F000E826F3E
:10031000000E836F59504218D8B491EF81F093EFDB
:1003200081F0D4EF81F0010E3C6ED4EF81F05AC021
:100330003EF0D70E0001846FFE0E856F130E826FA4
:10034000FF0E836F59504218D8B4A9EF81F0ABEF7C
:1003500081F0D4EF81F0010E3D6ED4EF81F05BC0EF
:100360003EF05F0E0001846FFE0E856F9B0E826F64
:10037000FE0E836F59504218D8B4C1EF81F0C3EF1D
:1003800081F0D4EF81F0ABEF81F05950000AD8B47E
:10039000AFEF81F0010AD8B497EF81F0030AD8B427
:1003A0007FEF81F0D4EF81F03C50D8B4DAEF81F0E8
:1003B000DCEF81F0E2EF81F0B40E166E000E176EE6
:1003C000EEEF81F03D50D8B4E8EF81F0EAEF81F034
:1003D000EEEF81F0B40E176E000E166E3E50280D33
:1003E000EF0EF3240001806FFA0EF420816F3E506F
:1003F000280DA70EF3247E6FFC0EF4207F6F5D5056
:10040000D8B405EF82F007EF82F017EF82F05B506F
:10041000020D600EF324D96E000EF420DA6E6F0028
:1004200078FF03F06F0074FF04F01BEF82F060C0F0
:1004300003F061C004F05D50D8A421EF82F023EFF7
:1004400082F07AEF82F0020E5918D8A42AEF82F0D7
:100450002CEF82F067EF82F04350D8B432EF82F095
:1004600034EF82F040EF82F01450D8A43AEF82F0DB
:100470003CEF82F040EF82F0030E3F6E9EEF82F081
:100480004450D8B446EF82F048EF82F054EF82F047
:100490001350D8A44EEF82F050EF82F054EF82F068
:1004A000FD0E3F6E9EEF82F076B159EF82F05BEF6A
:1004B00082F061EF82F0000E326E010E316E63EF5A
:1004C00082F03168326831C03FF09EEF82F076B141
:1004D0006CEF82F06EEF82F074EF82F0000E346EFB
:1004E000010E336E76EF82F03368346833C03FF02C
:1004F0009EEF82F0020E5918D8A481EF82F083EFAC
:1005000082F09CEF82F04350D8B489EF82F08BEFF9
:1005100082F08FEF82F058C03FF09EEF82F044509F
:10052000D8B495EF82F097EF82F09EEF82F05850AA
:1005300000083F6E9EEF82F0010E3F6E3F502D6E21
:10054000000E2DBEFF0E2E6E2F6E306E2D507627B4
:100550002E5077232F5078233050792379BFBDEF69
:1005600082F079517811771106E17605D8B0BBEFAA
:1005700082F0BDEF82F0C7EF82F0010E766F000EC1
:10058000776F000E786F000E796F010E586E3AC0CB
:1005900015F03BC057F043C014F044C013F039C00D
:1005A00012F038C011F012002F6EBD50F80B030985
:1005B000BD6E600037F0D9FF60003BF0DAFFDF501E
:1005C000106E0D4A0E2A105003242D6E000E0420CA
:1005D0002E6E6000B7F0F6FF6000BBF0F7FF000E74
:1005E000F86E08006F00D4FF10F0050EBA6E6000C0
:1005F00043F0BCFFBE94BE8401500210D8B403EF98
:1006000083F005EF83F015EF83F0600007F0F6FF4D
:1006100060000BF0F7FF000EF86E08006F00D4FFCB
:1006200010F0014A022A1FEF83F060002FF0D9FF7B
:10063000600033F0DAFFDF50106E0B4A0C2A0F0E09
:10064000BA6E600043F0BCFFBE94BE84015002103D
:10065000D8B42DEF83F02FEF83F03FEF83F06000ED
:1006600007F0F6FF60000BF0F7FF000EF86E0800D1
:100670006F00D4FF10F0014A022A49EF83F06000B6
:100680002FF0D9FF600033F0DAFFDF50106E0B4A15
:100690000C2A130EBA6E600043F0BCFFBE94BE84F9
:1006A00001500210D8B457EF83F059EF83F069EF8F
:1006B00083F0600007F0F6FF60000BF0F7FF000E1C
:1006C000F86E08006F00D4FF10F0014A022A73EFA1
:1006D00083F060002FF0D9FF600033F0DAFFDF50C5
:1006E000106E0B4A0C2A170EBA6E600043F0BCFF66
:1006F000BE94BE8401500210D8B481EF83F083EF22
:1007000083F093EF83F0600007F0F6FF60000BF0DA
:10071000F7FF000EF86E08006F00D4FF10F0014ADA
:10072000022A9DEF83F060002FF0D9FF600033F0C4
:10073000DAFFDF50106E0B4A0C2A1B0EBA6E6000F7
:1007400043F0BCFFBE94BE8401500210D8B4ABEF9E
:1007500083F0ADEF83F0BDEF83F0600007F0F6FFAC
:1007600060000BF0F7FF000EF86E08006F00D4FF7A
:1007700010F0014A022AC7EF83F060002FF0D9FF82
:10078000600033F0DAFFDF50106E0B4A0C2A1D0EAA
:10079000BA6E600043F0BCFFBE94BE8460001FF0E0
:1007A000D9FF600023F0DAFFDF500F6E074A082AF6
:1007B0000FC010F00F0E10165A501026D50E102430
:1007C000F66EF76AFA0EF722F86A000EF8220800B1
:1007D0006F00D4FF10F0F00E0F160F5010121950CA
:1007E000D8B4F5EF83F0F7EF83F0F9EF83F019C099
:1007F00010F01850D8B4FFEF83F001EF84F003EF4E
:1008000084F00F0E10161F0EBA6E600043F0BCFF8E
:10081000BE94BE8460001FF0D9FF600023F0DAFFB1
:10082000DF500F6E074A082A0FC010F00F0E101687
:100830005A501026D50E1024F66EF76AFA0EF722DB
:10084000F86A000EF82208006F00D4FF10F0F00ED6
:100850000F160F5010121950D8B431EF84F033EF47
:1008600084F035EF84F019C010F01850D8B43BEF85
:1008700084F03DEF84F03FEF84F00F0E1016230E4E
:10088000BA6E600043F0BCFFBE94BE8460001FF0EF
:10089000D9FF600023F0DAFFDF500F6E074A082A05
:1008A0000FC010F00F0E10165A501026D50E10243F
:1008B000F66EF76AFA0EF722F86A000EF8220800C0
:1008C0006F00D4FF10F0F00E0F160F5010121950D9
:1008D000D8B46DEF84F06FEF84F071EF84F019C03D
:1008E00010F01850D8B477EF84F079EF84F07BEFF4
:1008F00084F00F0E1016290EBA6E600043F0BCFF94
:10090000BE94BE8460001FF0D9FF600023F0DAFFC0
:10091000DF500F6E074A082A0FC010F00F0E101696
:100920005A501026D50E1024F66EF76AFA0EF722EA
:10093000F86A000EF82208006F00D4FF10F0F00EE5
:100940000F160F5010121950D8B4A9EF84F0ABEF66
:1009500084F0ADEF84F019C010F01850D8B4B3EFA4
:1009600084F0B5EF84F0B7EF84F00F0E1016310E5F
:10097000BA6E600043F0BCFFBE94BE8460001FF0FE
:10098000D9FF600023F0DAFFDF500F6E074A082A14
:100990000FC010F00F0E10165A501026D50E10244E
:1009A000F66EF76AFA0EF722F86A000EF8220800CF
:1009B0006F00D4FF10F0F00E0F160F5010121950E8
:1009C000D8B4E5EF84F0E7EF84F0E9EF84F019C0E4
:1009D00010F01850D8B4EFEF84F0F1EF84F0F3EF9B
:1009E00084F00F0E1016350EBA6E600043F0BCFF97
:1009F000BE94BE84600037F0D9FF60003BF0DAFFA0
:100A0000DF50106E0D4A0E2A105003242D6E000E7A
:100A100004202E6E6000B7F0F6FF6000BBF0F7FF19
:100A2000000EF86E08006F00D4FF10F0390EBA6E99
:100A3000600043F0BCFFBE94BE842F50D8B423EFB7
:100A400085F025EF85F033EF85F0430EBA6E4C0E3E
:100A5000BC6EBE94BE84440EBA6E190EBC6EBE94BB
:100A6000BE843FEF85F0430EBA6E800EBC6EBE941E
:100A7000BE84440EBA6E1A0EBC6E2FEF85F01200C3
:100A8000BD50F80B0209BD6E01500210D8B44BEFF7
:100A900085F04DEF85F05DEF85F0600007F0F6FF23
:100AA00060000BF0F7FF000EF86E08006F00D4FF37
:100AB00010F0014A022A67EF85F060002FF0D9FF9D
:100AC000600033F0DAFFDF50106E0B4A0C2A550E2F
:100AD000BA6E600043F0BCFFBE94BE8401500210A9
:100AE000D8B475EF85F077EF85F087EF85F060007B
:100AF00007F0F6FF60000BF0F7FF000EF86E08003D
:100B00006F00D4FF10F0014A022A91EF85F06000D7
:100B10002FF0D9FF600033F0DAFFDF50106E0B4A80
:100B20000C2A590EBA6E600043F0BCFFBE94BE841E
:100B300001500210D8B49FEF85F0A1EF85F0B1EF1E
:100B400085F0600007F0F6FF60000BF0F7FF000E85
:100B5000F86E08006F00D4FF10F0014A022ABBEFC4
:100B600085F060002FF0D9FF600033F0DAFFDF502E
:100B7000106E0B4A0C2A5D0EBA6E600043F0BCFF8B
:100B8000BE94BE8401500210D8B4C9EF85F0CBEFFB
:100B900085F0DBEF85F0600007F0F6FF60000BF0FA
:100BA000F7FF000EF86E08006F00D4FF10F0014A46
:100BB000022AE5EF85F060002FF0D9FF600033F0E6
:100BC000DAFFDF50106E0B4A0C2A610EBA6E60001D
:100BD00043F0BCFFBE94BE8401500210D8B4F3EFC2
:100BE00085F0F5EF85F005EF86F0600007F0F6FF81
:100BF00060000BF0F7FF000EF86E08006F00D4FFE6
:100C000010F0014A022A0FEF86F060002FF0D9FFA2
:100C1000600033F0DAFFDF50106E0B4A0C2A630ECF
:100C2000BA6E600043F0BCFFBE94BE8460001FF04B
:100C3000D9FF600023F0DAFFDF500F6E074A082A61
:100C40000FC010F00F0E10165A501026D50E10249B
:100C5000F66EF76AFA0EF722F86A000EF82208001C
:100C60006F00D4FF10F0F00E0F160F501012195035
:100C7000D8B43DEF86F03FEF86F041EF86F019C023
:100C800010F01850D8B447EF86F049EF86F04BEFDC
:100C900086F00F0E1016650EBA6E600043F0BCFFB2
:100CA000BE94BE8460001FF0D9FF600023F0DAFF1D
:100CB000DF500F6E074A082A0FC010F00F0E1016F3
:100CC0005A501026D50E1024F66EF76AFA0EF72247
:100CD000F86A000EF82208006F00D4FF10F0F00E42
:100CE0000F160F5010121950D8B479EF86F07BEF21
:100CF00086F07DEF86F019C010F01850D8B483EF5D
:100D000086F085EF86F087EF86F00F0E1016690EDD
:100D1000BA6E600043F0BCFFBE94BE8460001FF05A
:100D2000D9FF600023F0DAFFDF500F6E074A082A70
:100D30000FC010F00F0E10165A501026D50E1024AA
:100D4000F66EF76AFA0EF722F86A000EF82208002B
:100D50006F00D4FF10F0F00E0F160F501012195044
:100D6000D8B4B5EF86F0B7EF86F0B9EF86F019C0CA
:100D700010F01850D8B4BFEF86F0C1EF86F0C3EF83
:100D800086F00F0E10166F0EBA6E600043F0BCFFB7
:100D9000BE94BE8460001FF0D9FF600023F0DAFF2C
:100DA000DF500F6E074A082A0FC010F00F0E101602
:100DB0005A501026D50E1024F66EF76AFA0EF72256
:100DC000F86A000EF82208006F00D4FF10F0F00E51
:100DD0000F160F5010121950D8B4F1EF86F0F3EF40
:100DE00086F0F5EF86F019C010F01850D8B4FBEF7C
:100DF00086F0FDEF86F0FFEF86F00F0E1016770EEF
:100E0000BA6E600043F0BCFFBE94BE8460001FF069
:100E1000D9FF600023F0DAFFDF500F6E074A082A7F
:100E20000FC010F00F0E10165A501026D50E1024B9
:100E3000F66EF76AFA0EF722F86A000EF82208003A
:100E40006F00D4FF10F0F00E0F160F501012195053
:100E5000D8B42DEF87F02FEF87F031EF87F019C06E
:100E600010F01850D8B437EF87F039EF87F03BEF28
:100E700087F00F0E10167B0EBA6E600043F0BCFFB9
:100E8000BE94BE841200000E236E23C025F034EC05
:100E900091F075EC91F0000E446EFF0ECBEC90F0EB
:100EA000442A090E446457EF87F059EF87F04DEF5D
:100EB00087F073EC91F047687EEF87F0000E2E6E9E
:100EC000000E2F6E000E306E000E316E000E17EC0D
:100ED0008AF0246E2550D8B470EF87F072EF87F057
:100EE00074EF87F087EF87F02404D8A47AEF87F0B7
:100EF0007CEF87F07EEF87F087EF87F04706472883
:100F0000D8A485EF87F087EF87F05EEF87F0475032
:100F1000D8A48DEF87F08FEF87F095EF87F0070E5D
:100F20006AEC91F0000E5CEF88F0AA0E2E6E010EB6
:100F30002F6E000E306E000E316E080E17EC8AF028
:100F40003F6E3FA4A6EF87F0A8EF87F0ACEF87F0E5
:100F5000010E236ECAEF87F0000E456E64EC91F02F
:100F6000246E452A030E4564B8EF87F0BAEF87F088
:100F7000AEEF87F0AA0E2418D8B4C1EF87F0C3EF04
:100F800087F0C8EF87F0020E6AEC91F092EF87F0DD
:100F9000020E236E020E2318D8B4D1EF87F0D3EFE0
:100FA00087F0DDEF87F0000E406E000E416E000E00
:100FB000426E000E436EE5EF87F0000E406E000EAD
:100FC000416E000E426E400E436E476808EF88F097
:100FD00040C03AF041C03BF042C03CF043C03DF05D
:100FE000290E6EEC90F0246E2550D8B4FAEF87F0FD
:100FF000FCEF87F0FEEF87F011EF88F02450D8A4C3
:1010000004EF88F006EF88F008EF88F011EF88F021
:1010100047064728D8A40FEF88F011EF88F0E8EFD3
:1010200087F04750D8A417EF88F019EF88F01EEF2B
:1010300088F0080E6AEC91F092EF87F0020E231808
:10104000D8A425EF88F027EF88F059EF88F0000E3C
:101050002E6E000E2F6E000E306E000E316E3A0EA8
:1010600017EC8AF00009D8B438EF88F03AEF88F02E
:101070003FEF88F0030E6AEC91F092EF87F064EC9A
:1010800091F0C00BC00AD8A448EF88F04AEF88F06E
:101090004CEF88F0030E236E000E466E64EC91F068
:1010A000462A020E466457EF88F059EF88F04EEF5B
:1010B00088F075EC91F0010E1200600017F0D9FF76
:1010C00060001BF0DAFFDF50106E054A062A600050
:1010D00017F0D9FF60001BF0DAFFDF50106E054AF1
:1010E000062A600017F0D9FF60001BF0DAFFDF501E
:1010F000106E054A062A600017F0D9FF60001BF049
:10110000DAFFDF50106E054A062A10A48AEF88F035
:101110008CEF88F08FEF88F0BB9A90EF88F0BB8A55
:101120001050010B5C6EBD50F80B0709BD6E5C5092
:10113000D8B49DEF88F09FEF88F0EAEF88F0205058
:1011400003242D6E000E04202E6E6000B7F0F6FF13
:101150006000BBF0F7FF000EF86E08006F00D4FFD0
:1011600010F0000EBA6E600043F0BCFFBE94BE8467
:10117000010E306E600037F0D9FF60003BF0DAFFFF
:10118000DF50106E0D4A0E2A105003242D6E000EF3
:1011900004202E6E6000B7F0F6FF6000BBF0F7FF92
:1011A000000EF86E08006F00D4FF10F03050800F72
:1011B0007F0BBA6E600043F0BCFFBE94BE84302A41
:1011C000440E3064E6EF88F0E8EF88F0BAEF88F07C
:1011D0001AEF89F0000E306E600037F0D9FF600022
:1011E0003BF0DAFFDF50106E0D4A0E2A1050032438
:1011F0002D6E000E04202E6E6000B7F0F6FF60002A
:10120000BBF0F7FF000EF86E08006F00D4FF10F07F
:101210003050800F7F0BBA6E600043F0BCFFBE946D
:10122000BE84302A420E306418EF89F01AEF89F03C
:10123000ECEF88F0600037F0D9FF60003BF0DAFF98
:10124000DF502F6E0D4A0E2ABD50F80B0509BD6EFA
:101250002F5003242D6E000E04202E6E6000B7F078
:10126000F6FF6000BBF0F7FF000EF86E08006F009D
:10127000D4FF10F0500EBA6E600043F0BCFFBE9475
:10128000BE84120007EF8AF09CEC8EF0E5EC8DF046
:101290000B0E2218D8A44FEF89F051EF89F060EFC0
:1012A00089F01650D8B457EF89F059EF89F060EF04
:1012B00089F016069A0E196E09C00BF00AC00CF0E0
:1012C000150E2218D8A467EF89F069EF89F086EF30
:1012D00089F01750D8B46FEF89F071EF89F086EF7D
:1012E00089F017069A0E196E5C50D8B47AEF89F01F
:1012F0007CEF89F082EF89F084C001F085C002F0B4
:1013000086EF89F082C001F083C002F0070E221838
:10131000D8A48DEF89F08FEF89F0A9EF89F01750ED
:10132000D8B495EF89F097EF89F0A9EF89F05C5078
:10133000D8B49DEF89F09FEF89F0A5EF89F080C0C8
:1013400001F081C002F0A9EF89F07EC001F07FC0FA
:1013500002F0BE80000EC46E40EC85F0C468BE9002
:101360002206020E216E42EF89F0D0EC8EF0E5EC01
:101370008DF02250D8B4BFEF89F0C1EF89F0CEEFE5
:1013800089F0BE80000EC46E010ED4EC82F0C468F9
:10139000BE902206010E216E42EF89F0BE80000E43
:1013A000C46E000ED4EC82F020EC8CF0C468BE90C9
:1013B0001F5004EC8FF01F50D8B4E1EF89F0E4EF38
:1013C00089F0010EE5EF89F0000E1F6E00EC80F051
:1013D000BE80000EC46E5DEC88F0C468BE90030E43
:1013E000216E42EF89F09CEC8EF076C048F077C019
:1013F00049F078C04AF079C04BF01FC04CF08EEC39
:101400008CF0000E196EBF0E226ECAEF89F02150CB
:10141000010AD8B444EF89F0030AD8B4B5EF89F0D3
:10142000010AD8B4F3EF89F042EF89F01200386E68
:1014300073EC91F0396829EF8AF064EC91F0FF0ABF
:10144000D8A425EF8AF027EF8AF029EF8AF032EF4F
:101450008AF039063928D8A430EF8AF032EF8AF0C2
:101460001DEF8AF03950D8A438EF8AF03AEF8AF0AD
:1014700040EF8AF0050E6AEC91F0FF0EB0EF8AF0B3
:1014800038504009CBEC90F0180E376E37502EC014
:1014900032F02FC033F030C034F031C035F0E82ADC
:1014A00057EF8AF0D8903532343233323232E82E68
:1014B00052EF8AF03250CBEC90F0F80E372637BE60
:1014C00066EF8AF064EF8AF046EF8AF036683850AB
:1014D000D8A46DEF8AF06FEF8AF071EF8AF0950E65
:1014E000366E080E3818D8A478EF8AF07AEF8AF0B2
:1014F0007CEF8AF0870E366E3650CBEC90F00C0EF7
:101500003818D8A486EF8AF088EF8AF08AEF8AF03C
:1015100064EC91F0396899EF8AF064EC91F0246EF4
:1015200024BE95EF8AF097EF8AF099EF8AF0A2EF48
:101530008AF039063928D8A4A0EF8AF0A2EF8AF001
:101540008DEF8AF03950D8A4A8EF8AF0AAEF8AF07C
:10155000AFEF8AF0060E6AEC91F03DEF8AF024506E
:1015600012003168020E3D01136F000E126F000E63
:101570003B01FC6F000EDC6F3901A293A291A29790
:10158000A2959293929192979295A597A595A59BD6
:10159000A59995979595959B9599310E2F6E000E6F
:1015A000306E6000BFF0F9FB6000C3F0FAFB3B0156
:1015B000FB6BE70EFD17F90EFD17020EF86F000E1C
:1015C000F76FFD813D0EF16F110EF06F3F0EFD17AD
:1015D000000EEF6F010EEE6FFD9B150EFF6F000EFC
:1015E000FE6F100ED96F3D0EDA6F000EDB6FE70E47
:1015F000DD17F90EDD17000ED86F010ED76FDD91E4
:101600006000B7F0D0FB6000BBF0D1FBDD513F0BB9
:101610004009DD6F020ECF6F000ECE6FDD8B140E12
:10162000DF6F000EDE6F3901550EEF6FAA0EEF6F00
:10163000EF91030E3901F26F020EF16F000EF36F9E
:10164000010EF46F040EF76F3901550EEF6FAA0EFD
:10165000EF6FEF813B01FC8FDC8FFC8DDC8D120086
:10166000BE80000EC46E070EBD6E7C0EBA6ED10E2B
:10167000F66EFA0EF76E000EF86E08006F00D7FFD8
:10168000BCFFBE94BE847D0EBA6ED20EF66EFA0E0C
:10169000F76E000EF86E08006F00D7FFBCFFBE9417
:1016A000BE84C468BE90BE80000EC46E070EBD6EC0
:1016B0007B0EBA6E200EBC6EBE94BE84C468BE9013
:1016C000030E2E6EFB0E2D6E52EC90F0200AD8A465
:1016D0006CEF8BF06EEF8BF053EF8BF0BE80000E53
:1016E000C46E070EBD6E7A0EBA6ECF0EF66EFA0E8F
:1016F000F76E000EF86E08006F00D7FFBCFFBE94B7
:10170000BE847B0EBA6ED00EF66EFA0EF76E000E29
:10171000F86E08006F00D7FFBCFFBE94BE847E0E3B
:10172000BA6ED30EF66EFA0EF76E000EF86E080063
:101730006F00D7FFBCFFBE94BE847F0EBA6ED40E7E
:10174000F66EFA0EF76E000EF86E08006F00D7FF07
:10175000BCFFBE94BE84C468BE901200B3EF8BF091
:10176000010E66EC8EF043EC87F00009D8B4BBEFB5
:101770008BF0BDEF8BF0B0EF8BF028EC91F0000E0A
:10178000486E000E496E000E4A6E000E4B6E48C049
:101790003AF049C03BF04AC03CF04BC03DF0C0ECD1
:1017A0008FF0FFEC90F00009D8B4D9EF8BF0DBEFAD
:1017B0008BF0D1EF8BF08B0E2D6E0A0E2E6EB1ECEE
:1017C0008AF086EC90F00009D8B4E9EF8BF0EBEFEB
:1017D0008BF0E1EF8BF056EC91F022EE8BF2DF50C4
:1017E000D8A4F5EF8BF0F7EF8BF016EF8CF022EE2C
:1017F0008CF2DF50D8A4FFEF8BF001EF8CF016EFE6
:101800008CF0620037FAE8FF010AD8A40AEF8CF0E6
:101810000CEF8CF016EF8CF048C07AF049C07BF0EA
:101820004AC07CF04BC07DF01EEF8CF0400E482685
:10183000000E49224A224B22C7EF8BF0010E120004
:10184000BD50F80B0509BD6E600037F0D9FF600090
:101850003BF0DAFFDF50106E0D4A0E2A10500324C1
:101860002D6E000E04202E6E6000B7F0F6FF6000B3
:10187000BBF0F7FF000EF86E08006F00D4FF10F009
:10188000220EBA6E600043F0BCFFBE94BE846000BE
:1018900037F0D9FF60003BF0DAFFDF50206E5C507C
:1018A000D8B455EF8CF057EF8CF065EF8CF02E0E1E
:1018B000BA6E1C0EBC6EBE94BE84440EBA6E240E6C
:1018C000BC6EBE94BE8471EF8CF02E0EBA6E1D0EEF
:1018D000BC6EBE94BE84440EBA6E250EBC6E61EF23
:1018E0008CF01F50D8A477EF8CF079EF8CF087EF55
:1018F0008CF04D0EBA6E970EBC6EBE94BE844E0E2A
:10190000BA6E180EBC6EBE94BE848DEF8CF04D0E78
:10191000BA6E800EBC6E7DEF8CF012002550D8B4EC
:1019200094EF8CF096EF8CF09AEF8CF043EC87F00C
:10193000EAEF8CF048C04DF049C04EF04AC04FF07D
:101940004BC050F0030ED8904D364E364F365036C1
:10195000E82EA3EF8CF000017A514D24516E7B519B
:101960004E20526E7C514F20536E7D515020546E4C
:101970004C04D8A4BEEF8CF0C0EF8CF0C6EF8CF016
:101980008B0E866F0A0E876FCAEF8CF08B0E866FF8
:10199000000E876F2650D8B4D0EF8CF0D2EF8CF0C9
:1019A000D8EF8CF056EC91F09EEC90F0000E266E85
:1019B00051C03AF052C03BF053C03CF054C03DF02F
:1019C00097EC8FF0050E276E000E5E6EE5EC8DF045
:1019D000010E266E1200000EBE6E000EBD6E000ED1
:1019E000BA6EC30EBB6E000EBC6E000EC66E800ECD
:1019F000C26E580EC36E000EC46E600EC56E000E31
:101A00003A01706F000E606F000E506F000E806F15
:101A1000000E406F000E716F000E816F000E516F4F
:101A2000000E416F000E616F000E826F000E426F5C
:101A3000000E526F000E626F000E726F579956992A
:101A40005599000E2D6E000E2E6E000E2F6E5DEC61
:101A500091F03A01DF51C00B0B09DF6F1F0E096FC8
:101A6000DB51C00B1E09DB6F1E0E0A6FDE51C00B6F
:101A70000A09DE6FC351C00B0C09C36F030E1F6F41
:101A800012001BEC91F0BE84BE8210EC90F093EC3F
:101A90008DF00009D8B44FEF8DF051EF8DF045EF88
:101AA0008DF0BE92060E36EC90F02BEC8EF069ECC9
:101AB0008FF00009D8B45FEF8DF061EF8DF055EF36
:101AC0008DF0050E36EC90F030EC8BF0040E36EC19
:101AD00090F0BB9AE9EC8FF00009D8A472EF8DF07A
:101AE00074EF8DF077EF8DF0030E66EC8EF0BB8A0D
:101AF000030E36EC90F0020E66EC8EF0EFEC90F0F8
:101B0000050E566E0F0E556EF10EE82EFED7552EB1
:101B1000FCD7562EFAD700F0020E36EC90F042ECCD
:101B200089F0FEEFFFF0FF0E2E6EFB0E2D6E52ECD5
:101B300090F00009D8B49FEF8DF0A1EF8DF0A4EFE5
:101B40008DF0000EE4EF8DF0FF0E2E6EFC0E2D6E6C
:101B500052EC90F0FB0AD8B4B0EF8DF0B2EF8DF0FC
:101B6000B4EF8DF0A1EF8DF0FF0E2E6EFD0E2D6EF9
:101B700052EC90F0F30AD8B4C0EF8DF0C2EF8DF0C4
:101B8000C4EF8DF0A1EF8DF0FF0E2E6EFE0E2D6EC8
:101B900052EC90F0FB0AD8B4D0EF8DF0D2EF8DF07C
:101BA000D4EF8DF0A1EF8DF0FF0E2E6E2D6852EC6C
:101BB00090F0F30AD8B4DFEF8DF0E1EF8DF0E3EFB2
:101BC0008DF0A1EF8DF0010E12001BEF8EF0FFECF7
:101BD00090F00009D8A4EFEF8DF0F1EF8DF0F3EF66
:101BE0008DF02AEF8EF086C02DF087C02EF0B1EC7C
:101BF0008AF00001020E8727010E5E6E270686EC32
:101C000090F00009D8A407EF8EF009EF8EF00BEFEB
:101C10008EF02AEF8EF02750D8B411EF8EF013EF2C
:101C20008EF017EF8EF0000E5E6E2AEF8EF0020E31
:101C30005E6E2AEF8EF05E50000AD8B4E7EF8DF0AA
:101C4000010AD8B4FFEF8DF0030AD8B42AEF8EF062
:101C50002AEF8EF01200BE80000EC46E000E316EB0
:101C6000000E306E30C02DF031C02EF0070E2F6EFA
:101C7000D8902E322D322F2E38EF8EF0070E2D16E3
:101C8000BD50F80B2D10BD6E30507F0BBA6ED50EC7
:101C90003024F66EF60E3120F76EF86A000EF82248
:101CA00008006F00D7FFBCFFBE94BE84304A312AC3
:101CB000FA0E305C030E3158D8A061EF8EF063EF5E
:101CC0008EF032EF8EF0C468BE9012002F6EBB8A89
:101CD000000E306E86EF8EF0BB9A110E2E6E3C0E0B
:101CE0002D6ECB0EE82EFED72D2EFCD72E2EFAD73A
:101CF00000F0BB8A190E2E6E5A0E2D6EB20EE82E13
:101D0000FED72D2EFCD72E2EFAD7302A2F50305C3E
:101D1000D8A08DEF8EF08FEF8EF06CEF8EF0290E45
:101D20002E6E960E2D6E7F0EE82EFED72D2EFCD732
:101D30002E2EFAD700F01200000ECDBA010E2B6E37
:101D4000000ECABE010E2A6E000ECDBA010E296E1B
:101D5000000ECABE010E286E2B50D8B4B2EF8EF022
:101D6000B4EF8EF0C7EF8EF02950D8B4BAEF8EF0F2
:101D7000BCEF8EF0C7EF8EF028502A18D8A4C3EF1E
:101D80008EF0C5EF8EF0C7EF8EF02AC02CF02C50ED
:101D9000D8B4CDEF8EF0CFEF8EF09CEF8EF0120026
:101DA000000ECDBA010E2B6E000ECABE010E2A6EB9
:101DB000000ECDBA010E296E000ECABE010E286EAD
:101DC0002B50D8B4E6EF8EF0E8EF8EF0FBEF8EF0FC
:101DD0002950D8B4EEEF8EF0F0EF8EF0FBEF8EF0DE
:101DE00028502A18D8A4F7EF8EF0F9EF8EF0FBEF09
:101DF0008EF02AC02CF02C50D8A401EF8FF003EF06
:101E00008FF0D0EF8EF012002D6E2D04D8A40BEFC2
:101E10008FF00DEF8FF023EF8FF08B0E056E0A0E13
:101E2000066E8F0E0D6E0A0E0E6E950E0B6E0B0E5D
:101E30000C6E550E096E0F0E0A6E910E076E0F0E88
:101E4000086E37EF8FF08B0E056E000E066E8F0E4C
:101E50000D6E000E0E6E950E0B6E010E0C6E550E75
:101E6000096E050E0A6E910E076E050E086E1200C1
:101E70001C0EF66E220EF76E010EF86E00EE60F08C
:101E800010EE1AF009006F00D7FFEEFFE550E150A9
:101E9000F9E1DE0EF66E220EF76E010EF86E00EE20
:101EA00057F010EE08F009006F00D7FFEEFFE55085
:101EB000E150F9E100EE7AF00E0EEE6AE806FDE17F
:101EC00000EE01F02C0EEE6AE806FDE1000141EFA4
:101ED0008DF0030E356EF90E346ED50E3424F66E89
:101EE000F60E3520F76EF86A000EF82208006F0033
:101EF000D4FF33F034C02DF035C02EF052EC90F00A
:101F00003318D8B486EF8FF088EF8FF08BEF8FF017
:101F1000000E96EF8FF03406D8A0350635BE95EF4B
:101F20008FF093EF8FF06DEF8FF0010E1200030E24
:101F30002318D8B49EEF8FF0A0EF8FF0A9EF8FF0A9
:101F4000090ED8903A363B363C363D36E82EA1EFA6
:101F50008FF03AC02EF03BC02FF03CC030F03DC0B7
:101F600031F0120E17EC8AF00009D8B4BAEF8FF0F6
:101F7000BCEF8FF0BFEF8FF0040E6AEC91F012000F
:101F8000030E2318D8B4C7EF8FF0C9EF8FF0D2EF4C
:101F90008FF0090ED8903A363B363C363D36E82E67
:101FA000CAEF8FF03AC02EF03BC02FF03CC030F0AB
:101FB0003DC031F0110E17EC8AF00009D8B4E3EF00
:101FC0008FF0E5EF8FF0E8EF8FF0010E6AEC91F003
:101FD0001200030E216E010E5D6E010E5C6EAEEC02
:101FE0008BF00009D8A4F7EF8FF0F9EF8FF0FCEF3A
:101FF0008FF0000E0FEF90F06CC003F06DC004F096
:10200000EF0E0001806FFA0E816FA70E7E6FFC0E3F
:102010007F6F010E04EC8FF0000EB66E010E120001
:10202000BE80000EC46E070EBD6E7B0EBA6E000E33
:10203000BC6EBE94BE847C0EBA6EFB0EBC6EBE94AB
:10204000BE847D0EBA6EF30EBC6EBE94BE847E0E50
:10205000BA6EFB0EBC6EBE94BE847F0EBA6EF30EDB
:10206000BC6EBE94BE84C468BE9012002D6EBB8A46
:10207000BB8ABB8ABB8A000E2E6E44EF90F0BB9ADF
:10208000BB9ABB8ABB8A2E2A2D502E5CD8A04BEF60
:1020900090F04DEF90F03FEF90F0BB8ABB8ABB8A87
:1020A000BB8A12002D507F0BBA6E2DC02FF02EC0B0
:1020B00030F0070E316ED89030322F32312E5BEF78
:1020C00090F02F50070BBD6EC468BE906F0030FFBC
:1020D00032F0BE80000EC46E325012003E6E000E12
:1020E0002E6E000E2F6E000E306E000E316E370E0B
:1020F00017EC8AF03AC02EF03BC02FF03CC030F015
:102100003DC031F03E5017EC8AF012003D011251F3
:102110001311D8B48EEF90F090EF90F093EF90F011
:10212000000E9DEF90F016AF98EF90F09AEF90F0C0
:102130009CEF90F090EF90F0010E1200000E2E6ECA
:10214000000E2F6E000E306E000E316E0C0E17EC6E
:102150008AF00009D8B4AFEF90F0B1EF90F0B4EF8F
:1021600090F0010E6AEC91F01200800E3C01616F5C
:10217000020E626F020E636F020E646F020E656FD5
:10218000020E666F020E676F020E686F020E696FB5
:10219000820E606F12002D6E010E3D01126F600005
:1021A000B7F011FD3901A2A9D8EF90F0DAEF90F065
:1021B000D2EF90F03D0110511200000E3901C06FB6
:1021C000000EC16F000EC26F000EC36F000EC46F11
:1021D000000EC56F000EC66F000EC76F1200BE80E6
:1021E000000EC46EBD50F80B0609BD6E500EBA6EDF
:1021F000180EBC6EBE94BE84C468BE90120064EC1F
:1022000091F0FE0AD8A407EF91F009EF91F00CEFDE
:1022100091F0010E0DEF91F0000E1200EFFFDFFFC5
:10222000CFFFBFFFAFFF9FFF8FFF7FFF6FFF5FFFFE
:102230004FFF01000000DDEC90F0EBEC8CF040EC87
:1022400091F0B5EC90F04CEC91F034EC91F0120080
:10225000400E3D01156F030E166F070E196F010E2C
:102260001C6F820E146F1200400E3D01156F030E9D
:10227000166F4F0E196F010E1C6F820E146F120035
:10228000600E3901D96F000EDB6F000EDD6F080E96
:10229000DF6F000EDE6F1200100EB96EB768000E11
:1022A000B66E3901A39F800EB86E120064EC91F0F7
:1022B00064EC91F075EC91F012002DC088F02EC006
:1022C00089F02FC08AF0120000F000F0FF0ECBEC76
:1022D00090F0120075EC91F0010E256E12000101D4
:0E22E000020606010102BB901200BB80120034
:04FFFC0038EF8FF05B
:020000040020DA
:10000000FF0FFF0FFF0FFF0FFF0FFF0FFF0FFF0F80
:020000040030CA
:0A000000ECFFF6FF9FFFFFDFFFFF9C
:00000001FF
