:020000040000fa
:080000000002040000000000f2
:020000040000fa
:04000800fe060000f0
:020000040000fa
:04000c003e070000ab
:020000040000fa
:04001000760700006f
:020000040000fa
:040014001a070000c7
:020000040000fa
:040018005a07000083
:020000040000fa
:04001c007216000058
:020000040000fa
:040020009207000043
:020000040000fa
:040024007216000050
:020000040000fa
:04002800721600004c
:020000040000fa
:04002c007216000048
:020000040000fa
:040030007216000044
:020000040000fa
:040034007216000040
:020000040000fa
:04003800721600003c
:020000040000fa
:04003c007216000038
:020000040000fa
:040040007216000034
:020000040000fa
:040044007216000030
:020000040000fa
:04004800721600002c
:020000040000fa
:04004c007216000028
:020000040000fa
:040050007216000024
:020000040000fa
:040054007216000020
:020000040000fa
:04005800721600001c
:020000040000fa
:04005c007216000018
:020000040000fa
:040060007216000014
:020000040000fa
:040064007216000010
:020000040000fa
:04006800721600000c
:020000040000fa
:04006c007216000008
:020000040000fa
:040070007216000004
:020000040000fa
:04007400c6070000bb
:020000040000fa
:0400780072160000fc
:020000040000fa
:04007c0072160000f8
:020000040000fa
:0400800072160000f4
:020000040000fa
:0400840072160000f0
:020000040000fa
:0400880072160000ec
:020000040000fa
:04008c0072160000e8
:020000040000fa
:0400900072160000e4
:020000040000fa
:0400940072160000e0
:020000040000fa
:0400980072160000dc
:020000040000fa
:04009c0072160000d8
:020000040000fa
:0400a00072160000d4
:020000040000fa
:0400a40072160000d0
:020000040000fa
:0400a80072160000cc
:020000040000fa
:0400ac0072160000c8
:020000040000fa
:0400b00072160000c4
:020000040000fa
:0400b40072160000c0
:020000040000fa
:0400b80072160000bc
:020000040000fa
:0400bc0072160000b8
:020000040000fa
:0400c00072160000b4
:020000040000fa
:0400c40072160000b0
:020000040000fa
:0400c80072160000ac
:020000040000fa
:0400cc0072160000a8
:020000040000fa
:0400d00072160000a4
:020000040000fa
:0400d40072160000a0
:020000040000fa
:0400d800721600009c
:020000040000fa
:0400dc007216000098
:020000040000fa
:0400e0007216000094
:020000040000fa
:0400e4007216000090
:020000040000fa
:0400e800721600008c
:020000040000fa
:0400ec007216000088
:020000040000fa
:0400f0007216000084
:020000040000fa
:0400f4007216000080
:020000040000fa
:0400f800721600007c
:020000040000fa
:0400fc007216000078
:020000040000fa
:040100007216000073
:020000040000fa
:04010400721600006f
:020000040000fa
:04010800721600006b
:020000040000fa
:04010c007216000067
:020000040000fa
:040110007216000063
:020000040000fa
:04011400721600005f
:020000040000fa
:04011800721600005b
:020000040000fa
:04011c007216000057
:020000040000fa
:040120007216000053
:020000040000fa
:04012400721600004f
:020000040000fa
:04012800721600004b
:020000040000fa
:04012c007216000047
:020000040000fa
:040130007216000043
:020000040000fa
:04013400721600003f
:020000040000fa
:04013800721600003b
:020000040000fa
:04013c007216000037
:020000040000fa
:040140007216000033
:020000040000fa
:04014400721600002f
:020000040000fa
:04014800721600002b
:020000040000fa
:04014c007216000027
:020000040000fa
:040150007216000023
:020000040000fa
:04015400721600001f
:020000040000fa
:04015800721600001b
:020000040000fa
:04015c007216000017
:020000040000fa
:040160007216000013
:020000040000fa
:04016400721600000f
:020000040000fa
:04016800721600000b
:020000040000fa
:04016c007216000007
:020000040000fa
:040170007216000003
:020000040000fa
:0401740072160000ff
:020000040000fa
:0401780072160000fb
:020000040000fa
:04017c0072160000f7
:020000040000fa
:0401800072160000f3
:020000040000fa
:0401840072160000ef
:020000040000fa
:0401880072160000eb
:020000040000fa
:04018c0072160000e7
:020000040000fa
:0401900072160000e3
:020000040000fa
:0401940072160000df
:020000040000fa
:0401980072160000db
:020000040000fa
:04019c0072160000d7
:020000040000fa
:0401a00072160000d3
:020000040000fa
:0401a40072160000cf
:020000040000fa
:0401a80072160000cb
:020000040000fa
:0401ac0072160000c7
:020000040000fa
:0401b00072160000c3
:020000040000fa
:0401b40072160000bf
:020000040000fa
:0401b80072160000bb
:020000040000fa
:0401bc0072160000b7
:020000040000fa
:0401c00072160000b3
:020000040000fa
:0401c40072160000af
:020000040000fa
:0401c80072160000ab
:020000040000fa
:0401cc0072160000a7
:020000040000fa
:0401d00072160000a3
:020000040000fa
:0401d400721600009f
:020000040000fa
:0401d800721600009b
:020000040000fa
:0401dc007216000097
:020000040000fa
:0401e0007216000093
:020000040000fa
:0401e400721600008f
:020000040000fa
:0401e800721600008b
:020000040000fa
:0401ec007216000087
:020000040000fa
:0401f0007216000083
:020000040000fa
:0401f400721600007f
:020000040000fa
:0401f800721600007b
:020000040000fa
:0401fc007216000077
:020000040000fa
:040200007216000072
:020000040000fa
:04020400721600006e
:020000040000fa
:04020800721600006a
:020000040000fa
:04020c007216000066
:020000040000fa
:040210007216000062
:020000040000fa
:04021400721600005e
:020000040000fa
:04021800721600005a
:020000040000fa
:04021c007216000056
:020000040000fa
:040220007216000052
:020000040000fa
:04022400721600004e
:020000040000fa
:04022800721600004a
:020000040000fa
:04022c007216000046
:020000040000fa
:040230007216000042
:020000040000fa
:04023400721600003e
:020000040000fa
:04023800721600003a
:020000040000fa
:04023c007216000036
:020000040000fa
:040240007216000032
:020000040000fa
:04024400721600002e
:020000040000fa
:04024800721600002a
:020000040000fa
:04024c007216000026
:020000040000fa
:040250007216000022
:020000040000fa
:04025400721600001e
:020000040000fa
:04025800721600001a
:020000040000fa
:04025c007216000016
:020000040000fa
:040260007216000012
:020000040000fa
:04026400721600000e
:020000040000fa
:04026800721600000a
:020000040000fa
:04026c007216000006
:020000040000fa
:040270007216000002
:020000040000fa
:0402740072160000fe
:020000040000fa
:0402780072160000fa
:020000040000fa
:04027c0072160000f6
:020000040000fa
:0402800072160000f2
:020000040000fa
:0402840072160000ee
:020000040000fa
:0402880072160000ea
:020000040000fa
:04028c0072160000e6
:020000040000fa
:0402900072160000e2
:020000040000fa
:0402940072160000de
:020000040000fa
:0402980072160000da
:020000040000fa
:04029c0072160000d6
:020000040000fa
:0402a00072160000d2
:020000040000fa
:0402a40072160000ce
:020000040000fa
:0402a80072160000ca
:020000040000fa
:0402ac0072160000c6
:020000040000fa
:0402b00072160000c2
:020000040000fa
:0402b40072160000be
:020000040000fa
:0402b80072160000ba
:020000040000fa
:0402bc0072160000b6
:020000040000fa
:0402c00072160000b2
:020000040000fa
:0402c40072160000ae
:020000040000fa
:0402c80072160000aa
:020000040000fa
:0402cc0072160000a6
:020000040000fa
:0402d00072160000a2
:020000040000fa
:0402d400721600009e
:020000040000fa
:0402d800721600009a
:020000040000fa
:0402dc007216000096
:020000040000fa
:0402e0007216000092
:020000040000fa
:0402e400721600008e
:020000040000fa
:0402e800721600008a
:020000040000fa
:0402ec007216000086
:020000040000fa
:0402f0007216000082
:020000040000fa
:0402f400721600007e
:020000040000fa
:0402f800721600007a
:020000040000fa
:0402fc007216000076
:020000040000fa
:040300007216000071
:020000040000fa
:04030400721600006d
:020000040000fa
:040308007216000069
:020000040000fa
:04030c007216000065
:020000040000fa
:040310007216000061
:020000040000fa
:04031400721600005d
:020000040000fa
:040318007216000059
:020000040000fa
:04031c007216000055
:020000040000fa
:040320007216000051
:020000040000fa
:04032400721600004d
:020000040000fa
:10040000efee22000eff22000e0188000000000027
:10041000000020000000e000020032000001200087
:100420002002880014000700300a07000000e000e6
:1004300003003a00400e24000100200002003700b3
:100440000000200001002000810f70000100320038
:100450000f000700000020000000e0000200320052
:100460000000020000000000323e02000000000018
:100470000040da000000fe00609f21000000e00064
:1004800002003200002020009001880000000600d9
:10049000a1028800800478000000eb001f003700f4
:1004a000e284440054a0b4009905ba00e2844400f8
:1004b00054a0b4009906ba00e284440054a0b400e9
:1004c0000006eb00476fde00fd07b200ae018800ba
:1004d000636ce10003003a000ad801000000eb0061
:1004e0000e003700606ce10008003a00004deb00a0
:1004f0000a05e800020039003420ec000af0a000f0
:100500008b05e900f9ff3e00040037006168e10057
:10051000010032000086eb000b00070019c7ba008b
:100520001905ba000e04e00003003a000a00e000da
:10053000dbff3a0000000600fe07b200ae028800b2
:100540008a047800f5ff37000cd0a300e20f4d00bd
:100550001c003b0089027800354dba000a05e8000e
:10056000020039003420ec000af0a0008b05e900fd
:100570000f003200254dba000a05e80002003900dc
:100580003420ec000af0a0008b05e90008003200de
:100590000c00e0000600320015cdba000a05e800a4
:1005a000020039003420ec000af0a0008b05e900bd
:1005b0008984e80054a0b4000b00e000e2ff3a0098
:1005c000000006009902ba00055d78008b05e9007d
:1005d000f7ff3200c82ade00055d78008b05e900d0
:1005e000f3ff32000c00e000f1ff320019ddba0029
:1005f000eeff3700000000000000000000000000d7
:1006000000000000000000000000000000000000ea
:1006100000000000000000000000000000000000da
:1006200000000000000000000000000000000000ca
:1006300000000000000000000000000000000000ba
:100df0000000000000000000000000003600f800c5
:100e0000809fbe00829fbe00849fbe00869fbe0062
:100e1000c028a9000000eb007e1d07004f03be00a4
:100e20004f02be004f01be004f00be003600f90069
:100e3000004006003600f800809fbe00829fbe0082
:100e4000849fbe00869fbe00e0eb220080077800f2
:100e500060ed220000018800c048a90010002000b9
:100e60006c1d07004f03be004f02be004f01be00c5
:100e70004f00be003600f900004006003600f800c2
:100e8000809fbe00829fbe00849fbe00869fbe00e2
:100e9000c068a900200020005e1d07004f03be00af
:100ea0004f02be004f01be004f00be003600f900e9
:100eb000004006003600f800809fbe00829fbe0002
:100ec000849fbe00869fbe00c088a900300020001d
:100ed000501d07004f03be004f02be004f01be0071
:100ee0004f00be003600f900004006003600f80052
:100ef000809fbe00829fbe00849fbe00869fbe0072
:100f0000c608a90070002000421d07004f03be0064
:100f10004f02be004f01be004f00be003600f90078
:100f2000004006003600f800809fbe00829fbe0091
:100f3000849fbe00869fbe00c508ab000d003a002e
:100f4000c408e20007003500c488ab0001003a0085
:100f5000ffff3700c488a900a00020002d1d070056
:100f6000fbff3700c5e8a90080002000291d07000d
:100f7000f5ff3700c508a900c0002000251d0700a7
:100f8000c408e200f0ff3d00f6ff3700c0c0ab0030
:100f900007003a00e0718000f01fb200000040003e
:100fa000e1d42a0000804000100078000004010015
:100fb0004e2eef000268a90000400600e27180009a
:100fc000f11f2000b0818000010861004e2eef006b
:100fd0000268a90000400600f8ff370080072000e3
:100fe000107188004e2eef000268a9000040060034
:100ff000f2ff3700800d2000107188004e2eef00a8
:101000000268a90000400600ecff3700200a20001b
:10101000107188004e2eef000268a9000040060003
:10102000e6ff3700f00f2000107188004e2eef0011
:101030000268a90000400600e0ff3700a009200078
:10104000107188004e2eef000268a90000400600d3
:10105000daff370050082000107188004e2eef0094
:101060000268a90000400600d4ff370020002000dd
:10107000107188004e2eef000268a90000400600a3
:10108000ceff3700900a2000107188004e2eef002e
:101090000268a90000400600c8ff3700222eef00ba
:1010a0004e2eef000268a90000400600c3ff370083
:1010b00050092000107188004e2eef000268a90030
:1010c00000400600bdff3700222eef004e2eef003d
:1010d0000268a90000400600b8ff3700a00c2000fd
:1010e000107188004e2eef000268a9000040060033
:1010f000b2ff3700000d2000107188004e2eef0067
:101100000268a90000400600acff3700b00f2000c5
:10111000107188004e2eef000268a9000040060002
:10112000a6ff3700900a2000107188004e2eef00b5
:101130000268a90000400600a0ff37001000200050
:10114000107188004e2eef000268a90000400600d2
:101150009aff370050082000107188004e2eef00d3
:101160000268a9000040060094ff370060022000da
:10117000107188004e2eef000268a90000400600a2
:101180008eff3700900a2000107188004e2eef006d
:101190000268a9000040060088ff3700f00c20001c
:1011a000107188004e2eef000268a9000040060072
:1011b00082ff370050082000107188004e2eef008b
:1011c0000268a900004006007cff3700d000200024
:1011d000107188004e2eef000268a9000040060042
:1011e00076ff3700900a2000107188004e2eef0025
:1011f0000268a9000040060070ff3700300320009d
:10120000107188004e2eef000268a9000040060011
:101210006aff370050082000107188004e2eef0042
:101220000268a9000040060064ff3700e0002000cb
:10123000107188004e2eef000268a90000400600e1
:101240005eff3700900a2000107188004e2eef00dc
:101250000268a9000040060058ff3700c00c2000bb
:10126000107188004e2eef000268a90000400600b1
:1012700052ff370050082000107188004e2eef00fa
:101280000268a900004006004cff3700f000200073
:10129000107188004e2eef000268a9000040060081
:1012a00046ff3700a00e2000107188004e2eef0080
:1012b0000268a9000040060040ff370050082000e7
:1012c000107188004e2eef000268a9000040060051
:1012d0003aff370000012000107188004e2eef0009
:1012e0000268a9000040060034ff3700a00e20006d
:1012f000107188004e2eef000268a9000040060021
:101300002eff370050082000107188004e2eef008d
:101310000268a9000040060028ff370010012000e5
:10132000107188004e2eef000268a90000400600f0
:1013300022ff3700900a2000107188004e2eef0027
:101340000268a900004006001cff37006000200072
:10135000107188004e2eef000268a90000400600c0
:1013600016ff370050082000107188004e2eef0045
:101370000268a9000040060010ff3700400020006e
:10138000107188004e2eef000268a9000040060090
:101390000aff3700900a2000107188004e2eef00df
:1013a0000268a9000040060004ff3700200020006a
:1013b000107188004e2eef000268a9000040060060
:1013c000fefe370050082000107188004e2eef00fe
:1013d0000268a90000400600f8fe37005000200017
:1013e000107188004e2eef000268a9000040060030
:1013f000f2fe3700900a2000107188004e2eef0098
:101400000268a90000400600ecfe37000001200041
:10141000107188004e2eef000268a90000400600ff
:10142000e6fe370050082000107188004e2eef00b5
:101430000268a90000400600e0fe3700000220001c
:10144000107188004e2eef000268a90000400600cf
:10145000dafe3700900a2000107188004e2eef004f
:101460000268a90000400600d4fe3700222eef00db
:101470004e2eef000268a90000400600cffe3700a4
:1014800050082000107188004e2eef000268a9005d
:1014900000400600c9fe37001002200010718800cd
:1014a0004e2eef000268a90000400600c3fe370080
:1014b00050082000107188004e2eef000268a9002d
:1014c00000400600bdfe3700a00220001071880019
:1014d0004e2eef000268a90000400600b7fe37005c
:1014e000200a2000107188004e2eef000268a9002b
:1014f00000400600b1fe3700f000200010718800a7
:101500004e2eef000268a90000400600abfe370037
:10151000a00c2000107188004e2eef000268a90078
:1015200000400600a5fe3700000d20001071880065
:101530004e2eef000268a900004006009ffe370013
:10154000d00f2000107188004e2eef000268a90015
:101550000040060099fe37005008200010718800f6
:101560004e2eef000268a9000040060093fe3700ef
:10157000b0022000107188004e2eef000268a90012
:10158000004006008dfe3700a00e2000107188007c
:101590004e2eef000268a9000040060087fe3700cb
:1015a000900a200010718800d073810010409000d4
:1015b0000080fb00c08288004e2eef000268a90068
:1015c000004006007dfe37005810f800220ef9009a
:1015d0004e2eef000268a9000040060077fe37009b
:1015e00050082000107188004e2eef000268a900fc
:1015f0000040060071fe3700c00120001071880015
:101600004e2eef000268a900004006006bfe370076
:1016100050082000107188004e2eef000268a900cb
:101620000040060065fe3700a0022000107188000f
:101630004e2eef000268a900004006005ffe370052
:10164000900a2000107188005a50e20050053200c4
:10165000e0828000c08288004e2eef000268a90060
:101660000040060055fe37005810f800220ef90021
:101670005a70ef004e2eef000268a90000400600ed
:101680004efe3700200a200010718800d0738100c0
:10169000404090000080fb00c08288004e2eef008a
:1016a0000268a9000040060044fe37005810f80008
:1016b000220ef9004e2eef000268a900004006003d
:1016c0003efe370050082000107188004e2eef00bb
:1016d0000268a9000040060038fe37009001200093
:1016e000107188004e2eef000268a900004006002d
:1016f00032fe3700000a200010718800c07381009c
:10170000404090000080fb00c08288004e2eef0019
:101710000268a9000040060028fe37005810f800b3
:10172000220ef9004e2eef000268a90000400600cc
:1017300022fe3700900a200010718800c0738100db
:10174000104090000080fb00c08288004e2eef0009
:101750000268a9000040060018fe37005810f80083
:10176000220ef9004e2eef000268a900004006008c
:1017700012fe370050082000107188004e2eef0036
:101780000268a900004006000cfe3700700020002f
:10179000107188004e2eef000268a900004006007c
:1017a00006fe3700900a200010718800d073810077
:1017b0001080fb00c08288004e2eef000268a90056
:1017c00000400600fdfd37005810f800220ef90019
:1017d0004e2eef000268a90000400600f7fd37001a
:1017e00050082000107188004e2eef000268a900fa
:1017f00000400600f1fd3700b001200010718800a4
:101800004e2eef000268a90000400600ebfd3700f5
:10181000900a200010718800c07381001080fb00c6
:10182000c08288004e2eef000268a900004006002a
:10183000e2fd37005810f800220ef9004e2eef009e
:101840000268a90000400600dcfd370050082000b7
:10185000107188004e2eef000268a90000400600bb
:10186000d6fd370060002000107188004e2eef007a
:101870000268a90000400600d0fd3700900a200051
:1018800010718800d0738100304090000080fb0010
:10189000c08288004e2eef000268a90000400600ba
:1018a000c6fd37005810f800220ef9004e2eef004a
:1018b0000268a90000400600c0fd37005008200063
:1018c000107188004e2eef000268a900004006004b
:1018d000bafd3700c0012000107188004e2eef00c5
:1018e0000268a90000400600b4fd3700900a2000fd
:1018f00010718800b07381009080fb00c182880065
:1019000061e722008008e8004e2eef000268a9007f
:1019100000400600a9fd37005810f800220ef9001b
:101920004e2eef000268a90000400600a3fd37001c
:1019300050082000107188004e2eef000268a900a8
:10194000004006009dfd37009000200010718800c7
:101950004e2eef000268a9000040060097fd3700f8
:10196000900a200010718800c07381002040900010
:101970000080fb00c08288004e2eef000268a900a4
:10198000004006008dfd37005810f800220ef900c7
:101990004e2eef000268a9000040060087fd3700c8
:1019a00050082000107188004e2eef000268a90038
:1019b0000040060081fd37006000200010718800a3
:1019c0004e2eef000268a900004006007bfd3700a4
:1019d000900a200010718800d07381002040900090
:1019e0000080fb00c08288004e2eef000268a90034
:1019f0000040060071fd37005810f800220ef90073
:101a00004e2eef000268a900004006006bfd370073
:101a100050082000107188004e2eef000268a900c7
:101a20000040060065fd3700b001200010718800fd
:101a30004e2eef000268a900004006005ffd37004f
:101a4000900a200010718800c0738100304090001f
:101a50000080fb00c08288004e2eef000268a900c3
:101a60000040060055fd37005810f800220ef9001e
:101a70004e2eef000268a900004006004ffd37001f
:101a800050082000107188004e2eef000268a90057
:101a90000040060049fd37007000200010718800ea
:101aa0004e2eef000268a9000040060043fd3700fb
:101ab00060082000107188004e2eef000268a90017
:101ac000004006003dfd3700b00120001071880085
:101ad0004e2eef000268a9000040060037fd3700d7
:101ae00040082000107188004e2eef000268a90007
:101af0000040060031fd37006000200010718800b2
:101b00004e2eef000268a900004006002bfd3700b2
:101b1000900a2000107188004e2eef000268a90084
:101b20000040060025fd3700222eef004e2eef006c
:101b30000268a9000040060020fd37005008200080
:101b4000107188004e2eef000268a90000400600c8
:101b50001afd370090002000107188004e2eef0013
:101b60000268a9000040060014fd3700500820005c
:101b7000107188004e2eef000268a9000040060098
:101b80000efd3700b0022000107188004e2eef00cd
:101b90000268a9000040060008fd3700900a2000f6
:101ba000107188004e2eef000268a9000040060068
:101bb00002fd3700222eef004e2eef000268a90032
:101bc00000400600fdfc3700900a200010718800dc
:101bd000d0738100604090000080fb00c0828800cc
:101be0004e2eef000268a90000400600f3fc37000b
:101bf0005810f800220ef9004e2eef000268a900de
:101c000000400600edfc37005008200010718800ed
:101c10004e2eef000268a90000400600e7fc3700e6
:101c2000a0022000107188004e2eef000268a9006b
:101c300000400600e1fc37005008200010718800c9
:101c40004e2eef000268a90000400600dbfc3700c2
:101c5000c0012000107188004e2eef000268a9001c
:101c600000400600d5fc3700900a20001071880063
:101c7000c0738100604090000080fb00c08288003b
:101c80004e2eef000268a90000400600cbfc370092
:101c90005810f800220ef9004e2eef000268a9003d
:101ca00000400600c5fc3700500820001071880075
:101cb0004e2eef000268a90000400600bffc37006e
:101cc00070002000107188004e2eef000268a900fd
:101cd00000400600b9fc3700900a2000107188000f
:101ce000e07381009080fb00c1828800c1e7220080
:101cf0008008e8004e2eef000268a90000400600b0
:101d0000aefc37005810f800220ef9004e2eef00fe
:101d10000268a90000400600a8fc37005008200017
:101d2000107188004e2eef000268a90000400600e6
:101d3000a2fc370090012000107188004e2eef00a9
:101d40000268a900004006009cfc3700200a200021
:101d500010718800d0738100104890000080fb0053
:101d6000c08288004e2eef000268a90000400600e5
:101d700092fc37005810f800220ef9004e2eef00aa
:101d80000268a900004006008cfc3700000a200011
:101d900010718800c0738100104890000080fb0023
:101da000c08288004e2eef000268a90000400600a5
:101db00082fc37005810f800220ef9004e2eef007a
:101dc0000268a900004006007cfc3700900a200051
:101dd00010718800d0738100504090000080fb009b
:101de000c08288004e2eef000268a9000040060065
:101df00072fc37005810f800220ef9004e2eef004a
:101e00000268a900004006006cfc37005008200062
:101e1000107188004e2eef000268a90000400600f5
:101e200066fc3700b0012000107188004e2eef00d4
:101e30000268a9000040060060fc3700900a2000fc
:101e400010718800c0738100504090000080fb003a
:101e5000c08288004e2eef000268a90000400600f4
:101e600056fc37005810f800220ef9004e2eef00f5
:101e70000268a9000040060050fc3700500820000e
:101e8000107188004e2eef000268a9000040060085
:101e90004afc370060002000107188004e2eef00d1
:101ea0000268a9000040060044fc3700900a2000a8
:101eb00010718800d0738100004890000080fb0002
:101ec000c08288004e2eef000268a9000040060084
:101ed0003afc37005810f800220ef9004e2eef00a1
:101ee0000268a9000040060034fc370050082000ba
:101ef000107188004e2eef000268a9000040060015
:101f00002efc3700c0012000107188004e2eef001b
:101f10000268a9000040060028fc3700900a200053
:101f200010718800b07381009080fb00c18288002e
:101f300061e722008008e8004e2eef000268a90049
:101f4000004006001dfc37005810f800220ef90072
:101f50004e2eef000268a9000040060017fc370073
:101f600050082000107188004e2eef000268a90072
:101f70000040060011fc370080002000107188002e
:101f80004e2eef000268a900004006000bfc37004f
:101f9000900a200010718800c0738100704090008a
:101fa0000080fb00c08288004e2eef000268a9006e
:101fb0000040060001fc37005810f800220ef9001e
:101fc0004e2eef000268a90000400600fbfb370020
:101fd00050082000107188004e2eef000268a90002
:101fe00000400600f5fb37006000200010718800fb
:101ff0004e2eef000268a90000400600effb3700fc
:10200000900a200010718800d07381007040900009
:102010000080fb00c08288004e2eef000268a900fd
:1020200000400600e5fb37005810f800220ef900ca
:102030004e2eef000268a90000400600dffb3700cb
:1020400050082000107188004e2eef000268a90091
:1020500000400600d9fb3700b00120001071880055
:102060004e2eef000268a90000400600d3fb3700a7
:10207000900a200010718800c07381000048900011
:102080000080fb00c08288004e2eef000268a9008d
:1020900000400600c9fb37005810f800220ef90076
:1020a0004e2eef000268a90000400600c3fb370077
:1020b00050082000107188004e2eef000268a90021
:1020c00000400600bdfb3700700020001071880042
:1020d0004e2eef000268a90000400600b7fb370053
:1020e00060082000107188004e2eef000268a900e1
:1020f00000400600b1fb3700b001200010718800dd
:102100004e2eef000268a90000400600abfb37002e
:1021100040082000107188004e2eef000268a900d0
:1021200000400600a5fb3700600020001071880009
:102130004e2eef000268a900004006009ffb37000a
:10214000900a2000107188004e2eef000268a9004e
:102150000040060099fb3700222eef004e2eef00c4
:102160000268a9000040060094fb370050082000d8
:10217000107188004e2eef000268a9000040060092
:102180008efb370080002000107188004e2eef007b
:102190000268a9000040060088fb3700900a200072
:1021a000107188004e2eef000268a9000040060062
:1021b00082fb370000082000107188003ab0ed0063
:1021c0004e2eef000268a900004006007bfb37009e
:1021d00050082000107188003a10e20063023a00b3
:1021e000700b200010828800c0e822001004e0007c
:1021f00073023a0010748100d081880040082000ea
:10220000f08188004e2eef000268a9000040060011
:102210006afb370000022000107188004e2eef008c
:102220000268a9000040060064fb37005008200047
:10223000107188004e2eef000268a90000400600d1
:102240005efb370010022000107188004e2eef0058
:102250000268a9000040060058fb3700c0042000b7
:10226000107188004e2eef000268a90000400600a1
:1022700052fb37004210f800220ef9004e2eef00fc
:102280000268a900004006004cfb3700f00f200058
:10229000107188004e2eef000268a9000040060071
:1022a00046fb3700000a2000107188004e2eef0018
:1022b0000268a9000040060040fb37002000200013
:1022c000107188004e2eef000268a9000040060041
:1022d0003afb3700200a2000107188004e2eef00d4
:1022e0000268a9000040060034fb3700222eef00f0
:1022f0004e2eef000268a900004006002ffb3700b9
:102300004010f800220ef9004e2eef000268a900de
:102310000040060029fb3700222eef004e2eef0072
:102320000268a9000040060024fb37003e10f800b8
:10233000220ef9004e2eef000268a90000400600b0
:102340001efb370010002000107188004e2eef0099
:102350000268a9000040060018fb3700900a200020
:1023600010718800e07381009080fb00c1828800ba
:10237000c1e722008008e8004e2eef000268a900a5
:10238000004006000dfb37005810f800220ef9003f
:102390004e2eef000268a9000040060007fb370040
:1023a00050082000107188004e2eef000268a9002e
:1023b0000040060001fb37009001200010718800ea
:1023c0004e2eef000268a90000400600fbfa37001d
:1023d000e00a2000107188004e2eef000268a9006c
:1023e00000400600f5fa3700000820001071880050
:1023f0004e2eef000268a90000400600effa3700f9
:1024000020002000107188004e2eef000268a90005
:1024100000400600e9fa3700d0092000107188005a
:102420004e2eef000268a90000400600e3fa3700d4
:10243000222eef004e2eef000268a9000040060099
:10244000defa3700e00f200010718800c002210082
:10245000b08188004e2eef000268a90000400600ff
:10246000d6fa3700e00a2000107188004e2eef00e7
:102470000268a90000400600d0fa370020082000ba
:10248000107188004e2eef000268a900004006007f
:10249000cafa370020002000107188004e2eef008d
:1024a0000268a90000400600c4fa3700d0092000e5
:1024b000107188004e2eef000268a900004006004f
:1024c000befa3700222eef004e2eef000268a90060
:1024d00000400600b9fa3700e00f200010718800b4
:1024e000e0022100b08188004e2eef000268a900b2
:1024f00000400600b1fa3700600a20001071880021
:102500004e2eef000268a90000400600abfa37002b
:10251000c0002000107188004e2eef000268a90054
:1025200000400600a5fa3700d0092000107188008d
:102530004e2eef000268a900004006009ffa370007
:10254000222eef004e2eef000268a9000040060088
:102550009afa3700e00f2000107188000003210074
:10256000b08188004e2eef000268a90000400600ee
:1025700092fa3700600a2000107188004e2eef009a
:102580000268a900004006008cfa3700d000200045
:10259000107188004e2eef000268a900004006006e
:1025a00086fa3700d0092000107188004e2eef0007
:1025b0000268a9000040060080fa3700222eef00d2
:1025c0004e2eef000268a900004006007bfa37009b
:1025d000e00f20001071880020032100b0818800e6
:1025e0004e2eef000268a9000040060073fa370083
:1025f000200a2000107188003a10ed00d081880078
:102600004e013a00b0828000e10f50008c01320090
:1026100071013100062ea80010002000b082880051
:10262000f0738100d081880040082000008288007b
:102630004e2eef000268a900004006005ffa370046
:10264000222eef00b0828000e30f5000190132000b
:102650004e2eef000268a9000040060057fa37002e
:10266000a00e200010718800b0828000e30f50009f
:10267000ec0032004e2eef000268a9000040060078
:102680004efa3700a00e200010718800b082800042
:10269000e30f5000fe0032004e2eef000268a9004a
:1026a0000040060045fa3700a00e20001071880097
:1026b000b0828000e30f5000e30032004e2eef00a6
:1026c0000268a900004006003cfa3700a00e200076
:1026d00010718800b0828000e30f50000e013200bc
:1026e0004e2eef000268a9000040060033fa3700c2
:1026f000a00e200010718800b0828000e30f50000f
:10270000f90032004e2eef000268a90000400600da
:102710002afa3700a00e200010718800b0828000d5
:10272000e30f5000f80032004e2eef000268a900bf
:102730000040060021fa3700a00e2000107188002a
:102740004e2eef000268a900004006001bfa370079
:10275000222eef004e2eef000268a9000040060076
:1027600016fa3700222eef004e2eef000268a90065
:102770000040060011fa3700222eef004e2eef0027
:102780000268a900004006000cfa3700222eef0074
:102790004e2eef000268a9000040060007fa37003d
:1027a000222eef004e2eef000268a9000040060026
:1027b00002fa3700222eef004e2eef000268a90029
:1027c00000400600fdf93700222eef004e2eef00ec
:1027d0000268a90000400600f8f93700222eef0039
:1027e0004e2eef000268a90000400600f3f9370002
:1027f000222eef004e2eef000268a90000400600d6
:10280000eef93700222eef004e2eef000268a900ed
:1028100000400600e9f93700c08180000000e000b8
:10282000ce003200010f2000117188000000e90085
:10283000c08188004e2eef000268a900004006000b
:10284000def93700f00f2000107188004e2eef00e7
:102850000268a90000400600d8f93700c081800056
:102860000000e000b9003200010f20001171880063
:102870000000e900c08188004e2eef000268a90028
:1028800000400600cdf93700f00f200010718800dd
:102890004e2eef000268a90000400600c7f937007d
:1028a000c08180000000e000c1003200010f200064
:1028b000117188000000e900c08188004e2eef00f1
:1028c0000268a90000400600bcf93700f00f2000a4
:1028d000107188004e2eef000268a900004006002b
:1028e000b6f937004210f800220ef9004e2eef0024
:1028f0000268a90000400600b0f93700f00f200080
:10290000107188004e2eef000268a90000400600fa
:10291000aaf93700222eef004e2eef000268a90020
:1029200000400600a5f93700222eef004e2eef00e2
:102930000268a90000400600a0f93700222eef002f
:102940004e2eef000268a900004006009bf93700f8
:10295000222eef004e2eef000268a9000040060074
:1029600096f93700222eef004e2eef000268a900e4
:102970000040060091f93700222eef004e2eef00a6
:102980000268a900004006008cf93700222eef00f3
:102990004e2eef000268a9000040060087f93700bc
:1029a0003e10f800220ef9004e2eef000268a9003a
:1029b0000040060081f937001000200010718800e7
:1029c0004e2eef000268a900004006007bf9370098
:1029d000c0042000107188004e2eef000268a9008c
:1029e0000040060075f93700a00e20001071880025
:1029f0004e2eef000268a900004006006ff9370074
:102a00004010f800220ef900b0828000e30f500061
:102a1000160032004e2eef000268a90000400600aa
:102a200066f937005450e20077003a0040758100a3
:102a3000c073890031758100b17389004e2eef009b
:102a40000268a9000dff37005450e20091003a00df
:102a5000a07581002074890091758100117489002e
:102a60004e2eef000268a90016ff37002074810087
:102a7000d08188005630ef0010c0b3002af0b700b4
:102a8000062ea9004e2eef000268a900e3ff3700d2
:102a90005450e20063003a0060758100e0738900e1
:102aa00051758100d17389004e2eef000268a90094
:102ab000fbfe3700c0e822001004e000e4fe320014
:102ac000e07381009080fb00e1828800c1e7220072
:102ad0008008e80010c0b3005af0b7004e2eef0097
:102ae0000268a900dcfe37005450e20070003a0092
:102af000c1eb2200c0e82200114878004e2eef0002
:102b00000268a90001ff37005410aa004e2eef0002
:102b10000268a90006ff37005450e20056003a0050
:102b200070758100f07389008175810001748900de
:102b30004e2eef000268a900ebfe37004e2eef008c
:102b40000268a900004006001cf93700222eef00a1
:102b50004e2eef000268a90049ff3700222eef0039
:102b60004e2eef000268a90034ff3700a0e72200d4
:102b7000900078006a88400080e72200900078008a
:102b80006a8840004e2eef000268a9009ffd3700c2
:102b9000e17381001180fb00c2e722000109e80017
:102ba000c08288004e2eef000268a900acfa370000
:102bb000222eef004e2eef000268a90041ff3700e1
:102bc00020e822001000e900d081880040082000a1
:102bd000f08188008bfd3700e20f5000d7ff3a00ec
:102be00030002000b082880060082000f08188005a
:102bf000e0032000108288004e2eef000268a9003a
:102c000000400600edf8370080748100c073890031
:102c100071748100b17389004e2eef000268a90023
:102c200096fe3700a0748100e073890091748100e2
:102c3000d17389004e2eef000268a90098fe37007c
:102c400020002000b0828800c0e822001004e000cc
:102c50001d003a0000e822001000e800d081880042
:102c600060082000008288004e2eef000268a90054
:102c700000400600d1f83700b0748100f07389007d
:102c8000c1748100017489004e2eef000268a90012
:102c900095fe3700e074810020748900d1748100b2
:102ca000117489004e2eef000268a90085fe3700de
:102cb00041ea2200c0e82200114878004e2eef00c1
:102cc0000268a90091fe370001748100d18188005b
:102cd00060082000008288004e2eef000268a900e4
:102ce000e3ff37000040da000000fe0000000500ae
:102cf0008001780002003700b15978000201e90034
:102d00000200e000fcff3a0000000600889fbe00c1
:102d10008a9fbe00800478000200e0005a00320062
:102d200001407800814c780082814400f1f99f00d5
:102d3000e20f51005400360091449800a1449800dd
:102d4000e1f99f00d1f99f00e60f51004e003600d7
:102d5000b1449800c1f99f00e80f51004a003600c5
:102d60000905ea00630565000a8444000a0551006c
:102d7000c1ff2f00010565000080fb008000eb0013
:102d8000121020001310200043000700008cbe002a
:102d90000a01440060b99f0071b99f00e80f550017
:102da000390036002004980031049800400498004f
:102db0005104980020b99f0031b99f0040b99f008d
:102dc00051b99f00f80f55002f003600600498009d
:102dd00071049800000c9800110c9800200c9800c9
:102de000310c9800400c9800510c980020b19f00c5
:102df00031b19f0040b19f0051b19f0060b19f0071
:102e000071b19f0000b99f0011b99f006401640077
:102e10007801410002044400020555006011b80029
:102e20000203be000002be000403be006022b80020
:102e300000007200818072000201730083817300c0
:102e40000f00370008027800009abe00029abe0008
:102e5000009abe000292be00000c9800110c98006f
:102e6000220c9800330c9800400c9800510c9800ec
:102e7000620c9800730c98000a02b1000802b000be
:102e8000ff0f5500efff3e00090078004f05be0020
:102e90004f04be0000000600020ab900001bb90082
:102ea0000200b800810042008100430000000600db
:020000040000fa
:102eb00001000000c03e0000d91f0000c1f8000062
:102ec0000ffb00001f01000000000000f16c00007b
:102ed00086f00000ff0700001fe700003e8d0000a5
:102ee000f83f000083f000007fff0000e0fc0000de
:102ef000feff00000e0f0000d8f000003777000042
:102f0000debf00007b070000ef39000007e0000093
:102f1000fe0f0000fc7f0000ff7e0000c7df000006
:102f2000f13f000003f00000c7f800003ff7000089
:102f3000f703000037ff0000ff6300008cff000074
:102f4000fffa00009ce30000bfff0000ff710000db
:102f500067ff0000fffc000077730000bfff000068
:102f6000ff7300009dff0000fffa00009c9c000022
:102f70003fff0000ffcc000099ff0000fffa0000b7
:102f8000dc9800007fff0000ffcc000066ff00001f
:102f9000fffc0000677700007fff0000ff310000aa
:102fa000c6ff0000fffc0000277700007fff000045
:102fb000ff3b0000c6ff0000fffc000027d8000018
:102fc000ffff0000ffc60000cdff0000fffe000075
:102fd00027d80000ffff0000ffe6000033ff0000dd
:102fe000fffe0000d8d80000ffff0000ff660000d1
:102ff000cdff0000ffff0000a6d80000ffff00008b
:10300000ff66000076ff0000fffe0000d92f0000e1
:10301000ffff0000ffdd000001ff0000ffff0000d8
:10302000c9d00000ffff0000ffb6000093ff0000c2
:10303000ffff0000362e0000ffff0000ffcc000065
:1030400003ff0000ffff0000962e0000ffff0000be
:10305000ff6e000003ff0000ffff0000162e0000bf
:10306000ffff0000ff800000f8ff0000fff00000fd
:10307000ffff00009fff0000f03f000007ff00007f
:10308000ffff0000a97f0000ffff0000f0f6000036
:1030900003ff0000ffff0000617f0000cfff000082
:1030a000f0ff000033ff0000ffff0000e95d0000bb
:1030b000c7ff0000f0f20000a1ff0000ffff0000ca
:1030c000f57d0000c7ff0000fbfb000021fe0000b3
:1030d000fffe0000755d0000873f0000f00f00005c
:1030e00060f800000cfc0000757b0000871e0000eb
:1030f000f00f000060f000000cf80000f77e000008
:10310000838f0000f0870000e0e0000005f0000081
:10311000b3f6000003cf0000f0860000e0e00000fe
:1031200001f00000bbbd000003cf0000f0860000ee
:10313000c0e0000083f000005b75000003ef0000ba
:10314000f0070000c0e0000083f000007b79000081
:1031500001ef0000f0070000c0e0000083f0000075
:103160002d43000041ef0000f07f0000d0e00000a0
:10317000c7f000009f470000c1cf0000f0f700003b
:1031800098e00000c7f0000003870000c19f000026
:10319000f0ef000098f00000e7f80000c30f000017
:1031a000c03f0000f00f0000bdf80000effc000081
:1031b000e11f0000e17f0000f13f0000bfff0000c1
:1031c000fffe0000f11f0000f8ff0000ffff0000fd
:1031d000ff3f0000ffcf0000f11f0000f0ff0000e4
:1031e000ffff0000ff1f0000ff8f0000f31f000023
:1031f000e1ff0000ffff0000ffff0000ff0f0000e5
:10320000f31f0000c1ff0000feff0000ffff0000f1
:10321000fc030000230f0000c18100004efd0000f0
:10322000ffff0000f8070000f7cf0000813000002a
:103230000eff0000ffff0000f80f0000e39f0000fa
:1032400081f000003fff0000ffff0000f80f0000ca
:1032500007df0000818000003fff0000ffff00004b
:10326000f80f0000efb70000811000007fff0000a2
:10327000fffe0000f80f0000e3ff000083100000d5
:103280007fff0000fffe0000f80f0000b7ff000006
:10329000811000007fff0000fffe0000f80f00001b
:1032a00087ff0000811000007fff0000fffe00008c
:1032b000f809000043cf0000c11000007fff0000ac
:1032c000ff9e0000f80b000077f70000e1100000ff
:1032d0007fff0000ff3f0000f803000057ff0000e1
:1032e000f08000007fff00003f7f0000fc870000af
:1032f000fffe0000ffff0000ff070000f0ff0000de
:10330000fff80000ffff0000ffff0000ff030000c8
:10331000ffff0000ffff0000fcff0000ffff0000b8
:10332000ff070000f0ff0000fff00000ff3d00007d
:10333000ffff0000fffc00007fff0000ffff000018
:1033400003ff00001fff0000ff0f00007fff0000d1
:10335000ffff0000f4c30000ffff0000fffc0000bf
:103360003fff0000ffff0000cbff00003fff000019
:10337000ff0700003fff0000ffff0000a4890000de
:10338000ffff0000fffb00008000000000000000c5
:1033900021ff0000ffff0000fffd00000000000013
:1033a000000000000000000000000000000000001d
:1033b000000000000000000001000000000000000c
:1033c0000000000000000000000000000fe000000e
:1033d00000000000000000000000000000000000ed
:1033e0007ff80000000000000000000070000000f6
:1033f00000000000fff800000000000000f80000de
:10340000ff00000000070000fffc0000800000003b
:1034100000fc0000ff000000000f0000fffd0000a6
:10342000c30000001efc0000fff80000801f000029
:10343000fffd0000c71f0000fffd0000fffc0000b3
:10344000e19f0000fffd0000ef3f0000fffd0000d6
:10345000fffe0000f3bf0000f6000000ef7f000059
:10346000fffc00003ffe0000f3bf0000030000006f
:10347000ef7f0000ffc800009dff0000fb9b0000e5
:1034800007800000ef7f0000fffc0000c2de0000ac
:10349000fb9800000fc30000cf7f0000fb1f00005f
:1034a000fcff0000fb0100009fc7000000000000bf
:1034b00000ff0000fe000000fb0300009fef000083
:1034c0000fec00000fff0000fff00000c0c700007d
:1034d000ffaf00001f1f0000ffff0000fffc000007
:1034e000e0e70000ffff0000bf7f0000ffff0000db
:1034f000fffe0000f9ef0000ffff0000bf7f0000ab
:10350000fffa0000fffe0000f9ef0000d8ff000006
:10351000bfff0000ffe80000f4fe0000f9ed00002e
:10352000fffc00003fff0000ff000000d2da0000b7
:10353000690000007f1c00003fff0000ff03000047
:10354000c0ff0000fbfe0000e13f0000007f000024
:10355000fd3f0000f0e40000e1000000f17f00000a
:103560003fff0000ffff0000fce00000e0e0000083
:10357000fb7f00003f1f00003fff0000fcf0000049
:10358000e0f90000fbff00007f3f00007fff00002c
:10359000fef80000f8f90000fb7f0000ffff0000cc
:1035a000ffff0000fefc0000f8f900009b5f000038
:1035b000ffff0000ffff0000fffc0000fdfd00001a
:1035c00000ff0000ffff0000ff9f0000ff00000061
:1035d000fd9f0000ffbf000000b70000fbff0000e0
:1035e000f9fb00004fff00003cf80000ffff000067
:1035f000fff800007fff0000ffff0000fcff00005d
:103600009bd90000000f0000e0df0000fff8000081
:10361000ffff0000ffd90000073f0000f1e00000bd
:10362000e0fc0000ffff0000ff3f00003f3f000004
:1036300020f0000000000000606000006220000038
:10364000f2f00000f220000010f000002220000044
:103650002034000054560000346400005262000020
:1036600034220000224800004822000034220000da
:10367000f2f2000054540000624800004834000098
:103680004a3400004656000048480000484a0000fe
:103690004a4a00004a4a0000f44600004a2000005e
:1036a00062040000065200002006000006e200004e
:1036b000624800000406000004540000f206000006
:1036c000060400003448000006080000063400002c
:1036d00062b80000d804000020480000060800007e
:1036e00006460000460800000806000036f200000a
:1036f00006080000e820000048d800000806000086
:1037000046640000b80a000006f2000062080000eb
:103710000ab60000f2460000060a00000846000053
:10372000f2ba00000a06000062480000060a000023
:1037300008480000620a00000ab80000f2220000f7
:1037400006dc00000a20000020dc00000c0600005f
:1037500020220000080c00000af20000460a0000c7
:103760000c06000048220000d80c00000af20000fd
:10377000f20c00000c060000f2520000080e0000df
:103780000a220000340c0000deb8000046340000bd
:103790009e0e0000dc340000060c00000e08000045
:1037a00048200000080e00000c640000040e000019
:1037b0000e080000f24600000a0e0000de34000091
:1037c000060e00000e08000044460000dc0e00005b
:1037d0000c340000060e00000e0800002056000009
:1037e0000a0e00000e040000460e00000e0a000043
:1037f000222200000c0e00000e540000080e0000f3
:103800000e0a000048340000ae0e00000e04000056
:10381000060e00000e0a00004a3400000c0e0000e4
:103820000e360000060e00000e0c00004856000088
:103830000c0e00000e060000060e00000ebc00007c
:10384000484600000c0e00000e040000060e0000aa
:103850000e0c0000484600000e0e00000e34000062
:10386000240e00000e0c00004a4800000e0e00005e
:103870000ef20000040e00000e0c0000484800008c
:103880000e0e00000e540000040e00000c0e00008e
:10389000484600000e0e00000ef40000040e00006a
:1038a0000e0e0000483400000e0e00000e04000052
:1038b000060e00000e0e0000484600000c0e000030
:1038c0000ed60000b80e00000e0e000048460000a4
:1038d0000e0e00000e060000060e00000e0e000088
:1038e00048f600000e0e00000e080000b80e0000a2
:1038f0000e0e0000480400000c0e00000e08000030
:10390000080e00000e0e0000480600000e0e00001b
:103910000e060000080e00000e0e00000606000055
:103920000c0e00000e060000080e00000e0e000037
:1039300004b600000e0e00000e0600000a0e000085
:103940000e0e0000040600000e0e00000e0800001f
:10395000dc0e00000e0e000006d600000e0e000069
:103960000e0800000a0e00000e0c00000406000005
:103970000e0e00000e0800000a0e00000e0c0000e3
:10398000060600000e0e00000e0a00000a0e0000df
:103990000e0c0000480600000e0e00000e0a00008b
:1039a0000a0e00000e0c0000040600000e0e0000bf
:1039b0000e0a0000dc0e00000e0c000006060000df
:1039c0000e0e00000e0a00000c0e00000e0c00008f
:1039d000480400000e0e00000e0800000a0e000051
:1039e0000e0e0000260600000e0400000eba0000b5
:1039f000dc0e00000e0e0000060400000e0e00009b
:103a00000e0800000a0e00000e0c00004804000022
:103a10000e0e00000e0a00000a0e00000e0c000040
:103a2000363600000e0e00000eba0000dc0e00005c
:103a30000e0a0000480400000e0e00000e080000f0
:103a40000a0e00000e0a0000480400000c040000ea
:103a50000eda00000a0e00000e0c000048f4000010
:103a60000e1000000e080000dc0e00000e0c00001e
:103a7000342200000e0e00000e060000080e0000aa
:103a80000e0e0000225400000e0e00000e04000076
:103a9000ba0e00000e0e0000542200000e0e0000b0
:103aa0000e060000060e00000e0e0000322200007e
:103ab0000e0e00000e080000080e00000e0e0000a2
:103ac000205400000e0e00000e040000da0e00006c
:103ad0000e0c0000544600000e0e00000e08000000
:103ae0000a0e00000e0c0000622200000e0e000004
:103af0000e340000080e00000e0c000052460000bc
:103b00000a0e00000e04000020000000000000006b
:103b1000f0000000000000000000000000000000b5
:103b20000000000000000000000000000000000095
:103b30000000000000000000a000000000000000e5
:103b40000000000000000000000000009c9c00003d
:103b50000000000000000000000000000000000065
:103b60009c9c000000000000000000009400000089
:103b7000000000009a8e000000000000009a000083
:103b80009c000000009c00008e8c00009c00000047
:103b9000009c00009c000000009c00008c8a00003b
:103ba0009c0000008c9a00008cac0000a09a0000e1
:103bb000949400009c9a00009c8a00008c9c000059
:103bc0009c8c000002e200008c9c00009a04000023
:103bd000a49a00009a96000002a000008a8e0000bd
:103be0008c920000948c00008c86000086f000000f
:103bf000868c0000887200007276000004020000cb
:103c0000ac9a00009288000086a000007494000026
:103c1000860200009c9a000072740000849a0000e2
:103c20009ca00000028600008e9c0000a0a0000066
:103c3000a0ac00009cf00000729c00008c8e000084
:103c40008cf00000989c00009c9c0000029c0000ee
:103c50008a8c0000ac8c0000ac8c00008c9e0000b4
:103c60009c9a0000869400009aac00009c8a000098
:103c70008a9a00009c8c0000020200008c9a0000ce
:103c80008e760000948c00009a88000002a000004c
:103c9000888e00008a940000029600008a86000048
:103ca000a09000008696000086a0000072860000aa
:103cb00076020000e09600008486000094920000e6
:103cc0008a02000084a000009e9c0000a0920000d8
:103cd000729c0000acf00000e0a000009c9c000082
:103ce00092900000a09c00009c860000a09c000018
:103cf0008c8c00009c9200009c9c00008e9c00001c
:103d00009a9c00008a8a00009c9c0000ac8c0000f9
:103d10008c9c00009c9a0000769400009a9c000005
:103d20008e8a0000889a00009c8c00007474000049
:103d30008c8e00008c860000748a00008c94000039
:103d4000a0720000948a00008810000072860000b3
:103d500088020000f0a000000288000086a0000099
:103d6000a084000092e000009a9c0000f092000005
:103d7000a2a000009072000092a000009e9c000093
:103d8000a0a00000f09c00009cf00000f086000065
:103d90009a9c00008cf000008a9c00009a8c000025
:103da000029c00008e8c0000ac8c00009c8e0000f9
:103db000f0000000f0f00000f0f0000048200000eb
:103dc000f0220000f048000048f00000f0f0000091
:103dd00048f00000f0480000f048000048200000d3
:103de00048f0000048460000484800002046000017
:103df00048480000f2f2000020480000482000007f
:103e0000460200004822000008a8000022f000003e
:103e100020e00000f0f00000f0f00000f0e0000012
:103e2000e000000000000000e000000000000000d2
:103e3000000000000000000000e0000000000000a2
:103e4000e000000000d0000000e00000e0f0000012
:103e5000f00000000000000000f00000e0f00000b2
:103e600000000000f0000000f00000000000000072
:103e7000f000000000000000f0000000e000000082
:103e80000000000000000000980800000a08000080
:103e9000200800000a240000220a0000f020000090
:103ea000f2080000f0f0000000f000000000000048
:103eb0000000000000000000000000000000000002
:103ec00000000000000000000000000000000000f2
:103ed00000a00000a0f00000a0000000f0a0000082
:103ee00000a00000f0a0000000a00000a000000062
:103ef000f0a20000a0e00000a2a0000002900000dc
:103f0000f0a00000a0000000f0a000000090000061
:103f1000f0a00000a2e00000a0e200008602000085
:103f2000a28800009af0000000a0000000a000009d
:103f300027f900001fc30000ff00000036e8000062
:103f40003eb00000ff070000c08c0000e76e0000dc
:103f500081f000001fc700007fff00002f07000056
:103f6000f9fc0000ff0f0000c0fc000037fb000060
:103f70001ff00000f419000003f00000de3f000015
:103f8000fe0f0000f3060000c3f000000ff0000079
:103f9000fc1f000083f000001ff100007c9e000069
:103fa000ff7c000087dc000098ff00007ff000002d
:103fb0000c030000bfff0000ff7100009dff000028
:103fc000fffa00009c9c00003fff0000ff8c0000f7
:103fd0009cff0000fffa00009ce70000bfff00000c
:103fe000ff73000066ff0000fffc00006777000021
:103ff000bfff0000ff730000e7ff0000fffd0000af
:10400000679800007fff0000ffcc000099ff0000d0
:10401000fffc0000d8d80000ffff0000ffcc00002c
:10402000bbff0000fffd0000d8d800007fff0000ac
:10403000ffce0000c4ff0000fffe000027d80000f4
:10404000ffff0000ffc60000cdff0000fffe0000e4
:1040500037370000ffff0000ff990000cdff000090
:10406000fffe000027da0000ffff0000ff660000ef
:10407000c9ff0000fffe0000263f0000ffff000018
:10408000ff99000067ff0000fffc0000d92e000030
:10409000ffff0000ff5d00009bff0000ffff00002e
:1040a00016d10000ffff0000ffb3000023ff000057
:1040b000ffff0000c9d00000ffff0000ff800000ec
:1040c00043ff0000ffff0000e9d10000ffff0000f8
:1040d000ffd3000003ff0000ffff0000e1ff00002e
:1040e00017ff0000f87f0000f8ff0000fff8000055
:1040f000ff6d0000ffff0000f0e40000dfff0000a4
:10410000ffff0000e91c0000efff0000f0e00000ee
:1041100093ff0000ffff0000f97f0000c7ff0000d1
:10412000e0f2000091ff0000ffff0000ed5d0000e5
:10413000c7ff0000f1f80000a1ff0000ffff000032
:10414000f15d0000c7ff0000f93b0000e1fc00004a
:104150001efe0000755b0000831e0000f00d0000d5
:1041600060f800000cfc000075df0000879f000075
:10417000f08f0000e0f000000df80000bf320000fa
:1041800003cf0000e0860000e0e0000005f0000042
:10419000bb3e000003cf0000f0860000e0e000001e
:1041a00001f00000dbf5000003ef0000f007000065
:1041b000c0e0000083f000005b75000003ef00002a
:1041c000f0070000c0e0000083f000000b6b00006f
:1041d00041ef0000f0ff0000d0e00000c3f000005d
:1041e00005d30000c1cf0000f0ff000098e0000000
:1041f000c7f0000087070000c1df0000f067000083
:1042000098f00000c7f80000c3070000c09f00003e
:10421000f00f000099f00000e7f80000c30f000065
:10422000e17f0000f11f0000bdfc0000fffe000068
:10423000e11f0000ffff0000ffff0000ff7f000004
:10424000ffff0000f11f0000f0ff0000fffd000075
:10425000ff1f0000ff8f0000f33f0000e1ff0000a0
:10426000ffff0000ff9f0000ff0f0000f31f000092
:10427000c1ff0000ffff0000ffff0000ff0700007c
:10428000e11f0000c1c300004eff0000ffff00005f
:10429000f8030000e39f000081b100000eff000062
:1042a000ffff0000f8070000f70f0000817000001a
:1042b0000efe0000ffff0000f80f0000eb070000fb
:1042c00081c000003eff0000ffff0000f80f00006b
:1042d000f39f0000818000003fff0000ffff00000f
:1042e000f80f0000ef070000811000007efc0000c6
:1042f000fffe0000f80f0000e78f000081100000b3
:104300007fff0000fffe0000f80f0000b703000071
:10431000811000007eff0000fffe0000f80f00008b
:10432000f7df0000c11000007ffc0000ffde00008e
:10433000f80b0000dfff0000c11000007fff00004d
:10434000ff1e0000f803000077ff0000e0000000ff
:104350007fff0000ff3f0000f8870000d7fe00004d
:10436000f8890000fff800000fff0000ffce0000fa
:10437000feff0000ffff0000ff1f00000fff000016
:10438000fffc0000ffd70000ffff0000fffe000061
:1043900007ff0000fff80000ffff00007fff0000a4
:1043a000ff1f00007fff0000ffff00004bc3000065
:1043b000ffff0000fffc0000e0ff0000fff0000036
:1043c000ffdb0000ffff0000fffd00007fff00009b
:1043d000ffff0000f4cb0000ffff0000fff800002b
:1043e000c0ff0000fff00000ff8b0000ffff000097
:1043f000fff900003fff0000ffff00002401000064
:1044000000000000000300007fff0000ffff00002d
:10441000fe0000000000000000000000000000009e
:10442000000000000000000000000000000000008c
:10443000000000000000000003c0000000000000b9
:104440000000000000000000000000003ff000003d
:10445000000000000000000000000000000000005c
:104460007ff8000000000000003000007c00000029
:1044700000010000fffc00008000000000f80000c8
:10448000ff00000000070000fffd000080000000aa
:1044900006fc0000ffc00000000f0000fffd000050
:1044a000c7000000fffd0000fffc0000c19f0000ee
:1044b000ffff0000cf1f0000fffd0000fffe000017
:1044c000f19f0000fffd0000ef7f0000fffc0000f7
:1044d000fffe0000f39f0000e87e0000cf7f000099
:1044e000fff800004fff0000fbbf0000038000004a
:1044f000ef7f0000ff000000ffff0000fbbf000097
:104500000fc100006f7f0000ff1e0000e07f000071
:10451000fb0000001fc700008f7f0000ffff0000ae
:10452000fc9c0000e00100009fef00008ff4000001
:104530004fff0000ffc000001d8300009fef000040
:104540001f1f00007fff0000fff80000e0c7000011
:10455000bfef00009f3f0000ffff0000fffc0000d6
:10456000f1ef0000ffdf0000bf7f0000ffff000051
:104570003ffe0000f9e400006f2f0000bf7f000045
:10458000ffff0000fffe0000fbff0000d9fe00005f
:10459000efff0000feff000097fe0000ffe90000b3
:1045a0005ef3000000ff0000e9de0000e0ff000015
:1045b000fffe0000c03f000000ff0000600f000091
:1045c000e0df0000ddf60000f17f000036df0000d4
:1045d000007f0000f8fe0000fbe00000fb7f000011
:1045e0003f1f00000fff0000fce00000c0f00000d3
:1045f000fbff00007f3f00007fff0000fcf8000091
:10460000f0f90000fb7f0000ff7f0000ffff0000cb
:10461000fefc0000f8f90000f8170000ffff0000a2
:10462000fff40000fefc0000f9f90000e8000000c3
:10463000ffff0000fffe00009bfd0000fdff0000eb
:10464000ffff0000e0ff0000d3ff000022fd00009c
:10465000f9df0000f7e00000ffb60000fffe0000f9
:10466000ffff0000ffff0000fefe0000ffff000054
:10467000fff80000c0ff0000fefc0000ffff00008c
:10468000fcfd0000bf1f0000e000000000f800007b
:10469000ffff0000ff3f00001f3f0000f1e00000af
:1046a000f0fe0000ffe00000000000000800000035
:1046b0002060000060600000f220000060640000e4
:1046c00022620000543400006220000054620000a6
:1046d0006434000034220000462200002220000042
:1046e00046f20000206200003454000048560000ea
:1046f0005462000048460000464a00004a46000056
:104700004a4a0000484800004a480000484a000061
:104710004c4a0000f204000006f20000f2620000c1
:10472000f20600000420000052060000060400000b
:104730004648000004d800000632000022060000af
:10474000080400005620000004080000b8620000c1
:1047500046060000080600004848000006ba0000af
:10476000064800002008000008040000624600001f
:10477000060a0000aa460000f2080000da04000061
:104780002022000006da000008620000460a00004d
:104790000a06000048220000060a0000da20000095
:1047a00034080000bc06000046220000080c00008f
:1047b00008f20000f20a00000c060000205400007d
:1047c000b80c000008620000f20a0000dc060000dd
:1047d000f2480000080c0000bc480000640a000019
:1047e0000cd800006422000008de00000a5200001d
:1047f000f2dc00000e08000020460000080e000059
:104800000c460000580c00000e0800004656000040
:10481000da0e00000c460000040c00000e08000038
:1048200062f200000a0e00000cf2000006de00003a
:104830000eba0000482000000a0e00000c04000020
:10484000060e00000e0a0000482000000a0e0000bc
:104850000e040000060e00000eda000048220000e0
:10486000dc0e00000e340000560e00000e0a0000a0
:10487000565400000c0e00000e260000060e00002c
:104880000ebc0000485600000c0e00000eb60000e2
:10489000060e00000e0a0000483400000c0e000056
:1048a0000e060000060e00000e0c00004846000038
:1048b0000e0e00000e060000060e00000e0c00009a
:1048c000484600000c0e00000e040000040e00001c
:1048d0000e0c0000483400000e0e00000e540000c4
:1048e000240e00000e0c0000484600000e0e0000d2
:1048f0000e220000040e00000c0e000048480000cc
:104900000e0e00000ef20000040e00000e0e00005d
:10491000484600000e0e00000e040000060e0000c7
:104920000e0e0000484600000e0e00000e040000af
:10493000060e00000e0e0000483400000e0e0000af
:104940000e040000080e00000e0e00004a040000d5
:104950000e0e00000e060000060e00000e0e0000f7
:10496000480400000c0e00000eb80000060e000007
:104970000e0e0000580600000c0e00000e0600008f
:10498000080e00000e0e0000260600000e0e0000ad
:104990000e060000b80e00000e0e000036060000e5
:1049a0000c0e00000eb800000a0e00000e0e0000f3
:1049b000060600000c0e00000e0800000a0e0000a3
:1049c0000e0e0000f60600000e0e00000eda0000cb
:1049d0000a0e00000e0e0000040600000c0e00007f
:1049e0000e9e00000a0e00000e0e000004060000dd
:1049f0000e0e00000eda0000dc0e00000e0a0000b1
:104a0000060600000e0e00000e0800000c0e00004e
:104a10000e0c0000060600000e0400000eba000096
:104a20000a0e00000edc0000240600000e0e00003e
:104a30000e0800000a0e00000e0e00000606000020
:104a40000e0e00000eda00000a0e00000e0e00002e
:104a5000040600000eb200000e0800000a0e00005e
:104a60000e0c0000560600000e0e00000e0a00009c
:104a70000a0e00000e0e0000360600000e0e0000aa
:104a80000eda00000a0e00000e0c000048060000be
:104a90000e0e00000e0800000a0e00000e0c0000b2
:104aa000480400000e0e00000e0a00000a0e00006e
:104ab0000e0a0000483400000e0e00000e08000030
:104ac0000a0e00000e0c000048f40000de0000009a
:104ad0000e0800000a0e00000eda00004854000024
:104ae0000c0c00000eba00000a0e00000e0e0000b2
:104af000542200000e0e00000e0600000a0e0000f8
:104b00000e0e0000223400000e0e00000ed8000031
:104b10000a0e00000e0e0000225400000e0e0000cf
:104b20000e0400000a0e00000e0e000062340000a9
:104b30000e0e00000eb80000040e00000e0e000065
:104b4000223400000e0e00000e060000080e0000c9
:104b50000e0c0000225600000e0e00000ed80000c1
:104b6000040e00000e0e0000204600000e0e000095
:104b70000e060000060e00000e08000020220000b5
:104b80000000000000220000000000000000000003
:104b90000000000000000000000000000000000015
:104ba0000000000000000000000000000000000005
:104bb00000000000000000009a98000000000000c3
:104bc0000000000000000000000000009c9c0000ad
:104bd00000000000000000000000000000000000d5
:104be0009c9c000000000000009400009a0000005f
:104bf00000a200009a9a0000a0000000009e0000a1
:104c00009c00000000ac00008c8a00009c000000aa
:104c1000a09a00009a8a0000009c0000888800008a
:104c20009c000000ac8c00008c9e00009a8e00005e
:104c3000868400009aac00009c880000889a0000de
:104c40009c8c0000927400008c9a00008e860000fc
:104c5000748e00009a88000072900000888e000018
:104c60008c020000749600008c0200009a880000fc
:104c70000296000094a00000a0940000947200002e
:104c80009c9a000002940000028600009a740000c2
:104c900092a000009c9c0000f0020000f09e00002a
:104ca000ac720000029a00009a9a0000a072000004
:104cb000729c00009c940000f09a00008a8c000016
:104cc0009c9200009c9a00009aac00009a9c000004
:104cd000888800009c9c00009c8c00008c9c00003c
:104ce0009c8e0000928600008e9c00009a040000ba
:104cf000889a00009a8c0000727400008c8e00006c
:104d00008e940000748c00008e88000072f0000009
:104d1000868a000096720000028800008802000067
:104d200000e000000286000086f00000a092000073
:104d300094720000969c0000f0020000109a00009f
:104d40009a72000002f000009c9c0000f00200003b
:104d5000a09c00009ca00000729200009a9a0000a3
:104d60009ae000008c9c00009c9a0000029c0000cd
:104d70008c8c0000ac8e00009c9a00009a9c000075
:104d80009c9c0000960400008eac00009c8a0000f1
:104d90008a9a00009c8e0000949400008c9a000077
:104da0009a040000948e00009a8a000074a000000b
:104db000888c00008a840000b20400008a8600000b
:104dc00090f000009296000094720000729400002f
:104dd00076920000a09a00008474000002e00000b7
:104de00000100000027200009c9c0000a002000065
:104df000728200009aa0000072e000009c9c0000fb
:104e000094720000a09c00009ca00000a09a0000ea
:104e10009a9a00009ca200009a9a00009a9c0000b6
:104e20008c9c00008c000000f010000060f000007e
:104e3000f0000000f0f00000f0f00000482000005a
:104e4000f0220000f048000048f00000f0f0000000
:104e500048f00000f0480000f04800004820000042
:104e600048f0000048460000484800002046000086
:104e700048480000f2f200002048000048200000ee
:104e8000460200004822000008a8000022f00000ae
:104e900020e00000f0f00000f0f00000f0e0000082
:104ea000e000000000000000e00000000000000042
:104eb000000000000000000000e000000000000012
:104ec000e000000000d0000000e00000e0f0000082
:104ed000f00000000000000000f00000e0f0000022
:104ee00000000000f0000000f000000000000000e2
:104ef000f000000000000000f0000000e0000000f2
:104f00000000000000000000980800000a080000ef
:104f1000200800000a240000220a0000f0200000ff
:104f2000f2080000f0f0000000f0000000000000b7
:104f30000000000000000000000000000000000071
:104f40000000000000000000000000000000000061
:104f500000a00000a0f00000a0000000f0a00000f1
:104f600000a00000f0a0000000a00000a0000000d1
:104f7000f0a20000a0e00000a2a00000029000004b
:104f8000f0a00000a0000000f0a0000000900000d1
:104f9000f0a00000a2e00000a0e2000086020000f5
:104fa000a28800009af0000000a0000000a000000d
:104fb0004d5600004300000000000000004d0000be
:104fc0005643000000000000000100000000000047
:104fd00000000000000000000000000000000000d1
:104fe000000000000000000000000000e1300000b0
:104ff0000cfc0000068c0000e760000000000000d0
:10500000713000000c600000068c0000c0600000e1
:1050100000000000e13100000f6000000698000071
:10502000c360000000000000313000000c60000090
:10503000068c0000e760000000000000e130000086
:105040000c600000000000000000000000000000f4
:105050000000000000000000000000000000000050
:1050600000000000000000000000000007fc00003d
:105070007e63000000000000713000000c60000042
:10508000068c0000c06000000000000061310000dc
:105090000c60000007f80000dfe0000000000000e6
:1050a000713100000c600000069c0000c36000002d
:1050b00000000000713000000c600000078e00004e
:1050c0007f60000000000000000000000000000001
:1050d00000000000000000000000000000000000d0
:1050e00000000000000000000000000000000000c0
:1050f00000000000000000000000000000000000b0
:1051000000000000c7c000000efe0000717000002b
:1051100063700000000000008cc000000ec00000a2
:105120003330000063f00000000000001cc00000ed
:105130000ffe00001f30000063f0000000000000c0
:105140000cc000000fc000001e70000077b000000f
:105150000000000007fc00000cfe00000000000042
:10516000000000000000000000000000000000003f
:10517000000000000000000000000000000000002f
:105180000000000061e0000063700000000000000b
:105190008ec000000ec0000033700000637000007d
:1051a000000000001cc000000fc000003b300000e9
:1051b00063f00000000000001cc000000fc00000f1
:1051c0001e70000063b00000000000000ec0000070
:1051d0000dc000000ee000003e30000000000000a6
:1051e00000000000000000000000000000000000bf
:1051f00000000000000000000000000000000000af
:1052000000000000007f00007f7f00007f7f000023
:105210004141000041410000414100004141000086
:105220004141000041410000414100004141000076
:1052300041410000414100007f7f00007f7f00006e
:105240007f000000000000000000000000000000df
:1052500000000000007f00007f7f00007f7f0000d3
:105260004141000041410000417f000041410000f8
:10527000414100004141000041410000417f0000e8
:1052800041410000414100007f7f00007f7f00001e
:105290007f0000000000000000000000000000008f
:1052a00000000000007f00007f7f00007f7f000083
:1052b0007f41000041410000417f0000414100006a
:1052c000414100007f41000041410000417f00005a
:1052d00041410000414100007f7f00007f7f0000ce
:1052e0007f0000000000000000000000000000003f
:1052f00000000000007f00007f7f00007f7f000033
:105300007f41000041410000417f00007f410000db
:10531000414100007f41000041410000417f000009
:105320007f410000414100007f7f00007f7f00003f
:105330007f000000000000000000000000000000ee
:1053400000000000007f00007f7f00007f7f0000e2
:105350007f7f000041410000417f00007f4100004d
:10536000414100007f7f000041410000417f00007b
:105370007f410000414100007f7f00007f7f0000ef
:105380007f0000000000000000000000000000009e
:1053900000000000007f00007f7f00007f7f000092
:1053a0007f7f000041410000417f00007f7f0000bf
:1053b000414100007f7f000041410000417f00002b
:1053c0007f7f0000414100007f7f00007f7f000061
:1053d0007f0000000000000000000000000000004e
:1053e00000000000007f00007f7f00007f7f000042
:1053f0007f7f00007f410000417f00007f7f000031
:10540000414100007f7f00007f410000417f00009c
:105410007f7f0000414100007f7f00007f7f000010
:105420007f000000000000000000000000000000fd
:1054300000000000007f00007f7f00007f7f0000f1
:105440007f7f00007f410000417f00007f7f0000e0
:105450007f4100007f7f00007f410000417f00000e
:105460007f7f00007f4100007f7f00007f7f000082
:105470007f000000000000000000000000000000ad
:1054800000000000007f00007f7f00007f7f0000a1
:105490007f7f00007f7f0000417f00007f7f000052
:1054a0007f4100007f7f00007f7f0000417f000080
:1054b0007f7f00007f4100007f7f00007f7f000032
:1054c0007f0000000000000000000000000000005d
:1054d00000000000007f00007f7f00007f7f000051
:1054e0007f7f00007f7f0000417f00007f7f000002
:1054f0007f7f00007f7f00007f7f0000417f0000f2
:105500007f7f00007f7f00007f7f00007f7f0000a3
:105510007f0000000000000000000000000000000c
:1055200000000000007f00007f7f00007f7f000000
:105530007f7f00007f7f00007f7f00007f7f000073
:105540007f7f00007f7f00007f7f00007f7f000063
:105550007f7f00007f7f00007f7f00007f7f000053
:105560007f00000000000000000000007f7f0000be
:105570007f7f00007f410000414100004141000069
:105580004141000041410000414100004141000013
:10559000414100004141000041410000417f0000c5
:1055a0007f7f00007f7f00000000000000000000ff
:1055b0000000000000000000000000007f7f0000ed
:1055c0007f7f00007f7f00004141000041410000db
:1055d0004141000041410000417f00004141000085
:1055e000414100004141000041410000417f000075
:1055f0007f7f00007f7f00000000000000000000af
:105600000000000000000000000000007f7f00009c
:105610007f7f00007f7f000041410000414100008a
:105620007f41000041410000417f000041410000f6
:10563000414100007f41000041410000417f0000e6
:105640007f7f00007f7f000000000000000000005e
:105650000000000000000000000000007f7f00004c
:105660007f7f00007f7f00007f41000041410000fc
:105670007f41000041410000417f00007f41000068
:10568000414100007f41000041410000417f000096
:105690007f7f00007f7f000000000000000000000e
:1056a0000000000000000000000000007f7f0000fc
:1056b0007f7f00007f7f00007f41000041410000ac
:1056c0007f7f000041410000417f00007f410000da
:1056d000414100007f7f000041410000417f000008
:1056e0007f7f00007f7f00000000000000000000be
:1056f0000000000000000000000000007f7f0000ac
:105700007f7f00007f7f00007f7f0000414100001d
:105710007f7f000041410000417f00007f7f00004b
:10572000414100007f7f000041410000417f0000b7
:105730007f7f00007f7f000000000000000000006d
:105740000000000000000000000000007f7f00005b
:105750007f7f00007f7f00007f7f000041410000cd
:105760007f7f00007f410000417f00007f7f0000bd
:10577000414100007f7f00007f410000417f000029
:105780007f7f00007f7f000000000000000000001d
:105790000000000000000000000000007f7f00000b
:1057a0007f7f00007f7f00007f7f00007f4100003f
:1057b0007f7f00007f410000417f00007f7f00006d
:1057c0007f4100007f7f00007f410000417f00009b
:1057d0007f7f00007f7f00000000000000000000cd
:1057e0000000000000000000000000007f7f0000bb
:1057f0007f7f00007f7f00007f7f00007f410000ef
:105800007f7f00007f7f0000417f00007f7f0000de
:105810007f4100007f7f00007f7f0000417f00000c
:105820007f7f00007f7f000000000000000000007c
:105830000000000000000000000000007f7f00006a
:105840007f7f00007f7f00007f7f00007f7f000060
:105850007f7f00007f7f0000417f00007f7f00008e
:105860007f7f00007f7f00007f7f0000417f00007e
:105870007f7f00007f7f000000000000000000002c
:105880000000000000000000000000007f7f00001a
:105890007f7f00007f7f00007f7f00007f7f000010
:1058a0007f7f00007f7f00007f7f00007f7f000000
:1058b0007f7f00007f7f00007f7f00007f7f0000f0
:1058c0007f7f00007f7f00000000000000000000dc
:1058d00000000000000000000000000008080000b8
:1058e0000808000008080000080800000808000078
:1058f000080800000808000008080000060600006c
:10590000070700000707000007070000080800005d
:10591000080800000808000009090000050500004b
:105920000606000006070000070700000808000040
:1059300008090000090900000a0a00000404000028
:105940000505000006060000070700000808000023
:10595000090900000a0a00000b0b00000303000005
:105960000405000005060000070700000809000004
:10597000090a00000b0b00000c0d000001020000e2
:1059800003040000050500000607000008090000e8
:105990000a0a00000b0c00000d0e000000010000c0
:1059a00002030000040500000607000008090000cb
:1059b0000a0b00000c0d00000e0f0000000000009c
:1059c000000100000304000005070000080a0000b1
:1059d0000b0c00000e0f00000f0f00000000000075
:1059e000000000000103000005070000080a000095
:1059f0000c0e00000f0f00000f0f00000000000051
:105a0000000000000002000004060000090b000076
:105a10000d0f00000f0f00000f0f0000000000002e
:105a2000000000000001000003060000090c000057
:105a30000e0f00000f0f00000f0f00006eac0000f3
:105a40007eac00008eac00009eac0000aeac00004e
:105a5000beac0000ceac0000deac0000eeac00003e
:105a6000feac00000ead00000000000000000000d1
:105a70000000000000010000020300000405000017
:105a800006070000080900000a0b00000c0d0000ca
:105a90000e0f00000f0f00000f0f0000de070000c8
:105aa000de070000de070000de070000de07000062
:105ab000de070000de070000de070000de07000052
:105ac000de070000de070000de070000de07000042
:105ad000de070000de070000de070000de07000032
:105e9000de070000de070000de070000ee0700005e
:105ea000fa07000006080000120800001e080000a3
:105eb0002a08000036080000420800004e080000d2
:105ec00058080000640800006e0800007a0800000e
:105ed00086080000920800009e080000aa08000042
:105ee000b6080000c2080000ce080000da08000072
:105ef000e6080000f2080000fe0800000a090000a1
:105f000016090000220900002e0900003a090000cd
:105f100046090000520900005e0900006a090000fd
:105f200076090000820900008e0900009a0900002d
:105f3000a6090000b2090000be090000ca0900005d
:105f4000d6090000e2090000ee090000fa0900008d
:105f5000060a0000120a00001e0a00002a0a0000b9
:105f6000360a0000400a00004c0a0000580a0000ef
:105f7000640a0000700a00007c0a0000880a000021
:105f8000940a0000a00a0000ac0a0000b80a000051
:105f9000c40a0000d00a0000e40a0000f00a000071
:105fa000fc0a0000080b0000140b0000200b00008e
:105fb000340b0000420b0000560b0000620b000087
:105fc0006e0b00007a0b00008e0b00009a0b000095
:105fd000ae0b0000ba0b0000c60b0000d20b000095
:105fe000e40b0000f00b0000fc0b0000080c0000ac
