:020000040000FA
:04000000FEEFFFF020
:10F6D400008502B932F8851BB93EF8851CB94AF891
:10F6E400851BB956F88587B962F8BE6EF88488A47C
:10F6F40087841C851B861C861BA4886689B0D288D7
:10F7040010CF60000101010000303032353830F98B
:10F71400818180F80063666666E6638CFC8C887081
:10F7240000C061636666C6C6C6F8C6F800C120306C
:10F73400181819181818187E00F961616161F90028
:10F744000000000000F88080E080F8FFFFFFFFFF6A
:10F75400FFFFFFFFFFFFFFFFFFFFFFFFFFFFFFFFB5
:10F76400FFFFFFFFFFFFFFFFFFFFFFFFFFFFFFFFA5
:10F77400FFFFFFFFFFFFFFFFFFFFFFFFFFFFFFFF95
:10F78400FFFFFFFFFFFFFFFFFFFFFFFFFFFFFFFF85
:10F79400FFFFFFFFFFFFFFFFFFFFFFFFFFFFFFFF75
:10F7A400FFFFFFFFFFFFFFFFFFFFFFFFFFFFFFFF65
:10F7B400FFFFFFFFFFFFFFFFFFFFFFFFFFFFFFFF55
:10F7C400FFFFFFFFFFFFFFFFFFFFFFFFFFFFFFFF45
:10F7D400FFFFFFFFFFFFFFFFFFFFFFFFFFFFFFFF35
:10F7E400FFFFFFFFFFFFFFFFFFFFFFFFFFFFFFFF25
:10F7F400FFFFFFFFFFFFFFFFFFFFFFFFFFFFFFFF15
:10F80400FFFFFFFFFFFFFFFFFFFFFFFFFFFFFFFF04
:10F81400FFFFFFFFFFFFFF8502852AA900A2DF8506
:10F8240019A062A99F851CA9F88507A9E7851BA9CA
:10F83400F28506A9F7851CA9AC8506A9FD851BA937
:10F84400D88507861B8406852B85808580858085E1
:10F854002A8502A9CF851CA9008519A2BFA072A977
:10F86400368507A9F3851BA9428506A9EF851CA93E
:10F87400EE8506A9FB851BA9B68507861B8406A908
:10F8840080852085214C46F9FFFFFFFFFFFFFFFF26
:10F89400FFFFFFFFFFFFFFFFFFFFFFFFFFFFFFFF74
:10F8A400FFFFFFFFFFFFFFFFFFFFFFFFFFFFFFFF64
:10F8B400FFFFFFFFFFFFFFFFFFFFFFFFFFFFFFFF54
:10F8C400FFFFFFFFFFFFFFFFFFFFFFFFFFFFFFFF44
:10F8D400FF78D8A2FF9AA9009500CAD0FBA9808519
:10F8E40082A9FB8583A90185258526A9038504852D
:10F8F400058502A2048580CAD0FB85808510851108
:10F90400A9D08520A9E085218502852AA5846A6A73
:10F9140085068507A95585892000FBB0EFA90085D8
:10F92400098525851B8510EA8511851C851B851C89
:10F93400A9068504A9028505A9018526A9008520B3
:10F94400A9F08521852AA205CAD0FD852B4C80FA11
:10F95400FFA000841B841C841BA900A900A90085A6
:10F9640019A21D20D0FAA9028500A20320D0FAA969
:10F97400008500A9028501A22520D0FAA2008601F3
:10F98400A200F00320D0FA4CC2FAAD80024A4A4ADF
:10F994004CCBFAA50C0AAD82022A291785814C4664
:10F9A400F98502A900B1828519A581F005C681AD4A
:10F9B4008014C8CAD0EB60FFFFFFFFFFFFFFFFFF0B
:10F9C400FFFFFFFFFFFFFFFFFFFFFFFFFFFFFFFF43
:10F9D400FFA21E2052FBA9028500A2032052FBA90C
:10F9E400008500A9028501A2252052FBA9008501FA
:10F9F400C684A5848585A0FFA21E2058FBA23620BC
:10FA040052FBA00B2000F8A900851B851C851B85D3
:10FA14001CA2362052FBA5848585A001A21E205875
:10FA2400FB3860A9008585A000848618A5856586B5
:10FA3400858585028509CAD0F260FFFFFFFFFFFFBD
:10FA4400FFFFFFFFFFFFFFFFFFFFFFFFFFFFFFFFC2
:10FA5400FFFFFFFFFFFFFFFFFFFFFFFFFFFFFFFFB2
:10FA6400FFFFFFFFFFFFFFFFFFFFFFFFFFFFFFFFA2
:10FA7400FFFFFFFFFFFFFFFFFFFFFFFFFFFFFFFF92
:10FA8400FFFFFFFFFFFFFFFFFFFFFFFFFFFFFFFF82
:10FA9400FFFFFFFFFFFFFFFFFFFFFFFFFFFFFFFF72
:10FAA400FFFFFFFFFFFFFFFFFFFFFFFFFFFFFFFF62
:10FAB400FFFFFFFFFFFFFFFFFFFFFFFFFFFFFFFF52
:10FAC400FFFFFFFFFFFFFFFFFFFFFF00FA00FA0049
:10FAD400FA00000000000000010203040506070804
:10FAE400090A0B0C0D0E0F0F0F0F0FF7DF7EFBE053
:10FAF40003EFBFFDF71450420A200228A18514F732
:10FB0400DF7EFBE003EFBFFDF70000000000000014
:10FB1400000000F7DF7EFBE003EFBFFDF7F4504287
:10FB24000A200328A18514F7DF7EFBE003EFBFFD65
:10FB3400F700000000000000000000F7DF7EFBE09B
:10FB440003EFBFFDF7F750420A2003E8A18514F73D
:10FB5400DF7EFBE003EFBFFDF700000000000000C4
:10FB6400000000F7DF7EFBE003EFBFFDF7F7D042B4
:10FB74000A2003EFA18514F7DF7EFBE003EFBFFD4E
:10FB8400F700000000000000000000F7DF7EFBE04B
:10FB940003EFBFFDF7F7DF420A2003EFA18514F757
:10FBA400DF7EFBE003EFBFFDF70000000000000074
:10FBB400000000F7DF7EFBE003EFBFFDF7F7DF4255
:10FBC4000A2003EFBF8514F7DF7EFBE003EFBFFDE0
:10FBD400F700000000000000000000F7DF7EFBE0FB
:10FBE40003EFBFFDF7F7DF7E0A2003EFBF8514F7AD
:10FBF400DF7EFBE003EFBFFDF70000000000000024
:10FC0400000000F7DF7EFBE003EFBFFDF7F7DF7EC8
:10FC14000A2003EFBFFD14F7DF7EFBE003EFBFFD17
:10FC2400F700000000000000000000F7DF7EFBE0AA
:10FC340003EFBFFDF7F7DF7EFA2003EFBFFD14F7F4
:10FC4400DF7EFBE003EFBFFDF700000000000000D3
:10FC5400000000F7DF7EFBE003EFBFFDF7F7DF7E78
:10FC6400FB2003EFBFFDF4F7DF7EFBE003EFBFFDF6
:10FC7400F700000000000000000000F7DF7EFBE05A
:10FC840003EFBFFDF7F7DF7EFBE003EFBFFDF7F700
:10FC9400DF7EFBE003EFBFFDF70000000000000083
:10FCA400000000000000000003EFBFFDF7F7DF7E57
:10FCB400FBE00228A185141450420A2003EFBFFD83
:10FCC400F7F7DF7EFBE0000000000000000000000A
:10FCD40003EFBFFDF7F7DF7EFBE00328A18514F4F3
:10FCE40050420A2003EFBFFDF7F7DF7EFBE0000080
:10FCF400000000000000000003EFBFFDF7F7DF7E07
:10FD0400FBE003E8A18514F750420A2003EFBFFD8E
:10FD1400F7F7DF7EFBE000000000000000000000B9
:10FD240003EFBFFDF7F7DF7EFBE003EFA18514F7D8
:10FD3400D0420A2003EFBFFDF7F7DF7EFBE00000AF
:10FD4400000000000000000003EFBFFDF7F7DF7EB6
:10FD5400FBE003EFA18514F7DF420A2003EFBFFDA8
:10FD6400F7F7DF7EFBE00000000000000000000069
:10FD740003EFBFFDF7F7DF7EFBE003EFBF8514F76A
:10FD8400DF420A2003EFBFFDF7F7DF7EFBE0000050
:10FD9400000000000000000003EFBFFDF7F7DF7E66
:10FDA400FBE003EFBF8514F7DF7E0A2003EFBFFDFE
:10FDB400F7F7DF7EFBE00000000000000000000019
:10FDC40003EFBFFDF7F7DF7EFBE003EFBFFD14F7A2
:10FDD400DF7E0A2003EFBFFDF7F7DF7EFBE00000C4
:10FDE400000000000000000003EFBFFDF7F7DF7E16
:10FDF400FBE003EFBFFD14F7DF7EFA2003EFBFFD46
:10FE0400F7F7DF7EFBE000000000000000000000C8
:10FE140003EFBFFDF7F7DF7EFBE003EFBFFDF4F771
:10FE2400DF7EFB2003EFBFFDF7F7DF7EFBE0000082
:10FE3400000000000000000003EFBFFDF7F7DF7EC5
:10FE4400FBE003EFBFFDF7F7DF7EFBE003EFBFFD51
:10FE5400F7F7DF7EFBE00000000000000000000078
:10FE6400000000000061E0637000008EC00EC0332B
:10FE740070637000001CC00FC03B3063F000001CB6
:10FE8400C00FC01E7063B000000EC00DC00EE03E77
:10FE9400300000000000000000000000000000002E
:10FEA40000000000000000C7C00EFE717063700007
:10FEB400008CC00EC0333063F000001CC00FFE1F66
:10FEC4003063F000000CC00FC01E7077B000000754
:10FED400FC0CFE0000000000000000000007FC7E97
:10FEE40063000071300C60068CC060000061310C4E
:10FEF4006007F8DFE0000071310C60069CC360000D
:10FF04000071300C60078E7F60000000000000006C
:10FF1400000000000000000000000000000000E1FC
:10FF2400300CFC068CE760000071300C60068CC05D
:10FF3400600000E1310F600698C360000031300CAE
:10FF440060068CE7600000E1300C600000000000F7
:10FF5400010306090C0E0F0F0F0F0F000000000025
:10FF6400020406090B0D0F0F0F0F0F000000000114
:10FF7400030507080A0C0E0F0F0F0F000000010302
:10FF8400040507080A0B0C0E0F0F0F0001020304EF
:10FF940005060708090A0B0C0D0E0F0102030405E0
:10FFA40005060708090A0A0B0C0D0E0303040505D0
:10FFB4000607070809090A0B0B0C0D0404050506BE
:10FFC400060707080809090A0A0B0B0505060606B1
:10FFD4000707070808080909090A0A0606070707A0
:10FFE400070707080808080808090908080808088E
:0CFFF400080808080808080808080800A9
:020000040001F9
:10000000000E016E000E026E6F00D8FE37F0000E7B
:10001000B66E1F04D8A40FEF80F011EF80F025EF2B
:1000200080F037501E0BFF0A1E0B406E1C5040180C
:10003000D8A41DEF80F01FEF80F021EF80F040C0CA
:100040001EF040C01CF037EF80F03750170BFF0A4E
:10005000170B416E1B504118D8A431EF80F033EFDD
:1000600080F035EF80F041C01DF041C01BF01E5004
:10007000100B436E1E50080B446E1E50020B386E60
:100080001E50040B396E1D50100B356E1D50010BA8
:100090003A6E1D50040B3B6E1D50020B366E010E66
:1000A0003F6E35C018F0000E3C6E000E3D6E3650AF
:1000B000D8B45DEF80F05FEF80F06EEF80F0010E5E
:1000C0000001766F000E776F000E786F000E796F6B
:1000D000010E5D6E010E3C6EC7EF82F059C042F01A
:1000E0003850D8B476EF80F078EF80F08FEF80F062
:1000F0001150D8A47EEF80F080EF80F08FEF80F079
:100100005950D8A486EF80F088EF80F08CEF80F013
:10011000020E596EADEF80F05906ADEF80F0395008
:10012000D8B495EF80F097EF80F0ADEF80F01250EB
:10013000D8A49DEF80F09FEF80F0ADEF80F0020E2D
:100140005918D8A4A6EF80F0A8EF80F0ACEF80F0AB
:10015000000E596EADEF80F0592A4450D8A4B3EF89
:1001600080F0B5EF80F0BDEF80F04350D8B4BBEF26
:1001700080F0BDEF80F0C0EF80F01A2AC4EF80F06D
:10018000000E1A6E010E586E1AA8C9EF80F0CBEF60
:1001900080F045EF81F0000E1A6E4450D8A4D3EFE2
:1001A00080F0D5EF80F0DDEF80F04350D8B4DBEF86
:1001B00080F0DDEF80F045EF81F0020E5918D8A4F1
:1001C000E4EF80F0E6EF80F0F5EF80F0010E3C6E9A
:1001D000040E582658BEF1EF80F0EFEF80F045EFA7
:1001E00081F0FC0E582645EF81F05950D8A4FBEF62
:1001F00080F0FDEF80F01DEF81F0010E3D6E445068
:10020000D8B405EF81F007EF81F012EF81F05B5079
:10021000D8B40DEF81F00FEF81F045EF81F05B0670
:1002200045EF81F05B2A0A0E5B6419EF81F01BEF4A
:1002300081F045EF81F00FEF81F05904D8A423EF4E
:1002400081F025EF81F045EF81F0010E3D6E4450C5
:10025000D8B42DEF81F02FEF81F03AEF81F05A50B2
:10026000D8B435EF81F037EF81F045EF81F05A06D1
:1002700045EF81F05A2A0A0E5A6441EF81F043EFAC
:1002800081F045EF81F037EF81F03B50D8B44BEF70
:1002900081F04DEF81F062EF81F05750D8A453EF19
:1002A00081F055EF81F062EF81F0010E3C6EA70EF8
:1002B00000017627FD0E7723FF0E7823FF0E7923AA
:1002C000C7EF82F03A50D8B468EF81F06AEF81F05E
:1002D000C5EF81F01550D8A470EF81F072EF81F076
:1002E000C5EF81F05D50D8B478EF81F07BEF81F0FD
:1002F000010E7CEF81F0000E5D6EC5EF81F0000E07
:100300003E6E000E0001846F000E856F000E826F3E
:10031000000E836F59504218D8B491EF81F093EFDB
:1003200081F0D4EF81F0010E3C6ED4EF81F05AC021
:100330003EF0D70E0001846FFE0E856F130E826FA4
:10034000FF0E836F59504218D8B4A9EF81F0ABEF7C
:1003500081F0D4EF81F0010E3D6ED4EF81F05BC0EF
:100360003EF05F0E0001846FFE0E856F9B0E826F64
:10037000FE0E836F59504218D8B4C1EF81F0C3EF1D
:1003800081F0D4EF81F0ABEF81F05950000AD8B47E
:10039000AFEF81F0010AD8B497EF81F0030AD8B427
:1003A0007FEF81F0D4EF81F03C50D8B4DAEF81F0E8
:1003B000DCEF81F0E2EF81F0B40E166E000E176EE6
:1003C000EEEF81F03D50D8B4E8EF81F0EAEF81F034
:1003D000EEEF81F0B40E176E000E166E3E50280D33
:1003E000EF0EF3240001806FFA0EF420816F3E506F
:1003F000280DA70EF3247E6FFC0EF4207F6F5D5056
:10040000D8B405EF82F007EF82F017EF82F05B506F
:10041000020D600EF324D96E000EF420DA6E6F0028
:1004200078FF03F06F0074FF04F01BEF82F060C0F0
:1004300003F061C004F05D50D8A421EF82F023EFF7
:1004400082F07AEF82F0020E5918D8A42AEF82F0D7
:100450002CEF82F067EF82F04350D8B432EF82F095
:1004600034EF82F040EF82F01450D8A43AEF82F0DB
:100470003CEF82F040EF82F0030E3F6E9EEF82F081
:100480004450D8B446EF82F048EF82F054EF82F047
:100490001350D8A44EEF82F050EF82F054EF82F068
:1004A000FD0E3F6E9EEF82F076B159EF82F05BEF6A
:1004B00082F061EF82F0000E326E010E316E63EF5A
:1004C00082F03168326831C03FF09EEF82F076B141
:1004D0006CEF82F06EEF82F074EF82F0000E346EFB
:1004E000010E336E76EF82F03368346833C03FF02C
:1004F0009EEF82F0020E5918D8A481EF82F083EFAC
:1005000082F09CEF82F04350D8B489EF82F08BEFF9
:1005100082F08FEF82F058C03FF09EEF82F044509F
:10052000D8B495EF82F097EF82F09EEF82F05850AA
:1005300000083F6E9EEF82F0010E3F6E3F502D6E21
:10054000000E2DBEFF0E2E6E2F6E306E2D507627B4
:100550002E5077232F5078233050792379BFBDEF69
:1005600082F079517811771106E17605D8B0BBEFAA
:1005700082F0BDEF82F0C7EF82F0010E766F000EC1
:10058000776F000E786F000E796F010E586E3AC0CB
:1005900015F03BC057F043C014F044C013F039C00D
:1005A00012F038C011F012002F6EBD50F80B030985
:1005B000BD6E600037F0D9FF60003BF0DAFFDF501E
:1005C000106E0D4A0E2A105003242D6E000E0420CA
:1005D0002E6E6000B7F0F6FF6000BBF0F7FF000E74
:1005E000F86E08006F00D4FF10F0070EBA6E6000BE
:1005F00043F0BCFFBE94BE8401500210D8B403EF98
:1006000083F005EF83F015EF83F0600007F0F6FF4D
:1006100060000BF0F7FF000EF86E08006F00D4FFCB
:1006200010F0014A022A1FEF83F060002FF0D9FF7B
:10063000600033F0DAFFDF50106E0B4A0C2A130E05
:10064000BA6E600043F0BCFFBE94BE84015002103D
:10065000D8B42DEF83F02FEF83F03FEF83F06000ED
:1006600007F0F6FF60000BF0F7FF000EF86E0800D1
:100670006F00D4FF10F0014A022A49EF83F06000B6
:100680002FF0D9FF600033F0DAFFDF50106E0B4A15
:100690000C2A030EBA6E600043F0BCFFBE94BE8409
:1006A00001500210D8B457EF83F059EF83F069EF8F
:1006B00083F0600007F0F6FF60000BF0F7FF000E1C
:1006C000F86E08006F00D4FF10F0014A022A73EFA1
:1006D00083F060002FF0D9FF600033F0DAFFDF50C5
:1006E000106E0B4A0C2A230EBA6E600043F0BCFF5A
:1006F000BE94BE8401500210D8B481EF83F083EF22
:1007000083F093EF83F0600007F0F6FF60000BF0DA
:10071000F7FF000EF86E08006F00D4FF10F0014ADA
:10072000022A9DEF83F060002FF0D9FF600033F0C4
:10073000DAFFDF50106E0B4A0C2A1B0EBA6E6000F7
:1007400043F0BCFFBE94BE8401500210D8B4ABEF9E
:1007500083F0ADEF83F0BDEF83F0600007F0F6FFAC
:1007600060000BF0F7FF000EF86E08006F00D4FF7A
:1007700010F0014A022AC7EF83F060002FF0D9FF82
:10078000600033F0DAFFDF50106E0B4A0C2A0B0EBC
:10079000BA6E600043F0BCFFBE94BE8460001FF0E0
:1007A000D9FF600023F0DAFFDF500F6E074A082AF6
:1007B0000FC010F00F0E10165A501026D50E102430
:1007C000F66EF76AFA0EF722F86A000EF8220800B1
:1007D0006F00D4FF10F0F00E0F160F5010121950CA
:1007E000D8B4F5EF83F0F7EF83F0F9EF83F019C099
:1007F00010F01850D8B4FFEF83F001EF84F003EF4E
:1008000084F00F0E1016170EBA6E600043F0BCFF96
:10081000BE94BE8460001FF0D9FF600023F0DAFFB1
:10082000DF500F6E074A082A0FC010F00F0E101687
:100830005A501026D50E1024F66EF76AFA0EF722DB
:10084000F86A000EF82208006F00D4FF10F0F00ED6
:100850000F160F5010121950D8B431EF84F033EF47
:1008600084F035EF84F019C010F01850D8B43BEF85
:1008700084F03DEF84F03FEF84F00F0E10160F0E62
:10088000BA6E600043F0BCFFBE94BE8460001FF0EF
:10089000D9FF600023F0DAFFDF500F6E074A082A05
:1008A0000FC010F00F0E10165A501026D50E10243F
:1008B000F66EF76AFA0EF722F86A000EF8220800C0
:1008C0006F00D4FF10F0F00E0F160F5010121950D9
:1008D000D8B46DEF84F06FEF84F071EF84F019C03D
:1008E00010F01850D8B477EF84F079EF84F07BEFF4
:1008F00084F00F0E10161F0EBA6E600043F0BCFF9E
:10090000BE94BE8460001FF0D9FF600023F0DAFFC0
:10091000DF500F6E074A082A0FC010F00F0E101696
:100920005A501026D50E1024F66EF76AFA0EF722EA
:10093000F86A000EF82208006F00D4FF10F0F00EE5
:100940000F160F5010121950D8B4A9EF84F0ABEF66
:1009500084F0ADEF84F019C010F01850D8B4B3EFA4
:1009600084F0B5EF84F0B7EF84F00F0E1016270E69
:10097000BA6E600043F0BCFFBE94BE8460001FF0FE
:10098000D9FF600023F0DAFFDF500F6E074A082A14
:100990000FC010F00F0E10165A501026D50E10244E
:1009A000F66EF76AFA0EF722F86A000EF8220800CF
:1009B0006F00D4FF10F0F00E0F160F5010121950E8
:1009C000D8B4E5EF84F0E7EF84F0E9EF84F019C0E4
:1009D00010F01850D8B4EFEF84F0F1EF84F0F3EF9B
:1009E00084F00F0E10160D0EBA6E600043F0BCFFBF
:1009F000BE94BE842F50D8B400EF85F002EF85F08E
:100A000010EF85F0350EBA6E460EBC6EBE94BE84F5
:100A1000360EBA6E190EBC6EBE94BE841CEF85F005
:100A2000350EBA6E800EBC6EBE94BE84360EBA6EA3
:100A30001A0EBC6E0CEF85F01200BD50F80B0209C7
:100A4000BD6E600037F0D9FF60003BF0DAFFDF5089
:100A5000106E0D4A0E2A105003242D6E000E042035
:100A60002E6E6000B7F0F6FF6000BBF0F7FF000EDF
:100A7000F86E08006F00D4FF10F04B0EBA6E6000E5
:100A800043F0BCFFBE94BE8401500210D8B44BEFBB
:100A900085F04DEF85F05DEF85F0600007F0F6FF23
:100AA00060000BF0F7FF000EF86E08006F00D4FF37
:100AB00010F0014A022A67EF85F060002FF0D9FF9D
:100AC000600033F0DAFFDF50106E0B4A0C2A5B0E29
:100AD000BA6E600043F0BCFFBE94BE8401500210A9
:100AE000D8B475EF85F077EF85F087EF85F060007B
:100AF00007F0F6FF60000BF0F7FF000EF86E08003D
:100B00006F00D4FF10F0014A022A91EF85F06000D7
:100B10002FF0D9FF600033F0DAFFDF50106E0B4A80
:100B20000C2A530EBA6E600043F0BCFFBE94BE8424
:100B300001500210D8B49FEF85F0A1EF85F0B1EF1E
:100B400085F0600007F0F6FF60000BF0F7FF000E85
:100B5000F86E08006F00D4FF10F0014A022ABBEFC4
:100B600085F060002FF0D9FF600033F0DAFFDF502E
:100B7000106E0B4A0C2A6B0EBA6E600043F0BCFF7D
:100B8000BE94BE8401500210D8B4C9EF85F0CBEFFB
:100B900085F0DBEF85F0600007F0F6FF60000BF0FA
:100BA000F7FF000EF86E08006F00D4FF10F0014A46
:100BB000022AE5EF85F060002FF0D9FF600033F0E6
:100BC000DAFFDF50106E0B4A0C2A630EBA6E60001B
:100BD00043F0BCFFBE94BE8401500210D8B4F3EFC2
:100BE00085F0F5EF85F005EF86F0600007F0F6FF81
:100BF00060000BF0F7FF000EF86E08006F00D4FFE6
:100C000010F0014A022A0FEF86F060002FF0D9FFA2
:100C1000600033F0DAFFDF50106E0B4A0C2A4D0EE5
:100C2000BA6E600043F0BCFFBE94BE8460001FF04B
:100C3000D9FF600023F0DAFFDF500F6E074A082A61
:100C40000FC010F00F0E10165A501026D50E10249B
:100C5000F66EF76AFA0EF722F86A000EF82208001C
:100C60006F00D4FF10F0F00E0F160F501012195035
:100C7000D8B43DEF86F03FEF86F041EF86F019C023
:100C800010F01850D8B447EF86F049EF86F04BEFDC
:100C900086F00F0E10165F0EBA6E600043F0BCFFB8
:100CA000BE94BE8460001FF0D9FF600023F0DAFF1D
:100CB000DF500F6E074A082A0FC010F00F0E1016F3
:100CC0005A501026D50E1024F66EF76AFA0EF72247
:100CD000F86A000EF82208006F00D4FF10F0F00E42
:100CE0000F160F5010121950D8B479EF86F07BEF21
:100CF00086F07DEF86F019C010F01850D8B483EF5D
:100D000086F085EF86F087EF86F00F0E1016570EEF
:100D1000BA6E600043F0BCFFBE94BE8460001FF05A
:100D2000D9FF600023F0DAFFDF500F6E074A082A70
:100D30000FC010F00F0E10165A501026D50E1024AA
:100D4000F66EF76AFA0EF722F86A000EF82208002B
:100D50006F00D4FF10F0F00E0F160F501012195044
:100D6000D8B4B5EF86F0B7EF86F0B9EF86F019C0CA
:100D700010F01850D8B4BFEF86F0C1EF86F0C3EF83
:100D800086F00F0E1016670EBA6E600043F0BCFFBF
:100D9000BE94BE8460001FF0D9FF600023F0DAFF2C
:100DA000DF500F6E074A082A0FC010F00F0E101602
:100DB0005A501026D50E1024F66EF76AFA0EF72256
:100DC000F86A000EF82208006F00D4FF10F0F00E51
:100DD0000F160F5010121950D8B4F1EF86F0F3EF40
:100DE00086F0F5EF86F019C010F01850D8B4FBEF7C
:100DF00086F0FDEF86F0FFEF86F00F0E10166F0EF7
:100E0000BA6E600043F0BCFFBE94BE8460001FF069
:100E1000D9FF600023F0DAFFDF500F6E074A082A7F
:100E20000FC010F00F0E10165A501026D50E1024B9
:100E3000F66EF76AFA0EF722F86A000EF82208003A
:100E40006F00D4FF10F0F00E0F160F501012195053
:100E5000D8B42DEF87F02FEF87F031EF87F019C06E
:100E600010F01850D8B437EF87F039EF87F03BEF28
:100E700087F00F0E1016510EBA6E600043F0BCFFE3
:100E8000BE94BE841200000E236E23C025F021EC18
:100E900091F060EC91F0000E446EFF0EB8EC90F013
:100EA000442A090E446457EF87F059EF87F04DEF5D
:100EB00087F062EC91F047687EEF87F0000E2E6EAF
:100EC000000E2F6E000E306E000E316E000E11EC13
:100ED0008AF0246E2550D8B470EF87F072EF87F057
:100EE00074EF87F087EF87F02404D8A47AEF87F0B7
:100EF0007CEF87F07EEF87F087EF87F04706472883
:100F0000D8A485EF87F087EF87F05EEF87F0475032
:100F1000D8A48DEF87F08FEF87F095EF87F0070E5D
:100F200057EC91F0000E5CEF88F0AA0E2E6E010EC9
:100F30002F6E000E306E000E316E080E11EC8AF02E
:100F40003F6E3FA4A6EF87F0A8EF87F0ACEF87F0E5
:100F5000010E236ECAEF87F0000E456E51EC91F042
:100F6000246E452A030E4564B8EF87F0BAEF87F088
:100F7000AEEF87F0AA0E2418D8B4C1EF87F0C3EF04
:100F800087F0C8EF87F0020E57EC91F092EF87F0F0
:100F9000020E236E020E2318D8B4D1EF87F0D3EFE0
:100FA00087F0DDEF87F0000E406E000E416E000E00
:100FB000426E000E436EE5EF87F0000E406E000EAD
:100FC000416E000E426E400E436E476808EF88F097
:100FD00040C03AF041C03BF042C03CF043C03DF05D
:100FE000290E73EC90F0246E2550D8B4FAEF87F0F8
:100FF000FCEF87F0FEEF87F011EF88F02450D8A4C3
:1010000004EF88F006EF88F008EF88F011EF88F021
:1010100047064728D8A40FEF88F011EF88F0E8EFD3
:1010200087F04750D8A417EF88F019EF88F01EEF2B
:1010300088F0080E57EC91F092EF87F0020E23181B
:10104000D8A425EF88F027EF88F059EF88F0000E3C
:101050002E6E000E2F6E000E306E000E316E3A0EA8
:1010600011EC8AF00009D8B438EF88F03AEF88F034
:101070003FEF88F0030E57EC91F092EF87F051ECC0
:1010800091F0C00BC00AD8A448EF88F04AEF88F06E
:101090004CEF88F0030E236E000E466E51EC91F07B
:1010A000462A020E466457EF88F059EF88F04EEF5B
:1010B00088F060EC91F0010E1200600017F0D9FF8B
:1010C00060001BF0DAFFDF50106E054A062A600050
:1010D00017F0D9FF60001BF0DAFFDF50106E054AF1
:1010E000062A600017F0D9FF60001BF0DAFFDF501E
:1010F000106E054A062A600017F0D9FF60001BF049
:10110000DAFFDF50106E054A062A600017F0D9FF9B
:1011100060001BF0DAFFDF50106E054A062A6000FF
:1011200017F0D9FF60001BF0DAFFDF50106E054AA0
:10113000062A600017F0D9FF60001BF0DAFFDF50CD
:10114000106E054A062A10A4A8EF88F0AAEF88F0CE
:10115000ADEF88F0BB9AAEEF88F0BB8A1050010B60
:101160005C6EBD50F80B0709BD6E5C50D8B4BBEF88
:1011700088F0BDEF88F008EF89F0205003242D6E31
:10118000000E04202E6E6000B7F0F6FF6000BBF08A
:10119000F7FF000EF86E08006F00D4FF10F0000E8D
:1011A000BA6E600043F0BCFFBE94BE84010E2F6E89
:1011B000600037F0D9FF60003BF0DAFFDF50106EBF
:1011C0000D4A0E2A105003242D6E000E04202E6EA0
:1011D0006000B7F0F6FF6000BBF0F7FF000EF86E9E
:1011E00008006F00D4FF10F02F50800F7F0BBA6EF5
:1011F000600043F0BCFFBE94BE842F2A440E2F64CF
:1012000004EF89F006EF89F0D8EF88F038EF89F025
:10121000000E2F6E600037F0D9FF60003BF0DAFF60
:10122000DF50106E0D4A0E2A105003242D6E000E52
:1012300004202E6E6000B7F0F6FF6000BBF0F7FFF1
:10124000000EF86E08006F00D4FF10F02F50800FD2
:101250007F0BBA6E600043F0BCFFBE94BE842F2AA1
:10126000420E2F6436EF89F038EF89F00AEF89F0EB
:10127000120001EF8AF096EC8EF0DFEC8DF00B0E91
:101280002218D8A446EF89F048EF89F057EF89F08B
:101290001650D8B44EEF89F050EF89F057EF89F02F
:1012A00016069A0E196E09C00BF00AC00CF0150E46
:1012B0002218D8A45EEF89F060EF89F07DEF89F005
:1012C0001750D8B466EF89F068EF89F07DEF89F0A8
:1012D00017069A0E196E5C50D8B471EF89F073EF4F
:1012E00089F079EF89F084C001F085C002F07DEFCC
:1012F00089F082C001F083C002F0070E2218D8A442
:1013000084EF89F086EF89F0A0EF89F01750D8B408
:101310008CEF89F08EEF89F0A0EF89F05C50D8B4A3
:1013200094EF89F096EF89F09CEF89F080C001F08E
:1013300081C002F0A0EF89F07EC001F07FC002F012
:10134000BE80000EC46E1DEC85F0C468BE902206FF
:10135000020E216E39EF89F0CAEC8EF0DFEC8DF0D1
:101360002250D8B4B6EF89F0B8EF89F0C5EF89F014
:10137000BE80000EC46E010ED4EC82F0C468BE9034
:101380002206010E216E39EF89F0BE80000EC46E78
:10139000000ED4EC82F0ABEC8AF0C468BE901F5013
:1013A000FEEC8EF05C5089EC8CF01F50D8B4DBEF73
:1013B00089F0DEEF89F0010EDFEF89F0000E1F6E7D
:1013C00000EC80F0BE80000EC46E5DEC88F0C46856
:1013D000BE90030E216E39EF89F096EC8EF076C048
:1013E00048F077C049F078C04AF079C04BF01FC090
:1013F0004CF02CEC8CF0000E196EBF0E226EC1EF7B
:1014000089F02150010AD8B43BEF89F0030AD8B41F
:10141000ACEF89F0010AD8B4EDEF89F039EF89F02B
:101420001200386E62EC91F0396823EF8AF051ECCB
:1014300091F0FF0AD8A41FEF8AF021EF8AF023EF82
:101440008AF02CEF8AF039063928D8A42AEF8AF0DE
:101450002CEF8AF017EF8AF03950D8A432EF8AF0D7
:1014600034EF8AF03AEF8AF0050E57EC91F0FF0E58
:10147000AAEF8AF038504009B8EC90F0180E376E99
:1014800037502EC032F02FC033F030C034F031C0AE
:1014900035F0E82A51EF8AF0D890353234323332C1
:1014A0003232E82E4CEF8AF03250B8EC90F0F80E61
:1014B000372637BE60EF8AF05EEF8AF040EF8AF0A1
:1014C00036683850D8A467EF8AF069EF8AF06BEF7E
:1014D0008AF0950E366E080E3818D8A472EF8AF08E
:1014E00074EF8AF076EF8AF0870E366E3650B8ECDD
:1014F00090F00C0E3818D8A480EF8AF082EF8AF0B2
:1015000084EF8AF051EC91F0396893EF8AF051EC56
:1015100091F0246E24BE8FEF8AF091EF8AF093EF62
:101520008AF09CEF8AF039063928D8A49AEF8AF01D
:101530009CEF8AF087EF8AF03950D8A4A2EF8AF0A6
:10154000A4EF8AF0A9EF8AF0060E57EC91F037EF7E
:101550008AF024501200BD50F80B0509BD6E6000E2
:1015600037F0D9FF60003BF0DAFFDF50106E0D4A14
:101570000E2A105003242D6E000E04202E6E6000E3
:10158000B7F0F6FF6000BBF0F7FF000EF86E080042
:101590006F00D4FF10F00D0EBA6E600043F0BCFF78
:1015A000BE94BE845C50D8A4D8EF8AF0DAEF8AF0FB
:1015B000E4EF8AF0600037F0D9FF60003BF0DAFF1B
:1015C000DF50206E0D4A0E2A5C50D8B4EAEF8AF044
:1015D000ECEF8AF000EF8BF0110EBA6E1D0EBC6EB0
:1015E000BE94BE84270EBA6E240EBC6EBE94BE841A
:1015F000300EBA6E000EBC6EBE94BE8412EF8BF03D
:10160000110EBA6E1E0EBC6EBE94BE84270EBA6E4C
:10161000240EBC6EBE94BE84300EBA6E010EBC6E3B
:10162000FCEF8AF01F50D8A418EF8BF01AEF8BF064
:1016300028EF8BF0370EBA6EB90EBC6EBE94BE8426
:10164000380EBA6E1A0EBC6EBE94BE842EEF8BF0AE
:10165000370EBA6EC20EBC6E1EEF8BF012003168F0
:10166000020E3D01136F000E126F000E3B01FC6F66
:10167000000EDC6F3901A293A291A297A2959293DA
:10168000929192979295A597A595A59BA5999597C7
:101690009595959B9599310E2F6E000E306E6000DA
:1016A000BFF0F9FB6000C3F0FAFB3B01FB6BE70EF8
:1016B000FD17F90EFD17020EF86F000EF76FFD8192
:1016C0003D0EF16F110EF06F3F0EFD17000EEF6F24
:1016D000010EEE6FFD9B150EFF6F000EFE6F100EDC
:1016E000D96F3D0EDA6F000EDB6FE70EDD17F90ED6
:1016F000DD17000ED86F010ED76FDD916000B7F0D7
:10170000D0FB6000BBF0D1FBDD513F0B4009DD6F2A
:10171000020ECF6F000ECE6FDD8B140EDF6F000E4A
:10172000DE6F3901550EEF6FAA0EEF6FEF91030ECA
:101730003901F26F020EF16F000EF36F010EF46FBC
:10174000040EF76F3901550EEF6FAA0EEF6FEF81A0
:101750003B01FC8FDC8FFC8DDC8D1200BE80000E07
:10176000C46E070EBD6E7C0EBA6ED10EF66EFA0E0A
:10177000F76E000EF86E08006F00D7FFBCFFBE9436
:10178000BE847D0EBA6ED20EF66EFA0EF76E000EA5
:10179000F86E08006F00D7FFBCFFBE94BE84C4681B
:1017A000BE90BE80000EC46E070EBD6E7B0EBA6E7C
:1017B000200EBC6EBE94BE84C468BE90030E2E6E16
:1017C000FB0E2D6E3FEC90F0200AD8A4EAEF8BF0D0
:1017D000ECEF8BF0D1EF8BF0BE80000EC46E070EE5
:1017E000BD6E7A0EBA6ECF0EF66EFA0EF76E000E62
:1017F000F86E08006F00D7FFBCFFBE94BE847B0E5E
:10180000BA6ED00EF66EFA0EF76E000EF86E080085
:101810006F00D7FFBCFFBE94BE847E0EBA6ED30E9F
:10182000F66EFA0EF76E000EF86E08006F00D7FF26
:10183000BCFFBE94BE847F0EBA6ED40EF66EFA0E56
:10184000F76E000EF86E08006F00D7FFBCFFBE9465
:10185000BE84C468BE9012002550D8B432EF8CF01C
:1018600034EF8CF038EF8CF043EC87F088EF8CF09D
:1018700048C04DF049C04EF04AC04FF04BC050F048
:10188000030ED8904D364E364F365036E82E41EF87
:101890008CF000017A514D24516E7B514E20526ED6
:1018A0007C514F20536E7D515020546E4C04D8A46F
:1018B0005CEF8CF05EEF8CF064EF8CF08B0E866F3B
:1018C0000A0E876F68EF8CF08B0E866F000E876FA5
:1018D0002650D8B46EEF8CF070EF8CF076EF8CF071
:1018E00043EC91F08BEC90F0000E266E51C03AF074
:1018F00052C03BF053C03CF054C03DF091EC8FF02F
:10190000050E276E000E5E6EDFEC8DF0010E266E6A
:1019100012002D6E2D50D8B490EF8CF092EF8CF019
:10192000BCEF8CF060001FF0D9FF600023F0DAFFFD
:10193000000EDF6E20EE01F00750D9260850DA22A3
:10194000000EDF6E20EE02F00750D9260850DA2292
:10195000000EDF6E20EE03F00750D9260850DA2281
:10196000000EDF6E20EE04F00750D9260850DA2270
:10197000000EDF6EE4EF8CF020EEBBF30750D926AB
:101980000850DA22000EDF6E20EEBCF30750D92695
:101990000850DA22000EDF6E20EEBDF30750D92684
:1019A0000850DA22000EDF6E20EEBEF30750D92673
:1019B0000850DA22000EDF6E20EEBFF30750D92662
:1019C0000850DA22000EDF6E1200000EBE6E000E0E
:1019D000BD6E000EBA6EC30EBB6E000EBC6E000E66
:1019E000C66E800EC26E580EC36E000EC46E600EC0
:1019F000C56E000E3A01706F000E606F000E506FE2
:101A0000000E806F000E406F000E716F000E816F30
:101A1000000E516F000E416F000E616F000E826F5D
:101A2000000E426F000E526F000E626F000E726F5A
:101A3000579956995599000E2D6E000E2E6E000E78
:101A40002F6E4AEC91F03A01DF51C00B0B09DF6FAA
:101A50001F0E096FDB51C00B1E09DB6F1E0E0A6FD4
:101A6000DE51C00B0A09DE6FC351C00B0C09C36FF6
:101A7000030E1F6F120008EC91F0BE84BE82E1ECF1
:101A80008FF08DEC8DF00009D8B449EF8DF04BEF5D
:101A90008DF03FEF8DF0BE92060E07EC90F025EC36
:101AA0008EF063EC8FF00009D8B459EF8DF05BEF46
:101AB0008DF04FEF8DF0050E07EC90F0AEEC8BF053
:101AC000040E07EC90F0BB9ABAEC8FF00009D8A492
:101AD0006CEF8DF06EEF8DF071EF8DF0030E60EC1A
:101AE0008EF0BB8A030E07EC90F0020E60EC8EF0D5
:101AF000DCEC90F0050E566E0F0E556EF10EE82ED2
:101B0000FED7552EFCD7562EFAD700F0020E07EC62
:101B100090F039EC89F0FEEFFFF0FF0E2E6EFB0E19
:101B20002D6E3FEC90F00009D8B499EF8DF09BEF4B
:101B30008DF09EEF8DF0000EDEEF8DF0FF0E2E6E1D
:101B4000FC0E2D6E3FEC90F0FB0AD8B4AAEF8DF09E
:101B5000ACEF8DF0AEEF8DF09BEF8DF0FF0E2E6EA3
:101B6000FD0E2D6E3FEC90F0F30AD8B4BAEF8DF075
:101B7000BCEF8DF0BEEF8DF09BEF8DF0FF0E2E6E63
:101B8000FE0E2D6E3FEC90F0FB0AD8B4CAEF8DF03C
:101B9000CCEF8DF0CEEF8DF09BEF8DF0FF0E2E6E23
:101BA0002D683FEC90F0F30AD8B4D9EF8DF0DBEF5D
:101BB0008DF0DDEF8DF09BEF8DF0010E120015EF33
:101BC0008EF0ECEC90F00009D8A4E9EF8DF0EBEF8B
:101BD0008DF0EDEF8DF024EF8EF086C02DF087C0F4
:101BE0002EF02FEC8BF00001020E8727010E5E6EA7
:101BF00027065BEC90F00009D8A401EF8EF003EF0C
:101C00008EF005EF8EF024EF8EF02750D8B40BEF56
:101C10008EF00DEF8EF011EF8EF0000E5E6E24EF61
:101C20008EF0020E5E6E24EF8EF05E50000AD8B485
:101C3000E1EF8DF0010AD8B4F9EF8DF0030AD8B4C2
:101C400024EF8EF024EF8EF01200BE80000EC46EE2
:101C5000000E316E000E306E30C02DF031C02EF00F
:101C6000070E2F6ED8902E322D322F2E32EF8EF09F
:101C7000070E2D16BD50F80B2D10BD6E30507F0B8A
:101C8000BA6ED50E3024F66EF60E3120F76EF86A75
:101C9000000EF82208006F00D7FFBCFFBE94BE8480
:101CA000304A312AFA0E305C030E3158D8A05BEF6F
:101CB0008EF05DEF8EF02CEF8EF0C468BE901200B7
:101CC0002F6EBB8A000E306E80EF8EF0BB9A110E25
:101CD0002E6E3C0E2D6ECB0EE82EFED72D2EFCD791
:101CE0002E2EFAD700F0BB8A190E2E6E5A0E2D6ECC
:101CF000B20EE82EFED72D2EFCD72E2EFAD7302A84
:101D00002F50305CD8A087EF8EF089EF8EF066EF11
:101D10008EF0290E2E6E960E2D6E7F0EE82EFED7BB
:101D20002D2EFCD72E2EFAD700F01200000ECDBAC1
:101D3000010E2B6E000ECABE010E2A6E000ECDBA29
:101D4000010E296E000ECABE010E286E2B50D8B4AB
:101D5000ACEF8EF0AEEF8EF0C1EF8EF02950D8B41C
:101D6000B4EF8EF0B6EF8EF0C1EF8EF028502A1847
:101D7000D8A4BDEF8EF0BFEF8EF0C1EF8EF02AC079
:101D80002CF02C50D8B4C7EF8EF0C9EF8EF096EF40
:101D90008EF01200000ECDBA010E2B6E000ECABEE0
:101DA000010E2A6E000ECDBA010E296E000ECABEBB
:101DB000010E286E2B50D8B4E0EF8EF0E2EF8EF0DB
:101DC000F5EF8EF02950D8B4E8EF8EF0EAEF8EF000
:101DD000F5EF8EF028502A18D8A4F1EF8EF0F3EF2B
:101DE0008EF0F5EF8EF02AC02CF02C50D8A4FBEF2B
:101DF0008EF0FDEF8EF0CAEF8EF012002D6E2D04E6
:101E0000D8A405EF8FF007EF8FF01DEF8FF08B0E4A
:101E1000056E0A0E066E920E0D6E0A0E0E6E980E6E
:101E20000B6E0B0E0C6E580E096E0F0E0A6E940E92
:101E3000076E0F0E086E31EF8FF08B0E056E000EE1
:101E4000066E920E0D6E000E0E6E980E0B6E010E4B
:101E50000C6E580E096E050E0A6E940E076E050E76
:101E6000086E1200F60EF66E210EF76E010EF86E79
:101E700000EE60F010EE1AF009006F00D7FFEEFFE1
:101E8000E550E150F9E1B80EF66E220EF76E010E44
:101E9000F86E00EE57F010EE08F009006F00D7FF63
:101EA000EEFFE550E150F9E100EE7AF00E0EEE6A39
:101EB000E806FDE100EE01F02C0EEE6AE806FDE119
:101EC00000013BEF8DF0030E356EF90E346ED50E2A
:101ED0003424F66EF60E3520F76EF86A000EF822FE
:101EE00008006F00D4FF33F034C02DF035C02EF061
:101EF0003FEC90F03318D8B480EF8FF082EF8FF082
:101F000085EF8FF0000E90EF8FF03406D8A03506E5
:101F100035BE8FEF8FF08DEF8FF067EF8FF0010EF2
:101F20001200030E2318D8B498EF8FF09AEF8FF0B9
:101F3000A3EF8FF0090ED8903A363B363C363D364B
:101F4000E82E9BEF8FF03AC02EF03BC02FF03CC044
:101F500030F03DC031F0120E11EC8AF00009D8B417
:101F6000B4EF8FF0B6EF8FF0B9EF8FF0040E57ECAF
:101F700091F01200030E216E010E5D6E010E5C6E7B
:101F800023EC90F00009D8A4C8EF8FF0CAEF8FF0CF
:101F9000CDEF8FF0000EE0EF8FF06CC003F06DC05E
:101FA00004F0EF0E0001806FFA0E816FA70E7E6FB6
:101FB000FC0E7F6F010EFEEC8EF0000EB66E010E71
:101FC0001200BE80000EC46E070EBD6E7B0EBA6E90
:101FD000000EBC6EBE94BE847C0EBA6EFB0EBC6E50
:101FE000BE94BE847D0EBA6EF30EBC6EBE94BE84EB
:101FF0007E0EBA6EFB0EBC6EBE94BE847F0EBA6EB1
:10200000F30EBC6EBE94BE84C468BE9012002D6EEA
:10201000BB8ABB8ABB8ABB8A000E2E6E15EF90F07E
:10202000BB9ABB9ABB8ABB8A2E2A2D502E5CD8A0A5
:102030001CEF90F01EEF90F010EF90F0BB8ABB8A7F
:10204000BB8ABB8A120028EF90F0010E60EC8EF084
:1020500043EC87F00009D8B430EF90F032EF90F005
:1020600025EF90F015EC91F0000E00017A6F240E30
:102070007B6F000E7C6F000E7D6F010E12002D50E5
:102080007F0BBA6E2DC02FF02EC030F0070E316ED0
:10209000D89030322F32312E48EF90F02F50070B6E
:1020A000BD6EC468BE906F0030FF32F0BE80000E7F
:1020B000C46E325012003D0112511311D8B463EFB7
:1020C00090F065EF90F068EF90F0000E72EF90F0F6
:1020D00016AF6DEF90F06FEF90F071EF90F065EF4D
:1020E00090F0010E12003E6E000E2E6E000E2F6E4E
:1020F000000E306E000E316E370E11EC8AF03AC0D1
:102100002EF03BC02FF03CC030F03DC031F03E50CF
:1021100011EC8AF01200000E2E6E000E2F6E000ED3
:10212000306E000E316E0C0E11EC8AF00009D8B43E
:102130009CEF90F09EEF90F0A1EF90F0010E57EC25
:1021400091F01200800E3C01616F020E626F020E70
:10215000636F020E646F020E656F020E666F020EF1
:10216000676F020E686F020E696F820E606F120059
:102170002D6E010E3D01126F6000B7F011FD3901A7
:10218000A2A9C5EF90F0C7EF90F0BFEF90F03D012E
:1021900010511200000E3901C06F000EC16F000E09
:1021A000C26F000EC36F000EC46F000EC56F000E2D
:1021B000C66F000EC76F1200BE80000EC46EBD5009
:1021C000F80B0609BD6E500EBA6E180EBC6EBE94AA
:1021D000BE84C468BE90120051EC91F0FE0AD8A4EF
:1021E000F4EF90F0F6EF90F0F9EF90F0010EFAEFC7
:1021F00090F0000E1200EFFFDFFFCFFFBFFFAFFF39
:102200009FFF8FFF7FFF6FFF5FFF4FFF0100000009
:10221000CAEC90F0E5EC8CF02DEC91F0A2EC90F093
:1022200039EC91F021EC91F01200400E3D01156F58
:10223000030E166F070E196F010E1C6F820E146FBE
:102240001200400E3D01156F030E166F4F0E196FF1
:10225000010E1C6F820E146F1200600E3901D96FCF
:10226000000EDB6F000EDD6F080EDF6F000EDE6FFD
:102270001200100EB96EB768000EB66E3901A39F3A
:10228000800EB86E120051EC91F051EC91F060ECC0
:1022900091F012002DC088F02EC089F02FC08AF076
:1022A000120000F000F0FF0EB8EC90F0120060ECAD
:1022B00091F0010E256E12000101020606010102D5
:0822C000BB801200BB9012006C
:04FFFC0032EF8FF061
:020000040020DA
:10000000FF0FFF0FFF0FFF0FFF0FFF0FFF0FFF0F80
:020000040030CA
:0A000000ECFFF6FF9FFFFFDFFFFF9C
:00000001FF
