:020000040000FA
:04000000FEEFFFF020
:10F6D400008502B932F8851BB93EF8851CB94AF891
:10F6E400851BB956F88587B962F8BE6EF88488A47C
:10F6F40087841C851B861C861BA4886689B0D288D7
:10F7040010CF60000101010000303032353830F98B
:10F71400818180F80063666666E6638CFC8C887081
:10F7240000C061636666C6C6C6F8C6F800C120306C
:10F73400181819181818187E00F961616161F90028
:10F744000000000000F88080E080F8FFFFFFFFFF6A
:10F75400FFFFFFFFFFFFFFFFFFFFFFFFFFFFFFFFB5
:10F76400FFFFFFFFFFFFFFFFFFFFFFFFFFFFFFFFA5
:10F77400FFFFFFFFFFFFFFFFFFFFFFFFFFFFFFFF95
:10F78400FFFFFFFFFFFFFFFFFFFFFFFFFFFFFFFF85
:10F79400FFFFFFFFFFFFFFFFFFFFFFFFFFFFFFFF75
:10F7A400FFFFFFFFFFFFFFFFFFFFFFFFFFFFFFFF65
:10F7B400FFFFFFFFFFFFFFFFFFFFFFFFFFFFFFFF55
:10F7C400FFFFFFFFFFFFFFFFFFFFFFFFFFFFFFFF45
:10F7D400FFFFFFFFFFFFFFFFFFFFFFFFFFFFFFFF35
:10F7E400FFFFFFFFFFFFFFFFFFFFFFFFFFFFFFFF25
:10F7F400FFFFFFFFFFFFFFFFFFFFFFFFFFFFFFFF15
:10F80400FFFFFFFFFFFFFFFFFFFFFFFFFFFFFFFF04
:10F81400FFFFFFFFFFFFFF8502852AA900A2DF8506
:10F8240019A062A99F851CA9F88507A9E7851BA9CA
:10F83400F28506A9F7851CA9AC8506A9FD851BA937
:10F84400D88507861B8406852B85808580858085E1
:10F854002A8502A9CF851CA9008519A2BFA072A977
:10F86400368507A9F3851BA9428506A9EF851CA93E
:10F87400EE8506A9FB851BA9B68507861B8406A908
:10F8840080852085214C46F9FFFFFFFFFFFFFFFF26
:10F89400FFFFFFFFFFFFFFFFFFFFFFFFFFFFFFFF74
:10F8A400FFFFFFFFFFFFFFFFFFFFFFFFFFFFFFFF64
:10F8B400FFFFFFFFFFFFFFFFFFFFFFFFFFFFFFFF54
:10F8C400FFFFFFFFFFFFFFFFFFFFFFFFFFFFFFFF44
:10F8D400FF78D8A2FF9AA9009500CAD0FBA9808519
:10F8E40082A9FB8583A90185258526A9038504852D
:10F8F400058502A2048580CAD0FB85808510851108
:10F90400A9D08520A9E085218502852AA5846A6A73
:10F9140085068507A95585892000FBB0EFA90085D8
:10F92400098525851B8510EA8511851C851B851C89
:10F93400A9068504A9028505A9018526A9008520B3
:10F94400A9F08521852AA205CAD0FD852B4C80FA11
:10F95400FFA000841B841C841BA900A900A90085A6
:10F9640019A21D20D0FAA9028500A20320D0FAA969
:10F97400008500A9028501A22520D0FAA2008601F3
:10F98400A200F00320D0FA4CC2FAAD80024A4A4ADF
:10F994004CCBFAA50C0AAD82022A291785814C4664
:10F9A400F98502A900B1828519A581F005C681AD4A
:10F9B4008014C8CAD0EB60FFFFFFFFFFFFFFFFFF0B
:10F9C400FFFFFFFFFFFFFFFFFFFFFFFFFFFFFFFF43
:10F9D400FFA21E2052FBA9028500A2032052FBA90C
:10F9E400008500A9028501A2252052FBA9008501FA
:10F9F400C684A5848585A0FFA21E2058FBA23620BC
:10FA040052FBA00B2000F8A900851B851C851B85D3
:10FA14001CA2362052FBA5848585A001A21E205875
:10FA2400FB3860A9008585A000848618A5856586B5
:10FA3400858585028509CAD0F260FFFFFFFFFFFFBD
:10FA4400FFFFFFFFFFFFFFFFFFFFFFFFFFFFFFFFC2
:10FA5400FFFFFFFFFFFFFFFFFFFFFFFFFFFFFFFFB2
:10FA6400FFFFFFFFFFFFFFFFFFFFFFFFFFFFFFFFA2
:10FA7400FFFFFFFFFFFFFFFFFFFFFFFFFFFFFFFF92
:10FA8400FFFFFFFFFFFFFFFFFFFFFFFFFFFFFFFF82
:10FA9400FFFFFFFFFFFFFFFFFFFFFFFFFFFFFFFF72
:10FAA400FFFFFFFFFFFFFFFFFFFFFFFFFFFFFFFF62
:10FAB400FFFFFFFFFFFFFFFFFFFFFFFFFFFFFFFF52
:10FAC400FFFFFFFFFFFFFFFFFFFFFF00FA00FA0049
:10FAD400FA00000000000000010203040506070804
:10FAE400090A0B0C0D0E0F0F0F0F0FF7DF7EFBE053
:10FAF40003EFBFFDF71450420A200228A18514F732
:10FB0400DF7EFBE003EFBFFDF70000000000000014
:10FB1400000000F7DF7EFBE003EFBFFDF7F4504287
:10FB24000A200328A18514F7DF7EFBE003EFBFFD65
:10FB3400F700000000000000000000F7DF7EFBE09B
:10FB440003EFBFFDF7F750420A2003E8A18514F73D
:10FB5400DF7EFBE003EFBFFDF700000000000000C4
:10FB6400000000F7DF7EFBE003EFBFFDF7F7D042B4
:10FB74000A2003EFA18514F7DF7EFBE003EFBFFD4E
:10FB8400F700000000000000000000F7DF7EFBE04B
:10FB940003EFBFFDF7F7DF420A2003EFA18514F757
:10FBA400DF7EFBE003EFBFFDF70000000000000074
:10FBB400000000F7DF7EFBE003EFBFFDF7F7DF4255
:10FBC4000A2003EFBF8514F7DF7EFBE003EFBFFDE0
:10FBD400F700000000000000000000F7DF7EFBE0FB
:10FBE40003EFBFFDF7F7DF7E0A2003EFBF8514F7AD
:10FBF400DF7EFBE003EFBFFDF70000000000000024
:10FC0400000000F7DF7EFBE003EFBFFDF7F7DF7EC8
:10FC14000A2003EFBFFD14F7DF7EFBE003EFBFFD17
:10FC2400F700000000000000000000F7DF7EFBE0AA
:10FC340003EFBFFDF7F7DF7EFA2003EFBFFD14F7F4
:10FC4400DF7EFBE003EFBFFDF700000000000000D3
:10FC5400000000F7DF7EFBE003EFBFFDF7F7DF7E78
:10FC6400FB2003EFBFFDF4F7DF7EFBE003EFBFFDF6
:10FC7400F700000000000000000000F7DF7EFBE05A
:10FC840003EFBFFDF7F7DF7EFBE003EFBFFDF7F700
:10FC9400DF7EFBE003EFBFFDF70000000000000083
:10FCA400000000000000000003EFBFFDF7F7DF7E57
:10FCB400FBE00228A185141450420A2003EFBFFD83
:10FCC400F7F7DF7EFBE0000000000000000000000A
:10FCD40003EFBFFDF7F7DF7EFBE00328A18514F4F3
:10FCE40050420A2003EFBFFDF7F7DF7EFBE0000080
:10FCF400000000000000000003EFBFFDF7F7DF7E07
:10FD0400FBE003E8A18514F750420A2003EFBFFD8E
:10FD1400F7F7DF7EFBE000000000000000000000B9
:10FD240003EFBFFDF7F7DF7EFBE003EFA18514F7D8
:10FD3400D0420A2003EFBFFDF7F7DF7EFBE00000AF
:10FD4400000000000000000003EFBFFDF7F7DF7EB6
:10FD5400FBE003EFA18514F7DF420A2003EFBFFDA8
:10FD6400F7F7DF7EFBE00000000000000000000069
:10FD740003EFBFFDF7F7DF7EFBE003EFBF8514F76A
:10FD8400DF420A2003EFBFFDF7F7DF7EFBE0000050
:10FD9400000000000000000003EFBFFDF7F7DF7E66
:10FDA400FBE003EFBF8514F7DF7E0A2003EFBFFDFE
:10FDB400F7F7DF7EFBE00000000000000000000019
:10FDC40003EFBFFDF7F7DF7EFBE003EFBFFD14F7A2
:10FDD400DF7E0A2003EFBFFDF7F7DF7EFBE00000C4
:10FDE400000000000000000003EFBFFDF7F7DF7E16
:10FDF400FBE003EFBFFD14F7DF7EFA2003EFBFFD46
:10FE0400F7F7DF7EFBE000000000000000000000C8
:10FE140003EFBFFDF7F7DF7EFBE003EFBFFDF4F771
:10FE2400DF7EFB2003EFBFFDF7F7DF7EFBE0000082
:10FE3400000000000000000003EFBFFDF7F7DF7EC5
:10FE4400FBE003EFBFFDF7F7DF7EFBE003EFBFFD51
:10FE5400F7F7DF7EFBE00000000000000000000078
:10FE6400000000000061E0637000008EC00EC0332B
:10FE740070637000001CC00FC03B3063F000001CB6
:10FE8400C00FC01E7063B000000EC00DC00EE03E77
:10FE9400300000000000000000000000000000002E
:10FEA40000000000000000C7C00EFE717063700007
:10FEB400008CC00EC0333063F000001CC00FFE1F66
:10FEC4003063F000000CC00FC01E7077B000000754
:10FED400FC0CFE0000000000000000000007FC7E97
:10FEE40063000071300C60068CC060000061310C4E
:10FEF4006007F8DFE0000071310C60069CC360000D
:10FF04000071300C60078E7F60000000000000006C
:10FF1400000000000000000000000000000000E1FC
:10FF2400300CFC068CE760000071300C60068CC05D
:10FF3400600000E1310F600698C360000031300CAE
:10FF440060068CE7600000E1300C600000000000F7
:10FF5400010306090C0E0F0F0F0F0F000000000025
:10FF6400020406090B0D0F0F0F0F0F000000000114
:10FF7400030507080A0C0E0F0F0F0F000000010302
:10FF8400040507080A0B0C0E0F0F0F0001020304EF
:10FF940005060708090A0B0C0D0E0F0102030405E0
:10FFA40005060708090A0A0B0C0D0E0303040505D0
:10FFB4000607070809090A0B0B0C0D0404050506BE
:10FFC400060707080809090A0A0B0B0505060606B1
:10FFD4000707070808080909090A0A0606070707A0
:10FFE400070707080808080808090908080808088E
:0CFFF400080808080808080808080800A9
:020000040001F9
:10000000000E016E000E026E6F00D8FE37F0000E7B
:10001000B66E1F04D8A40FEF80F011EF80F025EF2B
:1000200080F037501E0BFF0A1E0B406E1C5040180C
:10003000D8A41DEF80F01FEF80F021EF80F040C0CA
:100040001EF040C01CF037EF80F03750170BFF0A4E
:10005000170B416E1B504118D8A431EF80F033EFDD
:1000600080F035EF80F041C01DF041C01BF01E5004
:10007000100B436E1E50080B446E1E50020B386E60
:100080001E50040B396E1D50100B356E1D50010BA8
:100090003A6E1D50040B3B6E1D50020B366E010E66
:1000A0003F6E35C018F0000E3C6E000E3D6E3650AF
:1000B000D8B45DEF80F05FEF80F06EEF80F0010E5E
:1000C0000001766F000E776F000E786F000E796F6B
:1000D000010E5D6E010E3C6EC3EF82F059C042F01E
:1000E0003850D8B476EF80F078EF80F08FEF80F062
:1000F0001150D8A47EEF80F080EF80F08FEF80F079
:100100005950D8A486EF80F088EF80F08CEF80F013
:10011000020E596EADEF80F05906ADEF80F0395008
:10012000D8B495EF80F097EF80F0ADEF80F01250EB
:10013000D8A49DEF80F09FEF80F0ADEF80F0020E2D
:100140005918D8A4A6EF80F0A8EF80F0ACEF80F0AB
:10015000000E596EADEF80F0592A4450D8A4B3EF89
:1001600080F0B5EF80F0BDEF80F04350D8B4BBEF26
:1001700080F0BDEF80F0C0EF80F01A2AC4EF80F06D
:10018000000E1A6E010E586E1AA8C9EF80F0CBEF60
:1001900080F045EF81F0000E1A6E4450D8A4D3EFE2
:1001A00080F0D5EF80F0DDEF80F04350D8B4DBEF86
:1001B00080F0DDEF80F045EF81F0020E5918D8A4F1
:1001C000E4EF80F0E6EF80F0F5EF80F0010E3C6E9A
:1001D000040E582658BEF1EF80F0EFEF80F045EFA7
:1001E00081F0FC0E582645EF81F05950D8A4FBEF62
:1001F00080F0FDEF80F01DEF81F0010E3D6E445068
:10020000D8B405EF81F007EF81F012EF81F05B5079
:10021000D8B40DEF81F00FEF81F045EF81F05B0670
:1002200045EF81F05B2A0A0E5B6419EF81F01BEF4A
:1002300081F045EF81F00FEF81F05904D8A423EF4E
:1002400081F025EF81F045EF81F0010E3D6E4450C5
:10025000D8B42DEF81F02FEF81F03AEF81F05A50B2
:10026000D8B435EF81F037EF81F045EF81F05A06D1
:1002700045EF81F05A2A0A0E5A6441EF81F043EFAC
:1002800081F045EF81F037EF81F03B50D8B44BEF70
:1002900081F04DEF81F062EF81F05750D8A453EF19
:1002A00081F055EF81F062EF81F0010E3C6EA70EF8
:1002B00000017627FD0E7723FF0E7823FF0E7923AA
:1002C000C3EF82F03A50D8B468EF81F06AEF81F062
:1002D000C5EF81F01550D8A470EF81F072EF81F076
:1002E000C5EF81F05D50D8B478EF81F07BEF81F0FD
:1002F000010E7CEF81F0000E5D6EC5EF81F0000E07
:100300003E6E000E0001846F000E856F000E826F3E
:10031000000E836F59504218D8B491EF81F093EFDB
:1003200081F0D4EF81F0010E3C6ED4EF81F05AC021
:100330003EF0D70E0001846FFE0E856F130E826FA4
:10034000FF0E836F59504218D8B4A9EF81F0ABEF7C
:1003500081F0D4EF81F0010E3D6ED4EF81F05BC0EF
:100360003EF05F0E0001846FFE0E856F9B0E826F64
:10037000FE0E836F59504218D8B4C1EF81F0C3EF1D
:1003800081F0D4EF81F0ABEF81F05950000AD8B47E
:10039000AFEF81F0010AD8B497EF81F0030AD8B427
:1003A0007FEF81F0D4EF81F03C50D8B4DAEF81F0E8
:1003B000DCEF81F0E2EF81F0B40E166E000E176EE6
:1003C000EEEF81F03D50D8B4E8EF81F0EAEF81F034
:1003D000EEEF81F0B40E176E000E166E3E50280D33
:1003E000EF0EF3240001806FFA0EF420816F3E506F
:1003F000280DA70EF3247E6FFC0EF4207F6F5D5056
:10040000D8B405EF82F007EF82F017EF82F05B506F
:10041000020D600EF324D96E000EF420DA6E6F0028
:1004200078FF03F06F0074FF04F01BEF82F060C0F0
:1004300003F061C004F05D50D8A421EF82F023EFF7
:1004400082F07AEF82F0020E5918D8A42AEF82F0D7
:100450002CEF82F067EF82F04350D8B432EF82F095
:1004600034EF82F040EF82F01450D8A43AEF82F0DB
:100470003CEF82F040EF82F0010E3F6E9AEF82F087
:100480004450D8B446EF82F048EF82F054EF82F047
:100490001350D8A44EEF82F050EF82F054EF82F068
:1004A000FD0E3F6E9AEF82F076B159EF82F05BEF6E
:1004B00082F061EF82F0000E326E010E316E63EF5A
:1004C00082F03168326831C03FF09AEF82F076B145
:1004D0006CEF82F06EEF82F074EF82F0000E346EFB
:1004E000010E336E76EF82F03368346833C03FF02C
:1004F0009AEF82F0020E5918D8A481EF82F083EFB0
:1005000082F03CEF82F04350D8B489EF82F08BEF59
:1005100082F08FEF82F058C03FF09AEF82F04450A3
:10052000D8B495EF82F097EF82F09AEF82F05850AE
:1005300000083F6E3F502D6E000E2DBEFF0E2E6E3A
:100540002F6E306E2D5076272E5077232F50782324
:100550003050792379BFB9EF82F079517811771152
:1005600006E17605D8B0B7EF82F0B9EF82F0C3EFBD
:1005700082F0010E766F000E776F000E786F000E1E
:10058000796F010E586E3AC015F03BC057F043C06A
:1005900014F044C013F039C012F038C011F012004A
:1005A0002F6EBD50F80B0309BD6E600037F0D9FF08
:1005B00060003BF0DAFFDF50106E0D4A0E2A10503B
:1005C00003242D6E000E04202E6E6000B7F0F6FF9F
:1005D0006000BBF0F7FF000EF86E08006F00D4FF5C
:1005E00010F0070EBA6E600043F0BCFFBE94BE84EC
:1005F00001500210D8B4FFEF82F001EF83F011EF49
:1006000083F0600007F0F6FF60000BF0F7FF000ECC
:10061000F86E08006F00D4FF10F0014A022A1BEFA9
:1006200083F060002FF0D9FF600033F0DAFFDF5075
:10063000106E0B4A0C2A130EBA6E600043F0BCFF1A
:10064000BE94BE8401500210D8B429EF83F02BEF82
:1006500083F03BEF83F0600007F0F6FF60000BF0E3
:10066000F7FF000EF86E08006F00D4FF10F0014A8B
:10067000022A45EF83F060002FF0D9FF600033F0CD
:10068000DAFFDF50106E0B4A0C2A030EBA6E6000C0
:1006900043F0BCFFBE94BE8401500210D8B453EFA7
:1006A00083F055EF83F065EF83F0600007F0F6FF0D
:1006B00060000BF0F7FF000EF86E08006F00D4FF2B
:1006C00010F0014A022A6FEF83F060002FF0D9FF8B
:1006D000600033F0DAFFDF50106E0B4A0C2A230E55
:1006E000BA6E600043F0BCFFBE94BE84015002109D
:1006F000D8B47DEF83F07FEF83F08FEF83F060005D
:1007000007F0F6FF60000BF0F7FF000EF86E080030
:100710006F00D4FF10F0014A022A99EF83F06000C5
:100720002FF0D9FF600033F0DAFFDF50106E0B4A74
:100730000C2A1B0EBA6E600043F0BCFFBE94BE8450
:1007400001500210D8B4A7EF83F0A9EF83F0B9EFFE
:1007500083F0600007F0F6FF60000BF0F7FF000E7B
:10076000F86E08006F00D4FF10F0014A022AC3EFB0
:1007700083F060002FF0D9FF600033F0DAFFDF5024
:10078000106E0B4A0C2A0B0EBA6E600043F0BCFFD1
:10079000BE94BE8460001FF0D9FF600023F0DAFF32
:1007A000DF500F6E074A082A0FC010F00F0E101608
:1007B0005A501026D50E1024F66EF76AFA0EF7225C
:1007C000F86A000EF82208006F00D4FF10F0F00E57
:1007D0000F160F5010121950D8B4F1EF83F0F3EF49
:1007E00083F0F5EF83F019C010F01850D8B4FBEF88
:1007F00083F0FDEF83F0FFEF83F00F0E1016170E5E
:10080000BA6E600043F0BCFFBE94BE8460001FF06F
:10081000D9FF600023F0DAFFDF500F6E074A082A85
:100820000FC010F00F0E10165A501026D50E1024BF
:10083000F66EF76AFA0EF722F86A000EF822080040
:100840006F00D4FF10F0F00E0F160F501012195059
:10085000D8B42DEF84F02FEF84F031EF84F019C07D
:1008600010F01850D8B437EF84F039EF84F03BEF34
:1008700084F00F0E10160F0EBA6E600043F0BCFF2E
:10088000BE94BE8460001FF0D9FF600023F0DAFF41
:10089000DF500F6E074A082A0FC010F00F0E101617
:1008A0005A501026D50E1024F66EF76AFA0EF7226B
:1008B000F86A000EF82208006F00D4FF10F0F00E66
:1008C0000F160F5010121950D8B469EF84F06BEF67
:1008D00084F06DEF84F019C010F01850D8B473EFA5
:1008E00084F075EF84F077EF84F00F0E10161F0E72
:1008F000BA6E600043F0BCFFBE94BE8460001FF07F
:10090000D9FF600023F0DAFFDF500F6E074A082A94
:100910000FC010F00F0E10165A501026D50E1024CE
:10092000F66EF76AFA0EF722F86A000EF82208004F
:100930006F00D4FF10F0F00E0F160F501012195068
:10094000D8B4A5EF84F0A7EF84F0A9EF84F019C024
:1009500010F01850D8B4AFEF84F0B1EF84F0B3EFDB
:1009600084F00F0E1016270EBA6E600043F0BCFF25
:10097000BE94BE8460001FF0D9FF600023F0DAFF50
:10098000DF500F6E074A082A0FC010F00F0E101626
:100990005A501026D50E1024F66EF76AFA0EF7227A
:1009A000F86A000EF82208006F00D4FF10F0F00E75
:1009B0000F160F5010121950D8B4E1EF84F0E3EF86
:1009C00084F0E5EF84F019C010F01850D8B4EBEFC4
:1009D00084F0EDEF84F0EFEF84F00F0E10160D0EA3
:1009E000BA6E600043F0BCFFBE94BE842F50D8B4F2
:1009F000FCEF84F0FEEF84F00CEF85F0350EBA6E5C
:100A0000460EBC6EBE94BE84360EBA6E190EBC6E17
:100A1000BE94BE8418EF85F0350EBA6E800EBC6EA3
:100A2000BE94BE84360EBA6E1A0EBC6E08EF85F008
:100A30001200BD50F80B0209BD6E600037F0D9FFFF
:100A400060003BF0DAFFDF50106E0D4A0E2A1050A6
:100A500003242D6E000E04202E6E6000B7F0F6FF0A
:100A60006000BBF0F7FF000EF86E08006F00D4FFC7
:100A700010F04B0EBA6E600043F0BCFFBE94BE8413
:100A800001500210D8B447EF85F049EF85F059EFD7
:100A900085F0600007F0F6FF60000BF0F7FF000E36
:100AA000F86E08006F00D4FF10F0014A022A63EFCD
:100AB00085F060002FF0D9FF600033F0DAFFDF50DF
:100AC000106E0B4A0C2A5B0EBA6E600043F0BCFF3E
:100AD000BE94BE8401500210D8B471EF85F073EF5C
:100AE00085F083EF85F0600007F0F6FF60000BF003
:100AF000F7FF000EF86E08006F00D4FF10F0014AF7
:100B0000022A8DEF85F060002FF0D9FF600033F0EE
:100B1000DAFFDF50106E0B4A0C2A530EBA6E6000DB
:100B200043F0BCFFBE94BE8401500210D8B49BEFCA
:100B300085F09DEF85F0ADEF85F0600007F0F6FFE2
:100B400060000BF0F7FF000EF86E08006F00D4FF96
:100B500010F0014A022AB7EF85F060002FF0D9FFAC
:100B6000600033F0DAFFDF50106E0B4A0C2A6B0E78
:100B7000BA6E600043F0BCFFBE94BE840150021008
:100B8000D8B4C5EF85F0C7EF85F0D7EF85F06000EA
:100B900007F0F6FF60000BF0F7FF000EF86E08009C
:100BA0006F00D4FF10F0014A022AE1EF85F06000E7
:100BB0002FF0D9FF600033F0DAFFDF50106E0B4AE0
:100BC0000C2A630EBA6E600043F0BCFFBE94BE8474
:100BD00001500210D8B4EFEF85F0F1EF85F001EF8E
:100BE00086F0600007F0F6FF60000BF0F7FF000EE4
:100BF000F86E08006F00D4FF10F0014A022A0BEFD4
:100C000086F060002FF0D9FF600033F0DAFFDF508C
:100C1000106E0B4A0C2A4D0EBA6E600043F0BCFFFA
:100C2000BE94BE8460001FF0D9FF600023F0DAFF9D
:100C3000DF500F6E074A082A0FC010F00F0E101673
:100C40005A501026D50E1024F66EF76AFA0EF722C7
:100C5000F86A000EF82208006F00D4FF10F0F00EC2
:100C60000F160F5010121950D8B439EF86F03BEF21
:100C700086F03DEF86F019C010F01850D8B443EF5D
:100C800086F045EF86F047EF86F00F0E10165F0EE8
:100C9000BA6E600043F0BCFFBE94BE8460001FF0DB
:100CA000D9FF600023F0DAFFDF500F6E074A082AF1
:100CB0000FC010F00F0E10165A501026D50E10242B
:100CC000F66EF76AFA0EF722F86A000EF8220800AC
:100CD0006F00D4FF10F0F00E0F160F5010121950C5
:100CE000D8B475EF86F077EF86F079EF86F019C00B
:100CF00010F01850D8B47FEF86F081EF86F083EFC4
:100D000086F00F0E1016570EBA6E600043F0BCFF4F
:100D1000BE94BE8460001FF0D9FF600023F0DAFFAC
:100D2000DF500F6E074A082A0FC010F00F0E101682
:100D30005A501026D50E1024F66EF76AFA0EF722D6
:100D4000F86A000EF82208006F00D4FF10F0F00ED1
:100D50000F160F5010121950D8B4B1EF86F0B3EF40
:100D600086F0B5EF86F019C010F01850D8B4BBEF7C
:100D700086F0BDEF86F0BFEF86F00F0E1016670EFF
:100D8000BA6E600043F0BCFFBE94BE8460001FF0EA
:100D9000D9FF600023F0DAFFDF500F6E074A082A00
:100DA0000FC010F00F0E10165A501026D50E10243A
:100DB000F66EF76AFA0EF722F86A000EF8220800BB
:100DC0006F00D4FF10F0F00E0F160F5010121950D4
:100DD000D8B4EDEF86F0EFEF86F0F1EF86F019C0B2
:100DE00010F01850D8B4F7EF86F0F9EF86F0FBEF6B
:100DF00086F00F0E10166F0EBA6E600043F0BCFF47
:100E0000BE94BE8460001FF0D9FF600023F0DAFFBB
:100E1000DF500F6E074A082A0FC010F00F0E101691
:100E20005A501026D50E1024F66EF76AFA0EF722E5
:100E3000F86A000EF82208006F00D4FF10F0F00EE0
:100E40000F160F5010121950D8B429EF87F02BEF5E
:100E500087F02DEF87F019C010F01850D8B433EF99
:100E600087F035EF87F037EF87F00F0E1016510E31
:100E7000BA6E600043F0BCFFBE94BE841200000E48
:100E8000236E23C025F01DEC91F05CEC91F0000E78
:100E9000446EFF0EB4EC90F0442A090E446453EF04
:100EA00087F055EF87F049EF87F05EEC91F04768E7
:100EB0007AEF87F0000E2E6E000E2F6E000E306E51
:100EC000000E316E000E0DEC8AF0246E2550D8B461
:100ED0006CEF87F06EEF87F070EF87F083EF87F0AD
:100EE0002404D8A476EF87F078EF87F07AEF87F0C4
:100EF00083EF87F047064728D8A481EF87F083EF78
:100F000087F05AEF87F04750D8A489EF87F08BEF2E
:100F100087F091EF87F0070E53EC91F0000E58EF39
:100F200088F0AA0E2E6E010E2F6E000E306E000E8F
:100F3000316E080E0DEC8AF03F6E3FA4A2EF87F0F1
:100F4000A4EF87F0A8EF87F0010E236EC6EF87F0BD
:100F5000000E456E4DEC91F0246E452A030E45645B
:100F6000B4EF87F0B6EF87F0AAEF87F0AA0E241847
:100F7000D8B4BDEF87F0BFEF87F0C4EF87F0020E63
:100F800053EC91F08EEF87F0020E236E020E2318C1
:100F9000D8B4CDEF87F0CFEF87F0D9EF87F0000E10
:100FA000406E000E416E000E426E000E436EE1EF89
:100FB00087F0000E406E000E416E000E426E400E35
:100FC000436E476804EF88F040C03AF041C03BF000
:100FD00042C03CF043C03DF0290E6FEC90F0246E0F
:100FE0002550D8B4F6EF87F0F8EF87F0FAEF87F0E6
:100FF0000DEF88F02450D8A400EF88F002EF88F0BD
:1010000004EF88F00DEF88F047064728D8A40BEFCF
:1010100088F00DEF88F0E4EF87F04750D8A413EF85
:1010200088F015EF88F01AEF88F0080E53EC91F075
:101030008EEF87F0020E2318D8A421EF88F023EF5B
:1010400088F055EF88F0000E2E6E000E2F6E000E09
:10105000306E000E316E3A0E0DEC8AF00009D8B4F5
:1010600034EF88F036EF88F03BEF88F0030E53EC56
:1010700091F08EEF87F04DEC91F0C00BC00AD8A430
:1010800044EF88F046EF88F048EF88F0030E236EB7
:10109000000E466E4DEC91F0462A020E466453EF68
:1010A00088F055EF88F04AEF88F05CEC91F0010E83
:1010B0001200600017F0D9FF60001BF0DAFFDF506C
:1010C000106E054A062A600017F0D9FF60001BF079
:1010D000DAFFDF50106E054A062A600017F0D9FFCC
:1010E00060001BF0DAFFDF50106E054A062A600030
:1010F00017F0D9FF60001BF0DAFFDF50106E054AD1
:10110000062A600017F0D9FF60001BF0DAFFDF50FD
:10111000106E054A062A600017F0D9FF60001BF028
:10112000DAFFDF50106E054A062A600017F0D9FF7B
:1011300060001BF0DAFFDF50106E054A062A10A48B
:10114000A4EF88F0A6EF88F0A9EF88F0BB9AAAEF89
:1011500088F0BB8A1050010B5C6EBD50F80B07097C
:10116000BD6E5C50D8B4B7EF88F0B9EF88F004EFEB
:1011700089F0205003242D6E000E04202E6E600096
:10118000B7F0F6FF6000BBF0F7FF000EF86E080046
:101190006F00D4FF10F0000EBA6E600043F0BCFF89
:1011A000BE94BE84010E2F6E600037F0D9FF600040
:1011B0003BF0DAFFDF50106E0D4A0E2A1050032468
:1011C0002D6E000E04202E6E6000B7F0F6FF60005A
:1011D000BBF0F7FF000EF86E08006F00D4FF10F0B0
:1011E0002F50800F7F0BBA6E600043F0BCFFBE949F
:1011F000BE842F2A440E2F6400EF89F002EF89F09D
:10120000D4EF88F034EF89F0000E2F6E600037F0D5
:10121000D9FF60003BF0DAFFDF50106E0D4A0E2A56
:10122000105003242D6E000E04202E6E6000B7F0C7
:10123000F6FF6000BBF0F7FF000EF86E08006F00CD
:10124000D4FF10F02F50800F7F0BBA6E600043F078
:10125000BCFFBE94BE842F2A420E2F6432EF89F069
:1012600034EF89F006EF89F01200FDEF89F092EC7F
:101270008EF0DBEC8DF00B0E2218D8A442EF89F033
:1012800044EF89F053EF89F01650D8B44AEF89F053
:101290004CEF89F053EF89F016069A0E196E09C0CB
:1012A0000BF00AC00CF0150E2218D8A45AEF89F0E2
:1012B0005CEF89F079EF89F01750D8B462EF89F0CC
:1012C00064EF89F079EF89F017069A0E196E5C5079
:1012D000D8B46DEF89F06FEF89F075EF89F084C0B5
:1012E00001F085C002F079EF89F082C001F083C07F
:1012F00002F0070E2218D8A480EF89F082EF89F05F
:101300009CEF89F01750D8B488EF89F08AEF89F004
:101310009CEF89F05C50D8B490EF89F092EF89F09F
:1013200098EF89F080C001F081C002F09CEF89F055
:101330007EC001F07FC002F0BE80000EC46E19ECCA
:1013400085F0C468BE902206020E216E35EF89F04A
:10135000C6EC8EF0DBEC8DF02250D8B4B2EF89F001
:10136000B4EF89F0C1EF89F0BE80000EC46E010EAB
:10137000D0EC82F0C468BE902206010E216E35EFDB
:1013800089F0BE80000EC46E000ED0EC82F0A7EC97
:101390008AF0C468BE901F50FAEC8EF05C5085EC69
:1013A0008CF01F50D8B4D7EF89F0DAEF89F0010E36
:1013B000DBEF89F0000E1F6E00EC80F0BE80000EA7
:1013C000C46E59EC88F0C468BE90030E216E35EFF0
:1013D00089F092EC8EF076C048F077C049F078C082
:1013E0004AF079C04BF01FC04CF028EC8CF0000E96
:1013F000196EBF0E226EBDEF89F02150010AD8B4DC
:1014000037EF89F0030AD8B4A8EF89F0010AD8B4FD
:10141000E9EF89F035EF89F01200386E5EEC91F05B
:1014200039681FEF8AF04DEC91F0FF0AD8A41BEF4A
:101430008AF01DEF8AF01FEF8AF028EF8AF0390654
:101440003928D8A426EF8AF028EF8AF013EF8AF023
:101450003950D8A42EEF8AF030EF8AF036EF8AF0B8
:10146000050E53EC91F0FF0EA6EF8AF038504009BC
:10147000B4EC90F0180E376E37502EC032F02FC0FB
:1014800033F030C034F031C035F0E82A4DEF8AF047
:10149000D8903532343233323232E82E48EF8AF087
:1014A0003250B4EC90F0F80E372637BE5CEF8AF07D
:1014B0005AEF8AF03CEF8AF036683850D8A463EFD0
:1014C0008AF065EF8AF067EF8AF0950E366E080EA7
:1014D0003818D8A46EEF8AF070EF8AF072EF8AF0B5
:1014E000870E366E3650B4EC90F00C0E3818D8A437
:1014F0007CEF8AF07EEF8AF080EF8AF04DEC91F07D
:1015000039688FEF8AF04DEC91F0246E24BE8BEF9A
:101510008AF08DEF8AF08FEF8AF098EF8AF0390623
:101520003928D8A496EF8AF098EF8AF083EF8AF0F2
:101530003950D8A49EEF8AF0A0EF8AF0A5EF8AF088
:10154000060E53EC91F033EF8AF024501200BD5098
:10155000F80B0509BD6E600037F0D9FF60003BF065
:10156000DAFFDF50106E0D4A0E2A105003242D6E44
:10157000000E04202E6E6000B7F0F6FF6000BBF096
:10158000F7FF000EF86E08006F00D4FF10F00D0E8C
:10159000BA6E600043F0BCFFBE94BE845C50D8A419
:1015A000D4EF8AF0D6EF8AF0E0EF8AF0600037F0EF
:1015B000D9FF60003BF0DAFFDF50206E0D4A0E2AA3
:1015C0005C50D8B4E6EF8AF0E8EF8AF0FCEF8AF0DE
:1015D000110EBA6E1D0EBC6EBE94BE84270EBA6E7E
:1015E000240EBC6EBE94BE84300EBA6E000EBC6E6D
:1015F000BE94BE840EEF8BF0110EBA6E1E0EBC6E42
:10160000BE94BE84270EBA6E240EBC6EBE94BE84F9
:10161000300EBA6E010EBC6EF8EF8AF01F50D8A4DF
:1016200014EF8BF016EF8BF024EF8BF0370EBA6EC1
:10163000B90EBC6EBE94BE84380EBA6E1A0EBC6E65
:10164000BE94BE842AEF8BF0370EBA6EC20EBC6E0B
:101650001AEF8BF012003168020E3D01136F000E7D
:10166000126F000E3B01FC6F000EDC6F3901A2937C
:10167000A291A297A2959293929192979295A597F3
:10168000A595A59BA59995979595959B9599310EAF
:101690002F6E000E306E6000BFF0F9FB6000C3F0EB
:1016A000FAFB3B01FB6BE70EFD17F90EFD17020E6F
:1016B000F86F000EF76FFD813D0EF16F110EF06FA8
:1016C0003F0EFD17000EEF6F010EEE6FFD9B150E26
:1016D000FF6F000EFE6F100ED96F3D0EDA6F000E19
:1016E000DB6FE70EDD17F90EDD17000ED86F010E68
:1016F000D76FDD916000B7F0D0FB6000BBF0D1FB8D
:10170000DD513F0B4009DD6F020ECF6F000ECE6F33
:10171000DD8B140EDF6F000EDE6F3901550EEF6F9B
:10172000AA0EEF6FEF91030E3901F26F020EF16F07
:10173000000EF36F010EF46F040EF76F3901550EB2
:10174000EF6FAA0EEF6FEF813B01FC8FDC8FFC8DFA
:10175000DC8D1200BE80000EC46E070EBD6E7C0EC6
:10176000BA6ED10EF66EFA0EF76E000EF86E080025
:101770006F00D7FFBCFFBE94BE847D0EBA6ED20E42
:10178000F66EFA0EF76E000EF86E08006F00D7FFC7
:10179000BCFFBE94BE84C468BE90BE80000EC46E02
:1017A000070EBD6E7B0EBA6E200EBC6EBE94BE845C
:1017B000C468BE90030E2E6EFB0E2D6E3BEC90F0B7
:1017C000200AD8A4E6EF8BF0E8EF8BF0CDEF8BF09A
:1017D000BE80000EC46E070EBD6E7A0EBA6ECF0EBE
:1017E000F66EFA0EF76E000EF86E08006F00D7FF67
:1017F000BCFFBE94BE847B0EBA6ED00EF66EFA0E9F
:10180000F76E000EF86E08006F00D7FFBCFFBE94A5
:10181000BE847E0EBA6ED30EF66EFA0EF76E000E12
:10182000F86E08006F00D7FFBCFFBE94BE847F0E29
:10183000BA6ED40EF66EFA0EF76E000EF86E080051
:101840006F00D7FFBCFFBE94BE84C468BE90120078
:101850002550D8B42EEF8CF030EF8CF034EF8CF0B4
:101860003FEC87F084EF8CF048C04DF049C04EF05B
:101870004AC04FF04BC050F0030ED8904D364E3654
:101880004F365036E82E3DEF8CF000017A514D2452
:10189000516E7B514E20526E7C514F20536E7D51C4
:1018A0005020546E4C04D8A458EF8CF05AEF8CF0B2
:1018B00060EF8CF08B0E866F0A0E876F64EF8CF0F2
:1018C0008B0E866F000E876F2650D8B46AEF8CF0AF
:1018D0006CEF8CF072EF8CF03FEC91F087EC90F0B5
:1018E000000E266E51C03AF052C03BF053C03CF09F
:1018F00054C03DF08DEC8FF0050E276E000E5E6E2D
:10190000DBEC8DF0010E266E12002D6E2D50D8B43A
:101910008CEF8CF08EEF8CF0B8EF8CF060001FF045
:10192000D9FF600023F0DAFF000EDF6E20EE01F039
:101930000750D9260850DA22000EDF6E20EE02F0A2
:101940000750D9260850DA22000EDF6E20EE03F091
:101950000750D9260850DA22000EDF6E20EE04F080
:101960000750D9260850DA22000EDF6EE0EF8CF027
:1019700020EEBBF30750D9260850DA22000EDF6EA6
:1019800020EEBCF30750D9260850DA22000EDF6E95
:1019900020EEBDF30750D9260850DA22000EDF6E84
:1019A00020EEBEF30750D9260850DA22000EDF6E73
:1019B00020EEBFF30750D9260850DA22000EDF6E62
:1019C0001200000EBE6E000EBD6E000EBA6EC30E8B
:1019D000BB6E000EBC6E000EC66E800EC26E580E40
:1019E000C36E000EC46E600EC56E000E3A01706FBD
:1019F000000E606F000E506F000E806F000E406F83
:101A0000000E716F000E816F000E516F000E416F5E
:101A1000000E616F000E826F000E426F000E526F5B
:101A2000000E626F000E726F579956995599000E0D
:101A30002D6E000E2E6E000E2F6E46EC91F03A01C8
:101A4000DF51C00B0B09DF6F1F0E096FDB51C00B9D
:101A50001E09DB6F1E0E0A6FDE51C00B0A09DE6F16
:101A6000C351C00B0C09C36F030E1F6F120004ECAF
:101A700091F0BE84BE82DDEC8FF089EC8DF0000920
:101A8000D8B445EF8DF047EF8DF03BEF8DF0BE926F
:101A9000060E03EC90F021EC8EF05FEC8FF0000965
:101AA000D8B455EF8DF057EF8DF04BEF8DF0050E5C
:101AB00003EC90F0AAEC8BF0040E03EC90F0BB9AD0
:101AC000B6EC8FF00009D8A468EF8DF06AEF8DF0C6
:101AD0006DEF8DF0030E5CEC8EF0BB8A030E03EC11
:101AE00090F0020E5CEC8EF0D8EC90F0050E566E85
:101AF0000F0E556EF10EE82EFED7552EFCD7562E42
:101B0000FAD700F0020E03EC90F035EC89F0FEEF0E
:101B1000FFF0FF0E2E6EFB0E2D6E3BEC90F00009D9
:101B2000D8B495EF8DF097EF8DF09AEF8DF0000E11
:101B3000DAEF8DF0FF0E2E6EFC0E2D6E3BEC90F06A
:101B4000FB0AD8B4A6EF8DF0A8EF8DF0AAEF8DF0C8
:101B500097EF8DF0FF0E2E6EFD0E2D6E3BEC90F08C
:101B6000F30AD8B4B6EF8DF0B8EF8DF0BAEF8DF080
:101B700097EF8DF0FF0E2E6EFE0E2D6E3BEC90F06B
:101B8000FB0AD8B4C6EF8DF0C8EF8DF0CAEF8DF028
:101B900097EF8DF0FF0E2E6E2D683BEC90F0F30A60
:101BA000D8B4D5EF8DF0D7EF8DF0D9EF8DF097EF5A
:101BB0008DF0010E120011EF8EF0E8EC90F00009AC
:101BC000D8A4E5EF8DF0E7EF8DF0E9EF8DF020EF91
:101BD0008EF086C02DF087C02EF02BEC8BF000012C
:101BE000020E8727010E5E6E270657EC90F0000963
:101BF000D8A4FDEF8DF0FFEF8DF001EF8EF020EF18
:101C00008EF02750D8B407EF8EF009EF8EF00DEF6D
:101C10008EF0000E5E6E20EF8EF0020E5E6E20EFF4
:101C20008EF05E50000AD8B4DDEF8DF0010AD8B412
:101C3000F5EF8DF0030AD8B420EF8EF020EF8EF090
:101C40001200BE80000EC46E000E316E000E306EAB
:101C500030C02DF031C02EF0070E2F6ED8902E32EE
:101C60002D322F2E2EEF8EF0070E2D16BD50F80BB5
:101C70002D10BD6E30507F0BBA6ED50E3024F66E2F
:101C8000F60E3120F76EF86A000EF82208006F0099
:101C9000D7FFBCFFBE94BE84304A312AFA0E305CB6
:101CA000030E3158D8A057EF8EF059EF8EF028EF81
:101CB0008EF0C468BE9012002F6EBB8A000E306E8C
:101CC0007CEF8EF0BB9A110E2E6E3C0E2D6ECB0E5D
:101CD000E82EFED72D2EFCD72E2EFAD700F0BB8A89
:101CE000190E2E6E5A0E2D6EB20EE82EFED72D2E28
:101CF000FCD72E2EFAD7302A2F50305CD8A083EF95
:101D00008EF085EF8EF062EF8EF0290E2E6E960E1D
:101D10002D6E7F0EE82EFED72D2EFCD72E2EFAD755
:101D200000F01200000ECDBA010E2B6E000ECABEDE
:101D3000010E2A6E000ECDBA010E296E000ECABE2B
:101D4000010E286E2B50D8B4A8EF8EF0AAEF8EF0BB
:101D5000BDEF8EF02950D8B4B0EF8EF0B2EF8EF018
:101D6000BDEF8EF028502A18D8A4B9EF8EF0BBEF43
:101D70008EF0BDEF8EF02AC02CF02C50D8B4C3EFFB
:101D80008EF0C5EF8EF092EF8EF01200000ECDBAFD
:101D9000010E2B6E000ECABE010E2A6E000ECDBAC9
:101DA000010E296E000ECABE010E286E2B50D8B44B
:101DB000DCEF8EF0DEEF8EF0F1EF8EF02950D8B42C
:101DC000E4EF8EF0E6EF8EF0F1EF8EF028502A1857
:101DD000D8A4EDEF8EF0EFEF8EF0F1EF8EF02AC089
:101DE0002CF02C50D8A4F7EF8EF0F9EF8EF0C6EF60
:101DF0008EF012002D6E2D04D8A401EF8FF003EFAA
:101E00008FF019EF8FF08B0E056E0A0E066E920E94
:101E10000D6E0A0E0E6E980E0B6E0B0E0C6E580E9B
:101E2000096E0F0E0A6E940E076E0F0E086E2DEFE0
:101E30008FF08B0E056E000E066E920E0D6E000E6C
:101E40000E6E980E0B6E010E0C6E580E096E050E7E
:101E50000A6E940E076E050E086E1200EE0EF66EF8
:101E6000210EF76E010EF86E00EE60F010EE1AF023
:101E700009006F00D7FFEEFFE550E150F9E1B00E29
:101E8000F66E220EF76E010EF86E00EE57F010EEB1
:101E900008F009006F00D7FFEEFFE550E150F9E1CF
:101EA00000EE7AF00E0EEE6AE806FDE100EE01F0BB
:101EB0002C0EEE6AE806FDE1000137EF8DF0030E0F
:101EC000356EF90E346ED50E3424F66EF60E3520CE
:101ED000F76EF86A000EF82208006F00D4FF33F0A6
:101EE00034C02DF035C02EF03BEC90F03318D8B450
:101EF0007CEF8FF07EEF8FF081EF8FF0000E8CEF94
:101F00008FF03406D8A0350635BE8BEF8FF089EF01
:101F10008FF063EF8FF0010E1200030E2318D8B478
:101F200094EF8FF096EF8FF09FEF8FF0090ED8901F
:101F30003A363B363C363D36E82E97EF8FF03AC0C6
:101F40002EF03BC02FF03CC030F03DC031F0120EFF
:101F50000DEC8AF00009D8B4B0EF8FF0B2EF8FF03B
:101F6000B5EF8FF0040E53EC91F01200030E216ECA
:101F7000010E5D6E010E5C6E1FEC90F00009D8A49E
:101F8000C4EF8FF0C6EF8FF0C9EF8FF0000EDCEFDB
:101F90008FF06CC003F06DC004F0EF0E0001806F95
:101FA000FA0E816FA70E7E6FFC0E7F6F010EFAECAA
:101FB0008EF0000EB66E010E1200BE80000EC46ED2
:101FC000070EBD6E7B0EBA6E000EBC6EBE94BE8454
:101FD0007C0EBA6EFB0EBC6EBE94BE847D0EBA6ED5
:101FE000F30EBC6EBE94BE847E0EBA6EFB0EBC6E4B
:101FF000BE94BE847F0EBA6EF30EBC6EBE94BE84D9
:10200000C468BE9012002D6EBB8ABB8ABB8ABB8A95
:10201000000E2E6E11EF90F0BB9ABB9ABB8ABB8A62
:102020002E2A2D502E5CD8A018EF90F01AEF90F0C9
:102030000CEF90F0BB8ABB8ABB8ABB8A120024EFEC
:1020400090F0010E5CEC8EF03FEC87F00009D8B404
:102050002CEF90F02EEF90F021EF90F011EC91F03A
:10206000000E00017A6F240E7B6F000E7C6F000E55
:102070007D6F010E12002D507F0BBA6E2DC02FF018
:102080002EC030F0070E316ED89030322F32312E04
:1020900044EF90F02F50070BBD6EC468BE906F00E8
:1020A00030FF32F0BE80000EC46E325012003D018F
:1020B00012511311D8B45FEF90F061EF90F064EF1C
:1020C00090F0000E6EEF90F016AF69EF90F06BEFAE
:1020D00090F06DEF90F061EF90F0010E12003E6E07
:1020E000000E2E6E000E2F6E000E306E000E316E42
:1020F000370E0DEC8AF03AC02EF03BC02FF03CC0FA
:1021000030F03DC031F03E500DEC8AF01200000E70
:102110002E6E000E2F6E000E306E000E316E0C0E05
:102120000DEC8AF00009D8B498EF90F09AEF90F097
:102130009DEF90F0010E53EC91F01200800E3C01E7
:10214000616F020E626F020E636F020E646F020E09
:10215000656F020E666F020E676F020E686F020EE9
:10216000696F820E606F12002D6E010E3D01126FBD
:102170006000B7F011FD3901A2A9C1EF90F0C3EFE3
:1021800090F0BBEF90F03D0110511200000E3901AC
:10219000C06F000EC16F000EC26F000EC36F000E45
:1021A000C46F000EC56F000EC66F000EC76F120021
:1021B000BE80000EC46EBD50F80B0609BD6E500EF9
:1021C000BA6E180EBC6EBE94BE84C468BE90120077
:1021D0004DEC91F0FE0AD8A4F0EF90F0F2EF90F001
:1021E000F5EF90F0010EF6EF90F0000E1200EFFF09
:1021F000DFFFCFFFBFFFAFFF9FFF8FFF7FFF6FFFAF
:102200005FFF4FFF01000000C6EC90F0E1EC8CF0A6
:1022100029EC91F09EEC90F035EC91F01DEC91F0F2
:102220001200400E3D01156F030E166F070E196F59
:10223000010E1C6F820E146F1200400E3D01156FCF
:10224000030E166F4F0E196F010E1C6F820E146F66
:102250001200600E3901D96F000EDB6F000EDD6FCA
:10226000080EDF6F000EDE6F1200100EB96EB76839
:10227000000EB66E3901A39F800EB86E12004DECB1
:1022800091F04DEC91F05CEC91F012002DC088F0D3
:102290002EC089F02FC08AF0120000F000F0FF0E6F
:1022A000B4EC90F012005CEC91F0010E256E12007F
:1022B0000101020606010102BB801200BB90120060
:04FFFC002EEF8FF065
:020000040020DA
:10000000FF0FFF0FFF0FFF0FFF0FFF0FFF0FFF0F80
:020000040030CA
:0A000000ECFFF6FF9FFFFFDFFFFF9C
:00000001FF
