:04000000FEEFFFF020
:10F6AC00008502B932F8851BB93EF8851CB94AF8B9
:10F6BC00851BB956F88587B962F8BE6EF88488A4A4
:10F6CC0087841C851B861C861BA4886689B0D288FF
:10F6DC0010CF60000101010000303032353830F9B4
:10F6EC00818180F80063666666E6638CFC8C8870AA
:10F6FC0000C061636666C6C6C6F8C6F800C1203095
:10F70C00181819181818187E00F961616161F90050
:10F71C000000000000F88080E080F8FFFFFFFFFF92
:10F72C00FFAD80024A4A4A8581EA858085808580C2
:10F73C0085804C48F9A50C0AAD82022A29178581CF
:10F74C00EA8580858085804C48F9FFFFFFFFFFFF2D
:10F75C00FFFFFFFFFFFFFFFFFFFFFFFFFFFFFFFFAD
:10F76C00FFFFFFFFFFFFFFFFFFFFFFFFFFFFFFFF9D
:10F77C00FFFFFFFFFFFFFFFFFFFFFFFFFFFFFFFF8D
:10F78C00FFFFFFFFFFFFFFFFFFFFFFFFFFFFFFFF7D
:10F79C00FFFFFFFFFFFFFFFFFFFFFFFFFFFFFFFF6D
:10F7AC00FFFFFFFFFFFFFFFFFFFFFFFFFFFFFFFF5D
:10F7BC00FFFFFFFFFFFFFFFFFFFFFFFFFFFFFFFF4D
:10F7CC00FFFFFFFFFFFFFFFFFFFFFFFFFFFFFFFF3D
:10F7DC00FFFFFFFFFFFFFFFFFFFFFFFFFFFFFFFF2D
:10F7EC00FFFFFFFFFFFFFFFFFFA99F851C852AA9D5
:10F7FC0000A2DF8519A062A9F88507A9E7851BA9D6
:10F80C00F28506A9F7851CA9008509A9AC8506A96E
:10F81C00FD851BA9D88507861B8406A9008509854B
:10F82C002BA900A9CF852A851CA9368507A9008597
:10F83C0019A2BFA072A9F3851BA9428506A9EF8561
:10F84C001CA9008508A9EE8506A9FB851BA9B68510
:10F85C0007861B8406A9008508A980852085214C74
:10F86C0048F9FFFFFFFFFFFFFFFFFFFFFFFFFFFF59
:10F87C00FFFFFFFFFFFFFFFFFFFFFFFFFFFFFFFF8C
:10F88C00FFFFFFFFFFFFFFFFFFFFFFFFFFFFFFFF7C
:10F89C00FFFFFFFFFFFFFFFFFFFFFFFFFFFFFFFF6C
:10F8AC00FF78D8A2FF9AA9009500CAD0FBA9808541
:10F8BC0082A9FB8583A90185258526A90385048555
:10F8CC00058502A2048580CAD0FB85808510851130
:10F8DC00A9D08520A9E085218502852AA5846A6A9C
:10F8EC0085068507A95585892000FBB0EFA9008501
:10F8FC00098525851B8510EA8511851C851B851CB2
:10F90C00A9068504A9028505A9018526A9008520DB
:10F91C00A9F08521852AA205CAD0FD852B4C80FA39
:10F92C00FFA900A200A000841B841C8519841BA9BC
:10F93C00CF850DA933850EA9CC850FA21D20C9FA40
:10F94C00A9028500A20320C9FAA9008500A9028595
:10F95C0001A22520C9FAA2008601A200F00920C943
:10F96C00FAEAEA858085804C94F88502A900B18278
:10F97C008519A581F005C681AD8014C8CAD0EB608D
:10F98C00FFFFFFFFFFFFFFFFFFFFFFFFFFFFFFFF7B
:10F99C00FFFFFFFFFFFFFFFFFFFFFFFFFFFFFFFF6B
:10F9AC00FFA21E2052FBA9028500A2032052FBA934
:10F9BC00008500A9028501A2252052FBA900850122
:10F9CC00C684A5848585A0FFA21E2058FBA23620E4
:10F9DC0052FBA00B2000F8A900851B851C851B85FC
:10F9EC001CA2362052FBA5848585A001A21E20589E
:10F9FC00FB3860A9008585A000848618A5856586DE
:10FA0C00858585028509CAD0F260FFFFFFFFFFFFE5
:10FA1C00FFFFFFFFFFFFFFFFFFFFFFFFFFFFFFFFEA
:10FA2C00FFFFFFFFFFFFFFFFFFFFFFFFFFFFFFFFDA
:10FA3C00FFFFFFFFFFFFFFFFFFFFFFFFFFFFFFFFCA
:10FA4C00FFFFFFFFFFFFFFFFFFFFFFFFFFFFFFFFBA
:10FA5C00FFFFFFFFFFFFFFFFFFFFFFFFFFFFFFFFAA
:10FA6C00FFFFFFFFFFFFFFFFFFFFFFFFFFFFFFFF9A
:10FA7C00FFFFFFFFFFFFFFFFFFFFFFFFFFFFFFFF8A
:10FA8C00FFFFFFFFFFFFFFFFFFFFFFFFFFFFFFFF7A
:10FA9C00FFFFFFFFFFFFFFFFFFFFFF00FA00FA0071
:10FAAC00FA0000000000000001020304050607082C
:10FABC00090A0B0C0D0E0F0F0F0F0F7F7F7F7F7F2F
:10FACC00414141414141414141414141414141411A
:10FADC00414141417F7F7F7F7F000000000000009B
:10FAEC000000007F7F7F7F7F7F4141414141414149
:10FAFC0041417F4141414141414141417F7F7F7FB4
:10FB0C007F000000000000000000007F7F7F7F7FEF
:10FB1C007F414141417F414141417F414141417FD1
:10FB2C00414141417F7F7F7F7F000000000000004A
:10FB3C000000007F7F7F7F7F7F7F4141417F41417C
:10FB4C0041417F7F4141417F414141417F7F7F7FE7
:10FB5C007F000000000000000000007F7F7F7F7F9F
:10FB6C007F7F4141417F7F4141417F7F4141417FC7
:10FB7C007F4141417F7F7F7F7F00000000000000BC
:10FB8C000000007F7F7F7F7F7F7F7F41417F7F41B0
:10FB9C0041417F7F7F41417F7F4141417F7F7F7F1B
:10FBAC007F000000000000000000007F7F7F7F7F4F
:10FBBC007F7F7F41417F7F7F41417F7F7F41417FBD
:10FBCC007F7F41417F7F7F7F7F000000000000002E
:10FBDC000000007F7F7F7F7F7F7F7F7F417F7F7FE4
:10FBEC0041417F7F7F7F417F7F7F41417F7F7F7F4F
:10FBFC007F000000000000000000007F7F7F7F7FFF
:10FC0C007F7F7F7F417F7F7F7F417F7F7F7F417FB2
:10FC1C007F7F7F417F7F7F7F7F000000000000009F
:10FC2C000000007F7F7F7F7F7F7F7F7F7F7F7F7F55
:10FC3C007F417F7F7F7F7F7F7F7F7F417F7F7F7F44
:10FC4C007F000000000000000000007F7F7F7F7FAE
:10FC5C007F7F7F7F7F7F7F7F7F7F7F7F7F7F7F7FA8
:10FC6C007F7F7F7F7F7F7F7F7F0000000000000011
:10FC7C0000000000000000007F7F7F7F7F4141413A
:10FC8C004141414141414141414141414141414158
:10FC9C00417F7F7F7F7F000000000000000000009C
:10FCAC007F7F7F7F7F41414141417F4141414141C4
:10FCBC00414141417F414141417F7F7F7F7F000036
:10FCCC0000000000000000007F7F7F7F7F7F4141AC
:10FCDC0041417F414141417F414141417F4141414E
:10FCEC00417F7F7F7F7F000000000000000000004C
:10FCFC007F7F7F7F7F7F414141417F7F4141417FBA
:10FD0C00414141417F7F4141417F7F7F7F7F0000A7
:10FD1C0000000000000000007F7F7F7F7F7F7F411D
:10FD2C0041417F7F4141417F7F4141417F7F414143
:10FD3C00417F7F7F7F7F00000000000000000000FB
:10FD4C007F7F7F7F7F7F7F4141417F7F7F41417FED
:10FD5C007F4141417F7F7F41417F7F7F7F7F0000DB
:10FD6C0000000000000000007F7F7F7F7F7F7F7F8F
:10FD7C0041417F7F7F41417F7F7F41417F7F7F4139
:10FD8C00417F7F7F7F7F00000000000000000000AB
:10FD9C007F7F7F7F7F7F7F7F41417F7F7F7F417F21
:10FDAC007F7F41417F7F7F7F417F7F7F7F7F00000F
:10FDBC0000000000000000007F7F7F7F7F7F7F7F3F
:10FDCC007F417F7F7F7F417F7F7F7F417F7F7F7FF1
:10FDDC00417F7F7F7F7F000000000000000000005B
:10FDEC007F7F7F7F7F7F7F7F7F417F7F7F7F7F7F55
:10FDFC007F7F7F417F7F7F7F7F7F7F7F7F7F000043
:10FE0C0000000000000000007F7F7F7F7F7F7F7FEE
:10FE1C007F7F7F7F7F7F7F7F7F7F7F7F7F7F7F7FE6
:10FE2C007F7F7F7F7F7F00000000000000000000CC
:10FE3C00000000000061E0637000008EC00EC03353
:10FE4C0070637000001CC00FC03B3063F000001CDE
:10FE5C00C00FC01E7063B000000EC00DC00EE03E9F
:10FE6C003000000000000000000000000000000056
:10FE7C000000000000000000000000000000000076
:10FE8C0000C7C00EFE7170637000008CC00EC033D2
:10FE9C003063F000001CC00FFE1F3063F000000C3C
:10FEAC00C00FC01E7077B0000007FC0CFE000000F5
:10FEBC000000000000000000000000000000000036
:10FECC000007FC7E63000071300C60068CC0600083
:10FEDC000061310C6007F8DFE0000071310C600646
:10FEEC009CC360000071300C60078E7F60000000C6
:10FEFC0000000000000000000000000000000000F6
:10FF0C0000000000000000000000000000E1300CC8
:10FF1C00FC068CE760000071300C60068CC0600041
:10FF2C0000E1310F600698C360000031300C6006B0
:10FF3C008CE7600000E1300C600000000000000065
:10FF4C000000000000000000010306090C0E0F0F5A
:10FF5C000F0F0F0000000000020406090B0D0F0F1D
:10FF6C000F0F0F0000000001030507080A0C0E0F0D
:10FF7C000F0F0F0000000103040507080A0B0C0EFD
:10FF8C000F0F0F000102030405060708090A0B0CEA
:10FF9C000D0E0F010203040505060708090A0A0BDA
:10FFAC000C0D0E03030405050607070809090A0BC7
:10FFBC000B0C0D0404050506060707080809090AB9
:10FFCC000A0B0B05050606060707070808080909AA
:10FFDC00090A0A060607070707070708080808089A
:10FFEC000809090808080808080808080808080883
:04FFFC0008080800E9
:020000040001F9
:100000002F6EBD50F80B0309BD6E600027F0D9FFBD
:1000100060002BF0DAFFDF50106E094A0A2A1050F8
:1000200001242D6E000E02202E6E6000B7F0F6FF48
:100030006000BBF0F7FF000EF86E08006F00D4FF01
:1000400010F00D0EBA6E600043F0BCFFBE94BE848B
:1000500003500410D8B42FEF80F031EF80F041EF5F
:1000600080F060000FF0F6FF600013F0F7FF000E65
:10007000F86E08006F00D4FF10F0034A042A4BEF1B
:1000800080F060001FF0D9FF600023F0DAFFDF503E
:10009000106E074A082A150EBA6E600043F0BCFFC6
:1000A000BE94BE8403500410D8B459EF80F05BEFC7
:1000B00080F06BEF80F060000FF0F6FF600013F04F
:1000C000F7FF000EF86E08006F00D4FF10F0034A2F
:1000D000042A75EF80F060001FF0D9FF600023F064
:1000E000DAFFDF50106E074A082A030EBA6E60006E
:1000F00043F0BCFFBE94BE8403500410D8B483EF19
:1001000080F085EF80F095EF80F060000FF0F6FF53
:10011000600013F0F7FF000EF86E08006F00D4FFC8
:1001200010F0034A042A9FEF80F060001FF0D9FF0F
:10013000600023F0DAFFDF50106E074A082A290E0C
:10014000BA6E600043F0BCFFBE94BE84035004103E
:10015000D8B4ADEF80F0AFEF80F0BFEF80F060007B
:100160000FF0F6FF600013F0F7FF000EF86E0800C6
:100170006F00D4FF10F0034A042AC9EF80F060003A
:100180001FF0D9FF600023F0DAFFDF50106E074A3E
:10019000082A1D0EBA6E600043F0BCFFBE94BE84F8
:1001A00003500410D8B4D7EF80F0D9EF80F0E9EF16
:1001B00080F060000FF0F6FF600013F0F7FF000E14
:1001C000F86E08006F00D4FF10F0034A042AF3EF22
:1001D00080F060001FF0D9FF600023F0DAFFDF50ED
:1001E000106E074A082A110EBA6E600043F0BCFF79
:1001F000BE94BE84600017F0D9FF60001BF0DAFFE8
:10020000DF500F6E054A062A0FC010F00F0E1016B1
:100210005B501026AD0E1024F66EF76AFA0EF72228
:10022000F86A000EF82208006F00D4FF10F0F00EFC
:100230000F160F5010121950D8B421EF81F023EF90
:1002400081F025EF81F019C010F01850D8B42BEFD1
:1002500081F02DEF81F02FEF81F00F0E1016190EA7
:10026000BA6E600043F0BCFFBE94BE84600017F01D
:10027000D9FF60001BF0DAFFDF500F6E054A062A37
:100280000FC010F00F0E10165B501026AD0E10248C
:10029000F66EF76AFA0EF722F86A000EF8220800E6
:1002A0006F00D4FF10F0F00E0F160F5010121950FF
:1002B000D8B45DEF81F05FEF81F061EF81F019C09C
:1002C00010F01850D8B467EF81F069EF81F06BEF50
:1002D00081F00F0E1016090EBA6E600043F0BCFFDD
:1002E000BE94BE84600017F0D9FF60001BF0DAFFF7
:1002F000DF500F6E054A062A0FC010F00F0E1016C1
:100300005B501026AD0E1024F66EF76AFA0EF72237
:10031000F86A000EF82208006F00D4FF10F0F00E0B
:100320000F160F5010121950D8B499EF81F09BEFAF
:1003300081F09DEF81F019C010F01850D8B4A3EFF0
:1003400081F0A5EF81F0A7EF81F00F0E1016250EBA
:10035000BA6E600043F0BCFFBE94BE84600017F02C
:10036000D9FF60001BF0DAFFDF500F6E054A062A46
:100370000FC010F00F0E10165B501026AD0E10249B
:10038000F66EF76AFA0EF722F86A000EF8220800F5
:100390006F00D4FF10F0F00E0F160F50101219500E
:1003A000D8B4D5EF81F0D7EF81F0D9EF81F019C043
:1003B00010F01850D8B4DFEF81F0E1EF81F0E3EFF7
:1003C00081F00F0E10162D0EBA6E600043F0BCFFC8
:1003D000BE94BE84600017F0D9FF60001BF0DAFF06
:1003E000DF500F6E054A062A0FC010F00F0E1016D0
:1003F0005B501026AD0E1024F66EF76AFA0EF72247
:10040000F86A000EF82208006F00D4FF10F0F00E1A
:100410000F160F5010121950D8B411EF82F013EFCD
:1004200082F015EF82F019C010F01850D8B41BEF0D
:1004300082F01DEF82F01FEF82F00F0E1016130EE8
:10044000BA6E600043F0BCFFBE94BE841950D8B4AD
:100450002CEF82F02EEF82F036EF82F0210EBA6E92
:10046000000EBC6EBE94BE8473EF82F0600013F287
:10047000D9FF600017F2DAFFDF500F6E0001844BE6
:10048000852B0FC010F00F0E10165B501026AD0E0E
:100490001024F66EF76AFA0EF722F86A000EF822B8
:1004A00008006F00D4FF10F0F00E0F160F5010125E
:1004B0001950D8B45EEF82F060EF82F062EF82F004
:1004C00019C010F01850D8B468EF82F06AEF82F0CB
:1004D0006CEF82F00F0E1016210EBA6E600043F022
:1004E000BCFF32EF82F02F50D8B479EF82F07BEF6F
:1004F00082F089EF82F03F0EBA6E480EBC6EBE9459
:10050000BE84400EBA6E190EBC6EBE94BE8495EFCA
:1005100082F03F0EBA6E800EBC6EBE94BE84400E5A
:10052000BA6E1A0EBC6E85EF82F01200000E036EDA
:10053000000E046E6F00D8FE37F0000EB66E1F047A
:10054000D8A4A5EF82F0A7EF82F0BBEF82F037507E
:100550001E0BFF0A1E0B3E6E1C503E18D8A4B3EFB4
:1005600082F0B5EF82F0B7EF82F03EC01EF03EC0E1
:100570001CF0CDEF82F03750170BFF0A170B3F6EC0
:100580001B503F18D8A4C7EF82F0C9EF82F0CBEF21
:1005900082F03FC01DF03FC01BF01E50100B406E9C
:1005A0001E50080B416E1E50020B386E1E50040B7D
:1005B000396E1D50100B356E1D50010B3A6E1D50DB
:1005C000040B3B6E1D50020B366E010E3D6E35C0A6
:1005D00018F03650D8B4EFEF82F0F1EF82F000EF70
:1005E00083F0010E0001766F000E776F000E786FBA
:1005F000000E796F010E5E6EB40E166E14EF85F06C
:100600005AC03CF03850D8B408EF83F00AEF83F0BA
:1006100021EF83F01150D8A410EF83F012EF83F094
:1006200021EF83F05A50D8A418EF83F01AEF83F02B
:100630001EEF83F0020E5A6E3FEF83F05A063FEF33
:1006400083F03950D8B427EF83F029EF83F03FEFE0
:1006500083F01250D8A42FEF83F031EF83F03FEFF7
:1006600083F0020E5A18D8A438EF83F03AEF83F0E3
:100670003EEF83F0000E5A6E3FEF83F05A2A41504E
:10068000D8A445EF83F047EF83F04FEF83F040505D
:10069000D8B44DEF83F04FEF83F052EF83F01A2A76
:1006A00056EF83F0000E1A6E010E596E1AA85BEF1A
:1006B00083F05DEF83F0D7EF83F0000E1A6E4150A8
:1006C000D8A465EF83F067EF83F06FEF83F04050BD
:1006D000D8B46DEF83F06FEF83F0D7EF83F0020EA5
:1006E0005A18D8A476EF83F078EF83F087EF83F081
:1006F000B40E166E040E592659BE83EF83F081EFB7
:1007000083F0D7EF83F0FC0E5926D7EF83F05A50D1
:10071000D8A48DEF83F08FEF83F0AFEF83F0B40EAA
:10072000176E4150D8B497EF83F099EF83F0A4EFA0
:1007300083F05C50D8B49FEF83F0A1EF83F0D7EF44
:1007400083F05C06D7EF83F05C2A0A0E5C64ABEFA3
:1007500083F0ADEF83F0D7EF83F0A1EF83F05A047D
:10076000D8A4B5EF83F0B7EF83F0D7EF83F0B40EE2
:10077000176E4150D8B4BFEF83F0C1EF83F0CCEFD8
:1007800083F05B50D8B4C7EF83F0C9EF83F0D7EFA5
:1007900083F05B06D7EF83F05B2A0A0E5B64D3EF2E
:1007A00083F0D5EF83F0D7EF83F0C9EF83F03B50B0
:1007B000D8B4DDEF83F0DFEF83F0F4EF83F058502F
:1007C000D8A4E5EF83F0E7EF83F0F4EF83F0B40E05
:1007D000166EA70E00017627FD0E7723FF0E7823F5
:1007E000FF0E792314EF85F03A50D8B4FAEF83F076
:1007F000FCEF83F02BEF84F01550D8A402EF84F0C7
:1008000004EF84F02BEF84F05E50D8B40AEF84F04C
:100810000DEF84F0010E0EEF84F0000E5E6E2BEFF4
:1008200084F05A503C18D8B418EF84F01AEF84F0D2
:100830003AEF84F0B40E166E3AEF84F05A503C183A
:10084000D8B425EF84F027EF84F03AEF84F0B40EAB
:10085000176E3AEF84F05A50000AD8B41EEF84F0B5
:10086000010AD8B41EEF84F0030AD8B411EF84F063
:100870001EEF84F01750165CD8B041EF84F043EFC0
:1008800084F047EF84F0000E166E49EF84F0000EFE
:10089000176E5E50D8B44FEF84F051EF84F061EFE3
:1008A00084F05C50020D600EF324D96E000EF4202B
:1008B000DA6E6F0078FF01F06F0074FF02F065EFF1
:1008C00084F060C001F061C002F05E50D8A46BEF0C
:1008D00084F06DEF84F0C6EF84F0020E5A18D8A4AD
:1008E00074EF84F076EF84F0B2EF84F04050D8B427
:1008F0007CEF84F07EEF84F08AEF84F01450D8A46B
:1009000084EF84F086EF84F08AEF84F0020E3D6E6F
:10091000EAEF84F04150D8B490EF84F092EF84F085
:100920009EEF84F01350D8A498EF84F09AEF84F0EF
:100930009EEF84F0FE0E3D6EEAEF84F0000176B18A
:10094000A4EF84F0A6EF84F0ACEF84F0000E326EDA
:10095000010E316EAEEF84F03168326831C03DF087
:10096000EAEF84F0000176B1B8EF84F0BAEF84F0DA
:10097000C0EF84F0000E346E010E336EC2EF84F0CF
:100980003368346833C03DF0EAEF84F0020E5A1841
:10099000D8A4CDEF84F0CFEF84F0E8EF84F040509E
:1009A000D8B4D5EF84F0D7EF84F0DBEF84F059C0F2
:1009B0003DF0EAEF84F04150D8B4E1EF84F0E3EF8A
:1009C00084F0EAEF84F0595000083D6EEAEF84F0BD
:1009D000010E3D6E3D502D6E000E2DBEFF0E2E6E93
:1009E0002F6E306E2D50000176272E5077232F501A
:1009F00078233050792379BF0AEF85F07951781147
:100A0000771106E17605D8B008EF85F00AEF85F09A
:100A100014EF85F0010E766F000E776F000E786F81
:100A2000000E796F010E596E3AC015F03BC058F0B8
:100A300040C014F041C013F039C012F038C011F0BA
:100A40001200BD50F80B0209BD6E600027F0D9FFFF
:100A500060002BF0DAFFDF50106E094A0A2A1050AE
:100A600001242D6E000E02202E6E6000B7F0F6FFFE
:100A70006000BBF0F7FF000EF86E08006F00D4FFB7
:100A800010F04F0EBA6E600043F0BCFFBE94BE84FF
:100A900003500410D8B44FEF85F051EF85F061EFAB
:100AA00085F060000FF0F6FF600013F0F7FF000E16
:100AB000F86E08006F00D4FF10F0034A042A6BEFB1
:100AC00085F060001FF0D9FF600023F0DAFFDF50EF
:100AD000106E074A082A5B0EBA6E600043F0BCFF36
:100AE000BE94BE8403500410D8B479EF85F07BEF38
:100AF00085F08BEF85F060000FF0F6FF600013F0DB
:100B0000F7FF000EF86E08006F00D4FF10F0034AE4
:100B1000042A95EF85F060001FF0D9FF600023F0F4
:100B2000DAFFDF50106E074A082A490EBA6E6000DD
:100B300043F0BCFFBE94BE8403500410D8B4A3EFAE
:100B400085F0A5EF85F0B5EF85F060000FF0F6FFBA
:100B5000600013F0F7FF000EF86E08006F00D4FF7E
:100B600010F0034A042ABFEF85F060001FF0D9FFA0
:100B7000600023F0DAFFDF50106E074A082A6F0E7C
:100B8000BA6E600043F0BCFFBE94BE8403500410F4
:100B9000D8B4CDEF85F0CFEF85F0DFEF85F06000C2
:100BA0000FF0F6FF600013F0F7FF000EF86E08007C
:100BB0006F00D4FF10F0034A042AE9EF85F06000CB
:100BC0001FF0D9FF600023F0DAFFDF50106E074AF4
:100BD000082A630EBA6E600043F0BCFFBE94BE8468
:100BE00003500410D8B4F7EF85F0F9EF85F009EF62
:100BF00086F060000FF0F6FF600013F0F7FF000EC4
:100C0000F86E08006F00D4FF10F0034A042A13EFB7
:100C100086F060001FF0D9FF600023F0DAFFDF509C
:100C2000106E074A082A510EBA6E600043F0BCFFEE
:100C3000BE94BE84600017F0D9FF60001BF0DAFF9D
:100C4000DF500F6E054A062A0FC010F00F0E101667
:100C50005B501026AD0E1024F66EF76AFA0EF722DE
:100C6000F86A000EF82208006F00D4FF10F0F00EB2
:100C70000F160F5010121950D8B441EF86F043EF01
:100C800086F045EF86F019C010F01850D8B44BEF3D
:100C900086F04DEF86F04FEF86F00F0E10165F0EC8
:100CA000BA6E600043F0BCFFBE94BE84600017F0D3
:100CB000D9FF60001BF0DAFFDF500F6E054A062AED
:100CC0000FC010F00F0E10165B501026AD0E102442
:100CD000F66EF76AFA0EF722F86A000EF82208009C
:100CE0006F00D4FF10F0F00E0F160F5010121950B5
:100CF000D8B47DEF86F07FEF86F081EF86F019C0E3
:100D000010F01850D8B487EF86F089EF86F08BEF9B
:100D100086F00F0E1016570EBA6E600043F0BCFF3F
:100D2000BE94BE84600017F0D9FF60001BF0DAFFAC
:100D3000DF500F6E054A062A0FC010F00F0E101676
:100D40005B501026AD0E1024F66EF76AFA0EF722ED
:100D5000F86A000EF82208006F00D4FF10F0F00EC1
:100D60000F160F5010121950D8B4B9EF86F0BBEF20
:100D700086F0BDEF86F019C010F01850D8B4C3EF5C
:100D800086F0C5EF86F0C7EF86F00F0E10166B0EDB
:100D9000BA6E600043F0BCFFBE94BE84600017F0E2
:100DA000D9FF60001BF0DAFFDF500F6E054A062AFC
:100DB0000FC010F00F0E10165B501026AD0E102451
:100DC000F66EF76AFA0EF722F86A000EF8220800AB
:100DD0006F00D4FF10F0F00E0F160F5010121950C4
:100DE000D8B4F5EF86F0F7EF86F0F9EF86F019C08A
:100DF00010F01850D8B4FFEF86F001EF87F003EF42
:100E000087F00F0E1016730EBA6E600043F0BCFF31
:100E1000BE94BE84600017F0D9FF60001BF0DAFFBB
:100E2000DF500F6E054A062A0FC010F00F0E101685
:100E30005B501026AD0E1024F66EF76AFA0EF722FC
:100E4000F86A000EF82208006F00D4FF10F0F00ED0
:100E50000F160F5010121950D8B431EF87F033EF3E
:100E600087F035EF87F019C010F01850D8B43BEF79
:100E700087F03DEF87F03FEF87F00F0E1016550E0D
:100E8000BA6E600043F0BCFFBE94BE841950D8B463
:100E90004CEF87F04EEF87F056EF87F0670EBA6E93
:100EA000000EBC6EBE94BE8493EF87F0600013F218
:100EB000D9FF600017F2DAFFDF500F6E0001844B9C
:100EC000852B0FC010F00F0E10165B501026AD0EC4
:100ED0001024F66EF76AFA0EF722F86A000EF8226E
:100EE00008006F00D4FF10F0F00E0F160F50101214
:100EF0001950D8B47EEF87F080EF87F082EF87F04B
:100F000019C010F01850D8B488EF87F08AEF87F036
:100F10008CEF87F00F0E1016670EBA6E600043F06C
:100F2000BCFF52EF87F01200E0EF88F0BEEC8FF0CC
:100F300007EC8FF00B0E2218D8A4A1EF87F0A3EFD7
:100F400087F0B2EF87F01650D8B4A9EF87F0ABEF77
:100F500087F0B2EF87F016069A0E196E86C007F07A
:100F600087C008F0150E2218D8A4B9EF87F0BBEFA0
:100F700087F005EF88F01750D8B4C1EF87F0C3EFC2
:100F800087F005EF88F017069A0E196EF6EF87F0D6
:100F9000000E036E000E046E05EF88F05D50D8B4AD
:100FA000D4EF87F0D6EF87F0DCEF87F0C30E036E47
:100FB000FE0E046E05EF88F0090E036EFF0E046E40
:100FC00005EF88F05D50D8B4E8EF87F0EAEF87F0DE
:100FD000F0EF87F0370E036EFE0E046E05EF88F01B
:100FE0007D0E036EFE0E046E05EF88F05A50000A67
:100FF000D8B4E2EF87F0010AD8B4CEEF87F0030A45
:10100000D8B4C8EF87F0E2EF87F0070E2218D8A413
:101010000CEF88F00EEF88F04DEF88F01750D8B441
:1010200014EF88F016EF88F04DEF88F024EF88F089
:10103000000E556E33EF88F05BC055F033EF88F04B
:101040005CC055F033EF88F05A50000AD8B420EF56
:1010500088F0010AD8B41CEF88F0030AD8B418EF5E
:1010600088F020EF88F05D50D8B439EF88F03BEF7E
:1010700088F045EF88F05550280DC70EF324036E15
:10108000FA0EF420046E4DEF88F05550280D7F0EB7
:10109000F324036EFC0EF420046EBE80000EC46EBA
:1010A00021EC85F0C468BE902206020E216E94EFFA
:1010B00087F0F2EC8FF007EC8FF05D50D8B463EF5F
:1010C00088F065EF88F08DEF88F01650D8B46BEF9C
:1010D00088F06DEF88F079EF88F00C0E2218D8A414
:1010E00074EF88F076EF88F079EF88F0010E01EC6C
:1010F0008DF01750D8B47FEF88F081EF88F08DEF36
:1011000088F0160E2218D8A488EF88F08AEF88F0AD
:101110008DEF88F0010E01EC8DF02250D8B493EFE2
:1011200088F095EF88F0A2EF88F0BE80000EC46EC4
:10113000010E00EC80F0C468BE902206010E216E04
:1011400094EF87F0BE80000EC46E000E00EC80F0BD
:1011500080EC8BF0C468BE905DC02DF01F50BCECDD
:101160008EF05D5001EC8DF01F50D8B4BAEF88F0CE
:10117000BDEF88F0010EBEEF88F0000E1F6E96ECFA
:1011800082F0BE80000EC46E0AEC8AF0C468BE9085
:10119000030E216E94EF87F0BEEC8FF076C048F01E
:1011A00077C049F078C04AF079C04BF01FC04CF0CE
:1011B00065EC8DF0000E196EBF0E226E9EEF88F06A
:1011C0002150010AD8B496EF87F0030AD8B459EF3A
:1011D00088F0010AD8B4CCEF88F094EF87F01200C1
:1011E000000E236E23C025F00EEC92F04DEC92F031
:1011F000000E446EFF0EA5EC91F0442A090E4464E3
:1012000004EF89F006EF89F0FAEF88F04FEC92F0E6
:1012100047682BEF89F0000E2E6E000E2F6E000E29
:10122000306E000E316E000EE6EC8AF0246E255012
:10123000D8B41DEF89F01FEF89F021EF89F034EF6A
:1012400089F02404D8A427EF89F029EF89F02BEF47
:1012500089F034EF89F047064728D8A432EF89F0A7
:1012600034EF89F00BEF89F04750D8A43AEF89F0BA
:101270003CEF89F042EF89F0070E44EC92F0000E4B
:1012800009EF8AF0AA0E2E6E010E2F6E000E306E40
:10129000000E316E080EE6EC8AF03F6E3FA453EF6D
:1012A00089F055EF89F059EF89F0010E236E77EF41
:1012B00089F0000E456E3EEC92F0246E452A030E36
:1012C000456465EF89F067EF89F05BEF89F0AA0E5E
:1012D0002418D8B46EEF89F070EF89F075EF89F0BB
:1012E000020E44EC92F03FEF89F0020E236E020EE4
:1012F0002318D8B47EEF89F080EF89F08AEF89F067
:10130000000E406E000E416E000E426E000E436EE7
:1013100092EF89F0000E406E000E416E000E426E9C
:10132000400E436E4768B5EF89F040C03AF041C0C7
:101330003BF042C03CF043C03DF0290E60EC91F020
:10134000246E2550D8B4A7EF89F0A9EF89F0ABEF50
:1013500089F0BEEF89F02450D8A4B1EF89F0B3EF43
:1013600089F0B5EF89F0BEEF89F047064728D8A489
:10137000BCEF89F0BEEF89F095EF89F04750D8A413
:10138000C4EF89F0C6EF89F0CBEF89F0080E44EC8A
:1013900092F03FEF89F0020E2318D8A4D2EF89F023
:1013A000D4EF89F006EF8AF0000E2E6E000E2F6E3D
:1013B000000E306E000E316E3A0EE6EC8AF0000937
:1013C000D8B4E5EF89F0E7EF89F0ECEF89F0030E90
:1013D00044EC92F03FEF89F03EEC92F0C00BC00A73
:1013E000D8A4F5EF89F0F7EF89F0F9EF89F0030E53
:1013F000236E000E466E3EEC92F0462A020E4664C4
:1014000004EF8AF006EF8AF0FBEF89F04DEC92F0E2
:10141000010E1200600037F0D9FF60003BF0DAFFE8
:10142000DF50106E0D4A0E2A600037F0D9FF6000C1
:101430003BF0DAFFDF50106E0D4A0E2A600037F0E5
:10144000D9FF60003BF0DAFFDF50106E0D4A0E2A24
:10145000600037F0D9FF60003BF0DAFFDF50106E1C
:101460000D4A0E2A60002FF0D9FF600033F0DAFF3A
:10147000DF50106E0B4A0C2A60002FF0D9FF60007D
:1014800033F0DAFFDF50106E0B4A0C2A60002FF0A9
:10149000D9FF600033F0DAFFDF50106E0B4A0C2AE0
:1014A00010A455EF8AF057EF8AF05AEF8AF0BB9AF2
:1014B0005BEF8AF0BB8A1050010B5D6EBD50F80BDC
:1014C0000709BD6E5D50D8B468EF8AF06AEF8AF004
:1014D000B5EF8AF0205001242D6E000E02202E6EF2
:1014E0006000B7F0F6FF6000BBF0F7FF000EF86E8B
:1014F00008006F00D4FF10F0000EBA6E600043F0D9
:10150000BCFFBE94BE84010E2F6E600027F0D9FF91
:1015100060002BF0DAFFDF50106E094A0A2A1050E3
:1015200001242D6E000E02202E6E6000B7F0F6FF33
:101530006000BBF0F7FF000EF86E08006F00D4FFEC
:1015400010F02F50800F7F0BBA6E600043F0BCFF8D
:10155000BE94BE842F2A450E2F64B1EF8AF0B3EFFC
:101560008AF085EF8AF0E5EF8AF0000E2F6E6000BA
:1015700027F0D9FF60002BF0DAFFDF50106E094A28
:101580000A2A105001242D6E000E02202E6E6000DB
:10159000B7F0F6FF6000BBF0F7FF000EF86E080032
:1015A0006F00D4FF10F02F50800F7F0BBA6E6000D9
:1015B00043F0BCFFBE94BE842F2A430E2F64E3EF9A
:1015C0008AF0E5EF8AF0B7EF8AF01200386E4FEC40
:1015D00092F03968F8EF8AF03EEC92F0FF0AD8A456
:1015E000F4EF8AF0F6EF8AF0F8EF8AF001EF8BF073
:1015F00039063928D8A4FFEF8AF001EF8BF0ECEF21
:101600008AF03950D8A407EF8BF009EF8BF00FEF79
:101610008BF0050E44EC92F0FF0E7FEF8BF038500C
:101620004009A5EC91F0180E376E37502EC032F0FD
:101630002FC033F030C034F031C035F0E82A26EF47
:101640008BF0D8903532343233323232E82E21EFFB
:101650008BF03250A5EC91F0F80E372637BE35EFFF
:101660008BF033EF8BF015EF8BF036683850D8A441
:101670003CEF8BF03EEF8BF040EF8BF0950E366E2B
:10168000080E3818D8A447EF8BF049EF8BF04BEFDA
:101690008BF0870E366E3650A5EC91F00C0E381894
:1016A000D8A455EF8BF057EF8BF059EF8BF03EEC51
:1016B00092F0396868EF8BF03EEC92F0246E24BE15
:1016C00064EF8BF066EF8BF068EF8BF071EF8BF0CF
:1016D00039063928D8A46FEF8BF071EF8BF05CEFEF
:1016E0008BF03950D8A477EF8BF079EF8BF07EEF49
:1016F0008BF0060E44EC92F00CEF8BF024501200AD
:10170000BD50F80B0509BD6E600027F0D9FF6000E1
:101710002BF0DAFFDF50106E094A0A2A105001241C
:101720002D6E000E02202E6E6000B7F0F6FF6000F6
:10173000BBF0F7FF000EF86E08006F00D4FF10F04A
:10174000010EBA6E600043F0BCFFBE94BE845D50D3
:10175000D8A4ADEF8BF0AFEF8BF0B9EF8BF060005A
:1017600027F0D9FF60002BF0DAFFDF50206E094A26
:101770000A2A5D50D8B4BFEF8BF0C1EF8BF0D5EFE4
:101780008BF01B0EBA6E1D0EBC6EBE94BE84310E65
:10179000BA6E240EBC6EBE94BE843A0EBA6E000EB3
:1017A000BC6EBE94BE84E7EF8BF01B0EBA6E1E0EAD
:1017B000BC6EBE94BE84310EBA6E240EBC6EBE9456
:1017C000BE843A0EBA6E010EBC6ED1EF8BF01F5084
:1017D000D8A4EDEF8BF0EFEF8BF0FDEF8BF0470E21
:1017E000BA6E800EBC6EBE94BE84480EBA6E180EE1
:1017F000BC6EBE94BE8403EF8CF0470EBA6E940E9E
:10180000BC6EF3EF8BF012003168020E3D01136FD6
:10181000000E126F000E3B01FC6F000EDC6F3901F1
:10182000A293A291A297A295929392919297929548
:10183000A597A595A59BA59995979595959B959900
:10184000310E2F6E000E306E6000BFF0F9FB6000AD
:10185000C3F0FAFB3B01FB6BE70EFD17F90EFD171A
:10186000020EF86F000EF76FFD813D0EF16F110E45
:10187000F06F3F0EFD17000EEF6F010EEE6FFD9B38
:10188000150EFF6F000EFE6F100ED96F3D0EDA6F52
:10189000000EDB6FE70EDD17F90EDD17000ED86FB7
:1018A000010ED76FDD916000B7F0D0FB6000BBF098
:1018B000D1FBDD513F0B4009DD6F020ECF6F000EF3
:1018C000CE6FDD8B140EDF6F000EDE6F3901550E0B
:1018D000EF6FAA0EEF6FEF91030E3901F26F020E58
:1018E000F16F000EF36F010EF46F040EF76F390104
:1018F000550EEF6FAA0EEF6FEF813B01FC8FDC8F6F
:10190000FC8DDC8D1200BE80000EC46E070EBD6E15
:101910007C0EBA6EA90EF66EFA0EF76E000EF86E19
:1019200008006F00D7FFBCFFBE94BE847D0EBA6E68
:10193000AA0EF66EFA0EF76E000EF86E08006F0033
:10194000D7FFBCFFBE94BE84C468BE90BE80000EAC
:10195000C46E070EBD6E7B0EBA6E200EBC6EBE94BA
:10196000BE84C468BE90030E2E6EFB0E2D6E2CEC52
:1019700091F0200AD8A4BFEF8CF0C1EF8CF0A6EF55
:101980008CF0BE80000EC46E070EBD6E7A0EBA6E6D
:10199000A70EF66EFA0EF76E000EF86E08006F00D6
:1019A000D7FFBCFFBE94BE847B0EBA6EA80EF66E47
:1019B000FA0EF76E000EF86E08006F00D7FFBCFF3E
:1019C000BE94BE847E0EBA6EAB0EF66EFA0EF76E45
:1019D000000EF86E08006F00D7FFBCFFBE94BE84F7
:1019E0007F0EBA6EAC0EF66EFA0EF76E000EF86E43
:1019F00008006F00D7FFBCFFBE94BE84C468BE90D1
:101A000012002D6E2D50D8B408EF8DF00AEF8DF036
:101A100034EF8DF0600017F0D9FF60001BF0DAFFA3
:101A2000000EDF6E20EE01F00550D9260650DA22B6
:101A3000000EDF6E20EE02F00550D9260650DA22A5
:101A4000000EDF6E20EE03F00550D9260650DA2294
:101A5000000EDF6E20EE04F00550D9260650DA2283
:101A6000000EDF6E5CEF8DF020EEBBF30550D92643
:101A70000650DA22000EDF6E20EEBCF30550D926A8
:101A80000650DA22000EDF6E20EEBDF30550D92697
:101A90000650DA22000EDF6E20EEBEF30550D92686
:101AA0000650DA22000EDF6E20EEBFF30550D92675
:101AB0000650DA22000EDF6E600013F2D9FF6000DC
:101AC00017F2DAFF000EDF6E12002550D8B46BEF6C
:101AD0008DF06DEF8DF071EF8DF0F0EC88F0C1EFCF
:101AE0008DF048C04DF049C04EF04AC04FF04BC099
:101AF00050F0030ED8904D364E364F365036E82E05
:101B00007AEF8DF000017A514D24516E7B514E20B9
:101B1000526E7C514F20536E7D515020546E4C04B8
:101B2000D8A495EF8DF097EF8DF09DEF8DF0000E1E
:101B3000826F160E836FA1EF8DF0000E826F0C0E78
:101B4000836F2650D8B4A7EF8DF0A9EF8DF0AFEFDB
:101B50008DF030EC92F078EC91F0000E266E51C0D2
:101B60003AF052C03BF053C03CF054C03DF085EC1D
:101B700090F0050E276E000E5F6E07EC8FF0010EE1
:101B8000266E1200000EBE6E000EBD6E000EBA6E06
:101B9000C30EBB6E000EBC6E000EC66E800EC26E13
:101BA000580EC36E000EC46E600EC56E000E3A0174
:101BB000706F000E606F000E506F000E806F000E91
:101BC000406F000E716F000E816F000E516F000E9E
:101BD000416F000E616F000E826F000E426F000EAB
:101BE000526F000E626F000E726F57995699559999
:101BF000000E2D6E000E2E6E000E2F6E37EC92F042
:101C00003A01DF51C00B0B09DF6F1F0E096FDB516B
:101C1000C00B1E09DB6F1E0E0A6FDE51C00B0A09D6
:101C2000DE6FC351C00B0C09C36F030E1F6F120090
:101C3000F5EC91F0BE84BE82AEEC90F06AEC8EF0D2
:101C40000009D8B426EF8EF028EF8EF01CEF8EF04E
:101C5000BE92060EF4EC90F04DEC8FF057EC90F045
:101C60000009D8B436EF8EF038EF8EF02CEF8EF0FE
:101C7000050EF4EC90F083EC8CF0040EF4EC90F094
:101C8000BB9AD4EC90F00009D8A449EF8EF04BEF4A
:101C90008EF04EEF8EF0030E88EC8FF0BB8A030EB1
:101CA000F4EC90F0020E88EC8FF0C9EC91F0050E88
:101CB000576E0F0E566EF10EE82EFED7562EFCD73D
:101CC000572EFAD700F0020EF4EC90F094EC87F067
:101CD000FEEFFFF0FF0E2E6EFB0E2D6E2CEC91F042
:101CE0000009D8B476EF8EF078EF8EF07BEF8EF0AF
:101CF000000EBBEF8EF0FF0E2E6EFC0E2D6E2CEC48
:101D000091F0FB0AD8B487EF8EF089EF8EF08BEF5D
:101D10008EF078EF8EF0FF0E2E6EFD0E2D6E2CECF9
:101D200091F0F30AD8B497EF8EF099EF8EF09BEF15
:101D30008EF078EF8EF0FF0E2E6EFE0E2D6E2CECD8
:101D400091F0FB0AD8B4A7EF8EF0A9EF8EF0ABEFBD
:101D50008EF078EF8EF0FF0E2E6E2D682CEC91F049
:101D6000F30AD8B4B6EF8EF0B8EF8EF0BAEF8EF07B
:101D700078EF8EF0010E12002E6E2E50D8A4C3EF15
:101D80008EF0C5EF8EF0CBEF8EF0000E2F6E0C0EA6
:101D9000306ECFEF8EF0000E2F6E160E306E2FC00D
:101DA00031F030C032F031C00DF032C00EF0040E10
:101DB00031240B6E000E32200C6E070E3124096E9A
:101DC000000E32200A6E0D0E3124076E010E3220F5
:101DD000086ECD0E31240001866F040E3220876F0D
:101DE000090E3124056E050E3220066EC90E31240F
:101DF000846F080E3220856F2D50D8A402EF8FF02B
:101E000004EF8FF006EF8FF0844B852B12003DEF2F
:101E10008FF0D9EC91F00009D8A411EF8FF013EFF7
:101E20008FF015EF8FF04CEF8FF082C02DF083C054
:101E30002EF004EC8CF00001020E8327010E5F6E81
:101E4000270648EC91F00009D8A429EF8FF02BEF7A
:101E50008FF02DEF8FF04CEF8FF02750D8B433EF89
:101E60008FF035EF8FF039EF8FF0000E5F6E4CEF93
:101E70008FF0020E5F6E4CEF8FF05F50000AD8B407
:101E800009EF8FF0010AD8B421EF8FF0030AD8B41C
:101E90004CEF8FF04CEF8FF01200BE80000EC46E3E
:101EA000000E316E000E306E30C02DF031C02EF0BD
:101EB000070E2F6ED8902E322D322F2E5AEF8FF024
:101EC000070E2D16BD50F80B2D10BD6E30507F0B38
:101ED000BA6EAD0E3024F66EF60E3120F76EF86A4B
:101EE000000EF82208006F00D7FFBCFFBE94BE842E
:101EF000304A312AFA0E305C030E3158D8A083EFF5
:101F00008FF085EF8FF054EF8FF0C468BE90120011
:101F10002F6EBB8A000E306EA8EF8FF0BB9A110EA9
:101F20002E6E3C0E2D6ECB0EE82EFED72D2EFCD73E
:101F30002E2EFAD700F0BB8A190E2E6E5A0E2D6E79
:101F4000B20EE82EFED72D2EFCD72E2EFAD7302A31
:101F50002F50305CD8A0AFEF8FF0B1EF8FF08EEF45
:101F60008FF0290E2E6E960E2D6E7F0EE82EFED768
:101F70002D2EFCD72E2EFAD700F01200000ECDBA6F
:101F8000010E2B6E000ECABE010E2A6E000ECDBAD7
:101F9000010E296E000ECABE010E286E2B50D8B459
:101FA000D4EF8FF0D6EF8FF0E9EF8FF02950D8B44F
:101FB000DCEF8FF0DEEF8FF0E9EF8FF028502A187A
:101FC000D8A4E5EF8FF0E7EF8FF0E9EF8FF02AC0AC
:101FD0002CF02C50D8B4EFEF8FF0F1EF8FF0BEEF74
:101FE0008FF01200000ECDBA010E2B6E000ECABE8D
:101FF000010E2A6E000ECDBA010E296E000ECABE69
:10200000010E286E2B50D8B408EF90F00AEF90F034
:102010001DEF90F02950D8B410EF90F012EF90F02F
:102020001DEF90F028502A18D8A419EF90F01BEF5C
:1020300090F01DEF90F02AC02CF02C50D8A423EF84
:1020400090F025EF90F0F2EF8FF01200D00EF66EC8
:10205000230EF76E010EF86E00EE60F010EE1AF02F
:1020600009006F00D7FFEEFFE550E150F9E1920E55
:10207000F66E240EF76E010EF86E00EE58F010EEBC
:1020800008F009006F00D7FFEEFFE550E150F9E1DD
:1020900000EE7AF00E0EEE6AE806FDE100EE01F0C9
:1020A0002C0EEE6AE806FDE1000118EF8EF0030E3B
:1020B000356EF90E346EAD0E3424F66EF60E352004
:1020C000F76EF86A000EF82208006F00D4FF33F0B4
:1020D00034C02DF035C02EF02CEC91F03318D8B46C
:1020E00074EF90F076EF90F079EF90F0000E84EFBF
:1020F00090F03406D8A0350635BE83EF90F081EF1E
:1021000090F05BEF90F0010E1200030E2318D8B48C
:102110008CEF90F08EEF90F097EF90F0090ED89042
:102120003A363B363C363D36E82E8FEF90F03AC0DB
:102130002EF03BC02FF03CC030F03DC031F0120E0D
:10214000E6EC8AF00009D8B4A8EF90F0AAEF90F07E
:10215000ADEF90F0040E44EC92F01200BE80000E41
:10216000C46E070EBD6E7B0EBA6E000EBC6EBE94C2
:10217000BE847C0EBA6EFB0EBC6EBE94BE847D0E19
:10218000BA6EF30EBC6EBE94BE847E0EBA6EFB0EAB
:10219000BC6EBE94BE847F0EBA6EF30EBC6EBE944F
:1021A000BE84C468BE901200030E216E010E5E6EE6
:1021B000010E5D6E10EC91F00009D8A4E2EF90F0F2
:1021C000E4EF90F0E7EF90F0000EF3EF90F06CC0CA
:1021D00001F06DC002F05DC02DF0010EBCEC8EF080
:1021E000000EB66E010E12002D6EBB8ABB8ABB8A32
:1021F000BB8A000E2E6E02EF91F0BB9ABB9ABB8A8F
:10220000BB8A2E2A2D502E5CD8A009EF91F00BEF3F
:1022100091F0FDEF90F0BB8ABB8ABB8ABB8A1200AB
:1022200015EF91F0010E88EC8FF0F0EC88F00009CA
:10223000D8B41DEF91F01FEF91F012EF91F002EC86
:1022400092F0000E00017A6F240E7B6F000E7C6FFF
:10225000000E7D6F010E12002D507F0BBA6E2DC047
:102260002FF02EC030F0070E316ED89030322F3262
:10227000312E35EF91F02F50070BBD6EC468BE9024
:102280006F0030FF32F0BE80000EC46E325012007C
:102290003D0112511311D8B450EF91F052EF91F06B
:1022A00055EF91F0000E5FEF91F016AF5AEF91F0FD
:1022B0005CEF91F05EEF91F052EF91F0010E1200A1
:1022C0003E6E000E2E6E000E2F6E000E306E000E53
:1022D000316E370EE6EC8AF03AC02EF03BC02FF09C
:1022E0003CC030F03DC031F03E50E6EC8AF01200C8
:1022F000000E2E6E000E2F6E000E306E000E316E30
:102300000C0EE6EC8AF00009D8B489EF91F08BEF5F
:1023100091F08EEF91F0010E44EC92F01200800EDD
:102320003C01616F020E626F020E636F020E646FFA
:10233000020E656F020E666F020E676F020E686F07
:10234000020E696F820E606F12002D6E010E3D014C
:10235000126F6000B7F011FD3901A2A9B2EF91F040
:10236000B4EF91F0ACEF91F03D0110511200000E6E
:102370003901C06F000EC16F000EC26F000EC36F37
:10238000000EC46F000EC56F000EC66F000EC76F43
:102390001200BE80000EC46EBD50F80B0609BD6E63
:1023A000500EBA6E180EBC6EBE94BE84C468BE9049
:1023B00012003EEC92F0FE0AD8A4E1EF91F0E3EFB8
:1023C00091F0E6EF91F0010EE7EF91F0000E1200B0
:1023D000EFFFDFFFCFFFBFFFAFFF9FFF8FFF7FFF4D
:1023E0006FFF5FFF4FFF01000000B7EC91F0C2EC00
:1023F0008DF01AEC92F08FEC91F026EC92F00EEC4E
:1024000092F01200400E3D01156F030E166F070E7D
:10241000196F010E1C6F820E146F1200400E3D01E9
:10242000156F030E166F4F0E196F010E1C6F820E83
:10243000146F1200600E3901D96F000EDB6F000EB1
:10244000DD6F080EDF6F000EDE6F1200100EB96E2A
:10245000B768000EB66E3901A39F800EB86E1200E9
:102460003EEC92F03EEC92F04DEC92F012002DC05A
:1024700088F02EC089F02FC08AF0120000F000F022
:10248000FF0EA5EC91F012004DEC92F0010E256EBE
:1024900012000101020606010102BB801200BB907E
:0224A000120028
:04FFFC0026EF90F06C
:020000040020DA
:10000000FF0FFF0FFF0FFF0FFF0FFF0FFF0FFF0F80
:020000040030CA
:0A000000ECFFF6FF9FFFFFDFFFFF9C
:00000001FF
