:020000040000fa
:040194005211000004
:020000040000fa
:0401bc0052110000dc
:020000040000fa
:0401c00052110000d8
:020000040000fa
:0401c40052110000d4
:020000040000fa
:0401c80052110000d0
:020000040000fa
:0401cc0052110000cc
:020000040000fa
:0401d00052110000c8
:020000040000fa
:0401d40052110000c4
:020000040000fa
:0401d80052110000c0
:020000040000fa
:040198005211000000
:020000040000fa
:04019c0052110000fc
:020000040000fa
:0401a00052110000f8
:020000040000fa
:0401a40052110000f4
:020000040000fa
:0401a80052110000f0
:020000040000fa
:0401ac0052110000ec
:020000040000fa
:0401b00052110000e8
:020000040000fa
:0401b40052110000e4
:020000040000fa
:0401b80052110000e0
:020000040000fa
:040190005211000008
:020000040000fa
:0401f80052110000a0
:020000040000fa
:0401fc00521100009c
:020000040000fa
:040200005211000097
:020000040000fa
:040204005211000093
:020000040000fa
:04020800521100008f
:020000040000fa
:04020c00521100008b
:020000040000fa
:040210005211000087
:020000040000fa
:040214005211000083
:020000040000fa
:040040005211000059
:020000040000fa
:040084005211000015
:020000040000fa
:0400b40052110000e5
:020000040000fa
:0400c80052110000d1
:020000040000fa
:0400d40052110000c5
:020000040000fa
:040044005211000055
:020000040000fa
:040088005211000011
:020000040000fa
:0400b80052110000e1
:020000040000fa
:0400cc0052110000cd
:020000040000fa
:0400d80052110000c1
:020000040000fa
:0402ec0052110000ab
:020000040000fa
:04021800521100007f
:020000040000fa
:0402f00052110000a7
:020000040000fa
:04021c00521100007b
:020000040000fa
:0402f40052110000a3
:020000040000fa
:0402e40052110000b3
:020000040000fa
:0402f800521100009f
:020000040000fa
:0402e80052110000af
:020000040000fa
:04015c00521100003c
:020000040000fa
:040030005211000069
:020000040000fa
:040034005211000065
:020000040000fa
:040154005211000044
:020000040000fa
:0400f40052110000a5
:020000040000fa
:040038005211000061
:020000040000fa
:040048005211000051
:020000040000fa
:040070005211000029
:020000040000fa
:04007c00521100001d
:020000040000fa
:0400dc0052110000bd
:020000040000fa
:04005c00521100003d
:020000040000fa
:040128005211000070
:020000040000fa
:04012c00521100006c
:020000040000fa
:04011c00521100007c
:020000040000fa
:040028005211000071
:020000040000fa
:040064005211000035
:020000040000fa
:040078005211000021
:020000040000fa
:040090005211000009
:020000040000fa
:0401dc0052110000bc
:020000040000fa
:0401e00052110000b8
:020000040000fa
:0401e40052110000b4
:020000040000fa
:0401e80052110000b0
:020000040000fa
:0401ec0052110000ac
:020000040000fa
:0401f00052110000a8
:020000040000fa
:0401f40052110000a4
:020000040000fa
:04022c00521100006b
:020000040000fa
:040230005211000067
:020000040000fa
:040234005211000063
:020000040000fa
:04023800521100005f
:020000040000fa
:04023c00521100005b
:020000040000fa
:040240005211000057
:020000040000fa
:040244005211000053
:020000040000fa
:04024800521100004f
:020000040000fa
:04024c00521100004b
:020000040000fa
:040250005211000047
:020000040000fa
:040254005211000043
:020000040000fa
:04025800521100003f
:020000040000fa
:04025c00521100003b
:020000040000fa
:040260005211000037
:020000040000fa
:040264005211000033
:020000040000fa
:04026800521100002f
:020000040000fa
:04026c00521100002b
:020000040000fa
:040270005211000027
:020000040000fa
:040274005211000023
:020000040000fa
:04027800521100001f
:020000040000fa
:04027c00521100001b
:020000040000fa
:040280005211000017
:020000040000fa
:040284005211000013
:020000040000fa
:04028800521100000f
:020000040000fa
:04028c00521100000b
:020000040000fa
:040290005211000007
:020000040000fa
:040294005211000003
:020000040000fa
:0402980052110000ff
:020000040000fa
:04029c0052110000fb
:020000040000fa
:0402a00052110000f7
:020000040000fa
:0402a40052110000f3
:020000040000fa
:0402a80052110000ef
:020000040000fa
:0402ac0052110000eb
:020000040000fa
:0402b00052110000e7
:020000040000fa
:0402b40052110000e3
:020000040000fa
:0402b80052110000df
:020000040000fa
:0402bc0052110000db
:020000040000fa
:0402c00052110000d7
:020000040000fa
:0402c40052110000d3
:020000040000fa
:0402c80052110000cf
:020000040000fa
:0402fc00521100009b
:020000040000fa
:040300005211000096
:020000040000fa
:040304005211000092
:020000040000fa
:04030800521100008e
:020000040000fa
:04030c00521100008a
:020000040000fa
:040310005211000086
:020000040000fa
:040314005211000082
:020000040000fa
:04031800521100007e
:020000040000fa
:040080005211000019
:020000040000fa
:04008c00521100000d
:020000040000fa
:0400a40052110000f5
:020000040000fa
:0400a80052110000f1
:020000040000fa
:0400ac0052110000ed
:020000040000fa
:0400b00052110000e9
:020000040000fa
:0400c40052110000d5
:020000040000fa
:0400d00052110000c9
:020000040000fa
:0400e00052110000b9
:020000040000fa
:0400e40052110000b5
:020000040000fa
:04003c00521100005d
:020000040000fa
:0400f80052110000a1
:020000040000fa
:0400fc00521100009d
:020000040000fa
:040104005211000094
:020000040000fa
:040130005211000068
:020000040000fa
:040144005211000054
:020000040000fa
:040148005211000050
:020000040000fa
:04014c00521100004c
:020000040000fa
:040150005211000048
:020000040000fa
:040158005211000040
:020000040000fa
:040160005211000038
:020000040000fa
:040164005211000034
:020000040000fa
:040168005211000030
:020000040000fa
:040120005211000078
:020000040000fa
:04006c00521100002d
:020000040000fa
:0400c00052110000d9
:020000040000fa
:040060005211000039
:020000040000fa
:0402cc0052110000cb
:020000040000fa
:0402d00052110000c7
:020000040000fa
:0402d40052110000c3
:020000040000fa
:0402d80052110000bf
:020000040000fa
:0402dc0052110000bb
:020000040000fa
:0402e00052110000b7
:020000040000fa
:040170005211000028
:020000040000fa
:040174005211000024
:020000040000fa
:040178005211000020
:020000040000fa
:04017c00521100001c
:020000040000fa
:040124005211000074
:020000040000fa
:04016c00521100002c
:020000040000fa
:040134005211000064
:020000040000fa
:040138005211000060
:020000040000fa
:04013c00521100005c
:020000040000fa
:040140005211000058
:020000040000fa
:0400e80052110000b1
:020000040000fa
:040100005211000098
:020000040000fa
:04001c00521100007d
:020000040000fa
:040024005211000075
:020000040000fa
:040184005211000014
:020000040000fa
:040180005211000018
:020000040000fa
:04018c00521100000c
:020000040000fa
:040188005211000010
:020000040000fa
:040068005211000031
:020000040000fa
:0400bc0052110000dd
:020000040000fa
:040220005211000077
:020000040000fa
:04004c00521100004d
:020000040000fa
:040050005211000049
:020000040000fa
:040224005211000073
:020000040000fa
:04009c0052110000fd
:020000040000fa
:0400a00052110000f9
:020000040000fa
:04022800521100006f
:020000040000fa
:040114005211000084
:020000040000fa
:040118005211000080
:020000040000fa
:04002c00521100006d
:020000040000fa
:0400ec0052110000ad
:020000040000fa
:04031c00521100007a
:020000040000fa
:040054005211000045
:020000040000fa
:040058005211000041
:020000040000fa
:0400f00052110000a9
:020000040000fa
:040320005211000076
:020000040000fa
:040094005211000005
:020000040000fa
:040098005211000001
:020000040000fa
:040108005211000090
:020000040000fa
:040324005211000072
:020000040000fa
:04010c00521100008c
:020000040000fa
:040110005211000088
:020000040000fa
:080000002402040000000000ce
:020000040000fa
:08040000dec0000057130000ec
:020000040000fa
:080408000100000000000000eb
:020000040000fa
:10041000f71c07000040eb00d91b070020c0b30009
:10042000d71b070040c0b300d51b07000040eb00fe
:10043000d31b070020c0b300d11b070040c0b3008e
:08044000cf1b0700f3ff37009a
:020000040000fa
:10044800cfed22000eff22000e0188004197200008
:100458000100e00002003200012020009101880024
:10046800000020000000e00002003200000002004e
:1004780000000000363a0200000000000040da00e8
:100488000000fe003600f800809fbe00829fbe007c
:10049800849fbe00869fbe00c508ab0007003a00d7
:1004a800c488ab0001003a00ffff3700c488a900e8
:1004b800a0002000641c0700fbff3700c508a90046
:1004c800c0002000601c0700f5ff37003600f80068
:1004d800809fbe00829fbe00849fbe00869fbe0094
:1004e800c608a90070002000571c07004f03be0073
:1004f8004f02be004f01be004f00be003600f9009b
:10050800004006003600f800809fbe00829fbe00b3
:10051800849fbe00869fbe00c088a90030002000ce
:10052800491c07004f03be004f02be004f01be002a
:100538004f00be003600f900004006003600f80003
:10054800809fbe00829fbe00849fbe00869fbe0023
:10055800c068a900200020003b1c07004f03be0014
:100568004f02be004f01be004f00be003600f9002a
:10057800004006003600f800809fbe00829fbe0043
:10058800849fbe00869fbe00c048a90010002000be
:100598002d1c07004f03be004f02be004f01be00d6
:1005a8004f00be003600f900004006003600f80093
:1005b800809fbe00829fbe00849fbe00869fbe00b3
:1005c800c028a9000000eb001f1c07004f03be0055
:1005d8004f02be004f01be004f00be003600f900ba
:1005e80000400600c0c0ab0007003a00e071800080
:1005f800f01fb20000004000816e2900008040001a
:1006080010007800000401004e2eef000268a900d7
:1006180000400600222eef004e2eef000268a900cf
:1006280000400600fbff3700207281000000e00058
:10063800b9063200010f20001171880041e4220040
:100648008008e9004e2eef000268a900004006006d
:10065800f0ff3700f00f2000107188004e2eef00d9
:100668000268a90000400600eaff3700a00e20003b
:10067800107188004e2eef000268a90000400600a5
:10068800e4ff370010728100e171800001087800f2
:10069800222eef004e2eef000268a900004006004f
:1006a800dcff370080072000107188004e2eef0015
:1006b8000268a90000400600d6ff3700daff3700bd
:1006c800f00f2000107188004e2eef000268a9007c
:1006d800e4ff3700800d2000107188004e2eef00d7
:1006e8000268a90000400600caff3700200a20005f
:1006f800107188004e2eef000268a9000040060025
:10070800c4ff3700f00f2000107188004e2eef0054
:100718000268a90000400600beff3700a0092000bb
:10072800107188004e2eef000268a90000400600f4
:10073800b8ff3700900a2000107188004e2eef0095
:100748000268a90000400600b2ff3700222eef0021
:100758004e2eef000268a90000400600adff3700ea
:1007680050092000107188004e2eef000268a90081
:1007780000400600a7ff3700222eef004e2eef00a4
:100788000268a90000400600a2ff3700a00c200064
:10079800107188004e2eef000268a9000040060084
:1007a8009cff3700000d2000107188004e2eef00ce
:1007b8000268a9000040060096ff3700b00f20002d
:1007c800107188004e2eef000268a9000040060054
:1007d80090ff3700900a2000107188004e2eef001d
:1007e8000268a900004006008aff370010002000b8
:1007f800107188004e2eef000268a9000040060024
:1008080084ff370050082000107188004e2eef003a
:100818000268a900004006007eff37006002200041
:10082800107188004e2eef000268a90000400600f3
:1008380078ff3700900a2000107188004e2eef00d4
:100848000268a9000040060072ff3700f00c200083
:10085800107188004e2eef000268a90000400600c3
:100868006cff370050082000107188004e2eef00f2
:100878000268a9000040060066ff3700d00020008b
:10088800107188004e2eef000268a9000040060093
:1008980060ff3700900a2000107188004e2eef008c
:1008a8000268a900004006005aff37003003200004
:1008b800107188004e2eef000268a9000040060063
:1008c80054ff370050082000107188004e2eef00aa
:1008d8000268a900004006004eff3700e000200033
:1008e800107188004e2eef000268a9000040060033
:1008f80048ff3700900a2000107188004e2eef0044
:100908000268a9000040060042ff3700c00c200022
:10091800107188004e2eef000268a9000040060002
:100928003cff370050082000107188004e2eef0061
:100938000268a9000040060036ff3700f0002000da
:10094800107188004e2eef000268a90000400600d2
:1009580030ff3700200a2000107188004e2eef006b
:100968000268a900004006002aff370000032000a3
:10097800107188004e2eef000268a90000400600a2
:1009880024ff370050082000107188004e2eef0019
:100998000268a900004006001eff37000001200081
:1009a800107188004e2eef000268a9000040060072
:1009b80018ff3700a00e2000107188004e2eef009f
:1009c8000268a9000040060012ff37005008200006
:1009d800107188004e2eef000268a9000040060042
:1009e8000cff370010012000107188004e2eef0018
:1009f8000268a9000040060006ff3700900a2000a0
:100a0800107188004e2eef000268a9000040060011
:100a180000ff370060002000107188004e2eef00a4
:100a28000268a90000400600fafe370050082000be
:100a3800107188004e2eef000268a90000400600e1
:100a4800f4fe370040002000107188004e2eef00a1
:100a58000268a90000400600eefe3700900a200058
:100a6800107188004e2eef000268a90000400600b1
:100a7800e8fe370020002000107188004e2eef009d
:100a88000268a90000400600e2fe37005008200076
:100a9800107188004e2eef000268a9000040060081
:100aa800dcfe370050002000107188004e2eef0049
:100ab8000268a90000400600d6fe37006008200042
:100ac800107188004e2eef000268a9000040060051
:100ad800d0fe370000022000107188004e2eef0073
:100ae8000268a90000400600cafe3700900a2000ec
:100af800107188004e2eef000268a9000040060021
:100b0800c4fe370000022000107188004e2eef004e
:100b18000268a90000400600befe37005008200009
:100b2800107188004e2eef000268a90000400600f0
:100b3800b8fe370010022000107188004e2eef001a
:100b48000268a90000400600b2fe370050082000e5
:100b5800107188004e2eef000268a90000400600c0
:100b6800acfe370020002000107188004e2eef00e8
:100b78000268a90000400600a6fe370050082000c1
:100b8800107188004e2eef000268a9000040060090
:100b9800a0fe3700a0022000107188004e2eef0042
:100ba8000268a900004006009afe3700200a2000cb
:100bb800107188004e2eef000268a9000040060060
:100bc80094fe3700c0002000107188004e2eef0000
:100bd8000268a900004006008efe3700a00c200025
:100be800107188004e2eef000268a9000040060030
:100bf80088fe3700000d2000107188004e2eef008f
:100c08000268a9000040060082fe3700d00f2000cd
:100c1800107188004e2eef000268a90000400600ff
:100c28007cfe370050082000107188004e2eef001f
:100c38000268a9000040060076fe3700b0022000d6
:100c4800107188004e2eef000268a90000400600cf
:100c580070fe3700a00e2000107188004e2eef00a5
:100c68000268a900004006006afe3700a00e2000b6
:100c7800107188004e2eef000268a900004006009f
:100c880064fe3700900a200010718800e07281002d
:100c9800104090000080fb00907289004e2eef00fb
:100ca8000268a900004006005afe370090728100d1
:100cb800107188004e2eef000268a900004006005f
:100cc80054fe370050082000107188004e2eef00a7
:100cd8000268a900004006004efe3700c00120004f
:100ce800107188004e2eef000268a900004006002f
:100cf80048fe370050082000107188004e2eef0083
:100d08000268a9000040060042fe3700a002200049
:100d1800107188004e2eef000268a90000400600fe
:100d28003cfe3700900a20001071880040e5220040
:100d38001004e00000053200b07281009072890052
:100d48004e2eef000268a9000040060031fe370071
:100d5800917281001171880040e522000048eb0083
:100d68004e2eef000268a9000040060029fe370059
:100d7800200a200010718800e07281004040900035
:100d88000080fb00907289004e2eef000268a900d7
:100d9800004006001ffe3700907281001071880025
:100da8004e2eef000268a9000040060019fe370029
:100db80050082000107188004e2eef000268a9002c
:100dc8000040060013fe37009001200010718800d3
:100dd8004e2eef000268a900004006000dfe370005
:100de800000a200010718800d072810040409000f5
:100df8000080fb00907289004e2eef000268a90067
:100e08000040060003fe37009172810011718800ce
:100e18004e2eef000268a90000400600fdfd3700d5
:100e2800900a200010718800d07281001040900054
:100e38000080fb00907289004e2eef000268a90026
:100e480000400600f3fd37009072810010718800a1
:100e58004e2eef000268a90000400600edfd3700a5
:100e680050082000107188004e2eef000268a9007b
:100e780000400600e7fd3700700020001071880070
:100e88004e2eef000268a90000400600e1fd370081
:100e9800900a200010718800e07281001080fb0029
:100ea800907289004e2eef000268a90000400600eb
:100eb800d8fd370091728100117188004e2eef0025
:100ec8000268a90000400600d2fd37005008200043
:100ed800107188004e2eef000268a900004006003d
:100ee800ccfd3700b0012000107188004e2eef00b5
:100ef8000268a90000400600c6fd3700900a2000dd
:100f080010718800d07281001080fb0090728900f7
:100f18004e2eef000268a90000400600bdfd370014
:100f280090728100107188004e2eef000268a900af
:100f380000400600b7fd37005008200010718800f7
:100f48004e2eef000268a90000400600b1fd3700f0
:100f580060002000107188004e2eef000268a90082
:100f680000400600abfd3700900a20001071880091
:100f7800e0728100304090000080fb009072890090
:100f88004e2eef000268a90000400600a1fd3700c0
:100f980091728100117188004e2eef000268a9003d
:100fa800004006009bfd37005008200010718800a3
:100fb8004e2eef000268a9000040060095fd37009c
:100fc800c0012000107188004e2eef000268a900b1
:100fd800004006008ffd3700900a2000107188003d
:100fe800c07281009080fb009172890081e5220027
:100ff8008008e8004e2eef000268a90000400600b5
:1010080084fd370090728100107188004e2eef0029
:101018000268a900004006007efd37005008200045
:10102800107188004e2eef000268a90000400600eb
:1010380078fd370090002000107188004e2eef00d8
:101048000268a9000040060072fd3700900a2000df
:1010580010718800d0728100204090000080fb0051
:10106800907289004e2eef000268a9000040060029
:1010780068fd370091728100117188004e2eef00d3
:101088000268a9000040060062fd370050082000f1
:10109800107188004e2eef000268a900004006007b
:1010a8005cfd370060002000107188004e2eef00b4
:1010b8000268a9000040060056fd3700900a20008b
:1010c80010718800e0728100204090000080fb00d1
:1010d800907289004e2eef000268a90000400600b9
:1010e8004cfd370090728100107188004e2eef0081
:1010f8000268a9000040060046fd3700500820009d
:10110800107188004e2eef000268a900004006000a
:1011180040fd3700b0012000107188004e2eef000e
:101128000268a900004006003afd3700900a200036
:1011380010718800d0728100304090000080fb0060
:10114800907289004e2eef000268a9000040060048
:1011580030fd370091728100117188004e2eef002a
:101168000268a900004006002afd37005008200048
:10117800107188004e2eef000268a900004006009a
:1011880024fd370070002000107188004e2eef00fb
:101198000268a900004006001efd37006008200014
:1011a800107188004e2eef000268a900004006006a
:1011b80018fd3700b0012000107188004e2eef0096
:1011c8000268a9000040060012fd37004008200010
:1011d800107188004e2eef000268a900004006003a
:1011e8000cfd370060002000107188004e2eef00c3
:1011f8000268a9000040060006fd3700900a20009a
:10120800107188004e2eef000268a9000040060009
:1012180000fd3700222eef004e2eef000268a900d5
:1012280000400600fbfc37005008200010718800c1
:101238004e2eef000268a90000400600f5fc3700ba
:1012480090002000107188004e2eef000268a9005f
:1012580000400600effc370050082000107188009d
:101268004e2eef000268a90000400600e9fc370096
:10127800b0022000107188004e2eef000268a9000d
:1012880000400600e3fc3700900a20001071880037
:101298004e2eef000268a90000400600ddfc370072
:1012a800222eef004e2eef000268a9000040060033
:1012b800d8fc3700900a200010718800e072810085
:1012c800604090000080fb00907289004e2eef0075
:1012d8000268a90000400600cefc37005072810069
:1012e800107188004e2eef000268a9000040060029
:1012f800c8fc370010002000107188004e2eef0047
:101308000268a90000400600c2fc3700a00e2000b9
:10131800107188004e2eef000268a90000400600f8
:10132800bcfc3700a00e2000107188004e2eef0084
:101338000268a90000400600b6fc37006072810010
:101348001071880070728100e30f5000380332007a
:101358004e2eef000268a90000400600adfc3700e1
:10136800222eef004e2eef000268a9000040060072
:10137800a8fc3700200a20001071880061e42200d0
:101388001100e9003072890067033a007072810029
:10139800e10f5000ad0332007e033100062ea80095
:1013a800100020007072890000738100307289007b
:1013b80040082000607289004e2eef000268a900e4
:1013c8000040060093fc3700222eef007072810067
:1013d800e30f5000080332004e2eef000268a90008
:1013e800004006008bfc3700a00e2000107188001a
:1013f80070728100e30f5000220332004e2eef007e
:101408000268a9000040060082fc3700a00e2000f8
:101418001071880070728100e30f5000ec023200f6
:101428004e2eef000268a9000040060079fc370044
:10143800a00e20001071880070728100e30f500028
:10144800060332004e2eef000268a9000040060095
:1014580070fc370090728100107188004e2eef00ea
:101468000268a900004006006afc37005008200006
:10147800107188004e2eef000268a9000040060097
:1014880064fc3700200a2000107188004e2eef00ff
:101498000268a900004006005efc3700222eef001b
:1014a8004e2eef000268a9000040060059fc3700e4
:1014b80061728100117188004e2eef000268a90048
:1014c8000040060053fc3700222eef004e2eef009e
:1014d8000268a900004006004efc370050728100e7
:1014e800107188004e2eef000268a9000040060027
:1014f80048fc370010002000107188004e2eef00c5
:101508000268a9000040060042fc3700900a20004b
:1015180010718800f07281009080fb009172890040
:10152800e1e522008008e8004e2eef000268a900dd
:101538000040060037fc3700917281001171880065
:101548004e2eef000268a9000040060031fc37006b
:1015580050082000107188004e2eef000268a90084
:10156800004006002bfc3700900120001071880015
:101578004e2eef000268a9000040060025fc370047
:10158800e00a2000107188004e2eef000268a900c2
:10159800004006001ffc370000082000107188007a
:1015a8004e2eef000268a9000040060019fc370023
:1015b80020002000107188004e2eef000268a9005c
:1015c8000040060013fc3700d00b20001071880083
:1015d8004e2eef000268a900004006000dfc3700ff
:1015e800222eef004e2eef000268a90000400600f0
:1015f80008fc3700e00f20001071880040e022004e
:10160800107289004e2eef000268a9000040060003
:1016180000fc3700e00a2000107188004e2eef0011
:101628000268a90000400600fafb370020082000e5
:10163800107188004e2eef000268a90000400600d5
:10164800f4fb370020002000107188004e2eef00b8
:101658000268a90000400600eefb3700d00b20000e
:10166800107188004e2eef000268a90000400600a5
:10167800e8fb3700222eef004e2eef000268a9008b
:1016880000400600e3fb3700e00f200010718800df
:1016980060e02200107289004e2eef000268a90057
:1016a80000400600dbfb3700600a2000107188004c
:1016b8004e2eef000268a90000400600d5fb370057
:1016c800c0002000107188004e2eef000268a900ab
:1016d80000400600cffb3700d00b200010718800b7
:1016e8004e2eef000268a90000400600c9fb370033
:1016f800222eef004e2eef000268a90000400600df
:10170800c4fb3700e00f20001071880080e0220041
:10171800107289004e2eef000268a90000400600f2
:10172800bcfb3700600a2000107188004e2eef00c5
:101738000268a90000400600b6fb3700d000200070
:10174800107188004e2eef000268a90000400600c4
:10175800b0fb3700d00b2000107188004e2eef0030
:101768000268a90000400600aafb3700222eef00fd
:101778004e2eef000268a90000400600a5fb3700c6
:10178800e00f200010718800a0e02200107289008c
:101798004e2eef000268a900004006009dfb3700ae
:1017a800a00e20001071880070728100e30f5000b5
:1017b8003e0232004e2eef000268a90000400600eb
:1017c80094fb3700a00e2000107188007072810011
:1017d800e30f5000470232004e2eef000268a900c6
:1017e800004006008bfb3700222eef004e2eef0044
:1017f8000268a9008afb3700222eef004e2eef0068
:101808000268a90086fb3700817281001171880087
:101818004e2eef000268a900004006007dfb37004d
:10182800f00f2000107188004e2eef000268a9000a
:101838000040060077fb3700222eef004e2eef0007
:101848000268a90076fb3700222eef004e2eef002b
:101858000268a90072fb3700a00e200010718800f2
:1018680070728100e30f50001a0232004e2eef0012
:101878000268a9000040060066fb3700c00420008b
:10188800107188004e2eef000268a9000040060083
:1018980060fb3700222eef004e2eef000268a900f1
:1018a8005ffb3700222eef004e2eef000268a900e2
:1018b8005bfb3700222eef004e2eef000268a900d6
:1018c80057fb3700222eef004e2eef000268a900ca
:1018d80053fb3700222eef004e2eef000268a900be
:1018e8004ffb370080002000107188004e2eef005b
:1018f8000268a9000040060046fb3700900a200055
:1019080010718800d0728100704090000080fb0048
:10191800907289004e2eef000268a9000040060070
:101928003cfb370091728100117188004e2eef0048
:101938000268a9000040060036fb37005008200066
:10194800107188004e2eef000268a90000400600c2
:1019580030fb370060002000107188004e2eef0029
:101968000268a900004006002afb3700900a200000
:1019780010718800e0728100704090000080fb00c8
:10198800907289004e2eef000268a9000040060000
:1019980020fb370090728100107188004e2eef00f6
:1019a8000268a900004006001afb37005008200012
:1019b800107188004e2eef000268a9000040060052
:1019c80014fb3700b0012000107188004e2eef0084
:1019d8000268a900004006000efb3700900a2000ac
:1019e80010718800d0728100004890000080fb00d0
:1019f800907289004e2eef000268a9000040060090
:101a080004fb370091728100117188004e2eef009f
:101a18000268a90000400600fefa370050082000be
:101a2800107188004e2eef000268a90000400600e1
:101a3800f8fa370070002000107188004e2eef0071
:101a48000268a90000400600f2fa3700600820008a
:101a5800107188004e2eef000268a90000400600b1
:101a6800ecfa3700b0012000107188004e2eef000c
:101a78000268a90000400600e6fa37004008200086
:101a8800107188004e2eef000268a9000040060081
:101a9800e0fa370060002000107188004e2eef0039
:101aa8000268a90000400600dafa3700900a200010
:101ab800107188004e2eef000268a9000040060051
:101ac800d4fa3700222eef004e2eef000268a9004c
:101ad80000400600cffa3700500820001071880037
:101ae8004e2eef000268a90000400600c9fa370030
:101af80080002000107188004e2eef000268a900b7
:101b080000400600c3fa3700900a200010718800d0
:101b18004e2eef000268a90000400600bdfa37000b
:101b2800000820001071880060e422001088e90095
:101b38004e2eef000268a90000400600b5fa3700f3
:101b48005008200010718800307281000000e00009
:101b580081013a00700b200080728900e0e62200c3
:101b68001004e00085013a0020738100307289007a
:101b780040082000507289004e2eef000268a9002c
:101b880000400600a3fa3700000220001071880008
:101b98004e2eef000268a900004006009dfa3700ab
:101ba80010022000107188004e2eef000268a90074
:101bb8000040060097fa3700c00420001071880022
:101bc8004e2eef000268a9000040060091fa370087
:101bd80080728100107188004e2eef000268a90003
:101be800004006008bfa3700f00f200010718800c3
:101bf8004e2eef000268a9000040060085fa370063
:101c0800000a2000107188004e2eef000268a9001b
:101c1800004006007ffa370020002000107188007d
:101c28004e2eef000268a9000040060079fa37003e
:101c380050082000107188004e2eef000268a9009d
:101c48000040060073fa3700907281001071880016
:101c58004e2eef000268a900004006006dfa37001a
:101c6800900a200010718800e072810050409000b6
:101c78000080fb00907289004e2eef000268a900d8
:101c88000040060063fa37009172810011718800e4
:101c98004e2eef000268a900004006005dfa3700ea
:101ca80050082000107188004e2eef000268a9002d
:101cb8000040060057fa3700b00120001071880074
:101cc8004e2eef000268a9000040060051fa3700c6
:101cd800900a200010718800d07281005040900056
:101ce8000080fb00907289004e2eef000268a90068
:101cf8000040060047fa3700907281001071880092
:101d08004e2eef000268a9000040060041fa370095
:101d180050082000107188004e2eef000268a900bc
:101d2800004006003bfa3700600020001071880070
:101d38004e2eef000268a9000040060035fa370071
:101d4800900a200010718800e0728100004890001d
:101d58000080fb00907289004e2eef000268a900f7
:101d6800004006002bfa370091728100117188003b
:101d78004e2eef000268a9000040060025fa370041
:101d880050082000107188004e2eef000268a9004c
:101d9800004006001ffa3700c001200010718800bb
:101da8004e2eef000268a9000040060019fa37001d
:101db800900a200010718800c07281009080fb009a
:101dc8009172890081e522008008e8004e2eef001c
:101dd8000268a900004006000efa370090728100e0
:101de800107188004e2eef000268a900004006001e
:101df80008fa370050082000107188004e2eef00b6
:101e08000268a9000040060002fa370070002000ae
:101e1800107188004e2eef000268a90000400600ed
:101e2800fcf93700900a200010718800f0728100d8
:101e38009080fb0091728900e1e522008008e800ab
:101e48004e2eef000268a90000400600f1f93700a5
:101e580090728100107188004e2eef000268a90070
:101e680000400600ebf93700500820001071880088
:101e78004e2eef000268a90000400600e5f9370081
:101e880090012000107188004e2eef000268a90012
:101e980000400600dff93700200a20001071880092
:101ea800e0728100104890000080fb009072890069
:101eb8004e2eef000268a90000400600d5f9370051
:101ec80091728100117188004e2eef000268a900fe
:101ed80000400600cff93700000a20001071880082
:101ee800d0728100104890000080fb009072890039
:101ef8004e2eef000268a90000400600c5f9370021
:101f0800c0012000107188004e2eef000268a90061
:101f180000400600bff93700900a200010718800c1
:101f2800d0728100604090000080fb0090728900b0
:101f38004e2eef000268a90000400600b5f93700f0
:101f480091728100117188004e2eef000268a9007d
:101f580000400600aff937005008200010718800d3
:101f68004e2eef000268a90000400600a9f93700cc
:101f7800a0022000107188004e2eef000268a90010
:101f880000400600a3f937005008200010718800af
:101f98004e2eef000268a900004006009df93700a8
:101fa800222eef004e2eef000268a9009cf93700a0
:101fb800222eef004e2eef000268a90098f9370094
:101fc800222eef004e2eef000268a90094f9370088
:101fd80030e022001004e0007a003a00a07181008d
:101fe8003073890091718100217389004e2eef00b2
:101ff8000268a9000cfd3700e0e622001004e000aa
:10200800f5fc3200f07281009080fb00b17289000b
:10201800e1e522008008e80011c0b30040e5220095
:10202800014878004e2eef000268a900ecfc37004a
:102038003173810031728900e0e422000008eb006e
:1020480011c0b30020e0220001487800062ea90044
:102058004e2eef000268a900bffc370030e02200d6
:102068001004e00064003a0040718100d0728900d9
:1020780031718100c17289004e2eef000268a900fb
:10208800f2fc370030e022001004e00068003a005b
:1020980060718100f072890051718100e1728900dc
:1020a8004e2eef000268a900d6fc370030e022006f
:1020b8001004e00057003a00707181000073890035
:1020c80081718100117389004e2eef000268a9000a
:1020d800bafd370030e022009080fb008100e90063
:1020e800cf08de00014878004e2eef000268a900f4
:1020f800e0fd370030e022001004e00038003a002c
:10210800c1e32200e0e62200114878004e2eef00dd
:102118000268a900b2fd3700222eef004e2eef0014
:102128000268a90049f937004e2eef000268a9009d
:102138000040060037f93700f17281001180fb007a
:10214800e2e522000109e800907289004e2eef00b6
:102158000268a900fcfa3700c0e522009000780068
:102168006a884000a0e52200900078006a88400054
:102178004e2eef000268a90081fe370041e62200da
:1021880060e422001108e90040082000507289002c
:1021980079fe3700e20f5000e3ff3a0030002000dc
:1021a800707289006008200050728900e0032000e6
:1021b800807289004e2eef000268a90000400600d8
:1021c80014f93700d070810030738900c170810024
:1021d800217389004e2eef000268a90092fc370097
:1021e80021e22200e0e62200114878004e2eef009e
:1021f8000268a9007afd370070708100d0728900ea
:1022080061708100c17289004e2eef000268a9003a
:102218008efc3700a070810000738900b1708100c6
:10222800117389004e2eef000268a90063fd370084
:1022380090708100f072890081708100e1728900dc
:102248004e2eef000268a9006efc37002000200027
:1022580070728900e0e622001004e00008003a00ed
:1022680020e622009008e8006008200060728900db
:102278004e2eef000268a90000400600e5f837007e
:102288001173810031728900600820006072890032
:102298004e2eef000268a900f7ff37000040da0071
:1022a8000000fe0000000500010037000201e900ff
:1022b8000200e0000500320030427800b1417800a9
:1022c800834f5200f9ff320001003700000005007b
:1022d8000480fb008381fb0003005000000006001f
:020000040000fa
:049000000000060066
:020000040000fa
:020000040001f9
:045e0000ffffff00a1
:020000040000fa
:020000040001f9
:045e8800ffefff0029
:020000040000fa
:020000040001f9
:045e8000fffcff0024
:020000040000fa
:020000040001f9
:045e7800ffffff0029
:020000040000fa
:020000040001f9
:045e70000000ff002f
:020000040000fa
:020000040001f9
:045e68000000ff0037
:020000040000fa
:020000040001f9
:045e60000000ff003f
:020000040000fa
:020000040001f9
:045e58000000ff0047
:020000040000fa
:020000040001f9
:045e5000dfffff0071
:020000040000fa
:020000040001f9
:045e4800ffffff0059
:020000040000fa
:020000040001f9
:045e40006003ff00fc
:020000040000fa
:020000040001f9
:045e38007bffff00ed
:020000040000fa
:020000040001f9
:045e300078ffff00f8
:020000040000fa
:020000040001f9
:045e2000ffffff0081
:020000040000fa
:040020004602000094
:020000040000fa
:040010006a02000080
:020000040000fa
:04001800860200005c
:020000040000fa
:04000c00a20200004c
:020000040000fa
:04001400be02000028
:020000040000fa
:04000800da02000018
:020000040000fa
:04007400f602000090
:020000040000fa
:1022e80055500000444100005445000020200000e3
:1022f800465200004d0000000000000000000000f1
:1023080000000000000000000000000000000000c5
:102318000000000000000000e13000000cfc00009c
:10232800068c0000e760000000000000713000002b
:102338000c600000068c0000c06000000000000077
:10234800e13100000f60000006980000c360000043
:1023580000000000313000000c600000068c000016
:10236800e760000000000000e13000000c600000a1
:102378000000000000000000000000000000000055
:102388000000000000000000000000000000000045
:10239800000000000000000007fc00007e63000051
:1023a80000000000713000000c600000068c000086
:1023b800c060000000000000613100000c600000f7
:1023c80007f80000dfe000000000000071310000a5
:1023d8000c600000069c0000c360000000000000c4
:1023e800713000000c600000078e00007f60000064
:1023f80000000000000000000000000000000000d5
:1024080000000000000000000000000000000000c4
:1024180000000000000000000000000000000000b4
:1024280000000000000000000000000000000000a4
:10243800c7c000000efe000071700000637000004d
:10244800000000008cc000000ec000003330000007
:1024580063f00000000000001cc000000ffe000038
:102468001f30000063f00000000000000cc00000f6
:102478000fc000001e70000077b0000000000000d0
:1024880007fc00000cfe0000000000000000000037
:102498000000000000000000000000000000000034
:1024a8000000000000000000000000000000000024
:1024b80061e0000063700000000000008ec00000b2
:1024c8000ec00000337000006370000000000000c0
:1024d8001cc000000fc000003b30000063f000008b
:1024e800000000001cc000000fc000001e700000ab
:1024f80063b00000000000000ec000000dc0000026
:102508000ee000003e300000000000000000000067
:1025180000000000000000000000000000000000b3
:1025280000000000000000000000000000000000a3
:10253800007f00007f7f00007f7f00004141000096
:10254800414100004141000041410000414100007b
:10255800414100004141000041410000414100006b
:10256800414100007f7f00007f7f00007f00000066
:102578000000000000000000000000000000000053
:10258800007f00007f7f00007f7f00004141000046
:1025980041410000417f00004141000041410000ed
:1025a8004141000041410000417f000041410000dd
:1025b800414100007f7f00007f7f00007f00000016
:1025c8000000000000000000000000000000000003
:1025d800007f00007f7f00007f7f00007f410000b8
:1025e80041410000417f000041410000414100009d
:1025f8007f41000041410000417f0000414100004f
:10260800414100007f7f00007f7f00007f000000c5
:1026180000000000000000000000000000000000b2
:10262800007f00007f7f00007f7f00007f41000067
:1026380041410000417f00007f410000414100000e
:102648007f41000041410000417f00007f410000c0
:10265800414100007f7f00007f7f00007f00000075
:102668000000000000000000000000000000000062
:10267800007f00007f7f00007f7f00007f7f0000d9
:1026880041410000417f00007f41000041410000be
:102698007f7f000041410000417f00007f41000032
:1026a800414100007f7f00007f7f00007f00000025
:1026b8000000000000000000000000000000000012
:1026c800007f00007f7f00007f7f00007f7f000089
:1026d80041410000417f00007f7f00004141000030
:1026e8007f7f000041410000417f00007f7f0000a4
:1026f800414100007f7f00007f7f00007f000000d5
:1027080000000000000000000000000000000000c1
:10271800007f00007f7f00007f7f00007f7f000038
:102728007f410000417f00007f7f000041410000a1
:102738007f7f00007f410000417f00007f7f000015
:10274800414100007f7f00007f7f00007f00000084
:102758000000000000000000000000000000000071
:10276800007f00007f7f00007f7f00007f7f0000e8
:102778007f410000417f00007f7f00007f41000013
:102788007f7f00007f410000417f00007f7f0000c5
:102798007f4100007f7f00007f7f00007f000000f6
:1027a8000000000000000000000000000000000021
:1027b800007f00007f7f00007f7f00007f7f000098
:1027c8007f7f0000417f00007f7f00007f41000085
:1027d8007f7f00007f7f0000417f00007f7f000037
:1027e8007f4100007f7f00007f7f00007f000000a6
:1027f80000000000000000000000000000000000d1
:10280800007f00007f7f00007f7f00007f7f000047
:102818007f7f0000417f00007f7f00007f7f0000f6
:102828007f7f00007f7f0000417f00007f7f0000e6
:102838007f7f00007f7f00007f7f00007f00000017
:102848000000000000000000000000000000000080
:10285800007f00007f7f00007f7f00007f7f0000f7
:102868007f7f00007f7f00007f7f00007f7f000068
:102878007f7f00007f7f00007f7f00007f7f000058
:102888007f7f00007f7f00007f7f00007f000000c7
:1028980000000000000000007f7f00007f7f000034
:1028a8007f410000414100004141000041410000da
:1028b8004141000041410000414100004141000008
:1028c8004141000041410000417f00007f7f00003e
:1028d8007f7f0000000000000000000000000000f2
:1028e80000000000000000007f7f00007f7f0000e4
:1028f8007f7f00004141000041410000414100004c
:1029080041410000417f0000414100004141000079
:102918004141000041410000417f00007f7f0000ed
:102928007f7f0000000000000000000000000000a1
:1029380000000000000000007f7f00007f7f000093
:102948007f7f000041410000414100007f410000bd
:1029580041410000417f0000414100004141000029
:102968007f41000041410000417f00007f7f00005f
:102978007f7f000000000000000000000000000051
:1029880000000000000000007f7f00007f7f000043
:102998007f7f00007f410000414100007f4100002f
:1029a80041410000417f00007f410000414100009b
:1029b8007f41000041410000417f00007f7f00000f
:1029c8007f7f000000000000000000000000000001
:1029d80000000000000000007f7f00007f7f0000f3
:1029e8007f7f00007f410000414100007f7f0000a1
:1029f80041410000417f00007f410000414100004b
:102a08007f7f000041410000417f00007f7f000080
:102a18007f7f0000000000000000000000000000b0
:102a280000000000000000007f7f00007f7f0000a2
:102a38007f7f00007f7f0000414100007f7f000012
:102a480041410000417f00007f7f000041410000bc
:102a58007f7f000041410000417f00007f7f000030
:102a68007f7f000000000000000000000000000060
:102a780000000000000000007f7f00007f7f000052
:102a88007f7f00007f7f0000414100007f7f0000c2
:102a98007f410000417f00007f7f0000414100002e
:102aa8007f7f00007f410000417f00007f7f0000a2
:102ab8007f7f000000000000000000000000000010
:102ac80000000000000000007f7f00007f7f000002
:102ad8007f7f00007f7f00007f4100007f7f000034
:102ae8007f410000417f00007f7f00007f410000a0
:102af8007f7f00007f410000417f00007f7f000052
:102b08007f7f0000000000000000000000000000bf
:102b180000000000000000007f7f00007f7f0000b1
:102b28007f7f00007f7f00007f4100007f7f0000e3
:102b38007f7f0000417f00007f7f00007f41000011
:102b48007f7f00007f7f0000417f00007f7f0000c3
:102b58007f7f00000000000000000000000000006f
:102b680000000000000000007f7f00007f7f000061
:102b78007f7f00007f7f00007f7f00007f7f000055
:102b88007f7f0000417f00007f7f00007f7f000083
:102b98007f7f00007f7f0000417f00007f7f000073
:102ba8007f7f00000000000000000000000000001f
:102bb80000000000000000007f7f00007f7f000011
:102bc8007f7f00007f7f00007f7f00007f7f000005
:102bd8007f7f00007f7f00007f7f00007f7f0000f5
:102be8007f7f00007f7f00007f7f00007f7f0000e5
:102bf8007f7f0000000000000000000000000000cf
:102c0800000000000000000008080000080800009c
:102c1800080800000808000008080000080800006c
:102c28000808000008080000060600000707000062
:102c38000707000007070000080800000808000050
:102c48000808000009090000050500000606000044
:102c58000607000007070000080800000809000030
:102c6800090900000a0a0000040400000505000024
:102c78000606000007070000080800000909000010
:102c88000a0a00000b0b0000030300000405000003
:102c9800050600000707000008090000090a0000ef
:102ca8000b0b00000c0d00000102000003040000e3
:102cb8000505000006070000080900000a0a0000d0
:102cc8000b0c00000d0e00000001000002030000c4
:102cd8000405000006070000080900000a0b0000b0
:102ce8000c0d00000e0f00000000000000010000a5
:102cf8000304000005070000080a00000b0c000090
:102d08000e0f00000f0f0000000000000000000080
:102d18000103000005070000080a00000c0e00006f
:102d28000f0f00000f0f000000000000000000005f
:102d38000002000004060000090b00000d0f00004f
:102d48000f0f00000f0f000000000000000000003f
:102d58000001000003060000090c00000e0f00002f
:102d68000f0f00000f0f00000896000018960000d3
:102d780028960000389600004896000058960000f3
:102d880068960000789600008896000098960000e3
:102d9800a8960000000000000000000000000000ed
:102da80000010000020300000405000006070000ff
:102db800080900000a0b00000c0d00000e0f0000af
:102dc8000f0f00000f0f000046030000460300002d
:102dd80046030000460300004603000046030000c7
:102de80046030000460300004603000046030000b7
:102df80046030000460300004603000046030000a7
:102e08004603000046030000460300004603000096
:1031c8004603000046030000560300006e0300009b
:1031d8007a03000086030000920300009e030000ab
:1031e800aa030000b4030000c0030000ca030000e3
:1031f800d6030000e2030000ee030000fa0300001b
:1032080006040000120400001e0400002a04000046
:1032180036040000420400004e0400005a04000076
:1032280066040000720400007e0400008a040000a6
:1032380096040000a2040000ae040000ba040000d6
:10324800c6040000d2040000de040000ea04000006
:10325800f6040000020500000e0500001a05000033
:1032680026050000320500003e0500004a05000062
:1032780056050000620500006e0500007a05000092
:1032880086050000920500009e050000aa050000c2
:10329800b6050000c2050000ce050000da050000f2
:1032a800e6050000f2050000fe0500000a06000021
:1032b80016060000220600002e0600003a0600004e
:1032c800460600005a060000660600007206000066
:1032d8007e0600008a06000096060000ac06000084
:1032e800bc060000d0060000dc060000e80600006e
:1032f800f406000008070000140700002807000073
:1033080034070000400700004c0700005e0700007b
:103318006a07000076070000820700009407000093
:10332800a0070000ac070000b8070000cc070000a9
:10333800d8070000e4070000f007000006080000b6
:10334800120800001e0800002a0800003e080000bd
:103358004a080000560800006208000076080000cd
:10336800820800008e0800009a080000ae080000dd
:10337800ba080000c6080000d2080000de080000f5
:10338800ea080000f6080000020900000e09000023
:103398001809000024090000300900003c09000059
:1033a80048090000540900005e0900002e0a0000c8
:1033b8003a0a0000bc0f0000c80f0000840f00008c
:1033c800900f0000a40f0000b00f00000a0f0000cb
:1033d800160f00002c0f0000380f0000440f0000eb
:1033e800500f0000640f0000700f0000280e00004e
:1033f800340e0000480e0000540e0000600e00005d
:103408006c0e0000800e00008c0e0000980e00006c
:10341800a40e0000b80e0000c40e0000d00e00007c
:10342800dc0e0000f20e0000fe0e0000760c00001c
:10343800820c0000960c0000a20c0000ae0c0000ec
:10344800ba0c0000ce0c0000da0c0000e60c0000fc
:10345800f20c0000060d0000120d00001e0d000009
:103468002a0d0000360d0000420d00004e0d000030
:103478005a0d0000660d0000700d00007c0d000064
:10348800880d0000940d0000a40d0000c80d000078
:103498001c0e0000d40d0000e00d0000ec0d000033
:1034a800f80d0000040e0000100e0000460a00008f
:1034b800520a00005c0a0000680a0000720a000054
:1034c8007e0a00008a0a0000a00a0000ac0a000078
:1034d800b80a0000c40a0000d00a0000dc0a000094
:1034e800e80a0000f40a0000fe0a00000e0b0000c3
:1034f8001a0b0000260b0000320b00003e0b0000e8
:10350800480b0000580b0000640b0000700b000013
:103518007c0b0000860b0000960b0000a20b00003d
:10352800ae0b0000ba0b0000c40b0000be0900007f
:10353800e80900001c0a0000f80900000a0a000057
:10354800d40b0000e60b0000300c00008a090000d4
:1035580096090000a2090000b409000072090000e1
:103568007e0900003a0300003a030000420c000004
:10357800080c0000140c0000200c0000280c0000af
:10358800d40f0000f80b0000000c0000660c0000cf
:10359800dc0f00006e0c00004e0c0000560c000002
:1035a800e40f00005e0c00000e0300000e03000094
:1035b8006203000064030000180300002e030000eb
:0835c800180300002e030000af
:020000040000fa
:1035d0000100c0003ed91f00c1f80f00fb1f010011
:1035e0000000f1006c86f000ff071f00e73e8d0031
:1035f000f83f8300f07fff00e0fcfe00ff0e0f00ad
:10360000d8f0370077debf007b07ef003907e00016
:10361000fe0ffc007fff7e00c7dff1003f03f000dc
:10362000c7f83f00f7f7030037ffff00638cff0088
:10363000fffa9c00e3bfff00ff716700fffffc0083
:103640007773bf00ffff73009dffff00fa9c9c0093
:103650003fffff00cc99ff00fffadc00987fff00de
:10366000ffcc6600fffffc0067777f00ffff3100a3
:10367000c6ffff00fc2777007fffff003bc6ff006f
:10368000fffc2700d8ffff00ffc6cd00fffffe00b4
:1036900027d8ff00ffffe60033ffff00fed8d80069
:1036a000ffffff0066cdff00ffffa600d8ffff0071
:1036b000ff667600fffffe00d92fff00ffffdd0051
:1036c00001ffff00ffc9d000ffffff00b693ff001e
:1036d000ffff36002effff00ffcc0300ffffff00bf
:1036e000962eff00ffff6e0003ffff00ff162e0067
:1036f000ffffff0080f8ff00fff0ff00ff9fff00cb
:10370000f03f0700ffffff00a97fff00fff0f6007a
:1037100003ffff00ff617f00cffff000ff33ff00da
:10372000ffffe9005dc7ff00f0f2a100ffffff000f
:10373000f57dc700fffbfb0021feff00fe755d006d
:10374000873ff0000f60f8000cfc75007b871e00bf
:10375000f00f6000f00cf800f77e83008ff0870018
:10376000e0e00500f0b3f60003cff00086e0e000f3
:1037700001f0bb00bd03cf00f086c000e083f00085
:103780005b750300eff00700c0e08300f07b790079
:1037900001eff00007c0e00083f02d004341ef008f
:1037a000f07fd000e0c7f0009f47c100cff0f700e6
:1037b00098e0c700f0038700c19ff000ef98f00089
:1037c000e7f8c3000fc03f00f00fbd00f8effc00aa
:1037d000e11fe1007ff13f00bfffff00fef11f008e
:1037e000f8ffff00ffff3f00ffcff1001ff0ff00d9
:1037f000ffffff001fff8f00f31fe100ffffff002f
:10380000ffffff000ff31f00c1fffe00ffffff00df
:10381000fc0323000fc181004efdff00fff80700ed
:10382000f7cf8100300eff00fffff8000fe39f008d
:1038300081f03f00ffffff00f80f0700df818000ed
:103840003fffff00fff80f00efb78100107fff0080
:10385000fffef8000fe3ff0083107f00fffffe0074
:10386000f80fb700ff8110007fffff00fef80f0088
:1038700087ff8100107fff00fffef8000943cf00a3
:10388000c1107f00ffff9e00f80b7700f7e11000ea
:103890007fffff003ff8030057fff000807fff002d
:1038a0003f7ffc0087fffe00ffffff0007f0ff00e7
:1038b000fff8ff00ffffff00ff03ff00ffffff0017
:1038c000fcffff00ffff0700f0ffff00f0ff3d00df
:1038d000ffffff00fc7fff00ffff0300ff1fff0053
:1038e000ff0f7f00ffffff00f4c3ff00fffffc009e
:1038f0003fffff00ffcbff003fffff00073fff0040
:10390000ffffa40089ffff00fffb80000000000014
:1039100021ffff00fffffd0000000000000000008d
:103920000000000000000000000001000000000096
:1039300000000000000000000fe000000000000098
:1039400000000000007ff800000000000070000090
:103950000000ff00f800000000f8ff000000070072
:10396000fffc80000000fc00ff0000000ffffd00d6
:10397000c3001e00fcfff800801fff00fdc71f00f2
:10398000fffdff00fce19f00fffdef003ffffd009a
:10399000fffef300bff60000ef7fff00fc3ffe00dc
:1039a000f3bf030000ef7f00ffc89d00fffb9b00fb
:1039b0000780ef007ffffc00c2defb00980fc30012
:1039c000cf7ffb001ffcff00fb019f00c700000032
:1039d00000fffe0000fb03009fef0f00ec0fff0055
:1039e000fff0c000c7ffaf001f1fff00fffffc007c
:1039f000e0e7ff00ffbf7f00ffffff00fef9ef00e1
:103a0000ffffbf007ffffa00fffef900efd8ff00c5
:103a1000bfffff00e8f4fe00f9edff00fc3fff00f0
:103a2000ff00d200da6900007f1c3f00ffff0300a7
:103a3000c0fffb00fee13f00007ffd003ff0e4001f
:103a4000e100f1007f3fff00fffffc00e0e0e0004d
:103a5000fb7f3f001f3fff00fcf0e000f9fbff0091
:103a60007f3f7f00fffef800f8f9fb007fffff00bb
:103a7000fffffe00fcf8f9009b5fff00ffffff0067
:103a8000fffcfd00fd00ff00ffffff009fff0000a7
:103a9000fd9fff00bf00b700fbfff900fb4fff00d9
:103aa0003cf8ff00fffff8007fffff00fffcff0076
:103ab0009bd900000fe0df00fff8ff00ffffd900f7
:103ac000073ff100e0e0fc00ffffff003f3f3f0049
:103ad00027f91f00c3ff000036e83e00b0ff0700d3
:103ae000c08ce7006e81f0001fc77f00ff2f07002a
:103af000f9fcff000fc0fc0037fb1f00f0f41900b9
:103b000003f0de003ffe0f00f306c300f00ff000ed
:103b1000fc1f8300f01ff1007c9eff007c87dc000f
:103b200098ff7f00f00c0300bfffff00719dff00b6
:103b3000fffa9c009c3fff00ff8c9c00fffffa00f7
:103b40009ce7bf00ffff730066ffff00fc67770084
:103b5000bfffff0073e7ff00fffd6700987fff00d6
:103b6000ffcc9900fffffc00d8d8ff00ffffcc007e
:103b7000bbffff00fdd8d8007fffff00cec4ff00d1
:103b8000fffe2700d8ffff00ffc6cd00fffffe00ad
:103b90003737ff00ffff9900cdffff00fe27da0057
:103ba000ffffff0066c9ff00fffe26003fffff008a
:103bb000ff996700fffffc00d92eff00ffff5d00ab
:103bc0009bffff00ff16d100ffffff00b323ff00a4
:103bd000ffffc900d0ffff00ff804300ffffff0091
:103be000e9d1ff00ffffd30003ffff00ffe1ff006b
:103bf00017fff8007ff8ff00fff8ff006dffff00e0
:103c0000f0e4df00ffffff00e91cef00fff0e00041
:103c100093ffff00fff97f00c7ffe000f291ff0074
:103c2000ffffed005dc7ff00f1f8a100ffffff00ff
:103c3000f15dc700fff93b00e1fc1e00fe755b0073
:103c4000831ef0000d60f8000cfc7500df879f00fc
:103c5000f08fe000f00df800bf320300cfe08600e7
:103c6000e0e00500f0bb3e0003cff00086e0e0009e
:103c700001f0db00f503ef00f007c000e083f00087
:103c80005b750300eff00700c0e08300f00b6b00f2
:103c900041eff000ffd0e000c3f00500d3c1cf003a
:103ca000f0ff9800e0c7f0008707c100dff0670071
:103cb00098f0c700f8c30700c09ff0000f99f0000c
:103cc000e7f8c3000fe17f00f11fbd00fcfffe001d
:103cd000e11fff00ffffff00ff7fff00fff11f005c
:103ce000f0ffff00fdff1f00ff8ff3003fe1ff002b
:103cf000ffffff009fff0f00f31fc100ffffff004a
:103d0000ffffff0007e11f00c1c34e00ffffff00e0
:103d1000f803e3009f81b1000effff00fff80700ea
:103d2000f70f8100700efe00fffff8000feb070099
:103d300081c03e00ffffff00f80ff3009f8180006d
:103d40003fffff00fff80f00ef078100107efc002f
:103d5000fffef8000fe78f0081107f00fffffe00dd
:103d6000f80fb700038110007effff00fef80f0080
:103d7000f7dfc100107ffc00ffdef8000bdfff0063
:103d8000c1107f00ffff1e00f8037700ffe0000076
:103d90007fffff003ff88700d7fef80089fff8009b
:103da0000fffff00cefeff00ffffff001f0fff0011
:103db000fffcff00d7ffff00fffe0700fffff8003a
:103dc000ffff7f00ffff1f007fffff00ff4bc300cf
:103dd000ffffff00fce0ff00fff0ff00dbffff0044
:103de000fffd7f00ffffff00f4cbff00fffff800a7
:103df000c0ffff00f0ff8b00ffffff00f93fff0057
:103e0000ffff24000100000000037f00ffffff0010
:103e1000fe000000000000000000000000000000a4
:103e2000000000000000000000000300c0000000cf
:103e300000000000000000003ff000000000000053
:103e400000000000007ff80000000000307c00004f
:103e50000001ff00fc80000000f8ff0000000700e8
:103e6000fffd80000006fc00ffc000000ffffd000a
:103e7000c700ff00fdfffc00c19fff00ffcf1f0038
:103e8000fffdff00fef19f00fffdef007ffffc0044
:103e9000fffef3009fe87e00cf7fff00f84fff009a
:103ea000fbbf030080ef7f00ff00ff00fffbbf00b0
:103eb0000fc16f007fff1e00e07ffb00001fc700e7
:103ec0008f7fff00fffc9c00e0019f00ef8ff4005c
:103ed0004fffff00c01d83009fef1f001f7fff00eb
:103ee000fff8e000c7bfef009f3fff00fffffc00af
:103ef000f1efff00dfbf7f00ffff3f00fef9e400ae
:103f00006f2fbf007fffff00fffefb00ffd9fe0009
:103f1000effffe00ff97fe00ffe95e00f300ff00e9
:103f2000e9dee000fffffe00c03f0000ff600f0081
:103f3000e0dfdd00f6f17f0036df00007ff8fe00f5
:103f4000fbe0fb007f3f1f000ffffc00e0c0f00024
:103f5000fbff7f003f7fff00fcf8f000f9fb7f00d4
:103f6000ff7fff00fffefc00f8f9f80017ffff00dd
:103f7000fff4fe00fcf9f900e800ff00fffffe007f
:103f80009bfdfd00ffffff00e0ffd300ff22fd00cf
:103f9000f9dff700e0ffb600fffeff00ffffff00c4
:103fa000fefeff00fffff800c0fffe00fcffff0069
:103fb000fcfdbf001fe0000000f8ff00ffff3f0016
:103fc0001f3ff100e0f0fe00ffe0000000080000ed
:103fd00020f00000006060006220f200f0f220009b
:103fe00010f0220020203400545634006452620045
:103ff00034222200484822003422f200f2545400b5
:1040000062484800344a34004656480048484a004e
:104010004a4a4a004af446004a2062000406520016
:1040200020060600e26248000406040054f206007e
:10403000060434004806080006346200b8d80400bc
:104040002048060008064600460808000636f2002a
:104050000608e8002048d8000806460064b80a00b0
:1040600006f26200080ab600f24606000a08460098
:10407000f2ba0a0006624800060a080048620a000e
:104080000ab8f2002206dc000a202000dc0c060040
:10409000202208000c0af200460a0c000648220002
:1040a000d80c0a00f2f20c000c06f20052080e00c6
:1040b0000a2234000cdeb80046349e000edc3400c8
:1040c000060c0e0008482000080e0c0064040e00c8
:1040d0000e08f200460a0e00de3406000e0e08003e
:1040e0004446dc000e0c3400060e0e00082056007c
:1040f0000a0e0e0004460e000e0a2200220c0e00cc
:104100000e5408000e0e0a004834ae000e0e0400d5
:10411000060e0e000a4a34000c0e0e0036060e0083
:104120000e0c4800560c0e000e0606000e0ebc00cb
:1041300048460c000e0e0400060e0e000c48460009
:104140000e0e0e0034240e000e0c4a00480e0e0017
:104150000ef204000e0e0c0048480e000e0e540025
:10416000040e0c000e4846000e0e0e00f4040e0065
:104170000e0e4800340e0e000e0406000e0e0e0049
:1041800048460c000e0ed600b80e0e000e48460033
:104190000e0e0e0006060e000e0e4800f60e0e0065
:1041a0000e08b8000e0e0e0048040c000e0e08009b
:1041b000080e0e000e4806000e0e0e0006080e0039
:1041c0000e0e0600060c0e000e0608000e0e0e0067
:1041d00004b60e000e0e06000a0e0e000e040600b7
:1041e0000e0e0e0008dc0e000e0e0600d60e0e009f
:1041f0000e080a000e0e0c0004060e000e0e08003b
:104200000a0e0e000c0606000e0e0e000a0a0e0024
:104210000e0c4800060e0e000e0a0a000e0e0c00d0
:1042200004060e000e0e0a00dc0e0e000c06060040
:104230000e0e0e000a0c0e000e0c4800040e0e00ae
:104240000e080a000e0e0e0026060e00040eba001e
:10425000dc0e0e000e0604000e0e0e00080a0e0004
:104260000e0c4800040e0e000e0a0a000e0e0c0082
:1042700036360e000e0eba00dc0e0e000a480400a0
:104280000e0e0e00080a0e000e0a4800040c040070
:104290000eda0a000e0e0c0048f40e00100e080094
:1042a000dc0e0e000c3422000e0e0e0006080e006e
:1042b0000e0e2200540e0e000e04ba000e0e0e005a
:1042c00054220e000e0e0600060e0e000e322200c4
:1042d0000e0e0e0008080e000e0e2000540e0e00ea
:1042e0000e04da000e0e0c0054460e000e0e0800ee
:1042f0000a0e0e000c6222000e0e0e0034080e0094
:104300000e0c5200460a0e000e04200000000000b1
:10431000f0000000000000000000000000000000ad
:1043200000000000000000000000a00000000000ed
:1043300000000000000000009c9c00000000000045
:1043400000000000009c9c000000000000940000a1
:1043500000009a008e000000009a9c0000009c0063
:104360008e8c9c0000009c009c0000009c8c8a00ad
:104370009c008c009a8cac00a09a9400949c9a00ab
:104380009c8a8c009c9c8c0002e28c009c9a04000d
:10439000a49a9a009602a0008a8e8c0092948c00b7
:1043a0008c868600f0868c0088727200760402008b
:1043b000ac9a92008886a00074948600029c9a00b1
:1043c000727484009a9ca00002868e009ca0a000bb
:1043d000a0ac9c00f0729c008c8e8c00f0989c002d
:1043e0009c9c02009c8a8c00ac8cac008c8c9e0047
:1043f0009c9a8600949aac009c8a8a009a9c8c00b5
:1044000002028c009a8e7600948c9a008802a0009a
:10441000888e8a00940296008a86a0009086960074
:1044200086a0720086760200e09684008694920050
:104430008a028400a09e9c00a09272009cacf000b6
:10444000e0a09c009c929000a09c9c0086a09c00f8
:104450008c8c9c00929c9c008e9c9a009c8a8a006a
:104460009c9cac008c8c9c009c9a7600949a9c003e
:104470008e8a88009a9c8c0074748c008e8c8600c6
:10448000748a8c0094a07200948a8800107286004e
:104490008802f000a002880086a0a0008492e000bc
:1044a0009a9cf00092a2a00090729200a09e9c00a4
:1044b000a0a0f0009c9cf000f0869a009c8cf0007c
:1044c0008a9c9a008c029c008e8cac008c9c8e0086
:1044d0002060600060f220006064220062543400ba
:1044e00062205400626434003422460022222000fc
:1044f00046f2200062345400485654006248460098
:10450000464a4a00464a4a0048484a0048484a0043
:104510004c4af2000406f200f262f20006042000a7
:10452000520606000446480004d80600322206005f
:104530000804560020040800b86246000608060079
:1045400048480600ba0648002008080004624600f1
:10455000060aaa0046f20800da0420002206da0061
:10456000086246000a0a0600482206000ada20000d
:104570003408bc0006462200080c0800f2f20a00cb
:104580000c06200054b80c000862f2000adc060099
:10459000f24808000cbc4800640a0c00d8642200f1
:1045a00008de0a0052f2dc000e08200046080e0069
:1045b0000c4658000c0e08004656da000e0c460059
:1045c000040c0e000862f2000a0e0c00f206de0077
:1045d0000eba4800200a0e000c0406000e0e0a0057
:1045e00048200a000e0e0400060e0e00da482200d3
:1045f000dc0e0e0034560e000e0a5600540c0e004f
:104600000e2606000e0ebc0048560c000e0eb6001c
:10461000060e0e000a4834000c0e0e0006060e00b0
:104620000e0c4800460e0e000e0606000e0e0c0084
:1046300048460c000e0e0400040e0e000c48340018
:104640000e0e0e0054240e000e0c4800460e0e00f6
:104650000e2204000e0c0e0048480e000e0ef20052
:10466000040e0e000e4846000e0e0e0004060e004c
:104670000e0e4800460e0e000e0406000e0e0e0032
:1046800048340e000e0e0400080e0e000e4a040000
:104690000e0e0e0006060e000e0e4800040c0e0054
:1046a0000eb806000e0e0e0058060c000e0e060088
:1046b000080e0e000e2606000e0e0e0006b80e00a6
:1046c0000e0e3600060c0e000eb80a000e0e0e007e
:1046d00006060c000e0e08000a0e0e000ef606006e
:1046e0000e0e0e00da0a0e000e0e0400060c0e006e
:1046f0000e9e0a000e0e0e0004060e000e0eda00cc
:10470000dc0e0e000a0606000e0e0e00080c0e004f
:104710000e0c0600060e04000eba0a000e0edc0097
:1047200024060e000e0e08000a0e0e000e060600ed
:104730000e0e0e00da0a0e000e0e0400060eb20077
:104740000e080a000e0e0c0056060e000e0e0a0091
:104750000a0e0e000e3606000e0e0e00da0a0e00cd
:104760000e0c4800060e0e000e080a000e0e0c007d
:1047700048040e000e0e0a000a0e0e000a4834000d
:104780000e0e0e00080a0e000e0c4800f4de0000ab
:104790000e080a000e0eda0048540c000c0eba0087
:1047a0000a0e0e000e5422000e0e0e00060a0e0017
:1047b0000e0e2200340e0e000ed80a000e0e0e0051
:1047c00022540e000e0e04000a0e0e000e6234007b
:1047d0000e0e0e00b8040e000e0e2200340e0e0057
:1047e0000e0608000e0e0c0022560e000e0ed8000b
:1047f000040e0e000e2046000e0e0e0006060e00e1
:104800000e0820002200000000220000000000002e
:104810000000000000000000000000000000000098
:10482000000000000000000000009a009800000056
:1048300000000000000000009c9c00000000000040
:1048400000000000009c9c0000000000949a000002
:1048500000a29a009aa00000009e9c000000ac00fc
:104860008c8a9c0000a09a009a8a00009c8888008c
:104870009c00ac008c8c9e009a8e8600849aac00c2
:104880009c8888009a9c8c0092748c009a8e86007a
:10489000748e9a0088729000888e8c000274960044
:1048a0008c029a008802960094a0a0009494720052
:1048b0009c9a0200940286009a749200a09c9c002c
:1048c000f002f0009eac7200029a9a009aa0720068
:1048d000729c9c0094f09a008a8c9c00929c9a0096
:1048e0009aac9a009c8888009c9c9c008c8c9c00b4
:1048f0009c8e9200868e9c009a0488009a9a8c0066
:1049000072748c008e8e9400748c8e008872f0000d
:10491000868a96007202880088020000e002860003
:1049200086f0a00092947200969cf00002109a000b
:104930009a720200f09c9c00f002a0009c9ca000d7
:1049400072929a009a9ae0008c9c9c009a029c00b9
:104950008c8cac008e9c9a009a9c9c009c960400c7
:104960008eac9c008a8a9a009c8e9400948c9a004b
:104970009a0494008e9a8a0074a088008c8a84001d
:10498000b2048a008690f0009296940072729400ad
:104990007692a0009a84740002e000001002720077
:1049a0009c9ca000027282009aa07200e09c9c0075
:1049b0009472a0009c9ca000a09a9a009a9ca200cd
:1049c0009a9a9a009c8c9c008c00f0001060f00079
:1049d000f000f000f0f0f0004820f00022f0480075
:1049e00048f0f000f048f000f048f000484820009f
:1049f00048f04800464848002046480048f2f20087
:104a0000204848002046020048220800a822f00062
:104a100020e0f000f0f0f000f0e0e0000000000026
:104a2000e00000000000000000000000e0000000c6
:104a3000e0000000d000e000e0f0f0000000000026
:104a400000f0e000f0000000f000f00000000000c6
:104a5000f000000000f00000e00000000000000096
:104a600098080a00082008000a2422000af0200002
:104a7000f208f000f000f00000000000000000006c
:104a80000000000000000000000000000000000026
:104a900000a0a000f0a00000f0a00000a0f0a00086
:104aa00000a0a00000f0a200a0e0a200a0029000e0
:104ab000f0a0a00000f0a0000090f000a0a2e00094
:104ac000a0e2860002a288009af00000a000a000e8
:104ad000f000f000f0f0f0004820f00022f0480074
:104ae00048f0f000f048f000f048f000484820009e
:104af00048f04800464848002046480048f2f20086
:104b0000204848002046020048220800a822f00061
:104b100020e0f000f0f0f000f0e0e0000000000025
:104b2000e00000000000000000000000e0000000c5
:104b3000e0000000d000e000e0f0f0000000000025
:104b400000f0e000f0000000f000f00000000000c5
:104b5000f000000000f00000e00000000000000095
:104b600098080a00082008000a2422000af0200001
:104b7000f208f000f000f00000000000000000006b
:104b80000000000000000000000000000000000025
:104b900000a0a000f0a00000f0a00000a0f0a00085
:104ba00000a0a00000f0a200a0e0a200a0029000df
:104bb000f0a0a00000f0a0000090f000a0a2e00093
:104bc000a0e2860002a288009af00000a000a000e7
:020000040000fa
:104bd000889fbe0031758100a175890080489000d2
:104be00024eb220001c1ea0077820a0002000000e3
:104bf000024a780032eb22000160a20066810a00be
:104c00000100000001497800904890008181fb007c
:104c1000e18261009b0032000318a3000a003a0001
:104c2000c3eb220093017800e281610006003200ac
:104c3000430b20005375890086da2f00f7ff2f0001
:104c40001008430050904b008180fb00e175890003
:104c5000a04890000104e000070035000308200090
:104c6000a5eb22009581610003003200c04990004d
:104c70000304a200434898008180fb00d17589009d
:104c80008048900083eb22000148a30007003a000f
:104c90001304e00005003200357581000500e000d6
:104ca000e1003a0025002000357589000158a30075
:104cb00007003a001304e0000500320065ea220014
:104cc00031758100e28f5000f4003200810ae80063
:104cd0001204e0004b00320001eb22009100e800da
:104ce000ef806000817589004c003a0031758100c9
:104cf000e28f5000bb0032000100e00055003a0096
:104d0000410b2000417589001204e000be00320012
:104d1000617581000100e00002003200c5ea220056
:104d2000810ae9008000eb00a5758100818f5200a7
:104d3000a9003200460b2000467589005575810098
:104d4000850f530040003600a5ea2200800aeb00e0
:104d5000900378006183630015c0b3000100320046
:104d600080c2eb0076eb2200054b7800c04b900030
:104d70000708a30053003a00e28f50007c00320085
:104d80000504fb00cfc4de008048900081c0ea002b
:104d90008180fb008100e900cf08de0081497800b6
:104da00030014400a0814c000288be00e00f510099
:104db000e08f59006000350020019000b0019000a4
:104dc000e00f5100e08f59000c0032001002be00cd
:104dd000840f5100858f590008003e000408a3008d
:104de0005c00320061015100e08159000288be0080
:104df000c04890006140b300414898004f04be0095
:104e0000000006001404e000b3ff3a001100200087
:104e10008175890065eb2200814a78003175810037
:104e2000e28f5000c0ff3a00a5758100e28f52006a
:104e300069003200450b20005575890046758100d8
:104e4000850f5300c0ff3e0085ea2200800aeb0078
:104e5000bfff3700e18f5000f1ff3a00450b200003
:104e6000457589001204e0007400320075758100f8
:104e70000500e000acff3200e6ea2200050be90085
:104e8000a9ff3700900090009080700001f0a7000b
:104e90008100ea008100e900cf08de000108780007
:104ea00015009800c04890003140b3004148980078
:104eb000400b2000507589004f04be000000060022
:104ec000d0ff370015c0b300054b78001800200054
:104ed00009002000e28f5000abff3a001404e0000c
:104ee0005d003a0018002000090020001204e000d4
:104ef000a5ff320061eb22001141ea00024b78006d
:104f00000204fb00cfc4de008048900081c0ea00ac
:104f10008180fb008100e900cf08de008149780034
:104f200030014400a0814c000288be00e00f510017
:104f3000e08f5900a0ff3d00610861008000eb0098
:104f400011009800c04890006140b30041489800ab
:104f500099ff370062015100e08159000288be00cc
:104f6000c04890006140b30041489800a3ff37005b
:104f70001304e00082ff32001404e00003003a0052
:104f8000e1cfb3001204e0007dff3200014b780056
:104f9000c04890000108a30044003a001604fb003a
:104fa000cfc4de008048900081c0ea008180fb0011
:104fb0008100e900cf08de0081497800300144001b
:104fc000a0814c000288be00e00f5100e08f590024
:104fd00079ff3d00d8ff3700467581005575810087
:104fe00057ff3700450b20005575890065eb2200ff
:104ff0009543780064c34300864a78008aff3b00eb
:10500000874a780088ff3700657581008500e800d1
:1050100061758900ea8f500042ff3600657589008e
:105020008000eb0040ff370066ea2200050be90034
:105030000158a30026ff3a001eff37007675810055
:105040008602e80075758900ea8f520036ff360047
:105050007675890034ff370061eb22001104fb00f4
:10506000cfc4de00084b78008048900081c0ea0081
:105070008180fb008100e900cf08de0081497800d3
:1050800030014400a0814c000288be00e00f5100b6
:10509000e08f590048ff3d00a7ff3700800aeb0072
:1050a0001204e0000cff3a0056ff370011c0b300b5
:1050b000014b78001404e0008aff3200e6ff37005d
:020000040000fa
:1050c0000400fa00889fbe008a9fbe008c9fbe002d
:1050d0006f090700804078000040eb000104e00009
:1050e0000901320000c022000048eb00c07f22000e
:1050f000c19f220001017800640040000098eb008d
:105100000090eb00e48040008098eb008090eb0082
:10511000820f5000f8ff3a006044b8005aa52a00f8
:105120006b1424000800be0083090700e11f200063
:105130008080400070f993004811dd009180fb00f1
:10514000828070008a8f5000ee003a002105200016
:105150008080400030d190004811dd009180fb003c
:10516000828070008b8f500024003200e21b2000f0
:1051700000014100a0c093000104e000e100320002
:1051800068004100324990000281fb008001eb0081
:10519000481add00c812de00850272004812dd00e8
:1051a000204190000281fb008001eb0002017200af
:1051b00083817200481add00c812de008502720089
:1051c0004812dd00104190000281fb008001eb00dd
:1051d0000201720083817200481cdd00c814de00e9
:1051e000890474004814dd001080fb008000eb008f
:1051f0000004740081847400caff3700f600400088
:10520000705190004811dd009180fb000281700018
:105210008001eb00e00f5100e08f59001f003a00c1
:105220004102200080804000706190000281fb00fc
:105230008001eb00481add00c812de008502720012
:105240004812dd00606190000281fb008001eb00ec
:105250000201720083817200481add00c812de006c
:10526000850272004812dd00506190000281fb004f
:105270008001eb000201720083817200481add0098
:10528000c812de00850272004812dd001181fb00a9
:105290008001eb00020172008381720000529000d5
:1052a0000482fb008002eb00849bb9000412b8006a
:1052b000850243006e0540006f0340001681fb002d
:1052c0004811dd009a80fb00828070000884400055
:1052d000e0844c003874890049748900f100400072
:1052e000a0539000c83bdd009180fb0087837000d5
:1052f00007748900d0489000e3e7220080c9eb00e2
:105300000104e0000700320000c1eb000241e800a8
:1053100071810a00010000000104e000fbff3a0077
:10532000824978009380fb00120020000111dd000b
:10533000d3e7220082497800f3e722008249e9009e
:10534000f3014000c0559000c85ddd001381fb00f3
:105350000b0171008001eb00e00f5100e08f59005c
:1053600025003a000b022000808545003066900041
:105370000c86fb008006eb004869dd00c861de009a
:10538000830171004861dd0082bf9f0093bf9f00d1
:10539000206690000c86fb008006eb000c06710076
:1053a0008d8671004869dd00c861de0083017100ef
:1053b0004861dd0082bf9f0093bf9f001066900090
:1053c0000c86fb008006eb000c0171008d817100e2
:1053d00082bf9f0093bf9f00481edd00c816de00fd
:1053e0008d0676004816dd001b81fb008001eb0076
:1053f00002017600838176009685fb00c85ddd00a2
:10540000443bde008003eb001a85fb000b057500b2
:105410000a015100e08159000401510085815900c1
:1054200006055100878559007086100004003b0076
:105430000c06ea000c59de008001eb000400370086
:105440000c5edd000151de00020176008159de00b4
:1054500062014100e08149001274890023748900cf
:10546000c102200080804000706d90000a85fb0022
:105470008005eb00485edd00c856de008d06760034
:105480004856dd00606d90000a85fb008005eb004a
:105490000a0576008b857600485edd00c856de0082
:1054a0008d0676004856dd00506d90000a85fb00a1
:1054b0008005eb000a0576008b857600485edd00ee
:1054c000c856de008d0676004856dd001185fb00cb
:1054d0008005eb00a0e822000a1876000b90760009
:1054e0000603440087834c00e0e8220004184300d0
:1054f00005904b0010c0b300ea0f4100e08f590047
:1055000001003e000040eb004f06be004f05be000c
:0c5510004f04be000080fa0000000600fe
:020000040000fa
:10551c00889fbe008a9fbe0010489000f3c0b30065
:10552c000038a3000100320080c1eb007102900032
:10553c0084427800e520b90026f92f0000034300cf
:10554c0047fc2f0080834300407581000000e00081
:10555c008500320082ea22000009e900f64252007e
:10556c0030758100e10f5000d5003200607581006c
:10557c0061519000282529000204e000b00032009f
:10558c0082c2b3000440bc000945290089044100d3
:10559c001100900006004000a2f92f006d000900d8
:1055ac0002587800e006b100760252001102420067
:1055bc0015000900005aeb006401b10021009000b5
:1055cc000600400045000900385878006004b1001e
:1055dc006804b10071009000e500b9008002b100d0
:1055ec002101900000004100270009003958780083
:1055fc008002b1008902b100110190008582fb008c
:10560c00e528b9000000e0000c003200e9ea2200b5
:10561c00e86c29000bcfb300124278006f056200d2
:10562c00190545000a0544000b4262001a4272003b
:10563c0004d961000000e900f7ff3a00110078007e
:10564c000500e0000c003200e9ea2200e86c2900b9
:10565c000acfb300104178006f02610019024200ba
:10566c00040244000a4161001441710002d8610037
:10567c008502e900f7ff3a0071019000615090003b
:10568c000004e00051003200e510b9001101900057
:10569c0000014100650151000049eb00110190002f
:1056ac0000014100640151000049eb001101900020
:1056bc0000014100630151000049eb001101900011
:1056cc00000141000281e9000049eb00110190004a
:1056dc00000041000000e9000048eb0011007800d8
