:020000040000fa
:04019400c81500008a
:020000040000fa
:0401bc00c815000062
:020000040000fa
:0401c000c81500005e
:020000040000fa
:0401c400c81500005a
:020000040000fa
:0401c800c815000056
:020000040000fa
:0401cc00c815000052
:020000040000fa
:0401d000c81500004e
:020000040000fa
:0401d400c81500004a
:020000040000fa
:0401d800c815000046
:020000040000fa
:04019800c815000086
:020000040000fa
:04019c00c815000082
:020000040000fa
:0401a000c81500007e
:020000040000fa
:0401a400c81500007a
:020000040000fa
:0401a800c815000076
:020000040000fa
:0401ac00c815000072
:020000040000fa
:0401b000c81500006e
:020000040000fa
:0401b400c81500006a
:020000040000fa
:0401b800c815000066
:020000040000fa
:04019000c81500008e
:020000040000fa
:0401f800c815000026
:020000040000fa
:0401fc00c815000022
:020000040000fa
:04020000c81500001d
:020000040000fa
:04020400c815000019
:020000040000fa
:04020800c815000015
:020000040000fa
:04020c00c815000011
:020000040000fa
:04021000c81500000d
:020000040000fa
:04021400c815000009
:020000040000fa
:04004000c8150000df
:020000040000fa
:04008400c81500009b
:020000040000fa
:0400b400c81500006b
:020000040000fa
:0400c800c815000057
:020000040000fa
:0400d400c81500004b
:020000040000fa
:04004400c8150000db
:020000040000fa
:04008800c815000097
:020000040000fa
:0400b800c815000067
:020000040000fa
:0400cc00c815000053
:020000040000fa
:0400d800c815000047
:020000040000fa
:0402ec00c815000031
:020000040000fa
:04021800c815000005
:020000040000fa
:0402f000c81500002d
:020000040000fa
:04021c00c815000001
:020000040000fa
:0402f400c815000029
:020000040000fa
:0402e400c815000039
:020000040000fa
:0402f800c815000025
:020000040000fa
:0402e800c815000035
:020000040000fa
:04015c00c8150000c2
:020000040000fa
:04003000c8150000ef
:020000040000fa
:04003400c8150000eb
:020000040000fa
:04015400c8150000ca
:020000040000fa
:0400f400c81500002b
:020000040000fa
:04003800c8150000e7
:020000040000fa
:04004800c8150000d7
:020000040000fa
:04007000c8150000af
:020000040000fa
:04007c00c8150000a3
:020000040000fa
:0400dc00c815000043
:020000040000fa
:04005c00c8150000c3
:020000040000fa
:04012800c8150000f6
:020000040000fa
:04012c00c8150000f2
:020000040000fa
:04011c00c815000002
:020000040000fa
:04002800c8150000f7
:020000040000fa
:04006400c8150000bb
:020000040000fa
:04007800c8150000a7
:020000040000fa
:04009000c81500008f
:020000040000fa
:0401dc00c815000042
:020000040000fa
:0401e000c81500003e
:020000040000fa
:0401e400c81500003a
:020000040000fa
:0401e800c815000036
:020000040000fa
:0401ec00c815000032
:020000040000fa
:0401f000c81500002e
:020000040000fa
:0401f400c81500002a
:020000040000fa
:04022c00c8150000f1
:020000040000fa
:04023000c8150000ed
:020000040000fa
:04023400c8150000e9
:020000040000fa
:04023800c8150000e5
:020000040000fa
:04023c00c8150000e1
:020000040000fa
:04024000c8150000dd
:020000040000fa
:04024400c8150000d9
:020000040000fa
:04024800c8150000d5
:020000040000fa
:04024c00c8150000d1
:020000040000fa
:04025000c8150000cd
:020000040000fa
:04025400c8150000c9
:020000040000fa
:04025800c8150000c5
:020000040000fa
:04025c00c8150000c1
:020000040000fa
:04026000c8150000bd
:020000040000fa
:04026400c8150000b9
:020000040000fa
:04026800c8150000b5
:020000040000fa
:04026c00c8150000b1
:020000040000fa
:04027000c8150000ad
:020000040000fa
:04027400c8150000a9
:020000040000fa
:04027800c8150000a5
:020000040000fa
:04027c00c8150000a1
:020000040000fa
:04028000c81500009d
:020000040000fa
:04028400c815000099
:020000040000fa
:04028800c815000095
:020000040000fa
:04028c00c815000091
:020000040000fa
:04029000c81500008d
:020000040000fa
:04029400c815000089
:020000040000fa
:04029800c815000085
:020000040000fa
:04029c00c815000081
:020000040000fa
:0402a000c81500007d
:020000040000fa
:0402a400c815000079
:020000040000fa
:0402a800c815000075
:020000040000fa
:0402ac00c815000071
:020000040000fa
:0402b000c81500006d
:020000040000fa
:0402b400c815000069
:020000040000fa
:0402b800c815000065
:020000040000fa
:0402bc00c815000061
:020000040000fa
:0402c000c81500005d
:020000040000fa
:0402c400c815000059
:020000040000fa
:0402c800c815000055
:020000040000fa
:0402fc00c815000021
:020000040000fa
:04030000c81500001c
:020000040000fa
:04030400c815000018
:020000040000fa
:04030800c815000014
:020000040000fa
:04030c00c815000010
:020000040000fa
:04031000c81500000c
:020000040000fa
:04031400c815000008
:020000040000fa
:04031800c815000004
:020000040000fa
:04008000c81500009f
:020000040000fa
:04008c00c815000093
:020000040000fa
:0400a400c81500007b
:020000040000fa
:0400a800c815000077
:020000040000fa
:0400ac00c815000073
:020000040000fa
:0400b000c81500006f
:020000040000fa
:0400c400c81500005b
:020000040000fa
:0400d000c81500004f
:020000040000fa
:0400e000c81500003f
:020000040000fa
:0400e400c81500003b
:020000040000fa
:04003c00c8150000e3
:020000040000fa
:0400f800c815000027
:020000040000fa
:0400fc00c815000023
:020000040000fa
:04010400c81500001a
:020000040000fa
:04013000c8150000ee
:020000040000fa
:04014400c8150000da
:020000040000fa
:04014800c8150000d6
:020000040000fa
:04014c00c8150000d2
:020000040000fa
:04015000c8150000ce
:020000040000fa
:04015800c8150000c6
:020000040000fa
:04016000c8150000be
:020000040000fa
:04016400c8150000ba
:020000040000fa
:04016800c8150000b6
:020000040000fa
:04012000c8150000fe
:020000040000fa
:04006c00c8150000b3
:020000040000fa
:0400c000c81500005f
:020000040000fa
:04006000c8150000bf
:020000040000fa
:0402cc00c815000051
:020000040000fa
:0402d000c81500004d
:020000040000fa
:0402d400c815000049
:020000040000fa
:0402d800c815000045
:020000040000fa
:0402dc00c815000041
:020000040000fa
:0402e000c81500003d
:020000040000fa
:04017000c8150000ae
:020000040000fa
:04017400c8150000aa
:020000040000fa
:04017800c8150000a6
:020000040000fa
:04017c00c8150000a2
:020000040000fa
:04012400c8150000fa
:020000040000fa
:04016c00c8150000b2
:020000040000fa
:04013400c8150000ea
:020000040000fa
:04013800c8150000e6
:020000040000fa
:04013c00c8150000e2
:020000040000fa
:04014000c8150000de
:020000040000fa
:0400e800c815000037
:020000040000fa
:04010000c81500001e
:020000040000fa
:04001c00c815000003
:020000040000fa
:04002400c8150000fb
:020000040000fa
:04018400c81500009a
:020000040000fa
:04018000c81500009e
:020000040000fa
:04018c00c815000092
:020000040000fa
:04018800c815000096
:020000040000fa
:04006800c8150000b7
:020000040000fa
:0400bc00c815000063
:020000040000fa
:04022000c8150000fd
:020000040000fa
:04004c00c8150000d3
:020000040000fa
:04005000c8150000cf
:020000040000fa
:04022400c8150000f9
:020000040000fa
:04009c00c815000083
:020000040000fa
:0400a000c81500007f
:020000040000fa
:04022800c8150000f5
:020000040000fa
:04011400c81500000a
:020000040000fa
:04011800c815000006
:020000040000fa
:04002c00c8150000f3
:020000040000fa
:0400ec00c815000033
:020000040000fa
:04031c00c815000000
:020000040000fa
:04005400c8150000cb
:020000040000fa
:04005800c8150000c7
:020000040000fa
:0400f000c81500002f
:020000040000fa
:04032000c8150000fc
:020000040000fa
:04009400c81500008b
:020000040000fa
:04009800c815000087
:020000040000fa
:04010800c815000016
:020000040000fa
:04032400c8150000f8
:020000040000fa
:04010c00c815000012
:020000040000fa
:04011000c81500000e
:020000040000fa
:080000000002040000000000f2
:020000040000fa
:10040000cfed22000eff22000e0188004197200050
:100410000100e0000200320001202000910188006c
:10042000000020000000e000020032000000020096
:100430000000000054290200000000000040da0023
:100440000000fe00000000000000000000000000ae
:10045000000000000000000000000000000000009c
:10046000000000000000000000000000000000008c
:10047000000000000000000000000000000000007c
:10048000000000000000000000000000000000006c
:100c9000000000003600f800809fbe00829fbe006a
:100ca000849fbe00869fbe00c508ab0007003a00c7
:100cb000c488ab0001003a00ffff3700c488a900d8
:100cc000a0002000a50a0700fbff3700c508a90007
:100cd000c0002000a10a0700f5ff37003600f80029
:100ce000809fbe00829fbe00849fbe00869fbe0084
:100cf000c608a90070002000980a07004f03be0034
:100d00004f02be004f01be004f00be003600f9008a
:100d1000004006003600f800809fbe00829fbe00a3
:100d2000849fbe00869fbe00c088a90030002000be
:100d30008a0a07004f03be004f02be004f01be00eb
:100d40004f00be003600f900004006003600f800f3
:100d5000809fbe00829fbe00849fbe00869fbe0013
:100d6000c068a900200020007c0a07004f03be00d5
:100d70004f02be004f01be004f00be003600f9001a
:100d8000004006003600f800809fbe00829fbe0033
:100d9000849fbe00869fbe00c048a90010002000ae
:100da0006e0a07004f03be004f02be004f01be0097
:100db0004f00be003600f900004006003600f80083
:100dc000809fbe00829fbe00849fbe00869fbe00a3
:100dd000c028a9000000eb00600a07004f03be0016
:100de0004f02be004f01be004f00be003600f900aa
:100df00000400600c0c0ab0007003a00e071800070
:100e0000f01fb2000000400001dd2b000080400018
:100e100010007800000401004e2eef000268a900c7
:100e200000400600e0718000f01fb20011728100e6
:100e3000800878004e2eef000268a90000400600ee
:100e4000f8ff370080072000107188004e2eef0059
:100e50000268a90000400600f2ff3700800d200064
:100e6000107188004e2eef000268a90000400600b5
:100e7000ecff3700200a2000107188004e2eef0092
:100e80000268a90000400600e6ff3700f00f2000ce
:100e9000107188004e2eef000268a9000040060085
:100ea000e0ff3700a0092000107188004e2eef00ef
:100eb0000268a90000400600daff3700900a20000f
:100ec000107188004e2eef000268a9000040060055
:100ed000d4ff3700222eef004e2eef000268a9004b
:100ee00000400600cfff3700500920001071880035
:100ef0004e2eef000268a90000400600c9ff37002f
:100f0000222eef004e2eef000268a90000400600de
:100f1000c4ff3700a00c2000107188004e2eef0097
:100f20000268a90000400600beff3700000d200047
:100f3000107188004e2eef000268a90000400600e4
:100f4000b8ff3700b00f2000107188004e2eef0060
:100f50000268a90000400600b2ff3700900a200096
:100f6000107188004e2eef000268a90000400600b4
:100f7000acff370010002000107188004e2eef00eb
:100f80000268a90000400600a6ff370050082000b4
:100f9000107188004e2eef000268a9000040060084
:100fa000a0ff370060022000107188004e2eef0075
:100fb0000268a900004006009aff3700900a20004e
:100fc000107188004e2eef000268a9000040060054
:100fd00094ff3700f00c2000107188004e2eef00b7
:100fe0000268a900004006008eff3700500820006c
:100ff000107188004e2eef000268a9000040060024
:1010000088ff3700d0002000107188004e2eef00be
:101010000268a9000040060082ff3700900a200005
:10102000107188004e2eef000268a90000400600f3
:101030007cff370030032000107188004e2eef0037
:101040000268a9000040060076ff37005008200023
:10105000107188004e2eef000268a90000400600c3
:1010600070ff3700e0002000107188004e2eef0066
:101070000268a900004006006aff3700900a2000bd
:10108000107188004e2eef000268a9000040060093
:1010900064ff3700c00c2000107188004e2eef0056
:1010a0000268a900004006005eff370050082000db
:1010b000107188004e2eef000268a9000040060063
:1010c00058ff3700f0002000107188004e2eef000e
:1010d0000268a9000040060052ff3700200a2000e5
:1010e000107188004e2eef000268a9000040060033
:1010f0004cff370000032000107188004e2eef00d7
:101100000268a9000040060046ff37005008200092
:10111000107188004e2eef000268a9000040060002
:1011200040ff370000012000107188004e2eef00b4
:101130000268a900004006003aff3700a00e200018
:10114000107188004e2eef000268a90000400600d2
:1011500034ff370050082000107188004e2eef0039
:101160000268a900004006002eff37001001200091
:10117000107188004e2eef000268a90000400600a2
:1011800028ff3700900a2000107188004e2eef00d3
:101190000268a9000040060022ff3700600020001e
:1011a000107188004e2eef000268a9000040060072
:1011b0001cff370050082000107188004e2eef00f1
:1011c0000268a9000040060016ff3700400020001a
:1011d000107188004e2eef000268a9000040060042
:1011e00010ff3700900a2000107188004e2eef008b
:1011f0000268a900004006000aff37002000200016
:10120000107188004e2eef000268a9000040060011
:1012100004ff370050082000107188004e2eef00a8
:101220000268a90000400600fefe370050002000c2
:10123000107188004e2eef000268a90000400600e1
:10124000f8fe370060082000107188004e2eef0075
:101250000268a90000400600f2fe370000022000ec
:10126000107188004e2eef000268a90000400600b1
:10127000ecfe3700900a2000107188004e2eef001f
:101280000268a90000400600e6fe370000022000c8
:10129000107188004e2eef000268a9000040060081
:1012a000e0fe370050082000107188004e2eef003d
:1012b0000268a90000400600dafe37001002200094
:1012c000107188004e2eef000268a9000040060051
:1012d000d4fe370050082000107188004e2eef0019
:1012e0000268a90000400600cefe37002000200062
:1012f000107188004e2eef000268a9000040060021
:10130000c8fe370050082000107188004e2eef00f4
:101310000268a90000400600c2fe3700a0022000bb
:10132000107188004e2eef000268a90000400600f0
:10133000bcfe3700200a2000107188004e2eef00fe
:101340000268a90000400600b6fe3700c000200079
:10135000107188004e2eef000268a90000400600c0
:10136000b0fe3700a00c2000107188004e2eef0058
:101370000268a90000400600aafe3700000d200008
:10138000107188004e2eef000268a9000040060090
:10139000a4fe3700d00f2000107188004e2eef0001
:1013a0000268a900004006009efe37005008200099
:1013b000107188004e2eef000268a9000040060060
:1013c00098fe3700b0022000107188004e2eef000a
:1013d0000268a9000040060092fe3700a00e20001f
:1013e000107188004e2eef000268a9000040060030
:1013f0008cfe3700a00e2000107188004e2eef00ea
:101400000268a9000040060086fe3700900a20000e
:1014100010718800e0728100104090000080fb0095
:10142000907289004e2eef000268a900004006006d
:101430007cfe370090728100107188004e2eef0004
:101440000268a9000040060076fe37005008200020
:10145000107188004e2eef000268a90000400600bf
:1014600070fe3700c0012000107188004e2eef0082
:101470000268a900004006006afe370050082000fc
:10148000107188004e2eef000268a900004006008f
:1014900064fe3700a0022000107188004e2eef007d
:1014a0000268a900004006005efe3700900a200096
:1014b0001071880040e522001004e0006005320051
:1014c000b0728100907289004e2eef000268a90070
:1014d0000040060053fe37009172810011718800b0
:1014e00040e522000048eb004e2eef000268a90004
:1014f000004006004bfe3700200a200010718800d3
:10150000e0728100404090000080fb0090728900f2
:101510004e2eef000268a9000040060041fe370091
:1015200090728100107188004e2eef000268a900b1
:10153000004006003bfe3700500820001071880074
:101540004e2eef000268a9000040060035fe37006d
:1015500090012000107188004e2eef000268a90053
:10156000004006002ffe3700000a2000107188009e
:10157000d0728100404090000080fb009072890092
:101580004e2eef000268a9000040060025fe37003d
:1015900091728100117188004e2eef000268a9003f
:1015a000004006001ffe3700900a200010718800de
:1015b000d0728100104090000080fb009072890082
:1015c0004e2eef000268a9000040060015fe37000d
:1015d00090728100107188004e2eef000268a90001
:1015e000004006000ffe37005008200010718800f0
:1015f0004e2eef000268a9000040060009fe3700e9
:1016000070002000107188004e2eef000268a900c3
:101610000040060003fe3700900a20001071880089
:10162000e07281001080fb00907289004e2eef0066
:101630000268a90000400600fafd3700917281009f
:10164000117188004e2eef000268a90000400600cc
:10165000f4fd370050082000107188004e2eef0076
:101660000268a90000400600eefd3700b00120002e
:10167000107188004e2eef000268a900004006009d
:10168000e8fd3700900a200010718800d0728100b8
:101690001080fb00907289004e2eef000268a900b6
:1016a00000400600dffd3700907281001071880055
:1016b0004e2eef000268a90000400600d9fd370059
:1016c00050082000107188004e2eef000268a9001b
:1016d00000400600d3fd3700600020001071880034
:1016e0004e2eef000268a90000400600cdfd370035
:1016f000900a200010718800e07281003040900054
:101700000080fb00907289004e2eef000268a90055
:1017100000400600c3fd37009172810011718800fe
:101720004e2eef000268a90000400600bdfd370004
:1017300050082000107188004e2eef000268a900aa
:1017400000400600b7fd3700c0012000107188007e
:101750004e2eef000268a90000400600b1fd3700e0
:10176000900a200010718800c07281009080fb00f8
:101770009172890081e522008008e8004e2eef007a
:101780000268a90000400600a6fd370090728100a3
:10179000107188004e2eef000268a900004006007c
:1017a000a0fd370050082000107188004e2eef0079
:1017b0000268a900004006009afd37009000200052
:1017c000107188004e2eef000268a900004006004c
:1017d00094fd3700900a200010718800d0728100bb
:1017e000204090000080fb00907289004e2eef0098
:1017f0000268a900004006008afd3700917281004e
:10180000117188004e2eef000268a900004006000a
:1018100084fd370050082000107188004e2eef0024
:101820000268a900004006007efd3700600020002d
:10183000107188004e2eef000268a90000400600db
:1018400078fd3700900a200010718800e072810056
:10185000204090000080fb00907289004e2eef0027
:101860000268a900004006006efd370090728100fa
:10187000107188004e2eef000268a900004006009b
:1018800068fd370050082000107188004e2eef00d0
:101890000268a9000040060062fd3700b001200088
:1018a000107188004e2eef000268a900004006006b
:1018b0005cfd3700900a200010718800d072810012
:1018c000304090000080fb00907289004e2eef00a7
:1018d0000268a9000040060052fd370091728100a5
:1018e000117188004e2eef000268a900004006002a
:1018f0004cfd370050082000107188004e2eef007c
:101900000268a9000040060046fd37007000200074
:10191000107188004e2eef000268a90000400600fa
:1019200040fd370060082000107188004e2eef0047
:101930000268a900004006003afd3700b00120000f
:10194000107188004e2eef000268a90000400600ca
:1019500034fd370040082000107188004e2eef0043
:101960000268a900004006002efd3700600020003c
:10197000107188004e2eef000268a900004006009a
:1019800028fd3700900a2000107188004e2eef00cd
:101990000268a9000040060022fd3700222eef0059
:1019a0004e2eef000268a900004006001dfd370022
:1019b00050082000107188004e2eef000268a90028
:1019c0000040060017fd37009000200010718800cd
:1019d0004e2eef000268a9000040060011fd3700fe
:1019e00050082000107188004e2eef000268a900f8
:1019f000004006000bfd3700b00220001071880087
:101a00004e2eef000268a9000040060005fd3700d9
:101a1000900a2000107188004e2eef000268a90085
:101a200000400600fffc3700222eef004e2eef0094
:101a30000268a90000400600fafc3700900a200066
:101a400010718800e0728100604090000080fb000f
:101a5000907289004e2eef000268a9000040060037
:101a6000f0fc370090728100107188004e2eef005c
:101a70000268a90000400600eafc37005008200078
:101a8000107188004e2eef000268a9000040060089
:101a9000e4fc3700a0022000107188004e2eef00f9
:101aa0000268a90000400600defc37005008200054
:101ab000107188004e2eef000268a9000040060059
:101ac000d8fc3700c0012000107188004e2eef00b6
:101ad0000268a90000400600d2fc3700900a2000ee
:101ae00010718800d0728100604090000080fb007f
:101af000907289004e2eef000268a9000040060097
:101b0000c8fc370091728100117188004e2eef00e1
:101b10000268a90000400600c2fc370050082000ff
:101b2000107188004e2eef000268a90000400600e8
:101b3000bcfc370070002000107188004e2eef00b2
:101b40000268a90000400600b6fc3700900a200099
:101b500010718800f07281009080fb009172890002
:101b6000e1e522008008e8004e2eef000268a9009f
:101b700000400600abfc37009072810010718800b5
:101b80004e2eef000268a90000400600a5fc3700b9
:101b900050082000107188004e2eef000268a90046
:101ba000004006009ffc3700900120001071880063
:101bb0004e2eef000268a9000040060099fc370095
:101bc000200a200010718800e07281001048900007
:101bd0000080fb00907289004e2eef000268a90081
:101be000004006008ffc370091728100117188005f
:101bf0004e2eef000268a9000040060089fc370065
:101c0000000a200010718800d072810010489000f6
:101c10000080fb00907289004e2eef000268a90040
:101c2000004006007ffc3700907281001071880030
:101c30004e2eef000268a9000040060079fc370034
:101c4000900a200010718800e072810050409000de
:101c50000080fb00907289004e2eef000268a90000
:101c6000004006006ffc37009172810011718800fe
:101c70004e2eef000268a9000040060069fc370004
:101c800050082000107188004e2eef000268a90055
:101c90000040060063fc3700b0012000107188008e
:101ca0004e2eef000268a900004006005dfc3700e0
:101cb000900a200010718800d0728100504090007e
:101cc0000080fb00907289004e2eef000268a90090
:101cd0000040060053fc37009072810010718800ac
:101ce0004e2eef000268a900004006004dfc3700b0
:101cf00050082000107188004e2eef000268a900e5
:101d00000040060047fc370060002000107188008a
:101d10004e2eef000268a9000040060041fc37008b
:101d2000900a200010718800e07281000048900045
:101d30000080fb00907289004e2eef000268a9001f
:101d40000040060037fc3700917281001171880055
:101d50004e2eef000268a9000040060031fc37005b
:101d600050082000107188004e2eef000268a90074
:101d7000004006002bfc3700c001200010718800d5
:101d80004e2eef000268a9000040060025fc370037
:101d9000900a200010718800c07281009080fb00c2
:101da0009172890081e522008008e8004e2eef0044
:101db0000268a900004006001afc370090728100fa
:101dc000107188004e2eef000268a9000040060046
:101dd00014fc370050082000107188004e2eef00d0
:101de0000268a900004006000efc370080002000b9
:101df000107188004e2eef000268a9000040060016
:101e000008fc3700900a200010718800d072810011
:101e1000704090000080fb00907289004e2eef0011
:101e20000268a90000400600fefb370091728100a5
:101e3000117188004e2eef000268a90000400600d4
:101e4000f8fb370050082000107188004e2eef007c
:101e50000268a90000400600f2fb37006000200085
:101e6000107188004e2eef000268a90000400600a5
:101e7000ecfb3700900a200010718800e0728100ae
:101e8000704090000080fb00907289004e2eef00a1
:101e90000268a90000400600e2fb37009072810052
:101ea000107188004e2eef000268a9000040060065
:101eb000dcfb370050082000107188004e2eef0028
:101ec0000268a90000400600d6fb3700b0012000e0
:101ed000107188004e2eef000268a9000040060035
:101ee000d0fb3700900a200010718800d07281006a
:101ef000004890000080fb00907289004e2eef0099
:101f00000268a90000400600c6fb370091728100fc
:101f1000117188004e2eef000268a90000400600f3
:101f2000c0fb370050082000107188004e2eef00d3
:101f30000268a90000400600bafb370070002000cc
:101f4000107188004e2eef000268a90000400600c4
:101f5000b4fb370060082000107188004e2eef009f
:101f60000268a90000400600aefb3700b001200067
:101f7000107188004e2eef000268a9000040060094
:101f8000a8fb370040082000107188004e2eef009b
:101f90000268a90000400600a2fb37006000200094
:101fa000107188004e2eef000268a9000040060064
:101fb0009cfb3700900a2000107188004e2eef0025
:101fc0000268a9000040060096fb3700222eef00b1
:101fd0004e2eef000268a9000040060091fb37007a
:101fe00050082000107188004e2eef000268a900f2
:101ff000004006008bfb3700800020001071880035
:102000004e2eef000268a9000040060085fb370055
:10201000900a2000107188004e2eef000268a9007f
:10202000004006007ffb3700000820001071880088
:1020300060e422001088e9004e2eef000268a9003b
:102040000040060077fb3700500820001071880020
:10205000307281000000e00070023a00700b200036
:1020600080728900e0e622001004e00080023a005d
:10207000207381003072890040082000507289006e
:102080004e2eef000268a9000040060065fb3700f5
:1020900000022000107188004e2eef000268a90097
:1020a000004006005ffb37005008200010718800d8
:1020b0004e2eef000268a9000040060059fb3700d1
:1020c00010022000107188004e2eef000268a90057
:1020d0000040060053fb3700c00420001071880048
:1020e0004e2eef000268a900004006004dfb3700ad
:1020f00080728100107188004e2eef000268a900e6
:102100000040060047fb3700f00f200010718800e8
:102110004e2eef000268a9000040060041fb370088
:10212000000a2000107188004e2eef000268a900fe
:10213000004006003bfb37002000200010718800a3
:102140004e2eef000268a9000040060035fb370064
:10215000200a2000107188004e2eef000268a900ae
:10216000004006002ffb3700222eef004e2eef001e
:102170000268a900004006002afb37006172810056
:10218000117188004e2eef000268a9000040060081
:1021900024fb3700222eef004e2eef000268a9002c
:1021a000004006001ffb370050728100107188004c
:1021b0004e2eef000268a9000040060019fb370010
:1021c00010002000107188004e2eef000268a90058
:1021d0000040060013fb3700900a200010718800b1
:1021e000f07281009080fb0091728900e1e522008d
:1021f0008008e8004e2eef000268a90000400600ab
:1022000008fb370091728100117188004e2eef009b
:102210000268a9000040060002fb370050082000b9
:10222000107188004e2eef000268a90000400600e1
:10223000fcfa370090012000107188004e2eef004c
:102240000268a90000400600f6fa3700e00a200004
:10225000107188004e2eef000268a90000400600b1
:10226000f0fa370000082000107188004e2eef00b1
:102270000268a90000400600eafa370020002000aa
:10228000107188004e2eef000268a9000040060081
:10229000e4fa3700d0092000107188004e2eef00bc
:1022a0000268a90000400600defa3700222eef0087
:1022b0004e2eef000268a90000400600d9fa370050
:1022c000e00f20001071880040e0220010728900a9
:1022d0004e2eef000268a90000400600d1fa370038
:1022e000e00a2000107188004e2eef000268a9005d
:1022f00000400600cbfa370020082000107188004b
:102300004e2eef000268a90000400600c5fa370013
:1023100020002000107188004e2eef000268a900f6
:1023200000400600bffa3700d00920001071880075
:102330004e2eef000268a90000400600b9fa3700ef
:10234000222eef004e2eef000268a900004006008a
:10235000b4fa3700e00f20001071880060e022001e
:10236000107289004e2eef000268a900004006009e
:10237000acfa3700600a2000107188004e2eef0082
:102380000268a90000400600a6fa3700c00020003d
:10239000107188004e2eef000268a9000040060070
:1023a000a0fa3700d0092000107188004e2eef00ef
:1023b0000268a900004006009afa3700222eef00ba
:1023c0004e2eef000268a9000040060095fa370083
:1023d000e00f20001071880080e022001072890058
:1023e0004e2eef000268a900004006008dfa37006b
:1023f000600a2000107188004e2eef000268a900cc
:102400000040060087fa3700d000200010718800d5
:102410004e2eef000268a9000040060081fa370046
:10242000d0092000107188004e2eef000268a9002c
:10243000004006007bfa3700222eef004e2eef0000
:102440000268a9000040060076fa3700e00f20007d
:1024500010718800a0e02200107289004e2eef005b
:102460000268a900004006006efa3700200a20002a
:102470001071880061e422001100e90030728900c7
:102480005a013a0070728100e10f50009801320049
:102490007d013100062ea800100020007072890016
:1024a000007381003072890040082000607289004a
:1024b0004e2eef000268a9000040060059fa3700ce
:1024c000222eef0070728100e30f50001e013200d7
:1024d0004e2eef000268a9000040060051fa3700b6
:1024e000a00e20001071880070728100e30f500070
:1024f000ec0032004e2eef000268a90000400600fa
:1025000048fa3700a00e2000107188007072810018
:10251000e30f5000020132004e2eef000268a900c6
:10252000004006003ffa3700a00e2000107188001e
:1025300070728100e30f5000e40032004e2eef0075
:102540000268a9000040060036fa3700a00e2000fd
:102550001071880070728100e30f50001901320081
:102560004e2eef000268a900004006002dfa370049
:10257000a00e20001071880070728100e30f5000df
:10258000ff0032004e2eef000268a9000040060056
:1025900024fa3700a00e20001071880070728100ac
:1025a000e30f5000ff0032004e2eef000268a9003a
:1025b000004006001bfa3700a00e200010718800b2
:1025c0004e2eef000268a9000040060015fa370001
:1025d000222eef004e2eef000268a90000400600f8
:1025e00010fa3700222eef004e2eef000268a900ed
:1025f000004006000bfa3700222eef004e2eef00af
:102600000268a9000040060006fa3700222eef00fb
:102610004e2eef000268a9000040060001fa3700c4
:10262000222eef004e2eef000268a90000400600a7
:10263000fcf93700222eef004e2eef000268a900b1
:1026400000400600f7f93700222eef004e2eef0073
:102650000268a90000400600f2f93700222eef00c0
:102660004e2eef000268a90000400600edf9370089
:10267000222eef004e2eef000268a9000040060057
:10268000e8f93700222eef004e2eef000268a90075
:1026900000400600e3f93700207281000000e000ee
:1026a000da003200010f20001171880041e422009d
:1026b0008008e9004e2eef000268a90000400600e5
:1026c000d8f93700f00f2000107188004e2eef006f
:1026d0000268a90000400600d2f93700207281008c
:1026e0000000e000c5003200010f200011718800d9
:1026f00041e422008008e9004e2eef000268a900a4
:1027000000400600c7f93700f00f20001071880064
:102710004e2eef000268a90000400600c1f9370004
:10272000207281000000e000cd003200010f200087
:102730001171880041e422008008e9004e2eef006c
:102740000268a90000400600b6f93700f00f20002b
:10275000107188004e2eef000268a90000400600ac
:10276000b0f9370081728100117188004e2eef00a0
:102770000268a90000400600aaf93700f00f200007
:10278000107188004e2eef000268a900004006007c
:10279000a4f93700222eef004e2eef000268a900a8
:1027a000004006009ff93700222eef004e2eef006a
:1027b0000268a900004006009af93700222eef00b7
:1027c0004e2eef000268a9000040060095f9370080
:1027d000222eef004e2eef000268a90000400600f6
:1027e00090f93700222eef004e2eef000268a9006c
:1027f000004006008bf93700222eef004e2eef002e
:102800000268a9000040060086f93700222eef007a
:102810004e2eef000268a9000040060081f9370043
:1028200050728100107188004e2eef000268a900de
:10283000004006007bf9370010002000107188006e
:102840004e2eef000268a9000040060075f937001f
:10285000c0042000107188004e2eef000268a9000d
:10286000004006006ff93700a00e200010718800ac
:102870004e2eef000268a9000040060069f93700fb
:10288000607281001071880070728100e30f500047
:10289000180032004e2eef000268a900004006002a
:1028a00060f9370030e022001004e00082003a00b6
:1028b00040718100d072890031718100c17289003c
:1028c0004e2eef000268a9000cff370030e0220016
:1028d0001004e0009a003a00a07181003073890072
:1028e00091718100217389004e2eef000268a900ca
:1028f00014ff37003173810031728900e0e4220057
:102900000008eb0011c0b30020e02200014878006d
:10291000062ea9004e2eef000268a900dfff370047
:1029200030e022001004e0006a003a00607181008b
:10293000f072890051718100e17289004e2eef0022
:102940000268a900f6fe3700e0e622001004e0006d
:10295000dffe3200f07281009080fb00b1728900ce
:10296000e1e522008008e80011c0b30040e5220044
:10297000014878004e2eef000268a900d6fe37000d
:1029800030e022001004e00074003a00c1e32200ad
:10299000e0e62200114878004e2eef000268a90000
:1029a000fafe370030e022009080fb008100e90051
:1029b000cf08de00014878004e2eef000268a90023
:1029c000fbfe370030e022001004e00055003a0022
:1029d0007071810000738900817181001173890019
:1029e0004e2eef000268a900dffe37004e2eef00ea
:1029f0000268a900004006000af93700222eef0005
:102a00004e2eef000268a9003dff3700222eef0096
:102a10004e2eef000268a90028ff3700c0e5220013
:102a2000900078006a884000a0e5220090007800bd
:102a30006a8840004e2eef000268a90092fd370020
:102a4000f17281001180fb00e2e522000109e8003b
:102a5000907289004e2eef000268a9009cfa3700a0
:102a6000222eef004e2eef000268a90035ff37003e
:102a700041e6220060e422001108e900400820003d
:102a8000507289007efd3700e20f5000d7ff3a00f8
:102a900030002000707289006008200050728900a8
:102aa000e0032000807289004e2eef000268a9002a
:102ab00000400600dbf8370070708100d07289009a
:102ac00061708100c17289004e2eef000268a9007a
:102ad0008afe370090708100f07289008170810059
:102ae000e17289004e2eef000268a9008cfe3700cb
:102af0002000200070728900e0e622001004e0004f
:102b00001c003a0020e622009008e800600820003f
:102b1000607289004e2eef000268a9000040060096
:102b2000c0f83700a070810000738900b170810087
:102b3000117389004e2eef000268a9008afe37004b
:102b4000d070810030738900c170810021738900c9
:102b50004e2eef000268a9007afe370021e2220023
:102b6000e0e62200114878004e2eef000268a9002e
:102b700086fe3700117381003172890060082000e1
:102b8000607289004e2eef000268a900e3ff370053
:102b90000040da000000fe000000050001003700e0
:102ba0000201e9000200e000050032003042780036
:102bb000b1417800834f5200f9ff32000100370025
:102bc000000005000480fb008381fb00030050002f
:102bd00000000600889fbe0031758100a175890044
:102be0008048900024eb220001c1ea0077820a00ad
:102bf00002000000024a780032eb22000160a200cd
:102c000066810a00010000000149780090489000a8
:102c10008181fb00e18261009b0032000318a30068
:102c20000a003a00c3eb220093017800e2816100c0
:102c300006003200430b20005375890086da2f000e
:102c4000f7ff2f001008430050904b008180fb00dd
:102c5000e1758900a04890000104e00007003500fc
:102c600003082000a5eb22009581610003003200db
:102c7000c04990000304a200434898008180fb00f3
:102c8000d17589008048900083eb22000148a300a1
:102c900007003a001304e00005003200357581009a
:102ca0000500e000e1003a002500200035758900ac
:102cb0000158a30007003a001304e00005003200a9
:102cc00065ea220031758100e28f5000f400320085
:102cd000810ae8001204e0004b00320001eb220000
:102ce0009100e800ef806000817589004c003a0097
:102cf00031758100e28f5000bb0032000100e0001e
:102d000055003a00410b2000417589001204e00093
:102d1000be003200617581000100e0000200320057
:102d2000c5ea2200810ae9008000eb00a575810058
:102d3000818f5200a9003200460b200046758900a1
:102d400055758100850f530040003600a5ea22002a
:102d5000800aeb00900378006183630015c0b30024
:102d60000100320080c2eb0076eb2200054b7800b8
:102d7000c04b90000708a30053003a00e28f5000b8
:102d80007c0032000504fb00cfc4de0080489000c8
:102d900081c0ea008180fb008100e900cf08de00ed
:102da0008149780030014400a0814c000288be00b7
:102db000e00f5100e08f59006000350020019000c5
:102dc000b0019000e00f5100e08f59000c0032007c
:102dd0001002be00840f5100858f590008003e008c
:102de0000408a3005c00320061015100e081590039
:102df0000288be00c04890006140b300414898007e
:102e00004f04be00000006001404e000b3ff3a00c7
:102e1000110020008175890065eb2200814a78004d
:102e200031758100e28f5000c0ff3a00a575810026
:102e3000e28f520069003200450b20005575890071
:102e400046758100850f5300c0ff3e0085ea2200d1
:102e5000800aeb00bfff3700e18f5000f1ff3a001e
:102e6000450b2000457589001204e0007400320013
:102e7000757581000500e000acff3200e6ea220033
:102e8000050be900a9ff37009000900090807000ca
:102e900001f0a7008100ea008100e900cf08de0010
:102ea0000108780015009800c04890003140b30038
:102eb00041489800400b2000507589004f04be0027
:102ec00000000600d0ff370015c0b300054b7800a6
:102ed0001800200009002000e28f5000abff3a00ec
:102ee0001404e0005d003a001800200009002000f2
:102ef0001204e000a5ff320061eb22001141ea005c
:102f0000024b78000204fb00cfc4de008048900032
:102f100081c0ea008180fb008100e900cf08de006b
:102f20008149780030014400a0814c000288be0035
:102f3000e00f5100e08f5900a0ff3d0061086100e3
:102f40008000eb0011009800c04890006140b30081
:102f50004148980099ff370062015100e081590013
:102f60000288be00c04890006140b300414898000c
:102f7000a3ff37001304e00082ff32001404e000d6
:102f800003003a00e1cfb3001204e0007dff3200fd
:102f9000014b7800c04890000108a30044003a00ab
:102fa0001604fb00cfc4de008048900081c0ea0018
:102fb0008180fb008100e900cf08de0081497800b4
:102fc00030014400a0814c000288be00e00f510097
:102fd000e08f590079ff3d00d8ff3700467581002a
:102fe0005575810057ff3700450b20005575890046
:102ff00065eb22009543780064c34300864a78005d
:103000008aff3b00874a780088ff3700657581009a
:103010008500e80061758900ea8f500042ff3600a4
:10302000657589008000eb0040ff370066ea2200ea
:10303000050be9000158a30026ff3a001eff3700e8
:10304000767581008602e80075758900ea8f520066
:1030500036ff36007675890034ff370061eb2200b9
:103060001104fb00cfc4de00084b780080489000bc
:1030700081c0ea008180fb008100e900cf08de000a
:103080008149780030014400a0814c000288be00d4
:10309000e00f5100e08f590048ff3d00a7ff3700c7
:1030a000800aeb001204e0000cff3a0056ff3700e4
:1030b00011c0b300014b78001404e0008aff320015
:1030c000e6ff3700c0089000414190000204e00094
:1030d00024003500320020004200980052022000f7
:1030e00052009800e201200062009800020c2000cb
:1030f0007200980061419000610161008241780096
:103100006250980062102000120898006781400009
:1031100032009800d110b00021009800023c20003d
:103120000101410002089800c13fb0001100980061
:10313000023c20000288400092182000410020003c
:103140000304e000010032001008e80021089800a4
:103150000200e000020032008100e800210898002f
:1031600000000600914b90008783fb004700980009
:10317000a14a90008582fb0055009800314b9000d9
:103180000683fb0066009800414a90000482fb0021
:103190007400980001499000610161000200a200e2
:1031a0008241780062509800878242008682420005
:1031b0008482420015089800ee804000310098009b
:1031c0008580400021009800e521b9008280400000
:1031d000110098008280400001087800848040003f
:1031e00001089800eb21b900a204b00005014100dc
:1031f000c910de00f21fb200d1ff37004009900075
:103200003300200043009800530220005300980030
:10321000e3012000630098006150980002089800c4
:1032200022009800234e2000030141001200980064
:103230000301410002087800a30f200082814100b1
:10324000330098000104e000010032000208e800a9
:10325000010c2000710098006110200011089800f6
:103260008000eb002108980000000600200a2000e2
:1032700000068800c000200010068800000025001d
:10328000200688002080200040068800ca20ef0029
:10329000c1e0a800000006000000060000000600d3
:1032a0000f88ab0001003a0000000600faff07009b
:1032b0000f88a900000006001628ab0001003a00a4
:1032c00000000600f5ff07001628a9000000060010
:1032d00066a00a00c00000000000060000002700f1
:1032e0004828b7000000060010002300307c88004a
:1032f00040062000407c88008c2fef001002200048
:10330000507c8800b82fef00ba2fef00be2fef00df
:10331000002def00a02fef00a42fef00a62fef004d
:10332000a82fef00aa2fef00ae2fef00b02fef0075
:10333000b22fef0010002000a2092000810720001a
:1033400053f820008149780082497800804978004c
:10335000720520006104200043f8200081497800b4
:103360008249780080497800840fab00feff3a0064
:1033700084afab00feff320000000600062eef0017
:10338000222eef003e2eef005a2eef00022eef000d
:1033900000f02f00f0708800f1ff2300d171880049
:1033a00001502000b17288000c2eef00282eef0093
:1033b000442eef00602eef000a2eef0030718800df
:1033c00000f02200107288005e2eef00082eef0041
:1033d000242eef00402eef005c2eef00002eef00b9
:1033e0001c2eef00382eef00542eef000000eb00f3
:1033f00052052000b2468800a20a2000b24688008a
:1034000000688800b0c3b3005fedb700c0c3b3006d
:1034100060edb70080c4b3002dedb700f20f2c00b3
:10342000f06c8000800161000060200003007000eb
:10343000f06c880000fc2f009e0db6008002b300e7
:10344000f06c8800006d8000000161000281700056
:10345000026d8800a0c4b3002cedb70000802000ee
:1034600051052000b1468800a10a2000b14688001d
:10347000006888000080eb0040728800607288005d
:103480004e2eef00476ea80047eea8000000060091
:10349000baff0700000027004828b70092ff070086
:1034a000ae22ef00b022ef00b422ef00700c20003b
:1034b000e0158800c022ef00c222ef00c422ef0016
:1034c000c622ef001012280060158800200a200094
:1034d00000068800c00020001006880000002500bb
:1034e000200688002080200040068800ca20ef00c7
:1034f000c1e0a800200f20004400b6000050a0004a
:1035000020028800000006000268a9002268a800c6
:1035100000000600007c800000000600007c8000a7
:103520000000e0001100350000e8a30001003200b7
:1035300081cfa9000098a30001003200812fa900cb
:103540000078a3000100320080efa9000068a3000a
:103550000100320080cfa9000048a30001003a001a
:1035600000000600808fa9000000060081efa9007e
:10357000edff3700802fef0000000600ae22ef00c5
:10358000b022ef00b422ef00700c2000e01588009c
:10359000c022ef00c222ef00c422ef00c622ef00db
:1035a000101228006015880000000600900020001e
:1035b000e015880000000600b422ab00feff3a00d0
:1035c0001080fb00c0158800b4a2ab00feff3a00db
:1035d000c015800080487800000006000400fa0052
:1035e0008001eb00e3bf9f00f30f2000f3bf9f00bb
:1035f0000000e0002a0032000002780017002000de
:10360000160020000200e00020003200b422ab00cf
:10361000feff3a000000eb00800178000100e000ae
:103620000e003200b422ab0004003a009482fb008a
:10363000c5158800070242000000e800b4a2ab00f4
:1036400004003a00c51580000549780006014100d4
:103650008301e800810f5000f2ff3900838f500092
:1036600008003600b4a2ab00feff3a00c41580008b
:1036700004497800060141008301e800838f50006f
:10368000f8ff3e000080fa00000006006481570049
:103690000003eb00b422ab00dcff3a00ddff370093
:1036a0000f82e9008003eb00160020000200e0001a
:1036b000d6ff3a00f5ff3700b422ab00feff3a0018
:1036c0000080fb00c0158800b4a2ab00feff3a00ea
:1036d000c015800000000600c0ff3700a015800064
:1036e00000000600889fbe00804478000904e000c6
:1036f000110032000044eb00060ea900001c2e0051
:10370000410e200036080700060ea800001c2e00ff
:10371000410e2000320807000844e80088cf54001a
:10372000f5ff3e0000082f00a12f20002c08070005
:103730004f04be000000060000082f00a12f20004b
:103740002708070000082f00a12f200024080700e9
:103750004f04be0000000600f7ff3700881f780006
:103760000040da00004478000040eb00ddff070075
:1037700030c0b300dbff070008407800d9ff070026
:103780000040eb00d7ff070030c0b300d5ff0700b3
:1037900008407800d3ff0700f3ff370081012000c5
:1037a000060ea9008100e900fdff3a008081fb00c0
:1037b0008000eb000199de00800120000208a300d8
:1037c0000b003200060ea8000000e900fdff3a00e1
:1037d0008100e800e88f5000f6ff3a000003200067
:1037e000060ea8000000e900fdff3a0000000600f8
:1037f000060ea9000000e900f5ff3200060ea90040
:103800000000e900faff3a00f1ff37000400fa0077
:10381000889fbe008a1f78000004be000900e000f7
:10382000160034000af02f000200be00b2bf9f0055
:10383000c3bf9f009b0d0700004c78000a02600088
:103840008002eb004828dd004822de000402700000
:10385000c82ade0014449800214498006304440000
:103860003fb99700cfb9970062014100e08149005c
:10387000e38454004240a900ebff3c004f05780070
:103880004f04be000080fa0000000600889fbe00c2
:103890008a1f780008002100887389002871890038
:1038a0000ac02100fa718900e98f21008040eb00f5
:1038b00080e52200090001008040eb00c0e022000a
:1038c0000900010011c0b30060e2220009000100fc
:1038d00000c02000ff0b0900005ceb000004540056
:1038e00000c02000ff0b0900005deb000005550043
:1038f000a9e1220019057800e555b9000004eb00a4
:103900008a007800c2c0220088017800807081009f
:10391000beff07008a007800c210230088017800eb
:1039200070708100b9ff070099007800c260230021
:103930008801780060708100b4ff07008a00780079
:10394000c2e822008801780050718100afff0700b3
:103950008a007800c2382300880178004071810015
:10396000aaff0700a1718100c268230088017800c6
:1039700030718100a5ff07004f0578004f04be009d
:1039800000000600889fbe0050052000a10a20000c
:10399000220d0700098024000004eb0009007800d4
:1039a000880078004c0d0700f4ff2f00f50f200071
:1039b0000401be000900780088007800540d07005b
:1039c0001b0d07004f04be0000000600064ea900b4
:1039d00020e022001004e000feff320020e0220080
:1039e0000048eb00064ea8000000060011c0b3001e
:1039f00020e022000148780030e022000048eb007f
:103a0000f00f20002070890030708900407089001c
:103a10005070890001e4220080087800117289004a
:103a200020728900e00b200030728900000f200016
:103a3000407289006008200050728900607289001d
:103a40000000eb0070728900e103200081728900a0
:103a500090728900066ea9001e2eef000268a90070
:103a60002268a8000000060000000000000000001e
:103a7000b422ab00feff3a00f00f2000c015880012
:103a8000b4a2ab00feff3a00c015800000000600a3
:103a9000068ea80000000600068ea90000000600a1
:103aa000068ea80011c0b300c0ec220001487800c7
:103ab000000006000400fa00889fbe008a1f7800fc
:103ac00000447800068ea900eaec2200004deb00cd
:103ad000e9cfb300b2bf9f00c3bf9f00e2ff070062
:103ae0003fb99700cfb99700e14f40000b0032007b
:103af0008944e900f7ff3a00068ea80011c0b30020
:103b0000c0ec22000148780000c0eb004f057800af
:103b10004f04be000080fa00000006000840780054
:103b20000064a000b422ab00feff3a000080fb005e
:103b3000c0158800b4a2ab00feff3a00c01580009b
:103b400080012000f000100004003b008100ea002a
:103b5000011ade008002eb00040037008118dd004e
:103b60000012de0004827000801ade0084407800bb
:103b7000b422ab00feff3a008180fb00c115880033
:103b8000b4a2ab00feff3a00c115800068005000ef
:103b9000e80f4000ebff3a0050c9b3000804e00012
:103ba0000400320070082000e84f54000200320088
:103bb00000c0eb000080fb00b422ab00feff3a0027
:103bc000c0158800b4a2ab00feff3a00c01580000b
:103bd000ec4f54000d003200e8cfb300a2ff070005
:103be000004d78000004e000c8ff3d000844e900f3
:103bf000faff3a00068ea80011c0b300c0ec220004
:103c00000148780000c0eb00c0ff370096ff0700b6
:103c1000e8cfb300f1ff370093ff0700e1cfb30017
:103c2000014068000080fb000000e9004f00de005a
:103c3000000006000001be00d0ec220031c0b3003d
:103c400090cf1000040032004918dd00c711de00db
:103c5000830170004911dd0010c1b30095ff07001a
:103c60000004e00004003200068ea80011c0b3007a
:103c7000c0ec220001487800000006000001be00f0
:103c8000d0ec220031c0b30090cf1000040032000d
:103c90004918dd00c711de00830170004911dd0005
:103ca00020c1b30083ff07000004e00004003200dd
:103cb000068ea80011c0b300c0ec220001487800b5
:103cc000000006006011b800c0c0b30079ff070013
:103cd0000004e00004003200068ea80011c0b3000a
:103ce000c0ec220001487800000006005eff0700db
:103cf0005dff0700068ea80000000600881f780000
:103d000002047800cbff0700c0ec22001004e000a2
:103d10000500320050c0b30072fe070050c0b3006f
:103d200070fe0700fbff3700bbff07000004e00048
:103d3000fdff320008017800012020000000eb00a8
:103d400026fe0700e9ff070010c0b3004f0478000b
:103d500000000600881f78008a9fbe00004478009b
:103d60000205be006011b80070c3b30051ff070028
:103d70000a01be00084078004eff07004f05be0054
:103d80004f047800000006000400fa00889fbe007f
:103d90008a9fbe008c1f7800eaec2200004deb00e9
:103da000cbec2200804deb00dcec2200004eeb005f
:103db000ae22ef00b022ef00b422ef00700c200022
:103dc000e0158800c022ef00c222ef00c422ef00fd
:103dd000c622ef001012280060158800068ea80089
:103de000a0c0b300f10f2000b422ab00feff3a00e8
:103df000c1158800b4a2ab00feff3a00c2158000d6
:103e00000040e900f8ff3a00068ea900e9cfb300b0
:103e10006011b8000040eb0026ff07000044780066
:103e2000084d78001b04e00045003a00e14f5400c3
:103e30000c0032008944e900f5ff3a00068ea80024
:103e400011c0b300c0ec2200014878000040eb0034
:103e50004f0678004f05be004f04be000080fa00f8
:103e600000000600a21a20000300200080c0b3005a
:103e700010ff07008044eb000028a300160032006a
:103e8000084e78006000b80090bf9f00a1bf9f005f
:103e9000e8cfb3001fb99700afb9970090c2b30045
:103ea000acff0700004d78001b04e0002b003a0037
:103eb0000004e000290032000844e900f5ff3a0060
:103ec000068ea80011c0b300c0ec220001487800a3
:103ed0000040eb00deff3700e3fe0700004d7800f6
:103ee0008944e800e4cf5400fbff3a00a1cab300c4
:103ef000814f50000a003200068ea80010c0b300a7
:103f0000804d78000040eb004f0678004f05be0062
:103f10004f04be000080fa0000000600d1ff370009
:103f200020c0b300004e78000000200001002400f3
:103f300090bf9f00a1bf9f00e8cfb300d5ff37001f
:103f40000040eb004f0678004f05be004f04be0056
:103f50000080fa0000000600c2ff370021c0b30055
:103f60009ccf100008003200068ea80010c0b300dd
:103f70004f0678004f05be004f04be000080fa00d7
:103f800000000600b7ff37006011b800a0c3b300ff
:103f9000c8fe07000004e000d7ff3a00b2fe0700a9
:103fa00080007800010cb200000c2000808f5000cf
:103fb00006003200acfe0700abfe0700aafe0700b9
:103fc000068ea80010c0b300e9ff370031c0b3006f
:103fd000d0ec220001487800a3fe0700a2fe0700f3
:103fe000a1fe0700f6ff37008276810093768100fc
:103ff000800f5100818f59000400320080768900c3
:104000009176890022c022003cff070020c02200d8
:1040100000000600a4768100b5768100800f520072
:10402000818f5a0003003200a0768900b1768900a2
:1040300032ff07000000060000ed22000098eb00b0
:104040000090eb0040ed22000098eb000090eb00a8
:104050004dff0700804078000040eb000104e000c5
:1040600003003200c0ec2200104078000004a200df
:1040700000000600104190004811dd009080fb0018
:104080000280700000000600304290000482fb00b5
:104090008002eb004829dd00c821de0083017100a9
:1040a0004821dd00204290000482fb008002eb00ea
:1040b00004027100858271004829dd00c821de00fc
:1040c000830171004821dd00104290000482fb0052
:1040d0008002eb0004027100858271004829dd0036
:1040e000c821de00830171004821dd001080fb0043
:1040f0008000eb0000017100818171000200be00b0
:1041000000000600889fbe000004be004948dd0094
:104110004741de0002017000c749de0061e822006d
:1041200031024100a18249000400be00aeff070039
:10413000f807b2004244dd00080040003042900021
:104140000482fb008002eb004829dd00c821de006c
:10415000830171004821dd00204290000482fb00b1
:104160008002eb0004027100858271004829dd00a5
:10417000c821de00830171004821dd00104290005b
:104180000482fb008002eb00040271008582710052
:104190004829dd00c821de00830171004821dd00cf
:1041a0001080fb008000eb00000171008181710034
:1041b000f1ff200083806000020078004f04be0001
:1041c000000006000400fa00889fbe008a9fbe001f
:1041d0008c9fbe0098ff0700804078000040eb00f5
:1041e0000104e0000901320000c022000048eb0099
:1041f000c07f2200c19f22000101780064004000be
:104200000098eb000090eb00e48040008098eb0009
:104210008090eb00820f5000f8ff3a006044b80035
:104220005aa52a006b1424000800be006eff070088
:10423000e11f20008080400070f993004811dd00ec
:104240009180fb00828070008a8f5000ee003a005f
:10425000210520008080400030d190004811dd0011
:104260009180fb00828070008b8f50002400320010
:10427000e21b200000014100a0c093000104e00007
:10428000e100320068004100324990000281fb00e9
:104290008001eb00481add00c812de0085027200c2
:1042a0004812dd00204190000281fb008001eb00fc
:1042b0000201720083817200481add00c812de001c
:1042c000850272004812dd00104190000281fb005f
:1042d0008001eb000201720083817200481cdd0046
:1042e000c814de00890474004814dd001080fb004f
:1042f0008000eb000004740081847400caff370062
:10430000f6004000705190004811dd009180fb00e4
:10431000028170008001eb00e00f5100e08f590036
:104320001f003a0041022000808040007061900030
:104330000281fb008001eb00481add00c812de009c
:10434000850272004812dd00606190000281fb006e
:104350008001eb000201720083817200481add00c7
:10436000c812de00850272004812dd005061900024
:104370000281fb008001eb00020172008381720068
:10438000481add00c812de00850272004812dd0006
:104390001181fb008001eb00020172008381720039
:1043a000005290000482fb008002eb00849bb90065
:1043b0000412b800850243006e0540006f03400000
:1043c0001681fb004811dd009a80fb00828070009e
:1043d00008844000e0844c003874890049748900e6
:1043e000f1004000a0539000c83bdd009180fb002d
:1043f0008783700007748900d0489000e3e72200ab
:1044000080c9eb000104e0000700320000c1eb00ae
:104410000241e80071810a00010000000104e0008f
:10442000fbff3a00824978009380fb0012002000d5
:104430000111dd00d3e7220082497800f3e7220072
:104440008249e900f3014000c0559000c85ddd00dd
:104450001381fb000b0171008001eb00e00f5100a4
:10446000e08f590025003a000b02200080854500ae
:10447000306690000c86fb008006eb004869dd008a
:10448000c861de00830171004861dd0082bf9f00ca
:1044900093bf9f00206690000c86fb008006eb0017
:1044a0000c0671008d8671004869dd00c861de0070
:1044b000830171004861dd0082bf9f0093bf9f00b0
:1044c000106690000c86fb008006eb000c0171006a
:1044d0008d81710082bf9f0093bf9f00481edd0049
:1044e000c816de008d0676004816dd001b81fb0035
:1044f0008001eb0002017600838176009685fb0047
:10450000c85ddd00443bde008003eb001a85fb0044
:104510000b0575000a015100e081590004015100aa
:104520008581590006055100878559007086100065
:1045300004003b000c06ea000c59de008001eb0091
:10454000040037000c5edd000151de000201760040
:104550008159de0062014100e08149001274890046
:1045600023748900c102200080804000706d90009b
:104570000a85fb008005eb00485edd00c856de00c2
:104580008d0676004856dd00606d90000a85fb00c0
:104590008005eb000a0576008b857600485edd001d
:1045a000c856de008d0676004856dd00506d90003e
:1045b0000a85fb008005eb000a0576008b857600f6
:1045c000485edd00c856de008d0676004856dd00e8
:1045d0001185fb008005eb00a0e822000a18760098
:1045e0000b9076000603440087834c00e0e822002d
:1045f0000418430005904b0010c0b300ea0f4100bf
:10460000e08f590001003e000040eb004f06be0065
:104610004f05be004f04be000080fa0000000600f7
:10462000889fbe008a9fbe008c9fbe008e1f7800b0
:104630000004be000dc022001d40e9000074a1006e
:104640000082fb00c220dd000a80220081004500bc
:104650001101be00820f5400838f5c0015003100f1
:104660000040e9000074a100f10720000082fb0077
:104670004221dd00020145001201be00880f5100f9
:10468000898f59000b0036008100e9007500320067
:104690000040e9000074a1000082fb004221dd001f
:1046a000020145001201be00880f5100898f590098
:1046b000f5ff3e00f27489000375890000082000b0
:1046c000040040004200dd00000045001002be0072
:1046d000d4748900e5748900820f5400838f5c00d4
:1046e00057003900d0748100e1748100dce72200ba
:1046f0001c82fb008002eb000201420083814a0021
:10470000820f5400838f5c002e0039001bc0b30061
:10471000eee922007bfe0700d0748900e174890075
:104720001c82fb008002eb003e014200ae814a0089
:10473000f2748900037589000202420083824a00f4
:10474000840f5400858f5c001e0039008b45e80003
:10475000fb43b200efff3a001d4278008482fb0069
:1047600006082000050343004233dd000603450030
:10477000008bbe00c22add0085024500828abe0091
:104780000442e8000474a100844e78005dfe070036
:10479000d0748900e17489001c82fb008002eb0068
:1047a0003e014200ae814a00f2748900037589001f
:1047b0000202420083824a00840f5400858f5c000d
:1047c000e2ff3100f2e72200124264000482fb00a3
:1047d0008002eb00e2e8220032034200a2834a009a
:1047e0000602be0062035000e0835800e0e72200aa
:1047f0009080fb007080100004003b000000ea0085
:104800008031dd000001eb00040037000030de00e5
:104810000131dd008139dd008301700020ea2200d2
:104820000218420003904a0010c0b3004f077800fe
:104830004f06be004f05be004f04be00000006003c
:104840006033b800f674890007758900b074810080
:10485000c1748100d0748900e17489006011b800ce
:10486000a2ff3700f2748100037581009aff3700c0
:10487000e6874700889fbe008a9fbe008c9fbe00cf
:104880008e1f78008006780050748100617481006a
:10489000f0b79f0081bf9f0062015000e081580087
:1048a000e1e722001180fb00f000100004003b0053
:1048b0008100ea008115dd000005eb0004003700ef
:1048c0008110de000015dd00801ddd008b8570008d
:1048d000eee822003e014500ae814d000205be001b
:1048e000800eeb00bd1678000004eb008804780011
:1048f0000cc2b3000a00be00bbfd0700c54cdd00c2
:1049000089044000994078000104e000440032002e
:10491000fbcf400003003200394890008c4f50001c
:10492000470032000804e8000f003200e00f550095
:10493000e08f5d000c003200ef046400edff3a00f0
:1049400061054500e0854d007fb097008fb8970066
:10495000e00f5000e08f58000a003a0001e8220002
:10496000910f5400e3ff39000040eb004f0778003f
:104970004f06be004f05be004f04be006f00b100e1
:1049800000000600c440de00f2e722001280fb00b7
:1049900000806000d7ff3a007fb097008fb8970083
:1049a000d8fd07000001be00f0b79f0081bf9f0047
:1049b00020e82200b00f5100a08f5900eaff31001b
:1049c00062015100e0815900e1e722001180fb0003
:1049d000f000100004003b008100ea008115dd00ba
:1049e0000005eb00040037008110de000015dd003b
:1049f000801ddd008b8570003e014500ae814d00bd
:104a00000205be000200be0077fd0700c54cdd00b8
:104a100089044000994078000104e000bcff3a009e
:104a200010c0b3004f0778004f06be004f05be0010
:104a30004f04be006f00b10000000600d1ff370038
:104a400060e92200d951900033409800c95090008d
:104a5000214098003959900012409800a9599000bf
:104a6000034878007c804400795990000281fb0063
:104a70008001eb00481add00c812de0085027200da
:104a80004812dd00695990000281fb008001eb00b3
:104a90000201720083817200481add00c812de0034
:104aa000850272004812dd00595990000281fb0016
:104ab0008001eb0002027200838272004829dd004f
:104ac000c821de00830171004821dd001080fb0059
:104ad0008000eb00000071008180710090748900fb
:104ae000a17489004409dd004c00de000000710063
:104af000cc08de00808ebe006000b800f074890033
:104b000001758900b2748100c3748100d274890078
:104b1000e374890023e722000a000900b9597800ec
:104b2000b900b10010c0b3004f0778004f06be00b7
:104b30004f05be004f04be006f00b100000006002c
:104b400090ff37009ffd07000004e00005003a00d9
:104b500040c0b300e3fa07009afd07000004e0003c
:104b6000fbff32001000200001002000f0758900da
:104b700001768900a0ec22001004a10020ec2200a4
:104b80003bff07000004e00006003a0030c0b3001d
:104b9000d4fa070020ec220035ff07000004e000f3
:104ba000faff320090002000e015880000000600a7
:104bb0000001780023ea22001300be001400200048
:104bc00005002000841940008591480011fd370040
:104bd000fc874700889fbe008a9fbe008c9fbe0056
:104be0008e1f78001000200001002000f075890061
:104bf00001768900800020000100200088fe070067
:104c00000004e00009003a0040c0b300b5fa070014
:104c100090c2b300b3fa070080002000010020001a
:104c20007ffe07000004e000f7ff3200064ea900f7
:104c300028e022001804e000feff320020e02200fd
:104c40000048eb00064ea80030e022001004e0000f
:104c500006003a00064ea9001804e000feff3200ec
:104c600020e022000048eb00064ea8007070810092
:104c700080bf9f00ceff070080fd2f000f00400087
:104c800010f90700efe4970001202000c210230074
:104c90008001eb0070708100dcfa07008984fb0062
:104ca000d070810000805400d970890041e3220057
:104cb00091084000e1e122009108400081e32200d8
:104cc00091084000b91220007eec22008dec2200f9
:104cd0009cec2200abec22002ae02200064ea90048
:104ce0001804e000feff3200004deb00064ea80065
:104cf0002070810061ec22008048780030708100d3
:104d0000004f780040708100804e78005070810024
:104d1000004e7800e0eb2200a15e210001000100be
:104d20001b80fb000008a30005003a000900e0001a
:104d3000030032008904e900064ea900e8ff3700ad
:104d40004f0778004f06be004f05be004f04be005f
:104d5000cf01b10000000600889fbe008a9fbe0000
:104d60006ae2220030e022001004e000010032007c
:104d7000cae02200ca0d9000f07581000176810022
:104d8000430cdd00cd04de00890474004304dd0023
:104d90000800be0022fe07000004e00006003a0002
:104da00040c0b3004ffa07000800be001cfe070019
:104db0000004e000faff32000b0078007cff0700df
:104dc0000a007800bff807002a0c90000804e900e8
:104dd000060032000b20b0000b00780074ff0700c3
:104de0000b20b0000804e900fbff3a008a007800bd
:104df000e0eb2200720207004f05be004f04be0028
:104e000000000600889fbe008a9fbe008c9fbe00e7
:104e10008e1f78001000200001002000f07589002e
:104e20000176890011c0b300a0ec2200014878008f
:104e30008004eb0028e022007eec22008dec2200b2
:104e40009cec220088057800ca032000064ea900c9
:104e50001804e000feff3200804deb00064ea80073
:104e60008904e8008a8f540010003200060ea80062
:104e70002070810061ec2200804878003070810051
:104e8000004f780040708100804e780050708100a3
:104e9000004e7800e0eb2200a15e2100010001003d
:104ea000adff0700064ea900e9ff3700060ea90076
:104eb0008004eb002070810061ec220080487800c3
:104ec00030708100004f780040708100804e780083
:104ed00050708100004e7800e0eb2200a15e2100be
:104ee000010001009cff0700eeff3700f687470036
:104ef000889fbe008a9fbe008c9fbe008e1f7800d8
:104f0000b2002000c1852b0020e7220023f7070014
:104f10000000e000060032004f0778004f06be0098
:104f20004f05be004f04be006f01b1000000060037
:104f3000c3e8a900000000000000000010c0b3009a
:104f400080ef9f008000eb00b1b79f006fe09700fb
:104f500090ef9f000004e000ad00320001802400cb
:104f60000000eb0001047800800478009274810056
:104f7000a3748100d2b79f00e3b79f000805be006d
:104f80006066b8005fb09700efb09700e00f500088
:104f9000e08f5800800034000c00be00a0fd070028
:104fa0000004e00006003a0020c0b300cdf907007d
:104fb0000c00be009afd07000004e000faff32007a
:104fc0000e0021000e007800f9fe0700fcaf9f00e4
:104fd0008db79f001e01be002e009000be00900005
:104fe00090b79f00a1b79f009fe897000104e000e1
:104ff00034003a0064064400e0864c008a0f5600f4
:105000008b8f5e000f0036000a00be00f2b79f00d3
:1050100083bf9f00b00707007fb197008fb997004b
:105020000004e0004e00320000802000010020005b
:105030000a0540008b8548008a0f56008b8f5e0062
:10504000f1ff3e001fb29700afb297000800be000c
:10505000af0707000004e000410032000c04be006e
:105060005fb09700efb0970068005000e0805800f4
:10507000d0b79f00e1b79f00e00f5000e08f5800cd
:105080002d003400f1ef2a00810f5600e08f5e0002
:1050900033003e00821f2100820f5700260032009d
:1050a000680747001e01be002e009000be00900061
:1050b00090b79f00a1b79f009fe897000104e00010
:1050c000ccff32000800be00f2b79f0083bf9f00f4
:1050d000740707007fb197008fb99700820f5000c7
:1050e000838f58001e003a0062004400e0804c00ac
:1050f0006c0707001fb19700afb19700820f5000f7
:10510000838f580016003a0064064400e0864c0085
:105110000c04be005fb09700efb09700680050002d
:10512000e0805800d0b79f00e1b79f00e00f50002b
:10513000e08f5800d3ff3c007fae97008fb69700fa
:1051400061064600e0864e005fb09700efb0970022
:10515000e00f5000e08f58008fff3c000e0037003a
:1051600008fa07000040eb005ef9070030c0b3000a
:105170005cf9070030c0b3005af907000040eb00ab
:1051800058f9070030c0b30056f9070030c0b3002b
:1051900054f90700f3ff37009fe897000104e0008f
:1051a000100032000fe99700e14f51000e00360069
:1051b0000040eb004bf9070020c0b30049f907009d
:1051c00020c0b30047f907000040eb0045f9070095
:1051d00020c0b30043f9070020c0b30041f9070025
:1051e000f3ff3700120707003fb197000201e80004
:1051f000b2b79f008fe997008341e80083ef9f00db
:105200006fe0970090ef9f000004e00053ff3a002a
:1052100050052000a10a200000070700018024009b
:105220000000eb0001047800800478009274810093
:10523000a3748100d2b79f00e3b79f000805be00aa
:105240006066b8004fff37008000eb0031758900c1
:1052500041758900517589006000200060758900e2
:1052600070758900100020008075890022eb2200f3
:105270000149780031eb22008048eb00f10f20005b
:10528000a175890062eb22000049780072eb2200d0
:105290000049780082eb220000497800d17589002e
:1052a000e17589000000060079f8070000802400fd
:1052b0008000eb00fb060700f2ff2f00f30f200039
:1052c000820f5000838f580015003200020020002a
:1052d00063002000820f5000838f580010003200be
:1052e000210eab0002003a00212eab0002003a0072
:1052f0002080240000040100a2f9070040c0b30090
:10530000f8f8070040c0b300f6f8070040c0b3004b
:10531000f4f8070040c0b300f2f80700f7ff3700c9
:10532000b2f9070059f9070006fe0700effe070073
:10533000c5ff070026fe0700b2fe070000000500bb
:10534000c04990000381fb000218a3000e00320048
:105350000314a1004348980003cf2b0011089000cc
:10536000b10090000000e000060032001181fb0057
:105370006f01610002814100925878000000e9004d
:10538000faff3a00000006000228a30008003200dd
:105390000324a1004348980003cf2b00110890007c
:1053a000b10090000000e000f0ff3a00f5ff370088
:1053b00003cf2b000208a300e8ff320060758100d4
:1053c0000000400002da2b0000004100900178004c
:1053d00011089000b10090000000e000e3ff3a00e7
:1053e000e8ff3700889fbe008a9fbe0010489000eb
:1053f000f3c0b3000038a3000100320080c1eb000d
:105400007102900084427800e520b90026f92f004f
:105410000003430047fc2f00808343004075810058
:105420000000e0008500320082ea22000009e90065
:10543000f642520030758100e10f5000d500320075
:105440006075810061519000a8932b000204e00078
:10545000b000320082c2b3000440bc0089b32b000c
:10546000890441001100900006004000a2f92f00bd
:105470006d00090002587800e006b1007602520083
:105480001102420015000900005aeb006401b1004e
:1054900021009000060040004500090038587800bf
:1054a0006004b1006804b10071009000e500b9002b
:1054b0008002b10021019000000041002700090096
:1054c000395878008002b1008902b10011019000c2
:1054d0008582fb00e528b9000000e0000c003200e6
:1054e000e9ea220068db2b000bcfb3001242780000
:1054f0006f056200190545000a0544000b42620071
:105500001a42720004d961000000e900f7ff3a0076
:10551000110078000500e0000c003200e9ea2200ea
:1055200068db2b000acfb300104178006f026100e6
:1055300019024200040244000a4161001441710052
:1055400002d861008502e900f7ff3a00710190007e
:10555000615090000004e00051003200e510b900f5
:105560001101900000014100650151000049eb006c
:105570001101900000014100640151000049eb005d
:105580001101900000014100630151000049eb004e
:1055900011019000000141000281e9000049eb0087
:1055a00011019000000041000000e9000048eb00fc
:1055b000110078000048eb00507581000000e00009
:1055c0000c003200615090000004e00048003200fe
:1055d000e583530021009000070040000048eb00e5
:1055e0000068eb000068eb000068eb000041eb0096
:1055f00012409800407581000000e0000c0032006d
:10560000615090000004e000300032006503530058
:1056100021009000060040000048eb000068eb000d
:105620000068eb000068eb008040eb001140980040
:105630004f05be004f04be000000060050758100fb
:105640000000e000a1ff3200a2ea22000009e90008
:10565000ec42520021009000070040000109900038
:105660003b00090032587800c003b100c203b1000a
:105670001100900007004000a2f92f003b00090034
:1056800002587800c003b1006c00520011004000c5
:105690000b0009000058eb00c000b1008bff370081
:1056a000110190000049780011019000104198000c
:1056b00011019000204198001101900030419800a4
:1056c0001101900040419800b9ff3700210090007f
:1056d000060040000048eb000068eb000068eb00ab
:1056e0000068eb008040eb0011409800d0ff3700cd
:1056f00021009000070040000048eb000068eb002c
:105700000068eb000068eb000041eb0012409800dd
:10571000b8ff3700488f2b0082c2b3000440bc00a2
:1057200009982b00890441001100900006004000f8
:10573000a2f92f006d00090002587800e006b100c0
:10574000760252001102420015000900005aeb00d7
:105750006401b100210090000600400045000900ee
:10576000385878006004b1006804b10071009000fe
:10577000e500b9008002b100210190000000410065
:1057800027000900395878008002b1008902b10071
:105790004eff37007075810061519000e88a2b0040
:1057a0000204e0002bff3a0088862b0082c2b3007f
:1057b0000440bc0009982b0089044100daff37003f
:1057c000889fbe000004be000800be00dcfe07008b
:1057d0000800be0003ff07004f04be0000000600e3
:1057e000f03fb1000180b10006003500ee03090072
:1057f00000000000403fb1000180b100fbff3d0010
:105800001000b000203fb000020035000080090009
:1058100000000000000006000100c0003ed91f008b
:10582000c1f80f00fb1f01000000f1006c86f000c2
:10583000ff071f00e73e8d00f83f8300f07fff0069
:10584000e0fcfe00ff0e0f00d8f0370077debf004f
:105850007b07ef003907e000fe0ffc007fff7e00b2
:10586000c7dff1003f03f000c7f83f00f7f7030080
:1058700037ffff00638cff00fffa9c00e3bfff00cf
:10588000ff716700fffffc007773bf00ffff73002d
:105890009dffff00fa9c9c003fffff00cc99ff009a
:1058a000fffadc00987fff00ffcc6600fffffc00e2
:1058b00067777f00ffff3100c6ffff00fc277700fe
:1058c0007fffff003bc6ff00fffc2700d8ffff0063
:1058d000ffc6cd00fffffe0027d8ff00ffffe60058
:1058e00033ffff00fed8d800ffffff0066cdff00aa
:1058f000ffffa600d8ffff00ff667600fffffe0057
:10590000d92fff00ffffdd0001ffff00ffc9d0001e
:10591000ffffff00b693ff00ffff36002effff00e2
:10592000ffcc0300ffffff00962eff00ffff6e007d
:1059300003ffff00ff162e00ffffff0080f8ff00af
:10594000fff0ff00ff9fff00f03f0700ffffff0099
:10595000a97fff00fff0f60003ffff00ff617f005b
:10596000cffff000ff33ff00ffffe9005dc7ff003e
:10597000f0f2a100ffffff00f57dc700fffbfb0079
:1059800021feff00fe755d00873ff0000f60f8000c
:105990000cfc75007b871e00f00f6000f00cf80017
:1059a000f77e83008ff08700e0e00500f0b3f6009b
:1059b00003cff00086e0e00001f0bb00bd03cf00a4
:1059c000f086c000e083f0005b750300eff0070095
:1059d000c0e08300f07b790001eff00007c0e00039
:1059e00083f02d004341ef00f07fd000e0c7f000ce
:1059f0009f47c100cff0f70098e0c700f003870091
:105a0000c19ff000ef98f000e7f8c3000fc03f001f
:105a1000f00fbd00f8effc00e11fe1007ff13f0057
:105a2000bfffff00fef11f00f8ffff00ffff3f0078
:105a3000ffcff1001ff0ff00ffffff001fff8f00ef
:105a4000f31fe100ffffff00ffffff000ff31f0048
:105a5000c1fffe00ffffff00fc0323000fc1810018
:105a60004efdff00fff80700f7cf8100300eff006a
:105a7000fffff8000fe39f0081f03f00ffffff00f2
:105a8000f80f0700df8180003fffff00fff80f00e5
:105a9000efb78100107fff00fffef8000fe3ff006b
:105aa00083107f00fffffe00f80fb700ff8110009a
:105ab0007fffff00fef80f0087ff8100107fff00cf
:105ac000fffef8000943cf00c1107f00ffff9e00da
:105ad000f80b7700f7e110007fffff003ff80300ad
:105ae00057fff000807fff003f7ffc0087fffe0034
:105af000ffffff0007f0ff00fff8ff00ffffff00c0
:105b0000ff03ff00ffffff00fcffff00ffff070098
:105b1000f0ffff00f0ff3d00ffffff00fc7fff00f4
:105b2000ffff0300ff1fff00ff0f7f00ffffff00cd
:105b3000f4c3ff00fffffc003fffff00ffcbff00af
:105b40003fffff00073fff00ffffa40089ffff00aa
:105b5000fffb80000000000021ffff00fffffd00b1
:105b60000000000000000000000000000000000035
:105b70000000010000000000000000000000000024
:105b80000fe000000000000000000000007ff800af
:105b900000000000007000000000ff00f80000009e
:105ba00000f8ff0000000700fffc80000000fc0080
:105bb000ff0000000ffffd00c3001e00fcfff80007
:105bc000801fff00fdc71f00fffdff00fce19f00dd
:105bd000fffdef003ffffd00fffef300bff60000fa
:105be000ef7fff00fc3ffe00f3bf030000ef7f00ec
:105bf000ffc89d00fffb9b000780ef007ffffc00bc
:105c0000c2defb00980fc300cf7ffb001ffcff002c
:105c1000fb019f00c700000000fffe0000fb030027
:105c20009fef0f00ec0fff00fff0c000c7ffaf00b9
:105c30001f1fff00fffffc00e0e7ff00ffbf7f002a
:105c4000ffffff00fef9ef00ffffbf007ffffa003c
:105c5000fffef900efd8ff00bfffff00e8f4fe00f1
:105c6000f9edff00fc3fff00ff00d200da69000001
:105c70007f1c3f00ffff0300c0fffb00fee13f0071
:105c8000007ffd003ff0e400e100f1007f3fff00f6
:105c9000fffffc00e0e0e000fb7f3f001f3fff0054
:105ca000fcf0e000f9fbff007f3f7f00fffef80003
:105cb000f8f9fb007fffff00fffffe00fcf8f90092
:105cc0009b5fff00ffffff00fffcfd00fd00ff00ea
:105cd000ffffff009fff0000fd9fff00bf00b70018
:105ce000fbfff900fb4fff003cf8ff00fffff8004f
